{"abi":[{"type":"constructor","inputs":[{"name":"initialFeeBasisPoints","type":"uint256","internalType":"uint256"}],"stateMutability":"nonpayable"},{"type":"receive","stateMutability":"payable"},{"type":"function","name":"BASIS_POINTS","inputs":[],"outputs":[{"name":"","type":"uint256","internalType":"uint256"}],"stateMutability":"view"},{"type":"function","name":"MAX_BATCH_SIZE","inputs":[],"outputs":[{"name":"","type":"uint256","internalType":"uint256"}],"stateMutability":"view"},{"type":"function","name":"MAX_FEE_BASIS_POINTS","inputs":[],"outputs":[{"name":"","type":"uint256","internalType":"uint256"}],"stateMutability":"view"},{"type":"function","name":"acceptOwnership","inputs":[],"outputs":[],"stateMutability":"nonpayable"},{"type":"function","name":"balanceERC20","inputs":[{"name":"token","type":"address","internalType":"address"}],"outputs":[{"name":"","type":"uint256","internalType":"uint256"}],"stateMutability":"view"},{"type":"function","name":"balanceEth","inputs":[],"outputs":[{"name":"","type":"uint256","internalType":"uint256"}],"stateMutability":"view"},{"type":"function","name":"batchWithdrawERC20","inputs":[{"name":"token","type":"address","internalType":"address"},{"name":"to","type":"address[]","internalType":"address[]"},{"name":"amounts","type":"uint256[]","internalType":"uint256[]"}],"outputs":[],"stateMutability":"nonpayable"},{"type":"function","name":"batchWithdrawEth","inputs":[{"name":"to","type":"address[]","internalType":"address[]"},{"name":"amounts","type":"uint256[]","internalType":"uint256[]"}],"outputs":[],"stateMutability":"nonpayable"},{"type":"function","name":"calculateNetAmount","inputs":[{"name":"amount","type":"uint256","internalType":"uint256"}],"outputs":[{"name":"netAmount","type":"uint256","internalType":"uint256"},{"name":"fee","type":"uint256","internalType":"uint256"}],"stateMutability":"view"},{"type":"function","name":"depositERC20","inputs":[{"name":"token","type":"address","internalType":"address"},{"name":"amount","type":"uint256","internalType":"uint256"}],"outputs":[],"stateMutability":"nonpayable"},{"type":"function","name":"emergencyWithdraw","inputs":[{"name":"token","type":"address","internalType":"address"},{"name":"to","type":"address","internalType":"address"},{"name":"amount","type":"uint256","internalType":"uint256"}],"outputs":[],"stateMutability":"nonpayable"},{"type":"function","name":"getTimelockEnd","inputs":[],"outputs":[{"name":"","type":"uint256","internalType":"uint256"}],"stateMutability":"view"},{"type":"function","name":"getTotalFeesCollected","inputs":[{"name":"token","type":"address","internalType":"address"}],"outputs":[{"name":"","type":"uint256","internalType":"uint256"}],"stateMutability":"view"},{"type":"function","name":"isLocked","inputs":[],"outputs":[{"name":"","type":"bool","internalType":"bool"}],"stateMutability":"view"},{"type":"function","name":"isPaused","inputs":[],"outputs":[{"name":"","type":"bool","internalType":"bool"}],"stateMutability":"view"},{"type":"function","name":"owner","inputs":[],"outputs":[{"name":"","type":"address","internalType":"address"}],"stateMutability":"view"},{"type":"function","name":"pause","inputs":[],"outputs":[],"stateMutability":"nonpayable"},{"type":"function","name":"pendingOwner","inputs":[],"outputs":[{"name":"","type":"address","internalType":"address"}],"stateMutability":"view"},{"type":"function","name":"setTimelock","inputs":[{"name":"delaySeconds","type":"uint256","internalType":"uint256"}],"outputs":[],"stateMutability":"nonpayable"},{"type":"function","name":"setWithdrawalFee","inputs":[{"name":"newFeeBasisPoints","type":"uint256","internalType":"uint256"}],"outputs":[],"stateMutability":"nonpayable"},{"type":"function","name":"timelockEnd","inputs":[],"outputs":[{"name":"","type":"uint256","internalType":"uint256"}],"stateMutability":"view"},{"type":"function","name":"totalFeesCollected","inputs":[{"name":"","type":"address","internalType":"address"}],"outputs":[{"name":"","type":"uint256","internalType":"uint256"}],"stateMutability":"view"},{"type":"function","name":"transferOwnership","inputs":[{"name":"newOwner","type":"address","internalType":"address"}],"outputs":[],"stateMutability":"nonpayable"},{"type":"function","name":"unpause","inputs":[],"outputs":[],"stateMutability":"nonpayable"},{"type":"function","name":"withdrawERC20","inputs":[{"name":"token","type":"address","internalType":"address"},{"name":"to","type":"address","internalType":"address"},{"name":"amount","type":"uint256","internalType":"uint256"}],"outputs":[],"stateMutability":"nonpayable"},{"type":"function","name":"withdrawEth","inputs":[{"name":"to","type":"address","internalType":"address"},{"name":"amount","type":"uint256","internalType":"uint256"}],"outputs":[],"stateMutability":"nonpayable"},{"type":"function","name":"withdrawFees","inputs":[{"name":"token","type":"address","internalType":"address"},{"name":"to","type":"address","internalType":"address"}],"outputs":[],"stateMutability":"nonpayable"},{"type":"function","name":"withdrawalFeeBasisPoints","inputs":[],"outputs":[{"name":"","type":"uint256","internalType":"uint256"}],"stateMutability":"view"},{"type":"event","name":"BatchWithdrawal","inputs":[{"name":"to","type":"address","indexed":true,"internalType":"address"},{"name":"token","type":"address","indexed":false,"internalType":"address"},{"name":"amount","type":"uint256","indexed":false,"internalType":"uint256"},{"name":"fee","type":"uint256","indexed":false,"internalType":"uint256"},{"name":"timestamp","type":"uint256","indexed":false,"internalType":"uint256"}],"anonymous":false},{"type":"event","name":"ERC20Deposited","inputs":[{"name":"token","type":"address","indexed":true,"internalType":"address"},{"name":"sender","type":"address","indexed":true,"internalType":"address"},{"name":"amount","type":"uint256","indexed":false,"internalType":"uint256"}],"anonymous":false},{"type":"event","name":"ERC20Withdrawn","inputs":[{"name":"token","type":"address","indexed":true,"internalType":"address"},{"name":"to","type":"address","indexed":true,"internalType":"address"},{"name":"amount","type":"uint256","indexed":false,"internalType":"uint256"},{"name":"fee","type":"uint256","indexed":false,"internalType":"uint256"}],"anonymous":false},{"type":"event","name":"ETHDeposited","inputs":[{"name":"sender","type":"address","indexed":true,"internalType":"address"},{"name":"amount","type":"uint256","indexed":false,"internalType":"uint256"}],"anonymous":false},{"type":"event","name":"ETHWithdrawn","inputs":[{"name":"to","type":"address","indexed":true,"internalType":"address"},{"name":"amount","type":"uint256","indexed":false,"internalType":"uint256"},{"name":"fee","type":"uint256","indexed":false,"internalType":"uint256"}],"anonymous":false},{"type":"event","name":"EmergencyWithdraw","inputs":[{"name":"token","type":"address","indexed":false,"internalType":"address"},{"name":"to","type":"address","indexed":false,"internalType":"address"},{"name":"amount","type":"uint256","indexed":false,"internalType":"uint256"}],"anonymous":false},{"type":"event","name":"FeeUpdated","inputs":[{"name":"oldFee","type":"uint256","indexed":false,"internalType":"uint256"},{"name":"newFee","type":"uint256","indexed":false,"internalType":"uint256"}],"anonymous":false},{"type":"event","name":"FeesWithdrawn","inputs":[{"name":"token","type":"address","indexed":true,"internalType":"address"},{"name":"to","type":"address","indexed":true,"internalType":"address"},{"name":"amount","type":"uint256","indexed":false,"internalType":"uint256"}],"anonymous":false},{"type":"event","name":"OwnershipTransferInitiated","inputs":[{"name":"currentOwner","type":"address","indexed":true,"internalType":"address"},{"name":"pendingOwner","type":"address","indexed":true,"internalType":"address"}],"anonymous":false},{"type":"event","name":"OwnershipTransferred","inputs":[{"name":"previousOwner","type":"address","indexed":true,"internalType":"address"},{"name":"newOwner","type":"address","indexed":true,"internalType":"address"}],"anonymous":false},{"type":"event","name":"PausedStatus","inputs":[{"name":"account","type":"address","indexed":false,"internalType":"address"}],"anonymous":false},{"type":"event","name":"TimelockSet","inputs":[{"name":"unlockTime","type":"uint256","indexed":false,"internalType":"uint256"}],"anonymous":false},{"type":"event","name":"Unpaused","inputs":[{"name":"account","type":"address","indexed":false,"internalType":"address"}],"anonymous":false},{"type":"error","name":"BatchTooLarge","inputs":[]},{"type":"error","name":"FeeTooHigh","inputs":[]},{"type":"error","name":"InsufficientBalance","inputs":[{"name":"available","type":"uint256","internalType":"uint256"},{"name":"requested","type":"uint256","internalType":"uint256"}]},{"type":"error","name":"InvalidAmount","inputs":[]},{"type":"error","name":"NotPaused","inputs":[]},{"type":"error","name":"Paused","inputs":[]},{"type":"error","name":"ReentrancyLock","inputs":[]},{"type":"error","name":"TimelockActive","inputs":[{"name":"unlockTime","type":"uint256","internalType":"uint256"}]},{"type":"error","name":"TransferFailed","inputs":[]},{"type":"error","name":"Unauthorized","inputs":[]},{"type":"error","name":"ZeroAddress","inputs":[]},{"type":"error","name":"ZeroFees","inputs":[]}],"bytecode":{"object":"0x60803461008b57601f611d8638819003918201601f19168301916001600160401b0383118484101761008f5780849260209460405283398101031261008b57516103e88111610079575f80546001600160a01b031916331790556002556001805461ffff60a01b19169055604051611ce290816100a48239f35b60405163cd4e616760e01b8152600490fd5b5f80fd5b634e487b7160e01b5f52604160045260245ffdfe608060409080825260049081361015610053575b5050361561001f575f80fd5b610027611c25565b513481527f6c703791f399558807424f489ccd811c72b4ff0b74af547264fad7c646776df060203392a2005b5f3560e01c908163038de77e146119725750806307ad24d614610e985780630f4ac71a146118be5780631b9a91a4146117125780631e891c0a146116b45780633f4ba83a1461161257806344004cc1146113785780634befe2ca1461135c57806355640873146113245780635cdad9c214611342578063694d66351461132457806379ba5097146112705780638456cb59146111b8578063877b3e3814610edb57806388a40eed14610e985780638da5cb5b14610e6557806397feb92614610d195780639dc5dbd614610908578063a4e2d634146108e8578063ac1e502514610863578063b187bd261461083d578063bdab6fc614610813578063cfdbf254146107f8578063e1f1c4a7146107dc578063e30c3978146107a8578063e63ea40814610484578063f2555278146102535763f2fde38b146101935780610013565b3461024f57602060031936011261024f576101ac61198c565b906101b5611b9d565b73ffffffffffffffffffffffffffffffffffffffff809216928315610229575050817fffffffffffffffffffffffff000000000000000000000000000000000000000060015416176001555f54167fb150023a879fd806e3599b6ca8ee3b60f0e360ab3846d128d67ebce1a391639a5f80a3005b517fd92e233d000000000000000000000000000000000000000000000000000000008152fd5b5f80fd5b50903461024f578060031936011261024f5761026d61198c565b906024359073ffffffffffffffffffffffffffffffffffffffff8083169384840361024f5761029a611b9d565b6102a2611c5e565b841561045c571691825f52602091858352805f2054918215610434575f85815287855282812055838386610367575f8093508092508091895af16102e4611aca565b501561033f577f5e110f8bc8a20b65dcc87f224bdf1cc039346e267118bae2739847f07321ffa8939495505b51908152a3600180547fffffffffffffffffffff00ffffffffffffffffffffffffffffffffffffffffff169055005b8590517f90b8ec18000000000000000000000000000000000000000000000000000000008152fd5b83517fa9059cbb00000000000000000000000000000000000000000000000000000000815273ffffffffffffffffffffffffffffffffffffffff90931689840190815260208101919091528290819060400103815f895af190811561042a575f916103fd575b501561033f577f5e110f8bc8a20b65dcc87f224bdf1cc039346e267118bae2739847f07321ffa893949550610310565b61041d9150843d8611610423575b6104158183611a22565b810190611b27565b5f6103cd565b503d61040b565b82513d5f823e3d90fd5b8682517f4716db35000000000000000000000000000000000000000000000000000000008152fd5b8583517fd92e233d000000000000000000000000000000000000000000000000000000008152fd5b503461024f57610493366119af565b93909261049e611b9d565b6104a6611c5e565b73ffffffffffffffffffffffffffffffffffffffff808516908115610780578615610758578416806105d85750478087116105a357505f80808881945af16104ec611aca565b501561057c57507ff24ef89f38eadc1bde50701ad6e4d6d11a2dc24f7cf834a486991f38833285049361054f915b519384938460409194939294606082019573ffffffffffffffffffffffffffffffffffffffff80921683521660208201520152565b0390a1600180547fffffffffffffffffffff00ffffffffffffffffffffffffffffffffffffffffff169055005b90517f90b8ec18000000000000000000000000000000000000000000000000000000008152fd5b86915060449351927fcf4791810000000000000000000000000000000000000000000000000000000084528301526024820152fd5b83517f70a082310000000000000000000000000000000000000000000000000000000081523084820152602092508281602481855afa90811561074e575f91610721575b508088116106ec575081845180927fa9059cbb000000000000000000000000000000000000000000000000000000008252815f816106808d8d8b84016020909392919373ffffffffffffffffffffffffffffffffffffffff60408201951681520152565b03925af19182156106e2575f926106c5575b50501561057c57507ff24ef89f38eadc1bde50701ad6e4d6d11a2dc24f7cf834a486991f38833285049361054f9161051a565b6106db9250803d10610423576104158183611a22565b5f80610692565b84513d5f823e3d90fd5b83886044928751927fcf4791810000000000000000000000000000000000000000000000000000000084528301526024820152fd5b90508281813d8311610747575b6107388183611a22565b8101031261024f57515f61061c565b503d61072e565b85513d5f823e3d90fd5b8284517f2c5211c6000000000000000000000000000000000000000000000000000000008152fd5b8284517fd92e233d000000000000000000000000000000000000000000000000000000008152fd5b823461024f575f60031936011261024f5760209073ffffffffffffffffffffffffffffffffffffffff600154169051908152f35b823461024f575f60031936011261024f57602090516127108152f35b823461024f575f60031936011261024f576020905160648152f35b503461024f57602060031936011261024f5735612710600254820204808351920382526020820152f35b823461024f575f60031936011261024f5760209060ff60015460a01c1690519015158152f35b50903461024f57602060031936011261024f578135610880611b9d565b6103e881116108c1577f528d9479e9f9889a87a3c30c7f7ba537e5e59c4c85a37733b16e57c62df613029250600254908060025582519182526020820152a1005b50517fcd4e6167000000000000000000000000000000000000000000000000000000008152fd5b823461024f575f60031936011261024f5760209060035442109051908152f35b503461024f57606091606060031936011261024f5761092561198c565b67ffffffffffffffff939060243585811161024f5761094790369086016119f1565b93909560443590811161024f5761096190369087016119f1565b9261096a611b9d565b610972611be7565b61097a611c25565b610982611c5e565b85158015610d0f575b8015610d05575b610cdd575f955f5b89828210610c31575050612710986002988a6002548a02049a73ffffffffffffffffffffffffffffffffffffffff8095169b8c9a8851809c7f70a08231000000000000000000000000000000000000000000000000000000008252308683015260209d8e91815a91602492fa908115610c27575f91610bfa575b50808211610bc55750508c5f52828b52610a32885f20918254611a90565b90555f5b848110610a6757600180547fffffffffffffffffffff00ffffffffffffffffffffffffffffffffffffffffff169055005b8885610b038f8f8f918d5f8a8f610aa88b8f9792610a9e8f83908f96610a9183610aad9987611b3f565b35905402049e8f93611b3f565b35039a8b98611b3f565b611b7c565b9251968795869485937fa9059cbb00000000000000000000000000000000000000000000000000000000855284016020909392919373ffffffffffffffffffffffffffffffffffffffff60408201951681520152565b03925af1908115610bbb578e5f92610b9e575b505015610b76577fbd55ad2e1fe31dd53c35214c24df490c6dee406704d8d431f91daa22e62409478f6080908f938f90958e88978e610b5d8f8f9c610aa89160019e611b3f565b169782519586528501528301524290820152a201610a36565b848a517f90b8ec18000000000000000000000000000000000000000000000000000000008152fd5b610bb49250803d10610423576104158183611a22565b5f8e610b16565b8b513d5f823e3d90fd5b60449185918b51927fcf4791810000000000000000000000000000000000000000000000000000000084528301526024820152fd5b90508c81813d8311610c20575b610c118183611a22565b8101031261024f57515f610a14565b503d610c07565b8a513d5f823e3d90fd5b610c57610aa8838573ffffffffffffffffffffffffffffffffffffffff949c959c611b3f565b1615610cb557610c68888786611b3f565b3515610c8d57610c86600191610c7f8a8988611b3f565b3590611a90565b970161099a565b8885517f2c5211c6000000000000000000000000000000000000000000000000000000008152fd5b8885517fd92e233d000000000000000000000000000000000000000000000000000000008152fd5b8683517f0b7d62e2000000000000000000000000000000000000000000000000000000008152fd5b5060648611610992565b508386141561098b565b503461024f578160031936011261024f57610d3261198c565b9173ffffffffffffffffffffffffffffffffffffffff60243593610d54611c25565b16918215610e3e578315610e175781517f23b872dd000000000000000000000000000000000000000000000000000000008152338282019081523060208281019190915260408201879052908290819060600103815f885af1908115610e0d575f91610dee575b501561057c5750519182527fe33e9822e3317b004d587136bab2627ea1ecfbba4eb79abddd0a56cfdd09c0e160203393a3005b610e07915060203d602011610423576104158183611a22565b5f610dbb565b83513d5f823e3d90fd5b90517f2c5211c6000000000000000000000000000000000000000000000000000000008152fd5b90517fd92e233d000000000000000000000000000000000000000000000000000000008152fd5b823461024f575f60031936011261024f5760209073ffffffffffffffffffffffffffffffffffffffff5f54169051908152f35b50903461024f57602060031936011261024f5760209173ffffffffffffffffffffffffffffffffffffffff610ecb61198c565b165f528252805f20549051908152f35b503461024f578160031936011261024f5767ffffffffffffffff90803582811161024f57610f0c90369083016119f1565b93909260243590811161024f57610f2690369084016119f1565b9190610f30611b9d565b610f38611be7565b610f40611c25565b610f48611c5e565b851580156111ae575b80156111a4575b61117c575f955f5b8181106110d9575061271095600292876002548a020498478082116110a45750505f805260209887602052610f99865f20918254611a90565b90555f5b838110610fce57600180547fffffffffffffffffffff00ffffffffffffffffffffffffffffffffffffffffff169055005b88610fda828985611b3f565b358654020480610feb838a86611b3f565b35039073ffffffffffffffffffffffffffffffffffffffff5f8080808685611017610aa88b8f8f611b3f565b165af1611022611aca565b501561107c5760808d8594937fbd55ad2e1fe31dd53c35214c24df490c6dee406704d8d431f91daa22e624094793611060610aa86001998d8d611b3f565b16948c51925f84528301528b820152426060820152a201610f9d565b8a89517f90b8ec18000000000000000000000000000000000000000000000000000000008152fd5b60449189918851927fcf4791810000000000000000000000000000000000000000000000000000000084528301526024820152fd5b9673ffffffffffffffffffffffffffffffffffffffff6110fd610aa88a858b611b3f565b16156111545761110e888685611b3f565b351561112c57611125600191610c7f8a8887611b3f565b9701610f60565b8584517f2c5211c6000000000000000000000000000000000000000000000000000000008152fd5b8584517fd92e233d000000000000000000000000000000000000000000000000000000008152fd5b8382517f0b7d62e2000000000000000000000000000000000000000000000000000000008152fd5b5060648611610f58565b5082861415610f51565b50903461024f575f60031936011261024f576111d2611b9d565b6001549160ff8360a01c16611249577f9c6d68ed64ccfb8ac927cb6e974d3e1e745c0b91e2bf639d33a23c320b9a151f602083740100000000000000000000000000000000000000007fffffffffffffffffffffff00ffffffffffffffffffffffffffffffffffffffff87161760015551338152a1005b90517f9e87fac8000000000000000000000000000000000000000000000000000000008152fd5b503461024f575f60031936011261024f5760015473ffffffffffffffffffffffffffffffffffffffff91828216938433036112fe5750505f54907fffffffffffffffffffffffff00000000000000000000000000000000000000009084828416175f5516600155167f8be0079c531659141344cd1fd0a4f28419497f9722a3daafe3b4186f6b6457e05f80a3005b517f82b42900000000000000000000000000000000000000000000000000000000008152fd5b823461024f575f60031936011261024f576020906003549051908152f35b823461024f575f60031936011261024f5751478152602090f35b823461024f575f60031936011261024f57602090516103e88152f35b50903461024f57611388366119af565b929091611393611b9d565b61139b611be7565b6113a3611c25565b6113ab611c5e565b73ffffffffffffffffffffffffffffffffffffffff8084169485156115ea5780156115c257612710600254820204918282039316948451917f70a08231000000000000000000000000000000000000000000000000000000008352308984015260209283816024818b5afa9081156115b8575f9161158b575b50808211611556575050818461149f92885f528a8352875f20611448878254611a90565b9055875193849283927fa9059cbb0000000000000000000000000000000000000000000000000000000084528d84016020909392919373ffffffffffffffffffffffffffffffffffffffff60408201951681520152565b03815f8a5af190811561074e575f91611539575b5015611511577f87e80e548214a9e2270c7c3a59603536e04ae26379430baa2a00f1d7058ccb07949596508351928352820152a3600180547fffffffffffffffffffff00ffffffffffffffffffffffffffffffffffffffffff169055005b8684517f90b8ec18000000000000000000000000000000000000000000000000000000008152fd5b6115509150823d8411610423576104158183611a22565b5f6114b3565b6044918a918851927fcf4791810000000000000000000000000000000000000000000000000000000084528301526024820152fd5b90508381813d83116115b1575b6115a28183611a22565b8101031261024f57515f611424565b503d611598565b87513d5f823e3d90fd5b8684517f2c5211c6000000000000000000000000000000000000000000000000000000008152fd5b8684517fd92e233d000000000000000000000000000000000000000000000000000000008152fd5b50903461024f575f60031936011261024f5761162c611b9d565b6001549160ff8360a01c161561168d577f5db9ee0a495bf2e6ff9c91a7834c1ba4fdd244a5e8aa4e537bd38aeae4b073aa6020837fffffffffffffffffffffff00ffffffffffffffffffffffffffffffffffffffff861660015551338152a1005b90517f6cd60201000000000000000000000000000000000000000000000000000000008152fd5b50903461024f57602060031936011261024f578135916116d2611b9d565b8215610e17577f980b903efea70e6b1bd235b1fb05f1a5da73cbd478b73c9538053f9eb29f129f6020836117068642611a90565b908160035551908152a1005b50903461024f578060031936011261024f5761172c61198c565b9073ffffffffffffffffffffffffffffffffffffffff6024359261174e611b9d565b611756611be7565b61175e611c25565b611766611c5e565b1691821561189657801561186e5761271060025482020480820391478082116118395750505f805284602052825f206117a0828254611a90565b90555f80808085885af16117b2611aca565b5015611811577fd3605746397fcbe273096353855da8c40c332aa45d2d97a5e19130a238e9e3bc93945082519182526020820152a2600180547fffffffffffffffffffff00ffffffffffffffffffffffffffffffffffffffffff169055005b8483517f90b8ec18000000000000000000000000000000000000000000000000000000008152fd5b60449187918651927fcf4791810000000000000000000000000000000000000000000000000000000084528301526024820152fd5b8382517f2c5211c6000000000000000000000000000000000000000000000000000000008152fd5b8382517fd92e233d000000000000000000000000000000000000000000000000000000008152fd5b503461024f576020918260031936011261024f578273ffffffffffffffffffffffffffffffffffffffff6118f061198c565b169260248351809581937f70a0823100000000000000000000000000000000000000000000000000000000835230908301525afa918215611968575f92611939575b5051908152f35b9091508281813d8311611961575b6119518183611a22565b8101031261024f5751905f611932565b503d611947565b50513d5f823e3d90fd5b3461024f575f60031936011261024f576020906002548152f35b6004359073ffffffffffffffffffffffffffffffffffffffff8216820361024f57565b600319606091011261024f5773ffffffffffffffffffffffffffffffffffffffff90600435828116810361024f5791602435908116810361024f579060443590565b9181601f8401121561024f5782359167ffffffffffffffff831161024f576020808501948460051b01011161024f57565b90601f7fffffffffffffffffffffffffffffffffffffffffffffffffffffffffffffffe0910116810190811067ffffffffffffffff821117611a6357604052565b7f4e487b71000000000000000000000000000000000000000000000000000000005f52604160045260245ffd5b91908201809211611a9d57565b7f4e487b71000000000000000000000000000000000000000000000000000000005f52601160045260245ffd5b3d15611b22573d9067ffffffffffffffff8211611a635760405191611b1760207fffffffffffffffffffffffffffffffffffffffffffffffffffffffffffffffe0601f8401160184611a22565b82523d5f602084013e565b606090565b9081602091031261024f5751801515810361024f5790565b9190811015611b4f5760051b0190565b7f4e487b71000000000000000000000000000000000000000000000000000000005f52603260045260245ffd5b3573ffffffffffffffffffffffffffffffffffffffff8116810361024f5790565b73ffffffffffffffffffffffffffffffffffffffff5f54163303611bbd57565b60046040517f82b42900000000000000000000000000000000000000000000000000000000008152fd5b600354804210611bf45750565b602490604051907f50ba9f290000000000000000000000000000000000000000000000000000000082526004820152fd5b60ff60015460a01c16611c3457565b60046040517f9e87fac8000000000000000000000000000000000000000000000000000000008152fd5b60015460ff8160a81c16611cab577fffffffffffffffffffff00ffffffffffffffffffffffffffffffffffffffffff16750100000000000000000000000000000000000000000017600155565b60046040517f19239fc5000000000000000000000000000000000000000000000000000000008152fdfea164736f6c6343000818000a","linkReferences":{}},"methodIdentifiers":{"BASIS_POINTS()":"e1f1c4a7","MAX_BATCH_SIZE()":"cfdbf254","MAX_FEE_BASIS_POINTS()":"4befe2ca","acceptOwnership()":"79ba5097","balanceERC20(address)":"0f4ac71a","balanceEth()":"5cdad9c2","batchWithdrawERC20(address,address[],uint256[])":"9dc5dbd6","batchWithdrawEth(address[],uint256[])":"877b3e38","calculateNetAmount(uint256)":"bdab6fc6","depositERC20(address,uint256)":"97feb926","emergencyWithdraw(address,address,uint256)":"e63ea408","getTimelockEnd()":"55640873","getTotalFeesCollected(address)":"07ad24d6","isLocked()":"a4e2d634","isPaused()":"b187bd26","owner()":"8da5cb5b","pause()":"8456cb59","pendingOwner()":"e30c3978","setTimelock(uint256)":"1e891c0a","setWithdrawalFee(uint256)":"ac1e5025","timelockEnd()":"694d6635","totalFeesCollected(address)":"88a40eed","transferOwnership(address)":"f2fde38b","unpause()":"3f4ba83a","withdrawERC20(address,address,uint256)":"44004cc1","withdrawEth(address,uint256)":"1b9a91a4","withdrawFees(address,address)":"f2555278","withdrawalFeeBasisPoints()":"038de77e"},"id":113}