{"abi":[{"type":"constructor","inputs":[{"name":"admin","type":"address","internalType":"address"}],"stateMutability":"nonpayable"},{"type":"receive","stateMutability":"payable"},{"type":"function","name":"ADMIN_ROLE","inputs":[],"outputs":[{"name":"","type":"bytes32","internalType":"bytes32"}],"stateMutability":"view"},{"type":"function","name":"DEFAULT_ADMIN_ROLE","inputs":[],"outputs":[{"name":"","type":"bytes32","internalType":"bytes32"}],"stateMutability":"view"},{"type":"function","name":"MAX_BATCH_SIZE","inputs":[],"outputs":[{"name":"","type":"uint256","internalType":"uint256"}],"stateMutability":"view"},{"type":"function","name":"MONITOR_ROLE","inputs":[],"outputs":[{"name":"","type":"bytes32","internalType":"bytes32"}],"stateMutability":"view"},{"type":"function","name":"PAUSER_ROLE","inputs":[],"outputs":[{"name":"","type":"bytes32","internalType":"bytes32"}],"stateMutability":"view"},{"type":"function","name":"airdropIds","inputs":[{"name":"","type":"uint256","internalType":"uint256"}],"outputs":[{"name":"","type":"uint256","internalType":"uint256"}],"stateMutability":"view"},{"type":"function","name":"airdrops","inputs":[{"name":"","type":"uint256","internalType":"uint256"}],"outputs":[{"name":"merkleRoot","type":"bytes32","internalType":"bytes32"},{"name":"token","type":"address","internalType":"address"},{"name":"totalAllocated","type":"uint256","internalType":"uint256"},{"name":"createdAt","type":"uint256","internalType":"uint256"},{"name":"start","type":"uint256","internalType":"uint256"},{"name":"cliff","type":"uint256","internalType":"uint256"},{"name":"duration","type":"uint256","internalType":"uint256"},{"name":"active","type":"bool","internalType":"bool"}],"stateMutability":"view"},{"type":"function","name":"batchClaim","inputs":[{"name":"ids","type":"uint256[]","internalType":"uint256[]"},{"name":"allocations","type":"uint256[]","internalType":"uint256[]"},{"name":"noncesArr","type":"uint256[]","internalType":"uint256[]"},{"name":"categories","type":"uint256[]","internalType":"uint256[]"},{"name":"proofs","type":"bytes32[][]","internalType":"bytes32[][]"}],"outputs":[],"stateMutability":"nonpayable"},{"type":"function","name":"claim","inputs":[{"name":"id","type":"uint256","internalType":"uint256"},{"name":"allocation","type":"uint256","internalType":"uint256"},{"name":"nonce","type":"uint256","internalType":"uint256"},{"name":"category","type":"uint256","internalType":"uint256"},{"name":"proof","type":"bytes32[]","internalType":"bytes32[]"}],"outputs":[],"stateMutability":"nonpayable"},{"type":"function","name":"claimed","inputs":[{"name":"","type":"uint256","internalType":"uint256"},{"name":"","type":"address","internalType":"address"}],"outputs":[{"name":"","type":"uint256","internalType":"uint256"}],"stateMutability":"view"},{"type":"function","name":"createAirdrop","inputs":[{"name":"id","type":"uint256","internalType":"uint256"},{"name":"token","type":"address","internalType":"address"},{"name":"merkleRoot","type":"bytes32","internalType":"bytes32"},{"name":"totalAllocated","type":"uint256","internalType":"uint256"},{"name":"start","type":"uint256","internalType":"uint256"},{"name":"cliffSeconds","type":"uint256","internalType":"uint256"},{"name":"durationSeconds","type":"uint256","internalType":"uint256"}],"outputs":[],"stateMutability":"nonpayable"},{"type":"function","name":"emergencyWithdraw","inputs":[{"name":"token","type":"address","internalType":"address"},{"name":"to","type":"address","internalType":"address"},{"name":"amount","type":"uint256","internalType":"uint256"}],"outputs":[],"stateMutability":"nonpayable"},{"type":"function","name":"exists","inputs":[{"name":"","type":"uint256","internalType":"uint256"}],"outputs":[{"name":"","type":"bool","internalType":"bool"}],"stateMutability":"view"},{"type":"function","name":"getAirdropIds","inputs":[],"outputs":[{"name":"","type":"uint256[]","internalType":"uint256[]"}],"stateMutability":"view"},{"type":"function","name":"getClaimableAmount","inputs":[{"name":"id","type":"uint256","internalType":"uint256"},{"name":"account","type":"address","internalType":"address"},{"name":"allocation","type":"uint256","internalType":"uint256"},{"name":"nonce","type":"uint256","internalType":"uint256"},{"name":"category","type":"uint256","internalType":"uint256"},{"name":"proof","type":"bytes32[]","internalType":"bytes32[]"}],"outputs":[{"name":"","type":"uint256","internalType":"uint256"}],"stateMutability":"view"},{"type":"function","name":"getRoleAdmin","inputs":[{"name":"role","type":"bytes32","internalType":"bytes32"}],"outputs":[{"name":"","type":"bytes32","internalType":"bytes32"}],"stateMutability":"view"},{"type":"function","name":"globalPaused","inputs":[],"outputs":[{"name":"","type":"bool","internalType":"bool"}],"stateMutability":"view"},{"type":"function","name":"grantRole","inputs":[{"name":"role","type":"bytes32","internalType":"bytes32"},{"name":"account","type":"address","internalType":"address"}],"outputs":[],"stateMutability":"nonpayable"},{"type":"function","name":"hasRole","inputs":[{"name":"role","type":"bytes32","internalType":"bytes32"},{"name":"account","type":"address","internalType":"address"}],"outputs":[{"name":"","type":"bool","internalType":"bool"}],"stateMutability":"view"},{"type":"function","name":"nonces","inputs":[{"name":"","type":"uint256","internalType":"uint256"},{"name":"","type":"address","internalType":"address"}],"outputs":[{"name":"","type":"uint256","internalType":"uint256"}],"stateMutability":"view"},{"type":"function","name":"renounceRole","inputs":[{"name":"role","type":"bytes32","internalType":"bytes32"},{"name":"callerConfirmation","type":"address","internalType":"address"}],"outputs":[],"stateMutability":"nonpayable"},{"type":"function","name":"revokeRole","inputs":[{"name":"role","type":"bytes32","internalType":"bytes32"},{"name":"account","type":"address","internalType":"address"}],"outputs":[],"stateMutability":"nonpayable"},{"type":"function","name":"setGlobalPause","inputs":[{"name":"paused","type":"bool","internalType":"bool"}],"outputs":[],"stateMutability":"nonpayable"},{"type":"function","name":"supportsInterface","inputs":[{"name":"interfaceId","type":"bytes4","internalType":"bytes4"}],"outputs":[{"name":"","type":"bool","internalType":"bool"}],"stateMutability":"view"},{"type":"function","name":"toggleAirdrop","inputs":[{"name":"id","type":"uint256","internalType":"uint256"},{"name":"active","type":"bool","internalType":"bool"}],"outputs":[],"stateMutability":"nonpayable"},{"type":"function","name":"usedRoots","inputs":[{"name":"","type":"bytes32","internalType":"bytes32"}],"outputs":[{"name":"","type":"bool","internalType":"bool"}],"stateMutability":"view"},{"type":"function","name":"vestedAmount","inputs":[{"name":"id","type":"uint256","internalType":"uint256"},{"name":"allocation","type":"uint256","internalType":"uint256"}],"outputs":[{"name":"","type":"uint256","internalType":"uint256"}],"stateMutability":"view"},{"type":"event","name":"AirdropCreated","inputs":[{"name":"id","type":"uint256","indexed":true,"internalType":"uint256"},{"name":"token","type":"address","indexed":true,"internalType":"address"},{"name":"merkleRoot","type":"bytes32","indexed":false,"internalType":"bytes32"},{"name":"totalAllocated","type":"uint256","indexed":false,"internalType":"uint256"},{"name":"start","type":"uint256","indexed":false,"internalType":"uint256"},{"name":"cliff","type":"uint256","indexed":false,"internalType":"uint256"},{"name":"duration","type":"uint256","indexed":false,"internalType":"uint256"}],"anonymous":false},{"type":"event","name":"AirdropToggled","inputs":[{"name":"id","type":"uint256","indexed":true,"internalType":"uint256"},{"name":"active","type":"bool","indexed":false,"internalType":"bool"}],"anonymous":false},{"type":"event","name":"BatchClaimed","inputs":[{"name":"account","type":"address","indexed":true,"internalType":"address"},{"name":"ids","type":"uint256[]","indexed":false,"internalType":"uint256[]"},{"name":"amounts","type":"uint256[]","indexed":false,"internalType":"uint256[]"}],"anonymous":false},{"type":"event","name":"Claimed","inputs":[{"name":"id","type":"uint256","indexed":true,"internalType":"uint256"},{"name":"account","type":"address","indexed":true,"internalType":"address"},{"name":"amount","type":"uint256","indexed":false,"internalType":"uint256"},{"name":"nonce","type":"uint256","indexed":false,"internalType":"uint256"}],"anonymous":false},{"type":"event","name":"EmergencyWithdraw","inputs":[{"name":"token","type":"address","indexed":true,"internalType":"address"},{"name":"to","type":"address","indexed":true,"internalType":"address"},{"name":"amount","type":"uint256","indexed":false,"internalType":"uint256"}],"anonymous":false},{"type":"event","name":"GlobalPauseSet","inputs":[{"name":"paused","type":"bool","indexed":false,"internalType":"bool"}],"anonymous":false},{"type":"event","name":"RoleAdminChanged","inputs":[{"name":"role","type":"bytes32","indexed":true,"internalType":"bytes32"},{"name":"previousAdminRole","type":"bytes32","indexed":true,"internalType":"bytes32"},{"name":"newAdminRole","type":"bytes32","indexed":true,"internalType":"bytes32"}],"anonymous":false},{"type":"event","name":"RoleGranted","inputs":[{"name":"role","type":"bytes32","indexed":true,"internalType":"bytes32"},{"name":"account","type":"address","indexed":true,"internalType":"address"},{"name":"sender","type":"address","indexed":true,"internalType":"address"}],"anonymous":false},{"type":"event","name":"RoleRevoked","inputs":[{"name":"role","type":"bytes32","indexed":true,"internalType":"bytes32"},{"name":"account","type":"address","indexed":true,"internalType":"address"},{"name":"sender","type":"address","indexed":true,"internalType":"address"}],"anonymous":false},{"type":"error","name":"AccessControlBadConfirmation","inputs":[]},{"type":"error","name":"AccessControlUnauthorizedAccount","inputs":[{"name":"account","type":"address","internalType":"address"},{"name":"neededRole","type":"bytes32","internalType":"bytes32"}]},{"type":"error","name":"AirdropNotActive","inputs":[]},{"type":"error","name":"BatchLengthMismatch","inputs":[]},{"type":"error","name":"BatchSizeExceeded","inputs":[]},{"type":"error","name":"DuplicateIdInBatch","inputs":[{"name":"id","type":"uint256","internalType":"uint256"}]},{"type":"error","name":"ETHTransferFailed","inputs":[]},{"type":"error","name":"GloballyPaused","inputs":[]},{"type":"error","name":"InvalidAirdrop","inputs":[]},{"type":"error","name":"InvalidNonce","inputs":[]},{"type":"error","name":"InvalidParameters","inputs":[]},{"type":"error","name":"InvalidProof","inputs":[]},{"type":"error","name":"InvalidStartTime","inputs":[]},{"type":"error","name":"NothingToClaim","inputs":[]},{"type":"error","name":"ReentrancyGuardReentrantCall","inputs":[]},{"type":"error","name":"RootAlreadyUsed","inputs":[]},{"type":"error","name":"SafeERC20FailedOperation","inputs":[{"name":"token","type":"address","internalType":"address"}]},{"type":"error","name":"ZeroAddress","inputs":[]}],"bytecode":{"object":"0x608034620000b157601f6200245c38819003918201601f19168301916001600160401b03831184841017620000b557808492602094604052833981010312620000b157516001600160a01b038116808203620000b15760018055156200009f57806200006f6200008e92620000c9565b506200007b8162000139565b506200008781620001d9565b5062000273565b5060405161210e90816200030e8239f35b60405163d92e233d60e01b8152600490fd5b5f80fd5b634e487b7160e01b5f52604160045260245ffd5b6001600160a01b03165f8181525f805160206200243c833981519152602052604090205460ff1662000134575f8181525f805160206200243c83398151915260205260408120805460ff191660011790553391905f805160206200241c8339815191528180a4600190565b505f90565b6001600160a01b03165f8181527f7d7ffb7a348e1c6a02869081a26547b49160dd3df72d1d75a570eb9b698292ec60205260409020547fa49807205ce4d355092ef5a8a18f56e8913cf4a201fbe287825b095693c21775919060ff16620001d357815f525f60205260405f20815f5260205260405f20600160ff1982541617905533915f805160206200241c8339815191525f80a4600190565b50505f90565b6001600160a01b03165f8181527ff7c9542c591017a21c74b6f3fab6263c7952fc0aaf9db4c22a2a04ddc7f8674f60205260409020547f65d7a28e3265b37a6474929f336521b332c1681b933f6cb9f3376673440d862a919060ff16620001d357815f525f60205260405f20815f5260205260405f20600160ff1982541617905533915f805160206200241c8339815191525f80a4600190565b6001600160a01b03165f8181527f2e8e7f02b5c3a57bcb31230b2de6217022337af22f70b9798cd08f9e32c8baba60205260409020547f8227712ef8ad39d0f26f06731ef0df8665eb7ada7f41b1ee089adf3c238862a2919060ff16620001d357815f525f60205260405f20815f5260205260405f20600160ff1982541617905533915f805160206200241c8339815191525f80a460019056fe608080604052600436101561001c575b50361561001a575f80fd5b005b5f3560e01c90816301ffc9a7146117e057508063120aa8771461178e5780631b7559a71461173a5780631be90ccf14610f08578063248a9ca314610edc5780632a81d49d14610e8a5780632f2ff15d14610e4e57806336568abe14610de2578063473a367f14610db35780634d9b47e214610d795780634f558e7914610d4a5780635463c3e814610a6757806354b547a514610a3e57806359f708711461071a5780635e5fda85146106e357806360db50821461065157806361a552dc1461062f57806362f5aa4c1461059f57806369a6b3db1461049857806375b238fc1461045e5780637a89aa4a1461038657806391d1485414610330578063a217fddf14610316578063cfdbf254146102fb578063d547741f146102bf578063e63ab1e9146102855763e63ea40814610151575f61000f565b346102815760606003193601126102815760043573ffffffffffffffffffffffffffffffffffffffff908181168091036102815761018d61187e565b916044359061019a611e6a565b6101a2611de9565b8316928315610257578261022357505f80808084875af16101c1611cb9565b50156101f95760207ff24ef89f38eadc1bde50701ad6e4d6d11a2dc24f7cf834a486991f3883328504915b604051908152a360018055005b60046040517fb12d13eb000000000000000000000000000000000000000000000000000000008152fd5b816102527ff24ef89f38eadc1bde50701ad6e4d6d11a2dc24f7cf834a486991f38833285049360209386612026565b6101ec565b60046040517fd92e233d000000000000000000000000000000000000000000000000000000008152fd5b5f80fd5b34610281575f6003193601126102815760206040517f65d7a28e3265b37a6474929f336521b332c1681b933f6cb9f3376673440d862a8152f35b346102815760406003193601126102815761001a6004356102de61187e565b90805f525f6020526102f6600160405f200154611ec5565b611f88565b34610281575f60031936011261028157602060405160328152f35b34610281575f6003193601126102815760206040515f8152f35b346102815760406003193601126102815761034961187e565b6004355f525f60205273ffffffffffffffffffffffffffffffffffffffff60405f2091165f52602052602060ff60405f2054166040519015158152f35b346102815760406003193601126102815760043560243580151590818103610281576103b0611e6a565b825f52600660205260ff60405f20541615610434577f48ba9aca205a8ac2a0b70b9d96020456a9f3db69d774973c8de687783207a50d9161042b602092855f5260038452600760405f20019060ff7fffffffffffffffffffffffffffffffffffffffffffffffffffffffffffffff0083541691151516179055565b604051908152a2005b60046040517fe6dcad77000000000000000000000000000000000000000000000000000000008152fd5b34610281575f6003193601126102815760206040517fa49807205ce4d355092ef5a8a18f56e8913cf4a201fbe287825b095693c217758152f35b346102815760206003193601126102815760043580151580910361028157335f9081527ff7c9542c591017a21c74b6f3fab6263c7952fc0aaf9db4c22a2a04ddc7f8674f60205260409020547f65d7a28e3265b37a6474929f336521b332c1681b933f6cb9f3376673440d862a9060ff1615610568577f971be26fcde2df81b2b63dfb7fa1d2294b524eb1896b10e5228d9c154a30af096020837fffffffffffffffffffffffffffffffffffffffffffffffffffffffffffffff006002541660ff821617600255604051908152a1005b604490604051907fe2517d3f0000000000000000000000000000000000000000000000000000000082523360048301526024820152fd5b34610281575f60031936011261028157604051806008549182815260208091019260085f527ff3f7a9fe364faab93b216da50a3214154f22a0a2b415b23a84c8169e8b636ee3915f905b828210610618576106148561060081890382611973565b604051918291602083526020830190611907565b0390f35b8354865294850194600193840193909101906105e9565b34610281575f60031936011261028157602060ff600254166040519015158152f35b34610281576020600319360112610281576004355f52600360205261010060405f2080549073ffffffffffffffffffffffffffffffffffffffff600182015416906002810154600382015460048301549060058401549260ff600760068701549601541695604051978852602088015260408701526060860152608085015260a084015260c0830152151560e0820152f35b34610281576020600319360112610281576004356008548110156102815761070c6020916118d2565b90546040519160031b1c8152f35b346102815760e06003193601126102815760043561073661187e565b9060643560843560443560c43560a43561074e611e6a565b85158015610a28575b61098b5782158015610a12575b6109e857841561098b574284106109be578115806109b5575b61098b5781811161098b5761087d6040516107978161193a565b848152600788602083019a73ffffffffffffffffffffffffffffffffffffffff8091169b8c8152604085018b81526060860142815260808701918c835260a08801938a855260c08901958c875260e08a0197600189525f52600360205260405f2099518a5560018a019151167fffffffffffffffffffffffff000000000000000000000000000000000000000082541617905551600288015551600387015551600486015551600585015551600684015551151591019060ff7fffffffffffffffffffffffffffffffffffffffffffffffffffffffffffffff0083541691151516179055565b600660205260405f207fffffffffffffffffffffffffffffffffffffffffffffffffffffffffffffff0090600182825416179055835f526007602052600160405f2091825416179055600854936801000000000000000085101561095e577f27a046d82205cc844978f9c308ede7ec81e3ca742253c11565c27ffc4c33d83f9561090f86600160a098016008556118d2565b81549060031b907fffffffffffffffffffffffffffffffffffffffffffffffffffffffffffffffff8b831b921b19161790556040519485526020850152604084015260608301526080820152a3005b7f4e487b71000000000000000000000000000000000000000000000000000000005f52604160045260245ffd5b60046040517fe5239090000000000000000000000000000000000000000000000000000000008152fd5b5080151561077d565b60046040517fb290253c000000000000000000000000000000000000000000000000000000008152fd5b60046040517fb06ffd13000000000000000000000000000000000000000000000000000000008152fd5b50825f52600760205260ff60405f205416610764565b50855f52600660205260ff60405f205416610757565b34610281576040600319360112610281576020610a5f602435600435611ba0565b604051908152f35b346102815760a06003193601126102815760443560043560243560843567ffffffffffffffff811161028157610aa19036906004016118a1565b9091610aab611de9565b60ff60025416610d2057835f526020906006825260ff60405f2054161561043457845f526003825260405f2093604051610ae48161193a565b8554815273ffffffffffffffffffffffffffffffffffffffff9460ff60078760018a01541698878501998a52600281015460408601526003810154606086015260048101546080860152600581015460a0860152600681015460c086015201541615801560e0840152610cf657610b70610b7593610b666064358c8833611d16565b93519236916119cc565b611d98565b15610ccc57845f526005825260405f20335f5282528560405f205403610ca257610b9f9085611ba0565b93805f526004825260405f20335f52825260405f20549485811115610c7857610bcb86610bd292611a1a565b8096611b93565b815f526004835260405f20335f52835260405f20556001860195868111610c4b57610c4596825f526005845260405f20335f52845260405f2055604051928684528301527fd9cb1e2714d65a111c0f20f060176ad657496bd47a3de04ec7c3d4ca232112ac60403393a333915116611e24565b60018055005b7f4e487b71000000000000000000000000000000000000000000000000000000005f52601160045260245ffd5b60046040517f969bf728000000000000000000000000000000000000000000000000000000008152fd5b60046040517f756688fe000000000000000000000000000000000000000000000000000000008152fd5b60046040517f09bde339000000000000000000000000000000000000000000000000000000008152fd5b60046040517ff1195438000000000000000000000000000000000000000000000000000000008152fd5b60046040517f3478e5d8000000000000000000000000000000000000000000000000000000008152fd5b34610281576020600319360112610281576004355f526006602052602060ff60405f2054166040519015158152f35b34610281575f6003193601126102815760206040517f8227712ef8ad39d0f26f06731ef0df8665eb7ada7f41b1ee089adf3c238862a28152f35b34610281576020600319360112610281576004355f526007602052602060ff60405f2054166040519015158152f35b3461028157604060031936011261028157610dfb61187e565b3373ffffffffffffffffffffffffffffffffffffffff821603610e245761001a90600435611f88565b60046040517f6697b232000000000000000000000000000000000000000000000000000000008152fd5b346102815760406003193601126102815761001a600435610e6d61187e565b90805f525f602052610e85600160405f200154611ec5565b611ee6565b3461028157604060031936011261028157610ea361187e565b6004355f52600560205273ffffffffffffffffffffffffffffffffffffffff60405f2091165f52602052602060405f2054604051908152f35b34610281576020600319360112610281576004355f525f6020526020600160405f200154604051908152f35b346102815760a06003193601126102815760043567ffffffffffffffff811161028157610f399036906004016118a1565b60243567ffffffffffffffff811161028157610f599036906004016118a1565b92909160443567ffffffffffffffff811161028157610f7c9036906004016118a1565b60649391933567ffffffffffffffff811161028157610f9f9036906004016118a1565b9060843567ffffffffffffffff811161028157610fc09036906004016118a1565b610fcb939193611de9565b60ff60025416610d205786158015611730575b611706578987148015906116fc575b80156116f2575b80156116e8575b6116be57611008876119b4565b936110166040519586611973565b8785527fffffffffffffffffffffffffffffffffffffffffffffffffffffffffffffffe0611043896119b4565b013660208701375f5b88811061146d57505050505050611062836119b4565b936110706040519586611973565b8385527fffffffffffffffffffffffffffffffffffffffffffffffffffffffffffffffe061109d856119b4565b013660208701376110ad846119b4565b966110bb6040519889611973565b8488527fffffffffffffffffffffffffffffffffffffffffffffffffffffffffffffffe06110e8866119b4565b015f5b81811061144a5750505f965f5b868110611292575050505f5b8481106111e45750505060405190604082528260408301527f07ffffffffffffffffffffffffffffffffffffffffffffffffffffffffffffff83116102815761118d82917fe330b2f8c2036fe1e5eb236347cc3b8eb5fc9e701c9fadea25d02fb4adbc710d9460051b809160608501378201946060838703016020840152606033960190611907565b0390a25f5b81811061119f5760018055005b806111de73ffffffffffffffffffffffffffffffffffffffff6111c460019487611b7f565b51511660206111d38488611b7f565b510151903390611e24565b01611192565b6111ef818686611b6f565b35906111fc818585611b6f565b356112078289611b7f565b51835f52600460205260405f20335f5260205261122960405f20918254611b93565b9055600192838201808311610c4b57815f52600560205260405f20335f5260205260405f2055611259838a611b7f565b519160405192835260208301527fd9cb1e2714d65a111c0f20f060176ad657496bd47a3de04ec7c3d4ca232112ac60403393a301611104565b61129d818888611b6f565b35805f5260036020528a61135260405f209260ff6007604051956112c08761193a565b8054875273ffffffffffffffffffffffffffffffffffffffff6001820154166020880152600281015460408801526003810154606088015260048101546080880152600581015460a0880152600681015460c0880152015416151560e085015261133561132e868989611b6f565b3582611ba0565b905f52600460205260405f20335f5260205260405f205490611a1a565b918261135e858d611b7f565b525f805b8d81106113d2575b501561137c575b5050506001016110f8565b916113bc8c6001959d9373ffffffffffffffffffffffffffffffffffffffff6020889701511693604051946113b086611957565b85526020850152611b7f565b526113c7818d611b7f565b500198908a8c611371565b90919273ffffffffffffffffffffffffffffffffffffffff6113f48383611b7f565b51511673ffffffffffffffffffffffffffffffffffffffff602086015116146114245750600101908d9291611362565b92915061143360209184611b7f565b5101611440848251611b93565b905260018e61136a565b60209060405161145981611957565b5f81525f8382015282828d010152016110eb565b611478818a8a611b6f565b355f5b8281106116555750805f52600660205260ff60405f2054161561043457805f5260038060205260ff600760405f20604051936114b68561193a565b8154855273ffffffffffffffffffffffffffffffffffffffff600183015416602086015260028201546040860152810154606085015260048101546080850152600581015460a0850152600681015460c085015201541615801560e0830152610cf65761154a8c8f8f8c61152f88611536948194611b6f565b3593611b6f565b35611542868a8c611b6f565b359133611d16565b85841015611628578360051b8501357fffffffffffffffffffffffffffffffffffffffffffffffffffffffffffffffe18636030181121561028157850180359067ffffffffffffffff821161028157602001928160051b36038413610281576115ba93610b7091519236916119cc565b15610ccc57805f52600560205260405f20335f526020528a6115e2838a60405f205493611b6f565b3503610ca2576115f661132e838f8f611b6f565b905f52600460205260405f20335f5260205260405f20541015610c7857806001611621819389611b7f565b520161104c565b7f4e487b71000000000000000000000000000000000000000000000000000000005f52603260045260245ffd5b816116708c939d9a999f9b949e9c8390869a9798999a611b6f565b351461168d5760010191989c96979a90999b91959493929561147b565b60248c604051907f03557be40000000000000000000000000000000000000000000000000000000082526004820152fd5b60046040517f17e37b5c000000000000000000000000000000000000000000000000000000008152fd5b5080871415610ffb565b5081871415610ff4565b5084871415610fed565b60046040517fabcf3d23000000000000000000000000000000000000000000000000000000008152fd5b5060328711610fde565b346102815760c06003193601126102815761175361187e565b60a43567ffffffffffffffff811161028157602091611779610a5f9236906004016118a1565b91608435906064359060443590600435611a27565b34610281576040600319360112610281576117a761187e565b6004355f52600460205273ffffffffffffffffffffffffffffffffffffffff60405f2091165f52602052602060405f2054604051908152f35b3461028157602060031936011261028157600435907fffffffff00000000000000000000000000000000000000000000000000000000821680920361028157817f7965db0b0000000000000000000000000000000000000000000000000000000060209314908115611854575b5015158152f35b7f01ffc9a7000000000000000000000000000000000000000000000000000000009150148361184d565b6024359073ffffffffffffffffffffffffffffffffffffffff8216820361028157565b9181601f840112156102815782359167ffffffffffffffff8311610281576020808501948460051b01011161028157565b6008548110156116285760085f527ff3f7a9fe364faab93b216da50a3214154f22a0a2b415b23a84c8169e8b636ee301905f90565b9081518082526020808093019301915f5b828110611926575050505090565b835185529381019392810192600101611918565b610100810190811067ffffffffffffffff82111761095e57604052565b6040810190811067ffffffffffffffff82111761095e57604052565b90601f7fffffffffffffffffffffffffffffffffffffffffffffffffffffffffffffffe0910116810190811067ffffffffffffffff82111761095e57604052565b67ffffffffffffffff811161095e5760051b60200190565b92916119d7826119b4565b916119e56040519384611973565b829481845260208094019160051b810192831161028157905b828210611a0b5750505050565b813581529083019083016119fe565b91908203918211610c4b57565b959492909394865f526020936006855260409660ff885f205416158015611b63575b611b565760038652875f2092885191611a618361193a565b8454835260ff600773ffffffffffffffffffffffffffffffffffffffff96876001820154168b87015260028101548d8701526003810154606087015260048101546080870152600581015460a0870152600681015460c087015201541615801560e0850152611b4757611add93610b66610b7092888a8d611d16565b15611b3c57865f5260058452855f20941693845f528352845f205403611b3357611b079085611ba0565b935f5260048152825f20915f52525f20548082115f14611b2d57611b2a91611a1a565b90565b50505f90565b50505050505f90565b505050505050505f90565b50505050505050505050505f90565b5050505050505050505f90565b5060ff60025416611a49565b91908110156116285760051b0190565b80518210156116285760209160051b010190565b91908201809211610c4b57565b5f52600360205260405f20604051611bb78161193a565b8154815273ffffffffffffffffffffffffffffffffffffffff60018301541660208201526002820154604082015260038201546060820152611c2c60048301549160808101928084526005850154918260a082015260e060ff600760068901549860c08501998a520154161515910152611b93565b4210611cb25781518015908115611c9d575b50611c9857611c4e905142611a1a565b91828102928184041490151715610c4b5751908115611c6b570490565b7f4e487b71000000000000000000000000000000000000000000000000000000005f52601260045260245ffd5b505090565b611ca991508251611b93565b4210155f611c3e565b5050505f90565b3d15611d11573d9067ffffffffffffffff821161095e5760405191611d0660207fffffffffffffffffffffffffffffffffffffffffffffffffffffffffffffffe0601f8401160184611973565b82523d5f602084013e565b606090565b91929092604051937fffffffffffffffffffffffffffffffffffffffff000000000000000000000000602086019460601b1684526034850152605484015260748301526074825260a082019082821067ffffffffffffffff83111761095e5760c0908260405283519020920191825260208152611d9281611957565b51902090565b929091905f915b8451831015611de157611db28386611b7f565b519081811015611dd0575f52602052600160405f205b920191611d9f565b905f52602052600160405f20611dc8565b915092501490565b600260015414611dfa576002600155565b60046040517f3ee5aeb5000000000000000000000000000000000000000000000000000000008152fd5b73ffffffffffffffffffffffffffffffffffffffff9190821680611e5d57505f809381938293165af1611e55611cb9565b50156101f957565b611e68939250612026565b565b335f9081527f7d7ffb7a348e1c6a02869081a26547b49160dd3df72d1d75a570eb9b698292ec60205260409020547fa49807205ce4d355092ef5a8a18f56e8913cf4a201fbe287825b095693c217759060ff16156105685750565b805f525f60205260405f20335f5260205260ff60405f205416156105685750565b90815f525f60205273ffffffffffffffffffffffffffffffffffffffff60405f20911690815f5260205260ff60405f205416155f14611b2d57815f525f60205260405f20815f5260205260405f2060017fffffffffffffffffffffffffffffffffffffffffffffffffffffffffffffff0082541617905533917f2f8788117e7eff1d82e926ec794901d17c78024a50270940304540a733656f0d5f80a4600190565b90815f525f60205273ffffffffffffffffffffffffffffffffffffffff60405f20911690815f5260205260ff60405f2054165f14611b2d57815f525f60205260405f20815f5260205260405f207fffffffffffffffffffffffffffffffffffffffffffffffffffffffffffffff00815416905533917ff6391f5c32d9c69d2a47ea670b442974b53935d1edc7fd64eb21e047a839171b5f80a4600190565b916040519060208201907fa9059cbb00000000000000000000000000000000000000000000000000000000825273ffffffffffffffffffffffffffffffffffffffff8094166024840152604483015260448252608082019082821067ffffffffffffffff83111761095e576020925f92604052519082865af1156120f6575f513d6120ed57508082163b155b6120ba575050565b60249250604051917f5274afe7000000000000000000000000000000000000000000000000000000008352166004820152fd5b600114156120b2565b6040513d5f823e3d90fdfea164736f6c6343000818000a2f8788117e7eff1d82e926ec794901d17c78024a50270940304540a733656f0dad3228b676f7d3cd4284a5443f17f1962b36e491b30a40b2405849e597ba5fb5","linkReferences":{}},"methodIdentifiers":{"ADMIN_ROLE()":"75b238fc","DEFAULT_ADMIN_ROLE()":"a217fddf","MAX_BATCH_SIZE()":"cfdbf254","MONITOR_ROLE()":"4d9b47e2","PAUSER_ROLE()":"e63ab1e9","airdropIds(uint256)":"5e5fda85","airdrops(uint256)":"60db5082","batchClaim(uint256[],uint256[],uint256[],uint256[],bytes32[][])":"1be90ccf","claim(uint256,uint256,uint256,uint256,bytes32[])":"5463c3e8","claimed(uint256,address)":"120aa877","createAirdrop(uint256,address,bytes32,uint256,uint256,uint256,uint256)":"59f70871","emergencyWithdraw(address,address,uint256)":"e63ea408","exists(uint256)":"4f558e79","getAirdropIds()":"62f5aa4c","getClaimableAmount(uint256,address,uint256,uint256,uint256,bytes32[])":"1b7559a7","getRoleAdmin(bytes32)":"248a9ca3","globalPaused()":"61a552dc","grantRole(bytes32,address)":"2f2ff15d","hasRole(bytes32,address)":"91d14854","nonces(uint256,address)":"2a81d49d","renounceRole(bytes32,address)":"36568abe","revokeRole(bytes32,address)":"d547741f","setGlobalPause(bool)":"69a6b3db","supportsInterface(bytes4)":"01ffc9a7","toggleAirdrop(uint256,bool)":"7a89aa4a","usedRoots(bytes32)":"473a367f","vestedAmount(uint256,uint256)":"54b547a5"},"id":90}