{"abi":[{"type":"constructor","inputs":[],"stateMutability":"nonpayable"},{"type":"fallback","stateMutability":"payable"},{"type":"receive","stateMutability":"payable"},{"type":"function","name":"ADMIN_ROLE","inputs":[],"outputs":[{"name":"","type":"bytes32","internalType":"bytes32"}],"stateMutability":"view"},{"type":"function","name":"DEFAULT_ADMIN_ROLE","inputs":[],"outputs":[{"name":"","type":"bytes32","internalType":"bytes32"}],"stateMutability":"view"},{"type":"function","name":"MAX_BATCH_SIZE","inputs":[],"outputs":[{"name":"","type":"uint256","internalType":"uint256"}],"stateMutability":"view"},{"type":"function","name":"MONITOR_ROLE","inputs":[],"outputs":[{"name":"","type":"bytes32","internalType":"bytes32"}],"stateMutability":"view"},{"type":"function","name":"PAUSER_ROLE","inputs":[],"outputs":[{"name":"","type":"bytes32","internalType":"bytes32"}],"stateMutability":"view"},{"type":"function","name":"airdropIds","inputs":[{"name":"","type":"uint256","internalType":"uint256"}],"outputs":[{"name":"","type":"uint256","internalType":"uint256"}],"stateMutability":"view"},{"type":"function","name":"airdrops","inputs":[{"name":"","type":"uint256","internalType":"uint256"}],"outputs":[{"name":"merkleRoot","type":"bytes32","internalType":"bytes32"},{"name":"token","type":"address","internalType":"address"},{"name":"totalAllocated","type":"uint256","internalType":"uint256"},{"name":"createdAt","type":"uint256","internalType":"uint256"},{"name":"start","type":"uint256","internalType":"uint256"},{"name":"cliff","type":"uint256","internalType":"uint256"},{"name":"duration","type":"uint256","internalType":"uint256"},{"name":"active","type":"bool","internalType":"bool"}],"stateMutability":"view"},{"type":"function","name":"batchClaim","inputs":[{"name":"ids","type":"uint256[]","internalType":"uint256[]"},{"name":"tokens","type":"address[]","internalType":"address[]"},{"name":"allocations","type":"uint256[]","internalType":"uint256[]"},{"name":"noncesArr","type":"uint256[]","internalType":"uint256[]"},{"name":"categories","type":"uint256[]","internalType":"uint256[]"},{"name":"proofs","type":"bytes32[][]","internalType":"bytes32[][]"}],"outputs":[],"stateMutability":"nonpayable"},{"type":"function","name":"claim","inputs":[{"name":"id","type":"uint256","internalType":"uint256"},{"name":"allocation","type":"uint256","internalType":"uint256"},{"name":"nonce","type":"uint256","internalType":"uint256"},{"name":"category","type":"uint256","internalType":"uint256"},{"name":"proof","type":"bytes32[]","internalType":"bytes32[]"}],"outputs":[],"stateMutability":"nonpayable"},{"type":"function","name":"claimed","inputs":[{"name":"","type":"uint256","internalType":"uint256"},{"name":"","type":"address","internalType":"address"}],"outputs":[{"name":"","type":"uint256","internalType":"uint256"}],"stateMutability":"view"},{"type":"function","name":"createAirdrop","inputs":[{"name":"id","type":"uint256","internalType":"uint256"},{"name":"token","type":"address","internalType":"address"},{"name":"merkleRoot","type":"bytes32","internalType":"bytes32"},{"name":"totalAllocated","type":"uint256","internalType":"uint256"},{"name":"start","type":"uint256","internalType":"uint256"},{"name":"cliffSeconds","type":"uint256","internalType":"uint256"},{"name":"durationSeconds","type":"uint256","internalType":"uint256"}],"outputs":[],"stateMutability":"nonpayable"},{"type":"function","name":"emergencyWithdraw","inputs":[{"name":"token","type":"address","internalType":"address"},{"name":"to","type":"address","internalType":"address"},{"name":"amount","type":"uint256","internalType":"uint256"}],"outputs":[],"stateMutability":"nonpayable"},{"type":"function","name":"exists","inputs":[{"name":"","type":"uint256","internalType":"uint256"}],"outputs":[{"name":"","type":"bool","internalType":"bool"}],"stateMutability":"view"},{"type":"function","name":"getClaimableAmount","inputs":[{"name":"id","type":"uint256","internalType":"uint256"},{"name":"account","type":"address","internalType":"address"},{"name":"allocation","type":"uint256","internalType":"uint256"},{"name":"nonce","type":"uint256","internalType":"uint256"},{"name":"category","type":"uint256","internalType":"uint256"},{"name":"proof","type":"bytes32[]","internalType":"bytes32[]"}],"outputs":[{"name":"","type":"uint256","internalType":"uint256"}],"stateMutability":"view"},{"type":"function","name":"getNonce","inputs":[{"name":"id","type":"uint256","internalType":"uint256"},{"name":"account","type":"address","internalType":"address"}],"outputs":[{"name":"","type":"uint256","internalType":"uint256"}],"stateMutability":"view"},{"type":"function","name":"getRoleAdmin","inputs":[{"name":"role","type":"bytes32","internalType":"bytes32"}],"outputs":[{"name":"","type":"bytes32","internalType":"bytes32"}],"stateMutability":"view"},{"type":"function","name":"getTotalAllocatedSum","inputs":[],"outputs":[{"name":"","type":"uint256","internalType":"uint256"}],"stateMutability":"view"},{"type":"function","name":"globalPaused","inputs":[],"outputs":[{"name":"","type":"bool","internalType":"bool"}],"stateMutability":"view"},{"type":"function","name":"grantRole","inputs":[{"name":"role","type":"bytes32","internalType":"bytes32"},{"name":"account","type":"address","internalType":"address"}],"outputs":[],"stateMutability":"nonpayable"},{"type":"function","name":"hasRole","inputs":[{"name":"role","type":"bytes32","internalType":"bytes32"},{"name":"account","type":"address","internalType":"address"}],"outputs":[{"name":"","type":"bool","internalType":"bool"}],"stateMutability":"view"},{"type":"function","name":"nonces","inputs":[{"name":"","type":"uint256","internalType":"uint256"},{"name":"","type":"address","internalType":"address"}],"outputs":[{"name":"","type":"uint256","internalType":"uint256"}],"stateMutability":"view"},{"type":"function","name":"renounceRole","inputs":[{"name":"role","type":"bytes32","internalType":"bytes32"},{"name":"callerConfirmation","type":"address","internalType":"address"}],"outputs":[],"stateMutability":"nonpayable"},{"type":"function","name":"revokeRole","inputs":[{"name":"role","type":"bytes32","internalType":"bytes32"},{"name":"account","type":"address","internalType":"address"}],"outputs":[],"stateMutability":"nonpayable"},{"type":"function","name":"setGlobalPause","inputs":[{"name":"paused","type":"bool","internalType":"bool"}],"outputs":[],"stateMutability":"nonpayable"},{"type":"function","name":"supportsInterface","inputs":[{"name":"interfaceId","type":"bytes4","internalType":"bytes4"}],"outputs":[{"name":"","type":"bool","internalType":"bool"}],"stateMutability":"view"},{"type":"function","name":"toggleAirdrop","inputs":[{"name":"id","type":"uint256","internalType":"uint256"},{"name":"active","type":"bool","internalType":"bool"}],"outputs":[],"stateMutability":"nonpayable"},{"type":"function","name":"vestedAmount","inputs":[{"name":"id","type":"uint256","internalType":"uint256"},{"name":"allocation","type":"uint256","internalType":"uint256"}],"outputs":[{"name":"","type":"uint256","internalType":"uint256"}],"stateMutability":"view"},{"type":"event","name":"AirdropCreated","inputs":[{"name":"id","type":"uint256","indexed":true,"internalType":"uint256"},{"name":"token","type":"address","indexed":false,"internalType":"address"},{"name":"merkleRoot","type":"bytes32","indexed":false,"internalType":"bytes32"},{"name":"totalAllocated","type":"uint256","indexed":false,"internalType":"uint256"},{"name":"start","type":"uint256","indexed":false,"internalType":"uint256"},{"name":"cliff","type":"uint256","indexed":false,"internalType":"uint256"},{"name":"duration","type":"uint256","indexed":false,"internalType":"uint256"}],"anonymous":false},{"type":"event","name":"AirdropToggled","inputs":[{"name":"id","type":"uint256","indexed":true,"internalType":"uint256"},{"name":"active","type":"bool","indexed":false,"internalType":"bool"}],"anonymous":false},{"type":"event","name":"BatchClaimed","inputs":[{"name":"account","type":"address","indexed":true,"internalType":"address"},{"name":"ids","type":"uint256[]","indexed":false,"internalType":"uint256[]"},{"name":"amounts","type":"uint256[]","indexed":false,"internalType":"uint256[]"}],"anonymous":false},{"type":"event","name":"Claimed","inputs":[{"name":"id","type":"uint256","indexed":true,"internalType":"uint256"},{"name":"account","type":"address","indexed":true,"internalType":"address"},{"name":"amount","type":"uint256","indexed":false,"internalType":"uint256"},{"name":"nonce","type":"uint256","indexed":false,"internalType":"uint256"}],"anonymous":false},{"type":"event","name":"EmergencyWithdraw","inputs":[{"name":"token","type":"address","indexed":true,"internalType":"address"},{"name":"to","type":"address","indexed":false,"internalType":"address"},{"name":"amount","type":"uint256","indexed":false,"internalType":"uint256"}],"anonymous":false},{"type":"event","name":"GlobalPaused","inputs":[{"name":"paused","type":"bool","indexed":false,"internalType":"bool"}],"anonymous":false},{"type":"event","name":"RoleAdminChanged","inputs":[{"name":"role","type":"bytes32","indexed":true,"internalType":"bytes32"},{"name":"previousAdminRole","type":"bytes32","indexed":true,"internalType":"bytes32"},{"name":"newAdminRole","type":"bytes32","indexed":true,"internalType":"bytes32"}],"anonymous":false},{"type":"event","name":"RoleGranted","inputs":[{"name":"role","type":"bytes32","indexed":true,"internalType":"bytes32"},{"name":"account","type":"address","indexed":true,"internalType":"address"},{"name":"sender","type":"address","indexed":true,"internalType":"address"}],"anonymous":false},{"type":"event","name":"RoleRevoked","inputs":[{"name":"role","type":"bytes32","indexed":true,"internalType":"bytes32"},{"name":"account","type":"address","indexed":true,"internalType":"address"},{"name":"sender","type":"address","indexed":true,"internalType":"address"}],"anonymous":false},{"type":"error","name":"AccessControlBadConfirmation","inputs":[]},{"type":"error","name":"AccessControlUnauthorizedAccount","inputs":[{"name":"account","type":"address","internalType":"address"},{"name":"neededRole","type":"bytes32","internalType":"bytes32"}]},{"type":"error","name":"ETHTransferFailed","inputs":[]},{"type":"error","name":"InvalidAirdrop","inputs":[]},{"type":"error","name":"InvalidParameters","inputs":[]},{"type":"error","name":"InvalidStartTime","inputs":[]},{"type":"error","name":"IsGlobalPaused","inputs":[]},{"type":"error","name":"NotEnoughBalance","inputs":[{"name":"have","type":"uint256","internalType":"uint256"},{"name":"need","type":"uint256","internalType":"uint256"}]},{"type":"error","name":"NothingToClaim","inputs":[]},{"type":"error","name":"ReentrancyGuardReentrantCall","inputs":[]},{"type":"error","name":"SafeERC20FailedOperation","inputs":[{"name":"token","type":"address","internalType":"address"}]},{"type":"error","name":"Unauthorized","inputs":[]},{"type":"error","name":"ZeroAddress","inputs":[]}],"bytecode":{"object":"0x6080604052346200004e5760018055620000193362000052565b506200002533620000c2565b50620000313362000162565b506200003d33620001fc565b5060405161224d9081620002978239f35b5f80fd5b6001600160a01b03165f8181525f8051602062002504833981519152602052604090205460ff16620000bd575f8181525f805160206200250483398151915260205260408120805460ff191660011790553391905f80516020620024e48339815191528180a4600190565b505f90565b6001600160a01b03165f8181527f7d7ffb7a348e1c6a02869081a26547b49160dd3df72d1d75a570eb9b698292ec60205260409020547fa49807205ce4d355092ef5a8a18f56e8913cf4a201fbe287825b095693c21775919060ff166200015c57815f525f60205260405f20815f5260205260405f20600160ff1982541617905533915f80516020620024e48339815191525f80a4600190565b50505f90565b6001600160a01b03165f8181527ff7c9542c591017a21c74b6f3fab6263c7952fc0aaf9db4c22a2a04ddc7f8674f60205260409020547f65d7a28e3265b37a6474929f336521b332c1681b933f6cb9f3376673440d862a919060ff166200015c57815f525f60205260405f20815f5260205260405f20600160ff1982541617905533915f80516020620024e48339815191525f80a4600190565b6001600160a01b03165f8181527f2e8e7f02b5c3a57bcb31230b2de6217022337af22f70b9798cd08f9e32c8baba60205260409020547f8227712ef8ad39d0f26f06731ef0df8665eb7ada7f41b1ee089adf3c238862a2919060ff166200015c57815f525f60205260405f20815f5260205260405f20600160ff1982541617905533915f80516020620024e48339815191525f80a460019056fe6101a080604052600436101561001b575b50361561001957005b005b5f3560e01c90816301ffc9a714611b0a57508063120aa87714611ab85780631b7559a714611929578063248a9ca3146118fd5780632a81d49d14610f8d5780632f2ff15d146118c157806336568abe146118555780634d9b47e21461181b5780634f558e79146117ec5780635463c3e81461155e57806354b547a51461153557806359f70871146112845780635e5fda851461124d57806360db5082146111bb57806361a552dc146111995780636510909a146110e657806369a6b3db14610fdf5780637385661514610f8d57806375b238fc14610f535780637a89aa4a14610ea55780638276769b146104d357806391d148541461047d578063a217fddf14610463578063cfdbf25414610448578063d547741f1461040c578063e63ab1e9146103d25763e63ea40814610150575f610010565b346103675760606003193601126103675760043573ffffffffffffffffffffffffffffffffffffffff8082168092036103675761018b611ba8565b9060443590610198611f5d565b6101a061211f565b821680156103a857811561037e5783610284574780831161024d57505f80808481945af16101cc611d1e565b5015610223577ff24ef89f38eadc1bde50701ad6e4d6d11a2dc24f7cf834a486991f3883328504915b6040805173ffffffffffffffffffffffffffffffffffffffff9290921682526020820192909252a260018055005b60046040517fb12d13eb000000000000000000000000000000000000000000000000000000008152fd5b60449083604051917f8f0f420600000000000000000000000000000000000000000000000000000000835260048301526024820152fd5b506040929192517f70a08231000000000000000000000000000000000000000000000000000000008152306004820152602081602481865afa908115610373575f9161033d575b508082116103075750826103028284957ff24ef89f38eadc1bde50701ad6e4d6d11a2dc24f7cf834a486991f38833285049561215a565b6101f5565b604491604051917f8f0f420600000000000000000000000000000000000000000000000000000000835260048301526024820152fd5b90506020813d60201161036b575b8161035860209383611c6a565b8101031261036757515f6102cb565b5f80fd5b3d915061034b565b6040513d5f823e3d90fd5b60046040517fe5239090000000000000000000000000000000000000000000000000000000008152fd5b60046040517fd92e233d000000000000000000000000000000000000000000000000000000008152fd5b34610367575f6003193601126103675760206040517f65d7a28e3265b37a6474929f336521b332c1681b933f6cb9f3376673440d862a8152f35b346103675760406003193601126103675761001960043561042b611ba8565b90805f525f602052610443600160405f200154611fb8565b612081565b34610367575f60031936011261036757602060405160328152f35b34610367575f6003193601126103675760206040515f8152f35b3461036757604060031936011261036757610496611ba8565b6004355f525f60205273ffffffffffffffffffffffffffffffffffffffff60405f2091165f52602052602060ff60405f2054166040519015158152f35b346103675760c06003193601126103675760043567ffffffffffffffff811161036757610504903690600401611bcb565b610160526101405260243567ffffffffffffffff81116103675761052c903690600401611bcb565b60805260c05260443567ffffffffffffffff811161036757610552903690600401611bcb565b60643567ffffffffffffffff811161036757610572903690600401611bcb565b60a0526101005260843567ffffffffffffffff811161036757610599903690600401611bcb565b92909160a43567ffffffffffffffff8111610367576105bc903690600401611bcb565b6105c794919461211f565b61016051158015610e98575b8015610e89575b8015610e7c575b8015610e6d575b8015610e60575b8015610e53575b61037e5761061961060961016051611cab565b6040516101205261012051611c6a565b6101605161012051527fffffffffffffffffffffffffffffffffffffffffffffffffffffffffffffffe061064f61016051611cab565b015f5b818110610e2d57505061067a61066a61016051611cab565b6040516101805261018051611c6a565b6101605161018051527fffffffffffffffffffffffffffffffffffffffffffffffffffffffffffffffe06106b061016051611cab565b013660206101805101375f60e0525f5b6101605181106108d4575f5b60e051811061079357604051604081526101605160408201527f07ffffffffffffffffffffffffffffffffffffffffffffffffffffffffffffff6101605111610367576101605160051b806101405160608401378101906080606083019260608382030160208401526101805151809452019160206101805101905f5b81811061077d57337fe330b2f8c2036fe1e5eb236347cc3b8eb5fc9e701c9fadea25d02fb4adbc710d85870386a260018055005b8251855260209485019490920191600101610749565b73ffffffffffffffffffffffffffffffffffffffff6107b58261012051611ef8565b5151169060206107c88261012051611ef8565b5101519182156108ca57806108025750904780821161030757505f80808093335af16107f2611d1e565b5015610223576001905b016106cc565b6040517f70a08231000000000000000000000000000000000000000000000000000000008152306004820152602081602481855afa908115610373575f91610898575b50808411610861575060019261085c91339061215a565b6107fc565b60449084604051917f8f0f420600000000000000000000000000000000000000000000000000000000835260048301526024820152fd5b90506020813d6020116108c2575b816108b360209383611c6a565b81010312610367575184610845565b3d91506108a6565b50600191506107fc565b6108e5816101605161014051611ec7565b35906108fe6108f98260805160c051611ec7565b611ed7565b825f52600660205260ff60405f20541615610e0357825f526003908160205260405f206040519261092e84611c31565b8154845260ff600773ffffffffffffffffffffffffffffffffffffffff6001850154169360208701948552600293848201546040890152810154606088015260048101546080880152600581015460a0880152600681015460c088015201541615908115918260e087015291610df7575b50610dcd5773ffffffffffffffffffffffffffffffffffffffff8091511691160361037e576109cf828789611ec7565b356109e08360a05161010051611ec7565b35610a676109ef858d8a611ec7565b6040513360601b7fffffffffffffffffffffffffffffffffffffffff00000000000000000000000016602082019081526034820195909552605481019390935235607483015281609481015b037fffffffffffffffffffffffffffffffffffffffffffffffffffffffffffffffe08101835282611c6a565b51902084831015610da0577fffffffffffffffffffffffffffffffffffffffffffffffffffffffffffffffe1893603018360051b8a01351215610367578260051b890135890180359067ffffffffffffffff821161036757602001928160051b3603841361036757610ae593610ae09151923691611cc3565b611f0c565b15610d7657815f52600560205260405f20335f5260205260405f2054610b118260a05161010051611ec7565b350361037e57610b2c610b25828789611ec7565b3583611d88565b91805f52600460205260405f20335f5260205260405f20549283811115610d4c5783610b5791611d11565b9081610b668461018051611ef8565b525f805b60e0518110610cca575b5015610c09575b81600194825f52600460205260405f20335f526020520160405f205583610ba88460a05161010051611ec7565b3501815f52600560205260405f20335f5260205260405f2055610bd18360a05161010051611ec7565b3560405192835260208301527fd9cb1e2714d65a111c0f20f060176ad657496bd47a3de04ec7c3d4ca232112ac60403393a3016106c0565b610c1b6108f98460805160c051611ec7565b73ffffffffffffffffffffffffffffffffffffffff60405191610c3d83611c4e565b168152826020820152610c5560e05161012051611ef8565b52610c6560e05161012051611ef8565b507fffffffffffffffffffffffffffffffffffffffffffffffffffffffffffffffff60e05114610c9d5760e080516001019052610b7b565b7f4e487b71000000000000000000000000000000000000000000000000000000005f52601160045260245ffd5b73ffffffffffffffffffffffffffffffffffffffff610cec8261012051611ef8565b51511673ffffffffffffffffffffffffffffffffffffffff610d166108f98860805160c051611ec7565b1614610d2457600101610b6a565b60209150610d359061012051611ef8565b5101610d42838251611d7b565b905260018b610b74565b60046040517f969bf728000000000000000000000000000000000000000000000000000000008152fd5b60046040517f82b42900000000000000000000000000000000000000000000000000000000008152fd5b7f4e487b71000000000000000000000000000000000000000000000000000000005f52603260045260245ffd5b60046040517f93e6c347000000000000000000000000000000000000000000000000000000008152fd5b60ff915054168c61099f565b60046040517fe6dcad77000000000000000000000000000000000000000000000000000000008152fd5b602090604051610e3c81611c4e565b5f8152825f81830152826101205101015201610652565b50806101605114156105f6565b50856101605114156105ef565b5060a0516101605114156105e8565b50826101605114156105e1565b506080516101605114156105da565b50603261016051116105d3565b34610367576040600319360112610367576004356024358015159081810361036757610ecf611f5d565b825f52600660205260ff60405f20541615610e03577f48ba9aca205a8ac2a0b70b9d96020456a9f3db69d774973c8de687783207a50d91610f4a602092855f5260038452600760405f20019060ff7fffffffffffffffffffffffffffffffffffffffffffffffffffffffffffffff0083541691151516179055565b604051908152a2005b34610367575f6003193601126103675760206040517fa49807205ce4d355092ef5a8a18f56e8913cf4a201fbe287825b095693c217758152f35b3461036757604060031936011261036757610fa6611ba8565b6004355f52600560205273ffffffffffffffffffffffffffffffffffffffff60405f2091165f52602052602060405f2054604051908152f35b346103675760206003193601126103675760043580151580910361036757335f9081527ff7c9542c591017a21c74b6f3fab6263c7952fc0aaf9db4c22a2a04ddc7f8674f60205260409020547f65d7a28e3265b37a6474929f336521b332c1681b933f6cb9f3376673440d862a9060ff16156110af577f39faec09bfc6835902c79c4757f9177e0cf8ab328b2bb690494e800dfe8c9c946020837fffffffffffffffffffffffffffffffffffffffffffffffffffffffffffffff006002541660ff821617600255604051908152a1005b604490604051907fe2517d3f0000000000000000000000000000000000000000000000000000000082523360048301526024820152fd5b34610367575f60031936011261036757335f9081527f2e8e7f02b5c3a57bcb31230b2de6217022337af22f70b9798cd08f9e32c8baba60209081526040909120547f8227712ef8ad39d0f26f06731ef0df8665eb7ada7f41b1ee089adf3c238862a29060ff16156110af57505f8091600754905b81841061116c57602083604051908152f35b909160019061117a85611bfc565b9054600391821b1c5f528352600260405f20015401930192919061115a565b34610367575f60031936011261036757602060ff600254166040519015158152f35b34610367576020600319360112610367576004355f52600360205261010060405f2080549073ffffffffffffffffffffffffffffffffffffffff600182015416906002810154600382015460048301549060058401549260ff600760068701549601541695604051978852602088015260408701526060860152608085015260a084015260c0830152151560e0820152f35b346103675760206003193601126103675760043560075481101561036757611276602091611bfc565b90546040519160031b1c8152f35b346103675760e0600319360112610367576004356112a0611ba8565b604435906064359060c43560a4356084356112b9611f5d565b8615801561151f575b61037e57851561037e57841561037e57821580611516575b61037e5782821161037e578015801561150d575b6114e3576113e760405161130181611c31565b878152600789602083019773ffffffffffffffffffffffffffffffffffffffff80911698898152604085018b815260608601428152608087019189835260a08801938b855260c08901958d875260e08a0197600189525f52600360205260405f2099518a5560018a019151167fffffffffffffffffffffffff000000000000000000000000000000000000000082541617905551600288015551600387015551600486015551600585015551600684015551151591019060ff7fffffffffffffffffffffffffffffffffffffffffffffffffffffffffffffff0083541691151516179055565b600660205260405f2060017fffffffffffffffffffffffffffffffffffffffffffffffffffffffffffffff0082541617905560075494680100000000000000008610156114b6577f27a046d82205cc844978f9c308ede7ec81e3ca742253c11565c27ffc4c33d83f9661146287600160c09901600755611bfc565b81549060031b907fffffffffffffffffffffffffffffffffffffffffffffffffffffffffffffffff8c831b921b1916179055604051958652602086015260408501526060840152608083015260a0820152a2005b7f4e487b71000000000000000000000000000000000000000000000000000000005f52604160045260245ffd5b60046040517fb290253c000000000000000000000000000000000000000000000000000000008152fd5b504281106112ee565b508115156112da565b50865f52600660205260ff60405f2054166112c2565b34610367576040600319360112610367576020611556602435600435611d88565b604051908152f35b346103675760a06003193601126103675760243560043560443560843567ffffffffffffffff811161036757611598903690600401611bcb565b93906115a261211f565b835f526020916006835260ff60405f20541615610e0357845f526003835260405f20916040516115d181611c31565b8354815273ffffffffffffffffffffffffffffffffffffffff9760ff60078a60018801541696888501978852600281015460408601526003810154606086015260048101546080860152600581015460a0860152600681015460c0860152015416158015908160e0850152906117e0575b610dcd576040513360601b7fffffffffffffffffffffffffffffffffffffffff00000000000000000000000016878201908152601481018690526034810189905260643560548201526116b094610ae0929091906116a38160748401610a3b565b5190209351923691611cc3565b15610d7657845f526005835260405f20335f5283528360405f20540361037e576116da9085611d88565b845f526004835260405f20335f52835260405f20549081811115610d4c578161170291611d11565b958692511680155f146117cf575090504780861161179857505f80808088335af161172b611d1e565b50156102235784905b845f526004835260405f20335f5283520160405f2055825f526005815260405f20335f5281526001820160405f20556040519384528301527fd9cb1e2714d65a111c0f20f060176ad657496bd47a3de04ec7c3d4ca232112ac60403393a360018055005b60449086604051917f8f0f420600000000000000000000000000000000000000000000000000000000835260048301526024820152fd5b826117db91339061215a565b611734565b5060ff60025416611642565b34610367576020600319360112610367576004355f526006602052602060ff60405f2054166040519015158152f35b34610367575f6003193601126103675760206040517f8227712ef8ad39d0f26f06731ef0df8665eb7ada7f41b1ee089adf3c238862a28152f35b346103675760406003193601126103675761186e611ba8565b3373ffffffffffffffffffffffffffffffffffffffff8216036118975761001990600435612081565b60046040517f6697b232000000000000000000000000000000000000000000000000000000008152fd5b34610367576040600319360112610367576100196004356118e0611ba8565b90805f525f6020526118f8600160405f200154611fb8565b611fd9565b34610367576020600319360112610367576004355f525f6020526020600160405f200154604051908152f35b346103675760c060031936011261036757600435611945611ba8565b906044359160a43567ffffffffffffffff81116103675761196a903690600401611bcb565b9093835f526020946006865260ff60405f20541615610e0357845f526003865260405f20926040519061199c82611c31565b8454825260ff600773ffffffffffffffffffffffffffffffffffffffff96876001820154168b860152600281015460408601526003810154606086015260048101546080860152600581015460a0860152600681015460c0860152015416158015908160e085015290611aac575b610dcd57604051606087901b7fffffffffffffffffffffffffffffffffffffffff000000000000000000000000168982019081526014810186905260643560348201526084356054820152611a6d94610ae0929091906116a38160748401610a3b565b15610d7657611a7c9084611d88565b925f526004845260405f2091165f52825260405f20548082115f14611aa45761155691611d11565b50505f611556565b5060ff60025416611a0a565b3461036757604060031936011261036757611ad1611ba8565b6004355f52600460205273ffffffffffffffffffffffffffffffffffffffff60405f2091165f52602052602060405f2054604051908152f35b3461036757602060031936011261036757600435907fffffffff00000000000000000000000000000000000000000000000000000000821680920361036757817f7965db0b0000000000000000000000000000000000000000000000000000000060209314908115611b7e575b5015158152f35b7f01ffc9a70000000000000000000000000000000000000000000000000000000091501483611b77565b6024359073ffffffffffffffffffffffffffffffffffffffff8216820361036757565b9181601f840112156103675782359167ffffffffffffffff8311610367576020808501948460051b01011161036757565b600754811015610da05760075f527fa66cc928b5edb82af9bd49922954155ab7b0942694bea4ce44661d9a8736c68801905f90565b610100810190811067ffffffffffffffff8211176114b657604052565b6040810190811067ffffffffffffffff8211176114b657604052565b90601f7fffffffffffffffffffffffffffffffffffffffffffffffffffffffffffffffe0910116810190811067ffffffffffffffff8211176114b657604052565b67ffffffffffffffff81116114b65760051b60200190565b9291611cce82611cab565b91611cdc6040519384611c6a565b829481845260208094019160051b810192831161036757905b828210611d025750505050565b81358152908301908301611cf5565b91908203918211610c9d57565b3d15611d76573d9067ffffffffffffffff82116114b65760405191611d6b60207fffffffffffffffffffffffffffffffffffffffffffffffffffffffffffffffe0601f8401160184611c6a565b82523d5f602084013e565b606090565b91908201809211610c9d57565b5f52600360205260405f20604051611d9f81611c31565b8154815273ffffffffffffffffffffffffffffffffffffffff60018301541660208201526002820154604082015260038201546060820152600482015460808201918183526005840154908160a082015260e060ff600760068801549760c085019889520154161515910152814210611ebe57611e1b91611d7b565b4210611eb757815115611eb257611e33905142611d11565b908051821015611eb25781158015611e84575b61037e5751918215611e5757020490565b7f4e487b71000000000000000000000000000000000000000000000000000000005f52601260045260245ffd5b611e5757817fffffffffffffffffffffffffffffffffffffffffffffffffffffffffffffffff048311611e46565b505090565b5050505f90565b50505050505f90565b9190811015610da05760051b0190565b3573ffffffffffffffffffffffffffffffffffffffff811681036103675790565b8051821015610da05760209160051b010190565b929091905f915b8451831015611f5557611f268386611ef8565b519081811015611f44575f52602052600160405f205b920191611f13565b905f52602052600160405f20611f3c565b915092501490565b335f9081527f7d7ffb7a348e1c6a02869081a26547b49160dd3df72d1d75a570eb9b698292ec60205260409020547fa49807205ce4d355092ef5a8a18f56e8913cf4a201fbe287825b095693c217759060ff16156110af5750565b805f525f60205260405f20335f5260205260ff60405f205416156110af5750565b90815f525f60205273ffffffffffffffffffffffffffffffffffffffff60405f20911690815f5260205260ff60405f205416155f1461207b57815f525f60205260405f20815f5260205260405f2060017fffffffffffffffffffffffffffffffffffffffffffffffffffffffffffffff0082541617905533917f2f8788117e7eff1d82e926ec794901d17c78024a50270940304540a733656f0d5f80a4600190565b50505f90565b90815f525f60205273ffffffffffffffffffffffffffffffffffffffff60405f20911690815f5260205260ff60405f2054165f1461207b57815f525f60205260405f20815f5260205260405f207fffffffffffffffffffffffffffffffffffffffffffffffffffffffffffffff00815416905533917ff6391f5c32d9c69d2a47ea670b442974b53935d1edc7fd64eb21e047a839171b5f80a4600190565b600260015414612130576002600155565b60046040517f3ee5aeb5000000000000000000000000000000000000000000000000000000008152fd5b6040517fa9059cbb00000000000000000000000000000000000000000000000000000000602082810191825273ffffffffffffffffffffffffffffffffffffffff9094166024830152604482019490945290925f916121bc8160648101610a3b565b519082855af115610373575f513d612237575073ffffffffffffffffffffffffffffffffffffffff81163b155b6121f05750565b60249073ffffffffffffffffffffffffffffffffffffffff604051917f5274afe7000000000000000000000000000000000000000000000000000000008352166004820152fd5b600114156121e956fea164736f6c6343000818000a2f8788117e7eff1d82e926ec794901d17c78024a50270940304540a733656f0dad3228b676f7d3cd4284a5443f17f1962b36e491b30a40b2405849e597ba5fb5","linkReferences":{}},"methodIdentifiers":{"ADMIN_ROLE()":"75b238fc","DEFAULT_ADMIN_ROLE()":"a217fddf","MAX_BATCH_SIZE()":"cfdbf254","MONITOR_ROLE()":"4d9b47e2","PAUSER_ROLE()":"e63ab1e9","airdropIds(uint256)":"5e5fda85","airdrops(uint256)":"60db5082","batchClaim(uint256[],address[],uint256[],uint256[],uint256[],bytes32[][])":"8276769b","claim(uint256,uint256,uint256,uint256,bytes32[])":"5463c3e8","claimed(uint256,address)":"120aa877","createAirdrop(uint256,address,bytes32,uint256,uint256,uint256,uint256)":"59f70871","emergencyWithdraw(address,address,uint256)":"e63ea408","exists(uint256)":"4f558e79","getClaimableAmount(uint256,address,uint256,uint256,uint256,bytes32[])":"1b7559a7","getNonce(uint256,address)":"73856615","getRoleAdmin(bytes32)":"248a9ca3","getTotalAllocatedSum()":"6510909a","globalPaused()":"61a552dc","grantRole(bytes32,address)":"2f2ff15d","hasRole(bytes32,address)":"91d14854","nonces(uint256,address)":"2a81d49d","renounceRole(bytes32,address)":"36568abe","revokeRole(bytes32,address)":"d547741f","setGlobalPause(bool)":"69a6b3db","supportsInterface(bytes4)":"01ffc9a7","toggleAirdrop(uint256,bool)":"7a89aa4a","vestedAmount(uint256,uint256)":"54b547a5"},"id":78}