{"abi":[{"type":"constructor","inputs":[{"name":"name_","type":"string","internalType":"string"},{"name":"symbol_","type":"string","internalType":"string"},{"name":"decimals_","type":"uint8","internalType":"uint8"}],"stateMutability":"nonpayable"},{"type":"function","name":"allowance","inputs":[{"name":"owner","type":"address","internalType":"address"},{"name":"spender","type":"address","internalType":"address"}],"outputs":[{"name":"","type":"uint256","internalType":"uint256"}],"stateMutability":"view"},{"type":"function","name":"approve","inputs":[{"name":"spender","type":"address","internalType":"address"},{"name":"value","type":"uint256","internalType":"uint256"}],"outputs":[{"name":"","type":"bool","internalType":"bool"}],"stateMutability":"nonpayable"},{"type":"function","name":"balanceOf","inputs":[{"name":"account","type":"address","internalType":"address"}],"outputs":[{"name":"","type":"uint256","internalType":"uint256"}],"stateMutability":"view"},{"type":"function","name":"burn","inputs":[{"name":"amount","type":"uint256","internalType":"uint256"}],"outputs":[],"stateMutability":"nonpayable"},{"type":"function","name":"decimals","inputs":[],"outputs":[{"name":"","type":"uint8","internalType":"uint8"}],"stateMutability":"view"},{"type":"function","name":"mint","inputs":[{"name":"to","type":"address","internalType":"address"},{"name":"amount","type":"uint256","internalType":"uint256"}],"outputs":[],"stateMutability":"nonpayable"},{"type":"function","name":"name","inputs":[],"outputs":[{"name":"","type":"string","internalType":"string"}],"stateMutability":"view"},{"type":"function","name":"owner","inputs":[],"outputs":[{"name":"","type":"address","internalType":"address"}],"stateMutability":"view"},{"type":"function","name":"renounceOwnership","inputs":[],"outputs":[],"stateMutability":"nonpayable"},{"type":"function","name":"symbol","inputs":[],"outputs":[{"name":"","type":"string","internalType":"string"}],"stateMutability":"view"},{"type":"function","name":"totalSupply","inputs":[],"outputs":[{"name":"","type":"uint256","internalType":"uint256"}],"stateMutability":"view"},{"type":"function","name":"transfer","inputs":[{"name":"to","type":"address","internalType":"address"},{"name":"value","type":"uint256","internalType":"uint256"}],"outputs":[{"name":"","type":"bool","internalType":"bool"}],"stateMutability":"nonpayable"},{"type":"function","name":"transferFrom","inputs":[{"name":"from","type":"address","internalType":"address"},{"name":"to","type":"address","internalType":"address"},{"name":"value","type":"uint256","internalType":"uint256"}],"outputs":[{"name":"","type":"bool","internalType":"bool"}],"stateMutability":"nonpayable"},{"type":"function","name":"transferOwnership","inputs":[{"name":"newOwner","type":"address","internalType":"address"}],"outputs":[],"stateMutability":"nonpayable"},{"type":"event","name":"Approval","inputs":[{"name":"owner","type":"address","indexed":true,"internalType":"address"},{"name":"spender","type":"address","indexed":true,"internalType":"address"},{"name":"value","type":"uint256","indexed":false,"internalType":"uint256"}],"anonymous":false},{"type":"event","name":"Minted","inputs":[{"name":"to","type":"address","indexed":true,"internalType":"address"},{"name":"amount","type":"uint256","indexed":false,"internalType":"uint256"}],"anonymous":false},{"type":"event","name":"OwnershipTransferred","inputs":[{"name":"previousOwner","type":"address","indexed":true,"internalType":"address"},{"name":"newOwner","type":"address","indexed":true,"internalType":"address"}],"anonymous":false},{"type":"event","name":"Transfer","inputs":[{"name":"from","type":"address","indexed":true,"internalType":"address"},{"name":"to","type":"address","indexed":true,"internalType":"address"},{"name":"value","type":"uint256","indexed":false,"internalType":"uint256"}],"anonymous":false},{"type":"error","name":"ERC20InsufficientAllowance","inputs":[{"name":"spender","type":"address","internalType":"address"},{"name":"allowance","type":"uint256","internalType":"uint256"},{"name":"needed","type":"uint256","internalType":"uint256"}]},{"type":"error","name":"ERC20InsufficientBalance","inputs":[{"name":"sender","type":"address","internalType":"address"},{"name":"balance","type":"uint256","internalType":"uint256"},{"name":"needed","type":"uint256","internalType":"uint256"}]},{"type":"error","name":"ERC20InvalidApprover","inputs":[{"name":"approver","type":"address","internalType":"address"}]},{"type":"error","name":"ERC20InvalidReceiver","inputs":[{"name":"receiver","type":"address","internalType":"address"}]},{"type":"error","name":"ERC20InvalidSender","inputs":[{"name":"sender","type":"address","internalType":"address"}]},{"type":"error","name":"ERC20InvalidSpender","inputs":[{"name":"spender","type":"address","internalType":"address"}]},{"type":"error","name":"OwnableInvalidOwner","inputs":[{"name":"owner","type":"address","internalType":"address"}]},{"type":"error","name":"OwnableUnauthorizedAccount","inputs":[{"name":"account","type":"address","internalType":"address"}]}],"bytecode":{"object":"0x60a06040523462000387576200119b803803806200001d816200038b565b9283398101606082820312620003875781516001600160401b03908181116200038757826200004e918501620003b1565b906020928385015182811162000387576040916200006e918701620003b1565b9401519360ff851685036200038757825182811162000292576003918254916001958684811c941680156200037c575b8885101462000368578190601f9485811162000315575b508890858311600114620002b2575f92620002a6575b50505f1982861b1c191690861b1783555b8051938411620002925760049586548681811c9116801562000287575b8282101462000274578381116200022c575b5080928511600114620001c257509383949184925f95620001b6575b50501b925f19911b1c19161781555b33156200019f575060058054336001600160a01b0319821681179092556040519291906001600160a01b03167f8be0079c531659141344cd1fd0a4f28419497f9722a3daafe3b4186f6b6457e05f80a3608052610d7990816200042282396080518161077d0152f35b6024905f60405191631e4fbdf760e01b8352820152fd5b015193505f8062000127565b92919084601f198116885f52855f20955f905b89838310620002115750505010620001f7575b50505050811b01815562000136565b01519060f8845f19921b161c191690555f808080620001e8565b858701518955909701969485019488935090810190620001d5565b875f52815f208480880160051c8201928489106200026a575b0160051c019087905b8281106200025e5750506200010b565b5f81550187906200024e565b9250819262000245565b602288634e487b7160e01b5f525260245ffd5b90607f1690620000f9565b634e487b7160e01b5f52604160045260245ffd5b015190505f80620000cb565b90889350601f19831691875f528a5f20925f5b8c828210620002fe5750508411620002e6575b505050811b018355620000dc565b01515f1983881b60f8161c191690555f8080620002d8565b8385015186558c97909501949384019301620002c5565b909150855f52885f208580850160051c8201928b86106200035e575b918a91869594930160051c01915b8281106200034f575050620000b5565b5f81558594508a91016200033f565b9250819262000331565b634e487b7160e01b5f52602260045260245ffd5b93607f16936200009e565b5f80fd5b6040519190601f01601f191682016001600160401b038111838210176200029257604052565b919080601f84011215620003875782516001600160401b0381116200029257602090620003e7601f8201601f191683016200038b565b9281845282828701011162000387575f5b8181106200040d5750825f9394955001015290565b8581018301518482018401528201620003f856fe608060409080825260049081361015610016575f80fd5b5f3560e01c90816306fdde0314610a1057508063095ea7b31461092857806318160ddd1461090a57806323b872dd146107a1578063313ce5671461076457806340c10f19146105be57806342966c68146104d857806370a0823114610495578063715018a6146104175780638da5cb5b146103e357806395d89b4114610209578063a9059cbb146101d9578063dd62ed3e146101825763f2fde38b146100ba575f80fd5b3461017e57602060031936011261017e576100d3610b98565b906100dc610d1b565b73ffffffffffffffffffffffffffffffffffffffff80921692831561014f575050600554827fffffffffffffffffffffffff0000000000000000000000000000000000000000821617600555167f8be0079c531659141344cd1fd0a4f28419497f9722a3daafe3b4186f6b6457e05f80a3005b905f60249251917f1e4fbdf7000000000000000000000000000000000000000000000000000000008352820152fd5b5f80fd5b823461017e578060031936011261017e5760209061019e610b98565b6101a6610bbb565b9073ffffffffffffffffffffffffffffffffffffffff8091165f5260018452825f2091165f528252805f20549051908152f35b823461017e578060031936011261017e576020906102026101f8610b98565b6024359033610bde565b5160018152f35b503461017e575f60031936011261017e5781515f928254936001948060011c600182169687156103d9575b60209283831089146103ad57869798838897985290815f1461035257506001146102d7575b50505003601f017fffffffffffffffffffffffffffffffffffffffffffffffffffffffffffffffe01682019267ffffffffffffffff8411838510176102ab57508291826102a7925282610b34565b0390f35b6041907f4e487b71000000000000000000000000000000000000000000000000000000005f525260245ffd5b5f888152929493507f8a35acfbc15ff81a39ae7d344fd709f28e8600b4aa8c65c6b64bfe7fe36bd19b5b82841061033c57505050907fffffffffffffffffffffffffffffffffffffffffffffffffffffffffffffffe092601f92820101918193610259565b8054888501870152879450928501928101610301565b7fffffffffffffffffffffffffffffffffffffffffffffffffffffffffffffff0016848701525050151560051b830101905081601f7fffffffffffffffffffffffffffffffffffffffffffffffffffffffffffffffe0610259565b6022887f4e487b71000000000000000000000000000000000000000000000000000000005f525260245ffd5b90607f1690610234565b823461017e575f60031936011261017e5760209073ffffffffffffffffffffffffffffffffffffffff600554169051908152f35b3461017e575f60031936011261017e5761042f610d1b565b5f73ffffffffffffffffffffffffffffffffffffffff6005547fffffffffffffffffffffffff00000000000000000000000000000000000000008116600555167f8be0079c531659141344cd1fd0a4f28419497f9722a3daafe3b4186f6b6457e08280a3005b823461017e57602060031936011261017e5760209073ffffffffffffffffffffffffffffffffffffffff6104c7610b98565b165f525f8252805f20549051908152f35b50903461017e57602060031936011261017e57813590331561059057335f525f602052805f20549282841061054b5750815f933385528460205203818420558160025403600255519081527fddf252ad1be2c89b69c2b068fc378daa952ba7f163c4a11628f55a4df523b3ef60203392a3005b90517fe450d38c000000000000000000000000000000000000000000000000000000008152339181019182526020820193909352604081019190915281906060010390fd5b517f96c6fd1e0000000000000000000000000000000000000000000000000000000081525f81840152602490fd5b50903461017e578060031936011261017e576105d8610b98565b9073ffffffffffffffffffffffffffffffffffffffff602435926105fa610d1b565b169283156107085782156106ac57600254908382018092116106805750916020917f30385c845b448a36257a6a1716e6ad2e1bc2cbe333cde1e69fe849ad6511adfe93600255845f525f8352805f20828154019055845f7fddf252ad1be2c89b69c2b068fc378daa952ba7f163c4a11628f55a4df523b3ef858451868152a351908152a2005b6011907f4e487b71000000000000000000000000000000000000000000000000000000005f525260245ffd5b602060649251917f08c379a0000000000000000000000000000000000000000000000000000000008352820152602060248201527f416d6f756e74206d7573742062652067726561746572207468616e207a65726f6044820152fd5b602060649251917f08c379a0000000000000000000000000000000000000000000000000000000008352820152601f60248201527f45524332303a206d696e7420746f20746865207a65726f2061646472657373006044820152fd5b823461017e575f60031936011261017e576020905160ff7f0000000000000000000000000000000000000000000000000000000000000000168152f35b503461017e57606060031936011261017e576107bb610b98565b6107c3610bbb565b906044359273ffffffffffffffffffffffffffffffffffffffff8216805f526001602052855f20335f52602052855f2054917fffffffffffffffffffffffffffffffffffffffffffffffffffffffffffffffff831061082b575b602087610202888888610bde565b8583106108c557811561089657331561086757505f9081526001602090815286822033835281529086902091859003909155829061020261081d565b6024905f8851917f94280d62000000000000000000000000000000000000000000000000000000008352820152fd5b6024905f8851917fe602df05000000000000000000000000000000000000000000000000000000008352820152fd5b86517ffb8f41b2000000000000000000000000000000000000000000000000000000008152339181019182526020820193909352604081018690528291506060010390fd5b823461017e575f60031936011261017e576020906002549051908152f35b50903461017e578060031936011261017e57610942610b98565b6024359033156109e15773ffffffffffffffffffffffffffffffffffffffff169081156109b25760209350335f5260018452825f20825f52845280835f205582519081527f8c5be1e5ebec7d5bd14f71427d1e84f3dd0314c0f7b2291e5b200ac8c7c3b925843392a35160018152f35b6024845f8551917f94280d62000000000000000000000000000000000000000000000000000000008352820152fd5b6024845f8551917fe602df05000000000000000000000000000000000000000000000000000000008352820152fd5b90503461017e575f60031936011261017e575f92600354936001948060011c60018216968715610b2a575b60209283831089146103ad57869798838897985290815f146103525750600114610aad5750505003601f017fffffffffffffffffffffffffffffffffffffffffffffffffffffffffffffffe01682019267ffffffffffffffff8411838510176102ab57508291826102a7925282610b34565b60035f908152929493507fc2575a0e9e593c00f959f8c92f12db2869c3395a3b0502d05e2516446f71f85b5b828410610b1457505050907fffffffffffffffffffffffffffffffffffffffffffffffffffffffffffffffe092601f92820101918193610259565b8054888501870152879450928501928101610ad9565b90607f1690610a3b565b6020808252825181830181905293925f5b858110610b84575050507fffffffffffffffffffffffffffffffffffffffffffffffffffffffffffffffe0601f845f6040809697860101520116010190565b818101830151848201604001528201610b45565b6004359073ffffffffffffffffffffffffffffffffffffffff8216820361017e57565b6024359073ffffffffffffffffffffffffffffffffffffffff8216820361017e57565b9173ffffffffffffffffffffffffffffffffffffffff808416928315610ceb5716928315610cbb57825f525f60205260405f205490828210610c635750817fddf252ad1be2c89b69c2b068fc378daa952ba7f163c4a11628f55a4df523b3ef92602092855f525f84520360405f2055845f5260405f20818154019055604051908152a3565b6040517fe450d38c00000000000000000000000000000000000000000000000000000000815273ffffffffffffffffffffffffffffffffffffffff919091166004820152602481019190915260448101829052606490fd5b60246040517fec442f050000000000000000000000000000000000000000000000000000000081525f6004820152fd5b60246040517f96c6fd1e0000000000000000000000000000000000000000000000000000000081525f6004820152fd5b73ffffffffffffffffffffffffffffffffffffffff600554163303610d3c57565b60246040517f118cdaa7000000000000000000000000000000000000000000000000000000008152336004820152fdfea164736f6c6343000818000a","linkReferences":{}},"methodIdentifiers":{"allowance(address,address)":"dd62ed3e","approve(address,uint256)":"095ea7b3","balanceOf(address)":"70a08231","burn(uint256)":"42966c68","decimals()":"313ce567","mint(address,uint256)":"40c10f19","name()":"06fdde03","owner()":"8da5cb5b","renounceOwnership()":"715018a6","symbol()":"95d89b41","totalSupply()":"18160ddd","transfer(address,uint256)":"a9059cbb","transferFrom(address,address,uint256)":"23b872dd","transferOwnership(address)":"f2fde38b"},"id":86}