{"abi":[{"type":"constructor","inputs":[],"stateMutability":"nonpayable"},{"type":"fallback","stateMutability":"payable"},{"type":"receive","stateMutability":"payable"},{"type":"function","name":"ADMIN_ROLE","inputs":[],"outputs":[{"name":"","type":"bytes32","internalType":"bytes32"}],"stateMutability":"view"},{"type":"function","name":"COOLDOWN_PERIOD","inputs":[],"outputs":[{"name":"","type":"uint256","internalType":"uint256"}],"stateMutability":"view"},{"type":"function","name":"DEFAULT_ADMIN_ROLE","inputs":[],"outputs":[{"name":"","type":"bytes32","internalType":"bytes32"}],"stateMutability":"view"},{"type":"function","name":"FEE_PERCENT","inputs":[],"outputs":[{"name":"","type":"uint256","internalType":"uint256"}],"stateMutability":"view"},{"type":"function","name":"MAX_BATCH_SIZE","inputs":[],"outputs":[{"name":"","type":"uint256","internalType":"uint256"}],"stateMutability":"view"},{"type":"function","name":"SPONSOR_ROLE","inputs":[],"outputs":[{"name":"","type":"bytes32","internalType":"bytes32"}],"stateMutability":"view"},{"type":"function","name":"balanceERC20","inputs":[{"name":"token","type":"address","internalType":"address"}],"outputs":[{"name":"","type":"uint256","internalType":"uint256"}],"stateMutability":"view"},{"type":"function","name":"balanceEth","inputs":[],"outputs":[{"name":"","type":"uint256","internalType":"uint256"}],"stateMutability":"view"},{"type":"function","name":"batchSponsorERC20","inputs":[{"name":"token","type":"address","internalType":"address"},{"name":"users","type":"address[]","internalType":"address[]"},{"name":"amounts","type":"uint256[]","internalType":"uint256[]"}],"outputs":[],"stateMutability":"nonpayable"},{"type":"function","name":"batchSponsorEth","inputs":[{"name":"users","type":"address[]","internalType":"address[]"},{"name":"amounts","type":"uint256[]","internalType":"uint256[]"}],"outputs":[],"stateMutability":"nonpayable"},{"type":"function","name":"depositERC20","inputs":[{"name":"token","type":"address","internalType":"address"},{"name":"amount","type":"uint256","internalType":"uint256"}],"outputs":[],"stateMutability":"nonpayable"},{"type":"function","name":"depositEth","inputs":[],"outputs":[],"stateMutability":"payable"},{"type":"function","name":"emergencyWithdraw","inputs":[{"name":"token","type":"address","internalType":"address"},{"name":"to","type":"address","internalType":"address"},{"name":"amount","type":"uint256","internalType":"uint256"}],"outputs":[],"stateMutability":"nonpayable"},{"type":"function","name":"getRoleAdmin","inputs":[{"name":"role","type":"bytes32","internalType":"bytes32"}],"outputs":[{"name":"","type":"bytes32","internalType":"bytes32"}],"stateMutability":"view"},{"type":"function","name":"grantRole","inputs":[{"name":"role","type":"bytes32","internalType":"bytes32"},{"name":"account","type":"address","internalType":"address"}],"outputs":[],"stateMutability":"nonpayable"},{"type":"function","name":"hasRole","inputs":[{"name":"role","type":"bytes32","internalType":"bytes32"},{"name":"account","type":"address","internalType":"address"}],"outputs":[{"name":"","type":"bool","internalType":"bool"}],"stateMutability":"view"},{"type":"function","name":"lastSponsorshipTime","inputs":[{"name":"","type":"address","internalType":"address"}],"outputs":[{"name":"","type":"uint256","internalType":"uint256"}],"stateMutability":"view"},{"type":"function","name":"renounceRole","inputs":[{"name":"role","type":"bytes32","internalType":"bytes32"},{"name":"callerConfirmation","type":"address","internalType":"address"}],"outputs":[],"stateMutability":"nonpayable"},{"type":"function","name":"revokeRole","inputs":[{"name":"role","type":"bytes32","internalType":"bytes32"},{"name":"account","type":"address","internalType":"address"}],"outputs":[],"stateMutability":"nonpayable"},{"type":"function","name":"sponsorERC20","inputs":[{"name":"token","type":"address","internalType":"address"},{"name":"user","type":"address","internalType":"address"},{"name":"amount","type":"uint256","internalType":"uint256"}],"outputs":[],"stateMutability":"nonpayable"},{"type":"function","name":"sponsorEth","inputs":[{"name":"user","type":"address","internalType":"address"},{"name":"amount","type":"uint256","internalType":"uint256"}],"outputs":[],"stateMutability":"nonpayable"},{"type":"function","name":"supportsInterface","inputs":[{"name":"interfaceId","type":"bytes4","internalType":"bytes4"}],"outputs":[{"name":"","type":"bool","internalType":"bool"}],"stateMutability":"view"},{"type":"function","name":"totalFeesERC20","inputs":[{"name":"","type":"address","internalType":"address"}],"outputs":[{"name":"","type":"uint256","internalType":"uint256"}],"stateMutability":"view"},{"type":"function","name":"totalFeesEth","inputs":[],"outputs":[{"name":"","type":"uint256","internalType":"uint256"}],"stateMutability":"view"},{"type":"function","name":"totalSponsoredERC20","inputs":[{"name":"","type":"address","internalType":"address"}],"outputs":[{"name":"","type":"uint256","internalType":"uint256"}],"stateMutability":"view"},{"type":"function","name":"totalSponsoredEth","inputs":[],"outputs":[{"name":"","type":"uint256","internalType":"uint256"}],"stateMutability":"view"},{"type":"function","name":"withdrawFeesERC20","inputs":[{"name":"token","type":"address","internalType":"address"},{"name":"to","type":"address","internalType":"address"},{"name":"amount","type":"uint256","internalType":"uint256"}],"outputs":[],"stateMutability":"nonpayable"},{"type":"function","name":"withdrawFeesEth","inputs":[{"name":"to","type":"address","internalType":"address payable"},{"name":"amount","type":"uint256","internalType":"uint256"}],"outputs":[],"stateMutability":"nonpayable"},{"type":"event","name":"BatchERC20Sponsored","inputs":[{"name":"sponsor","type":"address","indexed":true,"internalType":"address"},{"name":"token","type":"address","indexed":true,"internalType":"address"},{"name":"count","type":"uint256","indexed":false,"internalType":"uint256"},{"name":"totalSent","type":"uint256","indexed":false,"internalType":"uint256"},{"name":"totalFees","type":"uint256","indexed":false,"internalType":"uint256"}],"anonymous":false},{"type":"event","name":"BatchEthSponsored","inputs":[{"name":"sponsor","type":"address","indexed":true,"internalType":"address"},{"name":"count","type":"uint256","indexed":false,"internalType":"uint256"},{"name":"totalSent","type":"uint256","indexed":false,"internalType":"uint256"},{"name":"totalFees","type":"uint256","indexed":false,"internalType":"uint256"}],"anonymous":false},{"type":"event","name":"ERC20Deposited","inputs":[{"name":"from","type":"address","indexed":true,"internalType":"address"},{"name":"token","type":"address","indexed":true,"internalType":"address"},{"name":"amount","type":"uint256","indexed":false,"internalType":"uint256"}],"anonymous":false},{"type":"event","name":"ERC20Sponsored","inputs":[{"name":"sponsor","type":"address","indexed":true,"internalType":"address"},{"name":"user","type":"address","indexed":true,"internalType":"address"},{"name":"token","type":"address","indexed":true,"internalType":"address"},{"name":"netAmount","type":"uint256","indexed":false,"internalType":"uint256"},{"name":"fee","type":"uint256","indexed":false,"internalType":"uint256"}],"anonymous":false},{"type":"event","name":"EmergencyWithdraw","inputs":[{"name":"token","type":"address","indexed":true,"internalType":"address"},{"name":"to","type":"address","indexed":true,"internalType":"address"},{"name":"amount","type":"uint256","indexed":false,"internalType":"uint256"}],"anonymous":false},{"type":"event","name":"EthDeposited","inputs":[{"name":"from","type":"address","indexed":true,"internalType":"address"},{"name":"amount","type":"uint256","indexed":false,"internalType":"uint256"}],"anonymous":false},{"type":"event","name":"EthSponsored","inputs":[{"name":"sponsor","type":"address","indexed":true,"internalType":"address"},{"name":"user","type":"address","indexed":true,"internalType":"address"},{"name":"netAmount","type":"uint256","indexed":false,"internalType":"uint256"},{"name":"fee","type":"uint256","indexed":false,"internalType":"uint256"}],"anonymous":false},{"type":"event","name":"FeesWithdrawnERC20","inputs":[{"name":"token","type":"address","indexed":true,"internalType":"address"},{"name":"to","type":"address","indexed":true,"internalType":"address"},{"name":"amount","type":"uint256","indexed":false,"internalType":"uint256"}],"anonymous":false},{"type":"event","name":"FeesWithdrawnEth","inputs":[{"name":"to","type":"address","indexed":true,"internalType":"address"},{"name":"amount","type":"uint256","indexed":false,"internalType":"uint256"}],"anonymous":false},{"type":"event","name":"RoleAdminChanged","inputs":[{"name":"role","type":"bytes32","indexed":true,"internalType":"bytes32"},{"name":"previousAdminRole","type":"bytes32","indexed":true,"internalType":"bytes32"},{"name":"newAdminRole","type":"bytes32","indexed":true,"internalType":"bytes32"}],"anonymous":false},{"type":"event","name":"RoleGranted","inputs":[{"name":"role","type":"bytes32","indexed":true,"internalType":"bytes32"},{"name":"account","type":"address","indexed":true,"internalType":"address"},{"name":"sender","type":"address","indexed":true,"internalType":"address"}],"anonymous":false},{"type":"event","name":"RoleRevoked","inputs":[{"name":"role","type":"bytes32","indexed":true,"internalType":"bytes32"},{"name":"account","type":"address","indexed":true,"internalType":"address"},{"name":"sender","type":"address","indexed":true,"internalType":"address"}],"anonymous":false},{"type":"error","name":"AccessControlBadConfirmation","inputs":[]},{"type":"error","name":"AccessControlUnauthorizedAccount","inputs":[{"name":"account","type":"address","internalType":"address"},{"name":"neededRole","type":"bytes32","internalType":"bytes32"}]},{"type":"error","name":"BatchTooLarge","inputs":[{"name":"maxAllowed","type":"uint256","internalType":"uint256"}]},{"type":"error","name":"CooldownActive","inputs":[{"name":"remainingTime","type":"uint256","internalType":"uint256"}]},{"type":"error","name":"InsufficientBalance","inputs":[{"name":"available","type":"uint256","internalType":"uint256"},{"name":"requested","type":"uint256","internalType":"uint256"}]},{"type":"error","name":"InvalidAmount","inputs":[]},{"type":"error","name":"LengthMismatch","inputs":[]},{"type":"error","name":"ReentrancyGuardReentrantCall","inputs":[]},{"type":"error","name":"SafeERC20FailedOperation","inputs":[{"name":"token","type":"address","internalType":"address"}]},{"type":"error","name":"TransferFailed","inputs":[]},{"type":"error","name":"Unauthorized","inputs":[]},{"type":"error","name":"ZeroAddress","inputs":[]}],"bytecode":{"object":"0x608060405234620000425760018055620000193362000046565b506200002533620000b6565b50620000313362000156565b50604051611def9081620001f18239f35b5f80fd5b6001600160a01b03165f8181525f8051602062002000833981519152602052604090205460ff16620000b1575f8181525f805160206200200083398151915260205260408120805460ff191660011790553391905f8051602062001fe08339815191528180a4600190565b505f90565b6001600160a01b03165f8181527f7d7ffb7a348e1c6a02869081a26547b49160dd3df72d1d75a570eb9b698292ec60205260409020547fa49807205ce4d355092ef5a8a18f56e8913cf4a201fbe287825b095693c21775919060ff166200015057815f525f60205260405f20815f5260205260405f20600160ff1982541617905533915f8051602062001fe08339815191525f80a4600190565b50505f90565b6001600160a01b03165f8181527f6552b9dcf27e3a3a9409a821ff6c0abff48784773f655b2dd25ae639d90f2c9260205260409020547f1597bc5e34ff090612f53164e4e642d2ab4fc78bffe19ed1b602a0d12559561a919060ff166200015057815f525f60205260405f20815f5260205260405f20600160ff1982541617905533915f8051602062001fe08339815191525f80a460019056fe60806040908082526004908136101561004e575b50503615610022573461002257005b513481527f66ff7c8f71ccc7c36152a41920d0d3b46ef3034359f76aa1498ed4478c204b5c60203392a2005b5f3560e01c90816301ffc9a714611707575080630a4c731f146116c35780630f4ac71a1461160f578063248a9ca3146115e55780632c10c702146115a15780632f2ff15d1461157857806336568abe1461150d5780633931721b14611369578063439370b11461132a5780635cdad9c2146113105780636e99d52f146112f4578063759fe814146112d657806375b238fc1461129c5780638907fa2c14610f445780638a33345614610e5857806391d1485414610e0657806397feb92614610cba5780639b8cd8191461085d5780639de54ee7146106bd578063a217fddf146106a3578063c2d7944414610669578063cfdbf2541461064e578063d4d683b314610487578063d547741f1461044b578063e63ea4081461020d578063e884aef2146101c9578063eaf98d23146101ae5763ed9441991461018e5780610013565b90346101aa575f6003193601126101aa57602091549051908152f35b5f80fd5b82346101aa575f6003193601126101aa576020905160018152f35b82346101aa5760206003193601126101aa5760209073ffffffffffffffffffffffffffffffffffffffff6101fb6117a4565b165f5260068252805f20549051908152f35b50346101aa5761021c366117ea565b919390926102286119cd565b610230611c28565b73ffffffffffffffffffffffffffffffffffffffff8085169586156104235784156103fb571693846103095750478084116102d557505f80808086895af1610276611970565b50156102ae57507ff24ef89f38eadc1bde50701ad6e4d6d11a2dc24f7cf834a486991f3883328504916020915b51908152a360018055005b90517f90b8ec18000000000000000000000000000000000000000000000000000000008152fd5b604493919251927fcf4791810000000000000000000000000000000000000000000000000000000084528301526024820152fd5b9082517f70a082310000000000000000000000000000000000000000000000000000000081523082820152602081602481895afa9081156103f1575f916103bf575b5080851161038a57505091602091610385827ff24ef89f38eadc1bde50701ad6e4d6d11a2dc24f7cf834a486991f38833285049587611cd6565b6102a3565b90846044928551927fcf4791810000000000000000000000000000000000000000000000000000000084528301526024820152fd5b90506020813d6020116103e9575b816103da6020938361185d565b810103126101aa57515f61034b565b3d91506103cd565b84513d5f823e3d90fd5b8284517f2c5211c6000000000000000000000000000000000000000000000000000000008152fd5b8284517fd92e233d000000000000000000000000000000000000000000000000000000008152fd5b5090346101aa57806003193601126101aa576104859135610480600161046f6117c7565b93835f525f6020525f200154611a5f565b611b28565b005b50346101aa57610496366117ea565b9290916104a16119cd565b6104a9611c28565b73ffffffffffffffffffffffffffffffffffffffff8091169283158015610644575b61061c5784156105f457835f5260209260058452865f2054808711610588575086517f70a0823100000000000000000000000000000000000000000000000000000000815230828201528481602481895afa9081156105ea575f916105bd575b508087116105885750508394957fdd4710e017d20a52587aa28f802f63ad6cc41763aa84044be2fa4fb7d5535484945f5260058452805f2061056e8882546118cb565b905561057b878388611cd6565b519586521693a360018055005b90866044928951927fcf4791810000000000000000000000000000000000000000000000000000000084528301526024820152fd5b90508481813d83116105e3575b6105d4818361185d565b810103126101aa57515f61052b565b503d6105ca565b88513d5f823e3d90fd5b8286517f2c5211c6000000000000000000000000000000000000000000000000000000008152fd5b8286517fd92e233d000000000000000000000000000000000000000000000000000000008152fd5b50818116156104cb565b82346101aa575f6003193601126101aa576020905160648152f35b82346101aa575f6003193601126101aa57602090517f1597bc5e34ff090612f53164e4e642d2ab4fc78bffe19ed1b602a0d12559561a8152f35b82346101aa575f6003193601126101aa57602090515f8152f35b5090346101aa57806003193601126101aa576106d76117a4565b73ffffffffffffffffffffffffffffffffffffffff602435916106f8611bc6565b610700611c28565b610708611c63565b1691821561083557811561080d5761071f82611cc1565b61072981846118cb565b92478082116107d85750505f80808086885af1610744611970565b50156107b05782939461077a7f4e7ccd18e5790be1a3a2b95335c6f9380c2f0a648b33ac17252aaf4c546f7b5994600254611905565b600255610788828254611905565b9055815193845260208401523392a36107aa335f5260066020524260405f2055565b60018055005b8482517f90b8ec18000000000000000000000000000000000000000000000000000000008152fd5b86925060449351927fcf4791810000000000000000000000000000000000000000000000000000000084528301526024820152fd5b8390517f2c5211c6000000000000000000000000000000000000000000000000000000008152fd5b8390517fd92e233d000000000000000000000000000000000000000000000000000000008152fd5b5090346101aa5760606003193601126101aa576108786117a4565b67ffffffffffffffff6024358181116101aa57610898903690860161182c565b9390916044359081116101aa576108b2903690870161182c565b90956108bc611bc6565b6108c4611c28565b6108cc611c63565b73ffffffffffffffffffffffffffffffffffffffff851615610c9357818603610c6c5785158015610c62575b610c32575f805b878110610b83575083517f70a08231000000000000000000000000000000000000000000000000000000008152308382015260208160248173ffffffffffffffffffffffffffffffffffffffff8b165afa908115610b79575f91610b47575b50808211610b13575050505f955f935f5b878110610a1d5788887ff6332274744e25655aa897e1164a5d39a11ba2133942f1f09c2ea764ac45e58673ffffffffffffffffffffffffffffffffffffffff8a610a078b8b8484165f526003602052805f206109cc898254611905565b90558484165f526005602052805f206109e6838254611905565b90555193849316963396846040919493926060820195825260208201520152565b0390a36107aa335f5260066020524260405f2055565b610a28818585611912565b35610a3290611cc1565b98899687610a41848888611912565b3590610a4c916118cb565b9182610a59858d88611912565b610a629061194f565b8173ffffffffffffffffffffffffffffffffffffffff8d1691610a8492611cd6565b610a8d91611905565b9a610a9791611905565b96610aa3838b86611912565b610aac9061194f565b73ffffffffffffffffffffffffffffffffffffffff1690875192835260208301528673ffffffffffffffffffffffffffffffffffffffff8a169233917f41fd0db4f8dc336ec5fd549c857cf9ebedddc99ac103a6e1ee18c3c5631b801f91a460010161096f565b604493508451927fcf4791810000000000000000000000000000000000000000000000000000000084528301526024820152fd5b90506020813d602011610b71575b81610b626020938361185d565b810103126101aa57515f61095e565b3d9150610b55565b85513d5f823e3d90fd5b9073ffffffffffffffffffffffffffffffffffffffff610bac610ba7848b8a611912565b61194f565b1615610c0a57610bbd82858b611912565b3515610be257610bdb600191610bd484878d611912565b3590611905565b91016108ff565b8285517f2c5211c6000000000000000000000000000000000000000000000000000000008152fd5b8285517fd92e233d000000000000000000000000000000000000000000000000000000008152fd5b60249060648451917fa67b9f9e000000000000000000000000000000000000000000000000000000008352820152fd5b50606486116108f8565b82517fff633a38000000000000000000000000000000000000000000000000000000008152fd5b82517fd92e233d000000000000000000000000000000000000000000000000000000008152fd5b5090346101aa57806003193601126101aa57610cd46117a4565b9073ffffffffffffffffffffffffffffffffffffffff6024359216928315610ddf578215610db8578151907f23b872dd0000000000000000000000000000000000000000000000000000000060208301523360248301523060448301528360648301526064825260a082019082821067ffffffffffffffff831117610d8c57508252610d609084611d4b565b519081527fe33e9822e3317b004d587136bab2627ea1ecfbba4eb79abddd0a56cfdd09c0e160203392a3005b6041907f4e487b71000000000000000000000000000000000000000000000000000000005f525260245ffd5b90517f2c5211c6000000000000000000000000000000000000000000000000000000008152fd5b90517fd92e233d000000000000000000000000000000000000000000000000000000008152fd5b5090346101aa57806003193601126101aa57602091610e236117c7565b90355f525f835273ffffffffffffffffffffffffffffffffffffffff825f2091165f52825260ff815f20541690519015158152f35b50346101aa57816003193601126101aa5780359173ffffffffffffffffffffffffffffffffffffffff83168093036101aa5760243591610e966119cd565b610e9e611c28565b8315610ddf578215610db85780548084116102d55747808511610f0f575083610ec6916118cb565b81555f80808086885af1610ed8611970565b50156102ae57507f3dca0a6f40bbfc2b20f63cb6feffc4432e6b72d1a54e1008c61789116c16d3629160209151908152a260018055005b84915060449351927fcf4791810000000000000000000000000000000000000000000000000000000084528301526024820152fd5b50346101aa57816003193601126101aa5767ffffffffffffffff9080358281116101aa57610f75903690830161182c565b9390926024359081116101aa57610f8f903690840161182c565b9290610f99611bc6565b610fa1611c28565b610fa9611c63565b838603611274578515801561126a575b61123a575f805b87811061119757504780821161116257505085905f95945f955f5b84811061105a57847fcd99445236c02d45a7070708e727cb18f43ae1fa50ae886fbeae5cbb09036cbb898b6110448b8b61101784600254611905565b600255611025858254611905565b9055519283923396846040919493926060820195825260208201520152565b0390a26107aa335f5260066020524260405f2055565b909192939761106a828587611912565b3561107490611cc1565b9081611081848789611912565b359061108c916118cb565b90818473ffffffffffffffffffffffffffffffffffffffff9d8e916110b19189611912565b6110ba9061194f565b165a5f809381938293f16110cc611970565b501561113a57908a9b6110fb610ba7866110f4876110ee8760019b9a99611905565b9f611905565b9e89611912565b1691895191825260208201527f4e7ccd18e5790be1a3a2b95335c6f9380c2f0a648b33ac17252aaf4c546f7b59893392a3019088939291979697610fdb565b8789517f90b8ec18000000000000000000000000000000000000000000000000000000008152fd5b90915060449351927fcf4791810000000000000000000000000000000000000000000000000000000084528301526024820152fd5b9073ffffffffffffffffffffffffffffffffffffffff6111bb610ba7848b8b611912565b1615611212576111cc828785611912565b35156111ea576111e3600191610bd4848987611912565b9101610fc0565b8385517f2c5211c6000000000000000000000000000000000000000000000000000000008152fd5b8385517fd92e233d000000000000000000000000000000000000000000000000000000008152fd5b50606460249251917fa67b9f9e000000000000000000000000000000000000000000000000000000008352820152fd5b5060648611610fb9565b5090517fff633a38000000000000000000000000000000000000000000000000000000008152fd5b82346101aa575f6003193601126101aa57602090517fa49807205ce4d355092ef5a8a18f56e8913cf4a201fbe287825b095693c217758152f35b82346101aa575f6003193601126101aa576020906002549051908152f35b82346101aa575f6003193601126101aa5760209051610e108152f35b82346101aa575f6003193601126101aa5751478152602090f35b505f6003193601126101aa573415610db85750513481527f66ff7c8f71ccc7c36152a41920d0d3b46ef3034359f76aa1498ed4478c204b5c60203392a2005b50346101aa57611378366117ea565b9391611385939193611bc6565b61138d611c28565b611395611c63565b73ffffffffffffffffffffffffffffffffffffffff8091169384158015611503575b6104235785156103fb576113ca86611cc1565b6113d481886118cb565b938551907f70a08231000000000000000000000000000000000000000000000000000000008252308183015260209182816024818c5afa9081156105ea575f916114d6575b50808a116114a1575050908291611453867f41fd0db4f8dc336ec5fd549c857cf9ebedddc99ac103a6e1ee18c3c5631b801f96958a611cd6565b875f5260038152865f20611468878254611905565b9055875f5260058152865f2061147f838254611905565b9055865195865285015216923392a46107aa335f5260066020524260405f2055565b90896044928951927fcf4791810000000000000000000000000000000000000000000000000000000084528301526024820152fd5b90508281813d83116114fc575b6114ed818361185d565b810103126101aa57515f611419565b503d6114e3565b50818116156113b7565b5090346101aa57806003193601126101aa576115276117c7565b903373ffffffffffffffffffffffffffffffffffffffff83160361155057506104859135611b28565b9050517f6697b232000000000000000000000000000000000000000000000000000000008152fd5b5090346101aa57806003193601126101aa57610485913561159c600161046f6117c7565b611a80565b82346101aa5760206003193601126101aa5760209073ffffffffffffffffffffffffffffffffffffffff6115d36117a4565b165f5260038252805f20549051908152f35b5090346101aa5760206003193601126101aa57602091355f525f82526001815f2001549051908152f35b50346101aa57602091826003193601126101aa578273ffffffffffffffffffffffffffffffffffffffff6116416117a4565b169260248351809581937f70a0823100000000000000000000000000000000000000000000000000000000835230908301525afa9182156116b9575f9261168a575b5051908152f35b9091508281813d83116116b2575b6116a2818361185d565b810103126101aa5751905f611683565b503d611698565b50513d5f823e3d90fd5b82346101aa5760206003193601126101aa5760209073ffffffffffffffffffffffffffffffffffffffff6116f56117a4565b165f5260058252805f20549051908152f35b82346101aa5760206003193601126101aa5735907fffffffff0000000000000000000000000000000000000000000000000000000082168092036101aa57817f7965db0b000000000000000000000000000000000000000000000000000000006020931490811561177a575b5015158152f35b7f01ffc9a70000000000000000000000000000000000000000000000000000000091501483611773565b6004359073ffffffffffffffffffffffffffffffffffffffff821682036101aa57565b6024359073ffffffffffffffffffffffffffffffffffffffff821682036101aa57565b60031960609101126101aa5773ffffffffffffffffffffffffffffffffffffffff9060043582811681036101aa579160243590811681036101aa579060443590565b9181601f840112156101aa5782359167ffffffffffffffff83116101aa576020808501948460051b0101116101aa57565b90601f7fffffffffffffffffffffffffffffffffffffffffffffffffffffffffffffffe0910116810190811067ffffffffffffffff82111761189e57604052565b7f4e487b71000000000000000000000000000000000000000000000000000000005f52604160045260245ffd5b919082039182116118d857565b7f4e487b71000000000000000000000000000000000000000000000000000000005f52601160045260245ffd5b919082018092116118d857565b91908110156119225760051b0190565b7f4e487b71000000000000000000000000000000000000000000000000000000005f52603260045260245ffd5b3573ffffffffffffffffffffffffffffffffffffffff811681036101aa5790565b3d156119c8573d9067ffffffffffffffff821161189e57604051916119bd60207fffffffffffffffffffffffffffffffffffffffffffffffffffffffffffffffe0601f840116018461185d565b82523d5f602084013e565b606090565b335f9081527f7d7ffb7a348e1c6a02869081a26547b49160dd3df72d1d75a570eb9b698292ec60205260409020547fa49807205ce4d355092ef5a8a18f56e8913cf4a201fbe287825b095693c217759060ff1615611a285750565b604490604051907fe2517d3f0000000000000000000000000000000000000000000000000000000082523360048301526024820152fd5b805f525f60205260405f20335f5260205260ff60405f20541615611a285750565b90815f525f60205273ffffffffffffffffffffffffffffffffffffffff60405f20911690815f5260205260ff60405f205416155f14611b2257815f525f60205260405f20815f5260205260405f2060017fffffffffffffffffffffffffffffffffffffffffffffffffffffffffffffff0082541617905533917f2f8788117e7eff1d82e926ec794901d17c78024a50270940304540a733656f0d5f80a4600190565b50505f90565b90815f525f60205273ffffffffffffffffffffffffffffffffffffffff60405f20911690815f5260205260ff60405f2054165f14611b2257815f525f60205260405f20815f5260205260405f207fffffffffffffffffffffffffffffffffffffffffffffffffffffffffffffff00815416905533917ff6391f5c32d9c69d2a47ea670b442974b53935d1edc7fd64eb21e047a839171b5f80a4600190565b335f9081527f6552b9dcf27e3a3a9409a821ff6c0abff48784773f655b2dd25ae639d90f2c92602052604090205460ff1615611bfe57565b60046040517f82b42900000000000000000000000000000000000000000000000000000000008152fd5b600260015414611c39576002600155565b60046040517f3ee5aeb5000000000000000000000000000000000000000000000000000000008152fd5b335f52600660205260405f2054610e1081018091116118d857804210611c865750565b611c9360249142906118cb565b604051907fc1ab61a10000000000000000000000000000000000000000000000000000000082526004820152fd5b808004600114811517156118d8576064900490565b9173ffffffffffffffffffffffffffffffffffffffff604051927fa9059cbb000000000000000000000000000000000000000000000000000000006020850152166024830152604482015260448152608081019181831067ffffffffffffffff84111761189e57611d4992604052611d4b565b565b905f602091828151910182855af115611dd7575f513d611dce575073ffffffffffffffffffffffffffffffffffffffff81163b155b611d875750565b60249073ffffffffffffffffffffffffffffffffffffffff604051917f5274afe7000000000000000000000000000000000000000000000000000000008352166004820152fd5b60011415611d80565b6040513d5f823e3d90fdfea164736f6c6343000818000a2f8788117e7eff1d82e926ec794901d17c78024a50270940304540a733656f0dad3228b676f7d3cd4284a5443f17f1962b36e491b30a40b2405849e597ba5fb5","linkReferences":{}},"methodIdentifiers":{"ADMIN_ROLE()":"75b238fc","COOLDOWN_PERIOD()":"6e99d52f","DEFAULT_ADMIN_ROLE()":"a217fddf","FEE_PERCENT()":"eaf98d23","MAX_BATCH_SIZE()":"cfdbf254","SPONSOR_ROLE()":"c2d79444","balanceERC20(address)":"0f4ac71a","balanceEth()":"5cdad9c2","batchSponsorERC20(address,address[],uint256[])":"9b8cd819","batchSponsorEth(address[],uint256[])":"8907fa2c","depositERC20(address,uint256)":"97feb926","depositEth()":"439370b1","emergencyWithdraw(address,address,uint256)":"e63ea408","getRoleAdmin(bytes32)":"248a9ca3","grantRole(bytes32,address)":"2f2ff15d","hasRole(bytes32,address)":"91d14854","lastSponsorshipTime(address)":"e884aef2","renounceRole(bytes32,address)":"36568abe","revokeRole(bytes32,address)":"d547741f","sponsorERC20(address,address,uint256)":"3931721b","sponsorEth(address,uint256)":"9de54ee7","supportsInterface(bytes4)":"01ffc9a7","totalFeesERC20(address)":"0a4c731f","totalFeesEth()":"ed944199","totalSponsoredERC20(address)":"2c10c702","totalSponsoredEth()":"759fe814","withdrawFeesERC20(address,address,uint256)":"d4d683b3","withdrawFeesEth(address,uint256)":"8a333456"},"id":83}