{"abi":[{"type":"constructor","inputs":[{"name":"_stakeToken","type":"address","internalType":"address"},{"name":"_minStake","type":"uint256","internalType":"uint256"},{"name":"_unstakeCooldown","type":"uint256","internalType":"uint256"},{"name":"_voteThresholdPct","type":"uint256","internalType":"uint256"}],"stateMutability":"nonpayable"},{"type":"function","name":"MAX_BATCH","inputs":[],"outputs":[{"name":"","type":"uint256","internalType":"uint256"}],"stateMutability":"view"},{"type":"function","name":"MAX_TIER","inputs":[],"outputs":[{"name":"","type":"uint8","internalType":"uint8"}],"stateMutability":"view"},{"type":"function","name":"addRelayer","inputs":[{"name":"chainId","type":"uint256","internalType":"uint256"},{"name":"tier","type":"uint8","internalType":"uint8"}],"outputs":[],"stateMutability":"nonpayable"},{"type":"function","name":"addRelayersBatch","inputs":[{"name":"relayers","type":"address[]","internalType":"address[]"},{"name":"chainIds","type":"uint256[]","internalType":"uint256[]"},{"name":"tiers","type":"uint8[]","internalType":"uint8[]"}],"outputs":[],"stateMutability":"nonpayable"},{"type":"function","name":"executeGovernanceDecision","inputs":[{"name":"relayer","type":"address","internalType":"address"}],"outputs":[],"stateMutability":"nonpayable"},{"type":"function","name":"getRelayerInfo","inputs":[{"name":"relayer","type":"address","internalType":"address"}],"outputs":[{"name":"","type":"tuple","internalType":"struct GlobalRelayerRegistry.RelayerInfo","components":[{"name":"active","type":"bool","internalType":"bool"},{"name":"markedForRemoval","type":"bool","internalType":"bool"},{"name":"addedAt","type":"uint256","internalType":"uint256"},{"name":"tier","type":"uint8","internalType":"uint8"},{"name":"chainId","type":"uint256","internalType":"uint256"},{"name":"stake","type":"uint256","internalType":"uint256"},{"name":"votesFor","type":"uint256","internalType":"uint256"},{"name":"votesAgainst","type":"uint256","internalType":"uint256"}]}],"stateMutability":"view"},{"type":"function","name":"isRelayer","inputs":[{"name":"relayer","type":"address","internalType":"address"}],"outputs":[{"name":"","type":"bool","internalType":"bool"}],"stateMutability":"view"},{"type":"function","name":"listRelayers","inputs":[{"name":"start","type":"uint256","internalType":"uint256"},{"name":"end","type":"uint256","internalType":"uint256"}],"outputs":[{"name":"","type":"address[]","internalType":"address[]"}],"stateMutability":"view"},{"type":"function","name":"minStake","inputs":[],"outputs":[{"name":"","type":"uint256","internalType":"uint256"}],"stateMutability":"view"},{"type":"function","name":"owner","inputs":[],"outputs":[{"name":"","type":"address","internalType":"address"}],"stateMutability":"view"},{"type":"function","name":"pause","inputs":[],"outputs":[],"stateMutability":"nonpayable"},{"type":"function","name":"paused","inputs":[],"outputs":[{"name":"","type":"bool","internalType":"bool"}],"stateMutability":"view"},{"type":"function","name":"removeRelayer","inputs":[{"name":"relayer","type":"address","internalType":"address"}],"outputs":[],"stateMutability":"nonpayable"},{"type":"function","name":"removeRelayersBatch","inputs":[{"name":"relayers","type":"address[]","internalType":"address[]"}],"outputs":[],"stateMutability":"nonpayable"},{"type":"function","name":"renounceOwnership","inputs":[],"outputs":[],"stateMutability":"nonpayable"},{"type":"function","name":"setMinStake","inputs":[{"name":"_minStake","type":"uint256","internalType":"uint256"}],"outputs":[],"stateMutability":"nonpayable"},{"type":"function","name":"setUnstakeCooldown","inputs":[{"name":"_cooldown","type":"uint256","internalType":"uint256"}],"outputs":[],"stateMutability":"nonpayable"},{"type":"function","name":"setVoteThresholdPct","inputs":[{"name":"_pct","type":"uint256","internalType":"uint256"}],"outputs":[],"stateMutability":"nonpayable"},{"type":"function","name":"stakeMore","inputs":[{"name":"amount","type":"uint256","internalType":"uint256"}],"outputs":[],"stateMutability":"nonpayable"},{"type":"function","name":"stakeToken","inputs":[],"outputs":[{"name":"","type":"address","internalType":"contract IERC20"}],"stateMutability":"view"},{"type":"function","name":"totalRelayers","inputs":[],"outputs":[{"name":"","type":"uint256","internalType":"uint256"}],"stateMutability":"view"},{"type":"function","name":"transferOwnership","inputs":[{"name":"newOwner","type":"address","internalType":"address"}],"outputs":[],"stateMutability":"nonpayable"},{"type":"function","name":"unlockTimestampOf","inputs":[{"name":"relayer","type":"address","internalType":"address"}],"outputs":[{"name":"","type":"uint256","internalType":"uint256"}],"stateMutability":"view"},{"type":"function","name":"unpause","inputs":[],"outputs":[],"stateMutability":"nonpayable"},{"type":"function","name":"unstakeCooldown","inputs":[],"outputs":[{"name":"","type":"uint256","internalType":"uint256"}],"stateMutability":"view"},{"type":"function","name":"voteOnRelayer","inputs":[{"name":"relayer","type":"address","internalType":"address"},{"name":"approve","type":"bool","internalType":"bool"}],"outputs":[],"stateMutability":"nonpayable"},{"type":"function","name":"voteThresholdPct","inputs":[],"outputs":[{"name":"","type":"uint256","internalType":"uint256"}],"stateMutability":"view"},{"type":"function","name":"withdrawStake","inputs":[],"outputs":[],"stateMutability":"nonpayable"},{"type":"event","name":"GovernanceDecisionReady","inputs":[{"name":"relayer","type":"address","indexed":true,"internalType":"address"},{"name":"approved","type":"bool","indexed":false,"internalType":"bool"},{"name":"totalVotes","type":"uint256","indexed":false,"internalType":"uint256"},{"name":"timestamp","type":"uint256","indexed":false,"internalType":"uint256"}],"anonymous":false},{"type":"event","name":"MinStakeUpdated","inputs":[{"name":"oldValue","type":"uint256","indexed":false,"internalType":"uint256"},{"name":"newValue","type":"uint256","indexed":false,"internalType":"uint256"}],"anonymous":false},{"type":"event","name":"OwnershipTransferred","inputs":[{"name":"previousOwner","type":"address","indexed":true,"internalType":"address"},{"name":"newOwner","type":"address","indexed":true,"internalType":"address"}],"anonymous":false},{"type":"event","name":"Paused","inputs":[{"name":"account","type":"address","indexed":false,"internalType":"address"}],"anonymous":false},{"type":"event","name":"RelayerAdded","inputs":[{"name":"relayer","type":"address","indexed":true,"internalType":"address"},{"name":"chainId","type":"uint256","indexed":false,"internalType":"uint256"},{"name":"tier","type":"uint8","indexed":false,"internalType":"uint8"},{"name":"stake","type":"uint256","indexed":false,"internalType":"uint256"},{"name":"timestamp","type":"uint256","indexed":false,"internalType":"uint256"}],"anonymous":false},{"type":"event","name":"RelayerMarkedRemoved","inputs":[{"name":"relayer","type":"address","indexed":true,"internalType":"address"},{"name":"timestamp","type":"uint256","indexed":false,"internalType":"uint256"},{"name":"unlockAt","type":"uint256","indexed":false,"internalType":"uint256"}],"anonymous":false},{"type":"event","name":"RelayerRemovedByGovernance","inputs":[{"name":"relayer","type":"address","indexed":true,"internalType":"address"},{"name":"timestamp","type":"uint256","indexed":false,"internalType":"uint256"}],"anonymous":false},{"type":"event","name":"RelayerStaked","inputs":[{"name":"relayer","type":"address","indexed":true,"internalType":"address"},{"name":"amount","type":"uint256","indexed":false,"internalType":"uint256"}],"anonymous":false},{"type":"event","name":"RelayerWithdrawnStake","inputs":[{"name":"relayer","type":"address","indexed":true,"internalType":"address"},{"name":"amount","type":"uint256","indexed":false,"internalType":"uint256"}],"anonymous":false},{"type":"event","name":"Unpaused","inputs":[{"name":"account","type":"address","indexed":false,"internalType":"address"}],"anonymous":false},{"type":"event","name":"UnstakeCooldownUpdated","inputs":[{"name":"oldValue","type":"uint256","indexed":false,"internalType":"uint256"},{"name":"newValue","type":"uint256","indexed":false,"internalType":"uint256"}],"anonymous":false},{"type":"event","name":"VoteCast","inputs":[{"name":"voter","type":"address","indexed":true,"internalType":"address"},{"name":"relayer","type":"address","indexed":true,"internalType":"address"},{"name":"approve","type":"bool","indexed":false,"internalType":"bool"},{"name":"totalFor","type":"uint256","indexed":false,"internalType":"uint256"},{"name":"totalAgainst","type":"uint256","indexed":false,"internalType":"uint256"}],"anonymous":false},{"type":"event","name":"VoteThresholdUpdated","inputs":[{"name":"oldValue","type":"uint256","indexed":false,"internalType":"uint256"},{"name":"newValue","type":"uint256","indexed":false,"internalType":"uint256"}],"anonymous":false},{"type":"error","name":"AlreadyRegistered","inputs":[{"name":"relayer","type":"address","internalType":"address"}]},{"type":"error","name":"AlreadyVoted","inputs":[{"name":"voter","type":"address","internalType":"address"},{"name":"relayer","type":"address","internalType":"address"}]},{"type":"error","name":"BatchTooLarge","inputs":[{"name":"provided","type":"uint256","internalType":"uint256"},{"name":"maxAllowed","type":"uint256","internalType":"uint256"}]},{"type":"error","name":"DecisionNotReady","inputs":[]},{"type":"error","name":"EnforcedPause","inputs":[]},{"type":"error","name":"ExpectedPause","inputs":[]},{"type":"error","name":"InsufficientStake","inputs":[{"name":"required","type":"uint256","internalType":"uint256"},{"name":"provided","type":"uint256","internalType":"uint256"}]},{"type":"error","name":"InvalidChainId","inputs":[{"name":"chainId","type":"uint256","internalType":"uint256"}]},{"type":"error","name":"InvalidRange","inputs":[]},{"type":"error","name":"InvalidTier","inputs":[{"name":"tier","type":"uint8","internalType":"uint8"}]},{"type":"error","name":"LengthMismatch","inputs":[]},{"type":"error","name":"NotMarkedForWithdrawal","inputs":[{"name":"relayer","type":"address","internalType":"address"}]},{"type":"error","name":"NotRegistered","inputs":[{"name":"relayer","type":"address","internalType":"address"}]},{"type":"error","name":"OwnableInvalidOwner","inputs":[{"name":"owner","type":"address","internalType":"address"}]},{"type":"error","name":"OwnableUnauthorizedAccount","inputs":[{"name":"account","type":"address","internalType":"address"}]},{"type":"error","name":"ReentrancyGuardReentrantCall","inputs":[]},{"type":"error","name":"SafeERC20FailedOperation","inputs":[{"name":"token","type":"address","internalType":"address"}]},{"type":"error","name":"UnlockPending","inputs":[{"name":"availableAt","type":"uint256","internalType":"uint256"}]},{"type":"error","name":"ZeroAddress","inputs":[]},{"type":"error","name":"ZeroAmount","inputs":[]}],"bytecode":{"object":"0x60803461011657601f62001e8e38819003918201601f191683019291906001600160401b0384118385101761011a5781608092849260409687528339810103126101165780516001600160a01b03919082811690819003610116576020820151906060858401519301519333156100ff575f549060018060a01b03199133838216175f558751913391167f8be0079c531659141344cd1fd0a4f28419497f9722a3daafe3b4186f6b6457e05f80a36001805582156100f05750606485116100df57600654161760065560035560045560055551611d5f90816200012f8239f35b855163561ce9bb60e01b8152600490fd5b63d92e233d60e01b8152600490fd5b8551631e4fbdf760e01b81525f6004820152602490fd5b5f80fd5b634e487b7160e01b5f52604160045260245ffdfe608060409080825260049081361015610016575f80fd5b5f3560e01c90816302f70fe614610f225750806304d548d914610f0457806306bfd20b14610de95780632ea4eb5214610cc3578063375b3c0a14610ca55780633f4ba83a14610c0657806351ed6a3014610bd2578063541d554814610b895780635c975abb14610b6657806360f0a5ac14610b2d578063715018a614610ab1578063748493e814610a355780637eefd5ae14610a185780638456cb59146109a1578063862159ab146109835780638c80fd90146109315780638da5cb5b146108fe578063950bff9f146108e35780639571708d14610898578063a3158b5314610849578063a38065d21461072c578063a791a94b146106b3578063af3a19c714610698578063bc9fe4bd1461057d578063bed9d86114610557578063f2fde38b14610494578063f3ffab5b146104105763ff7cb26d14610154575f80fd5b3461040c578160031936011261040c5761016c610f63565b91602492833592831515840361040c57610184611680565b335f526020916009835260ff845f205416156103dc5773ffffffffffffffffffffffffffffffffffffffff1691825f526009815260ff845f205416156103ae57335f52600a8152835f20835f52815260ff845f20541661037957600990335f52600a8152845f20845f528152845f2060017fffffffffffffffffffffffffffffffffffffffffffffffffffffffffffffff0082541617905552825f2094845f1461035e57600586019081549260018401809411610334575050555b600584019060068254950193818554917f1e4b0d6d47d141f70b5fb6ef8873258059b92f9d57ef753cd9cdfc22cb001edf865180610293868c33968460409194939260608201951515825260208201520152565b0390a36007546102a382886110b9565b906005549060646102b4838361166d565b04918215918261032a575b5081610320575b50610318575b8110156102d557005b93519510855260208501929092524260408501525f938492907f117f4cc83140dc39f821ce79b35425103008af0845cef8089261f4fa1b21c81890606090a25555005b5060016102cc565b905015155f6102c6565b151591505f6102bf565b6011907f4e487b71000000000000000000000000000000000000000000000000000000005f52525ffd5b6006860190815492600184018094116103345750505561023f565b50908460449351927f6ab3b53c0000000000000000000000000000000000000000000000000000000084523390840152820152fd5b5092509051917fbfc6c337000000000000000000000000000000000000000000000000000000008352820152fd5b5092505051907fbfc6c3370000000000000000000000000000000000000000000000000000000082523390820152fd5b5f80fd5b50903461040c57602060031936011261040c5781359161042e6119d7565b6064831161046d57507f4821e39ce06d523474405e926df21f067d4e72f60f5eab02fc2b132b25f42b78906005548151908152836020820152a1600555005b90517f561ce9bb000000000000000000000000000000000000000000000000000000008152fd5b503461040c57602060031936011261040c576104ae610f63565b906104b76119d7565b73ffffffffffffffffffffffffffffffffffffffff8092169283156105285750505f54827fffffffffffffffffffffffff00000000000000000000000000000000000000008216175f55167f8be0079c531659141344cd1fd0a4f28419497f9722a3daafe3b4186f6b6457e05f80a3005b905f60249251917f1e4fbdf7000000000000000000000000000000000000000000000000000000008352820152fd5b3461040c575f60031936011261040c5761056f6116b6565b61057761149c565b60018055005b50903461040c57602060031936011261040c57610598610f63565b6105a06119d7565b6105a8611680565b6105b06116b6565b73ffffffffffffffffffffffffffffffffffffffff811692835f526009602052825f206005810154159081159161068a575b5061066357835f52600960205260ff835f2054161561063457507fc085fdbe2266e10ec6ad7e6a51d407c59cef10381bd450b632e75c2b4425abf091610629602092611a27565b51428152a260018055005b602490848451917fbfc6c337000000000000000000000000000000000000000000000000000000008352820152fd5b82517f9d07eb3a000000000000000000000000000000000000000000000000000000008152fd5b60069150015415155f6105e2565b823461040c575f60031936011261040c576020905160058152f35b503461040c578160031936011261040c576106d2906024359035611357565b908051918291602090602080850191818652845180935285019301915f5b8281106106ff57505050500390f35b835173ffffffffffffffffffffffffffffffffffffffff16855286955093810193928101926001016106f0565b50903461040c57602060031936011261040c5781359161074a611680565b6107526116b6565b335f526009602052815f205460ff811615908161083a575b5061080b5782156107e45761079b8373ffffffffffffffffffffffffffffffffffffffff6006541630903390611757565b335f526009602052815f20016107b28382546110b9565b9055519081527fc9cb4c147d29c3b4f0c5d834ee7846e89b67f36a051236da3bd2c085bc56387f60203392a260018055005b90517f1f2a2005000000000000000000000000000000000000000000000000000000008152fd5b60249151907fbfc6c3370000000000000000000000000000000000000000000000000000000082523390820152fd5b60ff915060081c16155f61076a565b503461040c57602060031936011261040c577f2a39b166fe0871f09742b63b77a4de216789aaa99f883b61b9b0299f65d1a6f88135926108876119d7565b82548151908152846020820152a155005b503461040c57602060031936011261040c57803567ffffffffffffffff811161040c576108e1916108cb91369101610f86565b906108d4611680565b6108dc6119d7565b6112d7565b005b823461040c575f60031936011261040c576020905160328152f35b823461040c575f60031936011261040c5760209073ffffffffffffffffffffffffffffffffffffffff5f54169051908152f35b503461040c57602060031936011261040c577f171aabb8815c02fd00303450a77058600e3661eb75ce2e77972c0f080bc7099d90359161096f6119d7565b6003548151908152836020820152a1600355005b823461040c575f60031936011261040c576020906007549051908152f35b823461040c575f60031936011261040c5760207f62e78cea01bee320cd4e420270b5ea74000d11b0c9f74754ebdbfc544b05a258916109de6119d7565b6109e6611680565b60017fffffffffffffffffffffffffffffffffffffffffffffffffffffffffffffff00600254161760025551338152a1005b50903461040c575f60031936011261040c57602091549051908152f35b503461040c57606060031936011261040c5767ffffffffffffffff813581811161040c57610a669036908401610f86565b9160243581811161040c57610a7e9036908601610f86565b9160443590811161040c576108e195610a9991369101610f86565b949093610aa4611680565b610aac6119d7565b611114565b3461040c575f60031936011261040c57610ac96119d7565b5f73ffffffffffffffffffffffffffffffffffffffff81547fffffffffffffffffffffffff000000000000000000000000000000000000000081168355167f8be0079c531659141344cd1fd0a4f28419497f9722a3daafe3b4186f6b6457e08280a3005b3461040c57602060031936011261040c57610577610b49610f63565b610b51611680565b610b596119d7565b610b616116b6565b611a27565b823461040c575f60031936011261040c5760209060ff6002541690519015158152f35b823461040c57602060031936011261040c5760209073ffffffffffffffffffffffffffffffffffffffff610bbb610f63565b165f526009825260ff815f20541690519015158152f35b823461040c575f60031936011261040c5760209073ffffffffffffffffffffffffffffffffffffffff600654169051908152f35b50903461040c575f60031936011261040c57610c206119d7565b6002549160ff831615610c7e577f5db9ee0a495bf2e6ff9c91a7834c1ba4fdd244a5e8aa4e537bd38aeae4b073aa6020837fffffffffffffffffffffffffffffffffffffffffffffffffffffffffffffff00861660025551338152a1005b90517f8dfc202b000000000000000000000000000000000000000000000000000000008152fd5b823461040c575f60031936011261040c576020906003549051908152f35b503461040c578160031936011261040c5760243560ff8116810361040c57610ce9611680565b610cf16116b6565b610cfa816116f1565b9173ffffffffffffffffffffffffffffffffffffffff6006541684517f70a082310000000000000000000000000000000000000000000000000000000081523383820152602081602481855afa908115610ddf575f91610dad575b50848110610d785750610577945083610d719130903390611757565b35336117d5565b82604491868851927f45be0a260000000000000000000000000000000000000000000000000000000084528301526024820152fd5b90506020813d602011610dd7575b81610dc860209383611001565b8101031261040c57515f610d55565b3d9150610dbb565b86513d5f823e3d90fd5b50903461040c57602060031936011261040c576101009173ffffffffffffffffffffffffffffffffffffffff610e1d610f63565b5f60e08551610e2b81610fb7565b82815282602082015282878201528260608201528260808201528260a08201528260c08201520152165f526009602052815f20825191610e6a83610fb7565b81549060ff80831615159586865281602087019460081c1615158452600185015490808701918252826002870154169160608801928352600387015494608089019586528701549560a0890196875260e0600660058a01549960c08c019a8b52015499019889528251998a5251151560208a01525190880152511660608601525160808501525160a08401525160c08301525160e0820152f35b823461040c575f60031936011261040c576020906005549051908152f35b83903461040c57602060031936011261040c5760209173ffffffffffffffffffffffffffffffffffffffff610f55610f63565b165f52600b83525f20548152f35b6004359073ffffffffffffffffffffffffffffffffffffffff8216820361040c57565b9181601f8401121561040c5782359167ffffffffffffffff831161040c576020808501948460051b01011161040c57565b610100810190811067ffffffffffffffff821117610fd457604052565b7f4e487b71000000000000000000000000000000000000000000000000000000005f52604160045260245ffd5b90601f7fffffffffffffffffffffffffffffffffffffffffffffffffffffffffffffffe0910116810190811067ffffffffffffffff821117610fd457604052565b67ffffffffffffffff8111610fd45760051b60200190565b919081101561106a5760051b0190565b7f4e487b71000000000000000000000000000000000000000000000000000000005f52603260045260245ffd5b3560ff8116810361040c5790565b805182101561106a5760209160051b010190565b919082018092116110c657565b7f4e487b71000000000000000000000000000000000000000000000000000000005f52601160045260245ffd5b3573ffffffffffffffffffffffffffffffffffffffff8116810361040c5790565b9390919295949582156112ce578083148015906112c4575b61129a5760328311611262575f9261114381611042565b936111516040519586611001565b8185527fffffffffffffffffffffffffffffffffffffffffffffffffffffffffffffffe061117e83611042565b013660208701375f5b8983821061122c57505080611200575b505f5b8181106111ac57505050505050509050565b806111fa878b6111e86111e3856111db818f6111d56111d060019c8f938f9061105a565b6110f3565b9761105a565b35938b61105a565b611097565b906111f3858b6110a5565b51926117d5565b0161119a565b6112269073ffffffffffffffffffffffffffffffffffffffff6006541630903390611757565b5f611197565b81926112496112446111e360019561125b958b61105a565b6116f1565b9081611255868b6110a5565b526110b9565b9101611187565b604483604051907fbb1cb70b000000000000000000000000000000000000000000000000000000008252600482015260326024820152fd5b60046040517fff633a38000000000000000000000000000000000000000000000000000000008152fd5b508683141561112c565b50505050509050565b908015611346576032811161130e575f5b8181106112f457505050565b80611308610b616111d0600194868861105a565b016112e8565b604490604051907fbb1cb70b000000000000000000000000000000000000000000000000000000008252600482015260326024820152fd5b5050565b919082039182116110c657565b90600791600754928382101561147157838311611469575b8183111561143f57611381828461134a565b937fffffffffffffffffffffffffffffffffffffffffffffffffffffffffffffffe06113c56113af87611042565b966113bd6040519889611001565b808852611042565b01366020870137825b8481106113dd57505050505090565b8181101561106a57600190835f5273ffffffffffffffffffffffffffffffffffffffff817fa66cc928b5edb82af9bd49922954155ab7b0942694bea4ce44661d9a8736c688015416611438611432878461134a565b896110a5565b52016113ce565b60046040517f561ce9bb000000000000000000000000000000000000000000000000000000008152fd5b83925061136f565b505050506040516020810181811067ffffffffffffffff821117610fd4576040525f81525f36813790565b335f526020600b8152604090815f2054801561163e5780421061160e5750335f5260098152815f209082516114d081610fb7565b60ff83548181161515835260081c1615158282015260018301548482015260ff60028401541660608201526003830154608082015260e0600660048501549460a08401958652600581015460c08501520154910152335f52600981525f60068482208281558260018201558260028201558260038201558260048201558260058201550155600b81525f8381205581519182156116085773ffffffffffffffffffffffffffffffffffffffff60065416928451907fa9059cbb0000000000000000000000000000000000000000000000000000000084830152336024830152604482015260448152608081019080821067ffffffffffffffff831117610fd4577febb16af4ab8ca7736dc9f540152e280a8f946b3e45fb52c375a7b2da14aa33b5946115fd928752611b02565b5192519283523392a2565b50505050565b6024908351907f5dcbf0180000000000000000000000000000000000000000000000000000000082526004820152fd5b602483517fbddd7103000000000000000000000000000000000000000000000000000000008152336004820152fd5b818102929181159184041417156110c657565b60ff6002541661168c57565b60046040517fd93c0665000000000000000000000000000000000000000000000000000000008152fd5b6002600154146116c7576002600155565b60046040517f3ee5aeb5000000000000000000000000000000000000000000000000000000008152fd5b60ff168015801561174d575b61171c5761170e600354918261166d565b80611717575090565b905090565b602490604051907fbca1a9560000000000000000000000000000000000000000000000000000000082526004820152fd5b50600581116116fd565b9290604051927f23b872dd00000000000000000000000000000000000000000000000000000000602085015273ffffffffffffffffffffffffffffffffffffffff809216602485015216604483015260648201526064815260a081019181831067ffffffffffffffff841117610fd4576117d392604052611b02565b565b73ffffffffffffffffffffffffffffffffffffffff1692909183156119ad57821561197c57835f526009602052604090815f205460ff811690811561196e575b5061193e5791816080937fe54010a266f0c4100d88bd21bec27cf487337f1768b2b7b30e34317ec586263195935161184c81610fb7565b60018152600688602083015f815285840142815260ff606086019616958681528a8601908a825260a08701928a845260c08801945f865260e08901965f88525f5260096020528a5f2098511515907fffffffffffffffffffffffffffffffffffffffffffffffffffffffffffff000060ff61ff008c549351151560081b16931691161717885551600188015560ff600288019151167fffffffffffffffffffffffffffffffffffffffffffffffffffffffffffffff008254161790555160038601555160048501555160058401555191015561192787611bce565b5081519384526020840152820152426060820152a2565b6024858351907f45ed80e90000000000000000000000000000000000000000000000000000000082526004820152fd5b60ff915060081c165f611815565b602483604051907f331003b30000000000000000000000000000000000000000000000000000000082526004820152fd5b60046040517fd92e233d000000000000000000000000000000000000000000000000000000008152fd5b73ffffffffffffffffffffffffffffffffffffffff5f541633036119f757565b60246040517f118cdaa7000000000000000000000000000000000000000000000000000000008152336004820152fd5b73ffffffffffffffffffffffffffffffffffffffff16805f52600960205260405f20805460ff811615611ad1577fffffffffffffffffffffffffffffffffffffffffffffffffffffffffffff000061010091161790557feace8b9a4d09945e5e3541b14921b62113ab02e1c6e6772dffb969c3cf0275be6040611aac600454426110b9565b835f52600b60205280825f2055611ac284611c5b565b508151904282526020820152a2565b602483604051907fbfc6c3370000000000000000000000000000000000000000000000000000000082526004820152fd5b905f602091828151910182855af115611b8e575f513d611b85575073ffffffffffffffffffffffffffffffffffffffff81163b155b611b3e5750565b60249073ffffffffffffffffffffffffffffffffffffffff604051917f5274afe7000000000000000000000000000000000000000000000000000000008352166004820152fd5b60011415611b37565b6040513d5f823e3d90fd5b60075481101561106a5760075f527fa66cc928b5edb82af9bd49922954155ab7b0942694bea4ce44661d9a8736c68801905f90565b805f52600860205260405f2054155f14611c565760075468010000000000000000811015610fd457611c3f611c0a826001859401600755611b99565b81939154907fffffffffffffffffffffffffffffffffffffffffffffffffffffffffffffffff9060031b92831b921b19161790565b9055600754905f52600860205260405f2055600190565b505f90565b5f818152600860205260409020548015611d4c577fffffffffffffffffffffffffffffffffffffffffffffffffffffffffffffffff908181018181116110c657600754908382019182116110c657818103611d18575b5050506007548015611ceb57810190611cc982611b99565b909182549160031b1b191690556007555f5260086020525f6040812055600190565b7f4e487b71000000000000000000000000000000000000000000000000000000005f52603160045260245ffd5b611d36611d27611c0a93611b99565b90549060031b1c928392611b99565b90555f52600860205260405f20555f8080611cb1565b50505f9056fea164736f6c6343000818000a","linkReferences":{}},"methodIdentifiers":{"MAX_BATCH()":"950bff9f","MAX_TIER()":"af3a19c7","addRelayer(uint256,uint8)":"2ea4eb52","addRelayersBatch(address[],uint256[],uint8[])":"748493e8","executeGovernanceDecision(address)":"bc9fe4bd","getRelayerInfo(address)":"06bfd20b","isRelayer(address)":"541d5548","listRelayers(uint256,uint256)":"a791a94b","minStake()":"375b3c0a","owner()":"8da5cb5b","pause()":"8456cb59","paused()":"5c975abb","removeRelayer(address)":"60f0a5ac","removeRelayersBatch(address[])":"9571708d","renounceOwnership()":"715018a6","setMinStake(uint256)":"8c80fd90","setUnstakeCooldown(uint256)":"a3158b53","setVoteThresholdPct(uint256)":"f3ffab5b","stakeMore(uint256)":"a38065d2","stakeToken()":"51ed6a30","totalRelayers()":"862159ab","transferOwnership(address)":"f2fde38b","unlockTimestampOf(address)":"02f70fe6","unpause()":"3f4ba83a","unstakeCooldown()":"7eefd5ae","voteOnRelayer(address,bool)":"ff7cb26d","voteThresholdPct()":"04d548d9","withdrawStake()":"bed9d861"},"id":108}