{"abi":[{"type":"constructor","inputs":[{"name":"_owners","type":"address[]","internalType":"address[]"},{"name":"_threshold","type":"uint256","internalType":"uint256"}],"stateMutability":"nonpayable"},{"type":"receive","stateMutability":"payable"},{"type":"function","name":"addOwner","inputs":[{"name":"newOwner","type":"address","internalType":"address"}],"outputs":[],"stateMutability":"nonpayable"},{"type":"function","name":"execute","inputs":[{"name":"target","type":"address","internalType":"address"},{"name":"value","type":"uint256","internalType":"uint256"},{"name":"data","type":"bytes","internalType":"bytes"},{"name":"signatures","type":"bytes","internalType":"bytes"}],"outputs":[{"name":"","type":"bytes","internalType":"bytes"}],"stateMutability":"payable"},{"type":"function","name":"executeBatch","inputs":[{"name":"targets","type":"address[]","internalType":"address[]"},{"name":"values","type":"uint256[]","internalType":"uint256[]"},{"name":"datas","type":"bytes[]","internalType":"bytes[]"},{"name":"signatures","type":"bytes","internalType":"bytes"},{"name":"allowFailures","type":"bool","internalType":"bool"}],"outputs":[{"name":"successes","type":"bool[]","internalType":"bool[]"}],"stateMutability":"payable"},{"type":"function","name":"isOwner","inputs":[{"name":"","type":"address","internalType":"address"}],"outputs":[{"name":"","type":"bool","internalType":"bool"}],"stateMutability":"view"},{"type":"function","name":"isValidSignature","inputs":[{"name":"hash","type":"bytes32","internalType":"bytes32"},{"name":"signatures","type":"bytes","internalType":"bytes"}],"outputs":[{"name":"","type":"bytes4","internalType":"bytes4"}],"stateMutability":"view"},{"type":"function","name":"nonce","inputs":[],"outputs":[{"name":"","type":"uint256","internalType":"uint256"}],"stateMutability":"view"},{"type":"function","name":"owners","inputs":[{"name":"","type":"uint256","internalType":"uint256"}],"outputs":[{"name":"","type":"address","internalType":"address"}],"stateMutability":"view"},{"type":"function","name":"removeOwner","inputs":[{"name":"ownerToRemove","type":"address","internalType":"address"}],"outputs":[],"stateMutability":"nonpayable"},{"type":"function","name":"setThreshold","inputs":[{"name":"newThreshold","type":"uint256","internalType":"uint256"}],"outputs":[],"stateMutability":"nonpayable"},{"type":"function","name":"threshold","inputs":[],"outputs":[{"name":"","type":"uint256","internalType":"uint256"}],"stateMutability":"view"},{"type":"function","name":"validateUserOpStub","inputs":[{"name":"userOp","type":"bytes","internalType":"bytes"},{"name":"signatures","type":"bytes","internalType":"bytes"}],"outputs":[{"name":"","type":"bool","internalType":"bool"}],"stateMutability":"view"},{"type":"event","name":"BatchExecuted","inputs":[{"name":"count","type":"uint256","indexed":false,"internalType":"uint256"}],"anonymous":false},{"type":"event","name":"Executed","inputs":[{"name":"target","type":"address","indexed":true,"internalType":"address"},{"name":"value","type":"uint256","indexed":false,"internalType":"uint256"},{"name":"data","type":"bytes","indexed":false,"internalType":"bytes"}],"anonymous":false},{"type":"event","name":"OwnerAdded","inputs":[{"name":"owner","type":"address","indexed":true,"internalType":"address"}],"anonymous":false},{"type":"event","name":"OwnerRemoved","inputs":[{"name":"owner","type":"address","indexed":true,"internalType":"address"}],"anonymous":false},{"type":"event","name":"ThresholdChanged","inputs":[{"name":"newThreshold","type":"uint256","indexed":false,"internalType":"uint256"}],"anonymous":false},{"type":"error","name":"DuplicateSigner","inputs":[{"name":"signer","type":"address","internalType":"address"}]},{"type":"error","name":"ECDSAInvalidSignature","inputs":[]},{"type":"error","name":"ECDSAInvalidSignatureLength","inputs":[{"name":"length","type":"uint256","internalType":"uint256"}]},{"type":"error","name":"ECDSAInvalidSignatureS","inputs":[{"name":"s","type":"bytes32","internalType":"bytes32"}]},{"type":"error","name":"ExecutionFailed","inputs":[]},{"type":"error","name":"InvalidSignature","inputs":[]},{"type":"error","name":"LengthMismatch","inputs":[]},{"type":"error","name":"OwnerAlready","inputs":[{"name":"owner","type":"address","internalType":"address"}]},{"type":"error","name":"OwnerNotFound","inputs":[{"name":"owner","type":"address","internalType":"address"}]},{"type":"error","name":"ThresholdOutOfRange","inputs":[{"name":"haveOwners","type":"uint256","internalType":"uint256"},{"name":"requested","type":"uint256","internalType":"uint256"}]},{"type":"error","name":"Unauthorized","inputs":[]},{"type":"error","name":"ZeroAddress","inputs":[]}],"bytecode":{"object":"0x604060808152346200026a5762001cd890813803806200001f816200026e565b93843982019181818403126200026a5780516001600160401b0391908281116200026a5781019084601f830112156200026a578151946020938611620001c9576005928660051b908580620000768185016200026e565b809a815201928201019283116200026a5790858094939201905b8282106200023e5750505001519084519081156200022d578215801562000223575b62000206575f5b828110620000fd57857f6c4ce60fd690e1216286a10b875c5662555f10774484e58142cedd7a90781baa8686806001558351908152a151611a439081620002958239f35b8651811015620001b55780821b87018501516001600160a01b0316908115620001f557815f52600380875260ff885f205416620001dd57825f528652865f20916001928360ff1982541617905560029283549068010000000000000000821015620001c9578101808555811015620001b5575f9384528784200180546001600160a01b031916821790556001927f994a936646fe87ffe4f1e469d3d6aa417d6b855598397f323de5b449f765f0c39080a201620000b9565b634e487b7160e01b5f52603260045260245ffd5b634e487b7160e01b5f52604160045260245ffd5b8751632ffc689160e11b815260048101849052602490fd5b865163d92e233d60e01b8152600490fd5b50604491845191638c88347960e01b835260048301526024820152fd5b50818311620000b2565b845163d92e233d60e01b8152600490fd5b815193945091929091906001600160a01b03811681036200026a57815285939291840190840162000090565b5f80fd5b6040519190601f01601f191682016001600160401b03811183821017620001c95760405256fe6080604052600436101561001a575b3615610018575f80fd5b005b5f3560e01c8063025e7c27146100c95780631626ba7e146100c4578063173825d9146100bf5780632bf21b57146100ba5780632f54bf6e146100b557806342cde4e8146100b05780637065cb48146100ab578063960bfe04146100a657806396b94704146100a1578063affed0e01461009c5763da0980c70361000e57610ab0565b610a30565b6108f3565b610851565b6106e4565b6106c7565b610679565b6105d1565b610335565b61029e565b610135565b7f4e487b71000000000000000000000000000000000000000000000000000000005f52603260045260245ffd5b6002548110156101305760025f527f405787fa12a823e0f2b7631cc41b3ba8828b3321ca811111fa75cd3aa3bb5ace01905f90565b6100ce565b3461019b57602060031936011261019b5760043560025481101561019b5773ffffffffffffffffffffffffffffffffffffffff60209160025f527f405787fa12a823e0f2b7631cc41b3ba8828b3321ca811111fa75cd3aa3bb5ace015416604051908152f35b5f80fd5b7f4e487b71000000000000000000000000000000000000000000000000000000005f52604160045260245ffd5b60c0810190811067ffffffffffffffff8211176101e857604052565b61019f565b90601f7fffffffffffffffffffffffffffffffffffffffffffffffffffffffffffffffe0910116810190811067ffffffffffffffff8211176101e857604052565b67ffffffffffffffff81116101e857601f017fffffffffffffffffffffffffffffffffffffffffffffffffffffffffffffffe01660200190565b9291926102748261022e565b9161028260405193846101ed565b82948184528183011161019b578281602093845f960137010152565b3461019b57604060031936011261019b5760243567ffffffffffffffff811161019b573660238201121561019b576102ed6102e56020923690602481600401359101610268565b600435610db4565b7fffffffff0000000000000000000000000000000000000000000000000000000060405191168152f35b73ffffffffffffffffffffffffffffffffffffffff81160361019b57565b3461019b57602060031936011261019b5760043561035281610317565b61035d303314610f8e565b61039661039261038b8373ffffffffffffffffffffffffffffffffffffffff165f52600360205260405f2090565b5460ff1690565b1590565b6104ec576103ed6103c58273ffffffffffffffffffffffffffffffffffffffff165f52600360205260405f2090565b7fffffffffffffffffffffffffffffffffffffffffffffffffffffffffffffff008154169055565b73ffffffffffffffffffffffffffffffffffffffff908116905f5b600254808210156104e4578383610441610421856100fb565b905473ffffffffffffffffffffffffffffffffffffffff9160031b1c1690565b16146104505750600101610408565b61049e925061046c61042161046761047293610ff3565b6100fb565b916100fb565b90919073ffffffffffffffffffffffffffffffffffffffff8084549260031b9316831b921b1916179055565b6104a6611020565b6001546002548091116104db575b507f58619076adf5bb0943d100ef88d52d7c3fd691b19d3a9071b555b651fbf418da5f80a2005b6001555f6104b4565b5050506104a6565b6040517f49c59bd100000000000000000000000000000000000000000000000000000000815273ffffffffffffffffffffffffffffffffffffffff919091166004820152602490fd5b9181601f8401121561019b5782359167ffffffffffffffff831161019b576020808501948460051b01011161019b57565b9181601f8401121561019b5782359167ffffffffffffffff831161019b576020838186019501011161019b57565b60209060206040818301928281528551809452019301915f5b8281106105bb575050505090565b83511515855293810193928101926001016105ad565b60a060031936011261019b5767ffffffffffffffff60043581811161019b576105fe903690600401610535565b9160243581811161019b57610617903690600401610535565b60449291923582811161019b57610632903690600401610535565b909260643590811161019b5761064c903690600401610566565b93909260843595861515870361019b57610675986106699861118d565b60405191829182610594565b0390f35b3461019b57602060031936011261019b5773ffffffffffffffffffffffffffffffffffffffff6004356106ab81610317565b165f526003602052602060ff60405f2054166040519015158152f35b3461019b575f60031936011261019b576020600154604051908152f35b3461019b57602060031936011261019b5760043561070181610317565b61070c303314610f8e565b73ffffffffffffffffffffffffffffffffffffffff81169081156108275761075561038b8273ffffffffffffffffffffffffffffffffffffffff165f52600360205260405f2090565b6107de57806107b36107886107b89373ffffffffffffffffffffffffffffffffffffffff165f52600360205260405f2090565b60017fffffffffffffffffffffffffffffffffffffffffffffffffffffffffffffff00825416179055565b611306565b7f994a936646fe87ffe4f1e469d3d6aa417d6b855598397f323de5b449f765f0c35f80a2005b6040517f5ff8d12200000000000000000000000000000000000000000000000000000000815273ffffffffffffffffffffffffffffffffffffffff919091166004820152602490fd5b60046040517fd92e233d000000000000000000000000000000000000000000000000000000008152fd5b3461019b57602060031936011261019b57600435610870303314610f8e565b801580156108e8575b6108ae576020817f6c4ce60fd690e1216286a10b875c5662555f10774484e58142cedd7a90781baa92600155604051908152a1005b60449060025490604051917f8c88347900000000000000000000000000000000000000000000000000000000835260048301526024820152fd5b506002548111610879565b3461019b57604060031936011261019b5767ffffffffffffffff60043581811161019b57610925903690600401610566565b9160243590811161019b57610a1b7f1626ba7e0000000000000000000000000000000000000000000000000000000092610a156106759561099861098e7fffffffff00000000000000000000000000000000000000000000000000000000963690600401610566565b9490923691610268565b60208151910120604051610a0a816109de602082019485603c917f19457468657265756d205369676e6564204d6573736167653a0a3332000000008252601c8201520190565b037fffffffffffffffffffffffffffffffffffffffffffffffffffffffffffffffe081018352826101ed565b519020923691610268565b90610db4565b60405191169190911481529081906020820190565b3461019b575f60031936011261019b5760205f54604051908152f35b6020808252825181830181905293925f5b858110610a9c575050507fffffffffffffffffffffffffffffffffffffffffffffffffffffffffffffffe0601f845f6040809697860101520116010190565b818101830151848201604001528201610a5d565b608060031936011261019b57600435610ac881610317565b60243567ffffffffffffffff60443581811161019b57610aec903690600401610566565b60649391933592831161019b57610b096001933690600401610566565b610bed5f9592955491610b1d36868a610268565b6020815191012096604097885160208101917f534d4152545f4143434f554e545f45584543555445000000000000000000000083523060601b60358301527fffffffffffffffffffffffffffffffffffffffff0000000000000000000000008d60601b16604983015289605d830152607d82015285609d820152609d8152610ba4816101cc565b5190208851610be5816109de602082019485603c917f19457468657265756d205369676e6564204d6573736167653a0a3332000000008252601c8201520190565b519020611683565b50015f555f80845180610c0181868a611151565b039085895af193610c1061115e565b9415610c6f5761067595610c627fcaf938de11c367272220bfd1d2baa99ca46665e7bc4d85f00adb51b90fe1fa9f9373ffffffffffffffffffffffffffffffffffffffff9387519485941696846113ce565b0390a25191829182610a4c565b600484517facfdb444000000000000000000000000000000000000000000000000000000008152fd5b7f4e487b71000000000000000000000000000000000000000000000000000000005f52601160045260245ffd5b67ffffffffffffffff81116101e85760051b60200190565b90610ce782610cc5565b610cf460405191826101ed565b8281527fffffffffffffffffffffffffffffffffffffffffffffffffffffffffffffffe0610d228294610cc5565b0190602036910137565b90604182029180830460411490151715610d4257565b610c98565b604051906080820182811067ffffffffffffffff8211176101e857604052604182526060366020840137565b80518210156101305760209160051b010190565b7fffffffffffffffffffffffffffffffffffffffffffffffffffffffffffffffff8114610d425760010190565b90805160418106610f675760419004905f92610dcf83610cdd565b915f5b848110610e2f5750505050506001541115610e0b577fffffffff0000000000000000000000000000000000000000000000000000000090565b7f1626ba7e0000000000000000000000000000000000000000000000000000000090565b610e6d610e3b82610d2c565b83016020908181015190604080820151906060809301515f1a93610e5d610d47565b95860152840152820153846113e5565b610e9861038b8273ffffffffffffffffffffffffffffffffffffffff165f52600360205260405f2090565b610ea6575b50600101610dd2565b5f73ffffffffffffffffffffffffffffffffffffffff8216815b898110610f0a575b5050610e9d5786610efe610f0392610ee36001959a89610d73565b9073ffffffffffffffffffffffffffffffffffffffff169052565b610d87565b9590610e9d565b81610f4e610f35610f1b848c610d73565b5173ffffffffffffffffffffffffffffffffffffffff1690565b73ffffffffffffffffffffffffffffffffffffffff1690565b14610f5b57600101610ec0565b50505060015f80610ec8565b5050507fffffffff0000000000000000000000000000000000000000000000000000000090565b15610f9557565b60646040517f08c379a000000000000000000000000000000000000000000000000000000000815260206004820152600c60248201527f556e617574686f72697a656400000000000000000000000000000000000000006044820152fd5b907fffffffffffffffffffffffffffffffffffffffffffffffffffffffffffffffff8201918211610d4257565b60025480156110a7577fffffffffffffffffffffffffffffffffffffffffffffffffffffffffffffffff81019080821015610130577f405787fa12a823e0f2b7631cc41b3ba8828b3321ca811111fa75cd3aa3bb5acd9060025f52017fffffffffffffffffffffffff00000000000000000000000000000000000000008154169055600255565b7f4e487b71000000000000000000000000000000000000000000000000000000005f52603160045260245ffd5b91908110156101305760051b0190565b356110ee81610317565b90565b91908110156101305760051b810135907fffffffffffffffffffffffffffffffffffffffffffffffffffffffffffffffe18136030182121561019b57019081359167ffffffffffffffff831161019b57602001823603811361019b579190565b908092918237015f815290565b3d15611188573d9061116f8261022e565b9161117d60405193846101ed565b82523d5f602084013e565b606090565b9490969195989792988988148015906112fc575b6112d25786926111c5916111c0888b868f8b905f549e8f9430966114c1565b611683565b5060018096015f556111d687610cdd565b985f5b8a898210611225575050505050505050506112207fe9cc9bbe7de1cbb097a6357ca3182909488efe8d793e25665befc064a02d10a791604051918291829190602083019252565b0390a1565b8161128e88926112875f808f61125f8f8c6112588f948e61125261124d8e80979481956110d4565b6110e4565b966110d4565b359a6110f1565b90986040996112728b5180948193611151565b03925af193849261128161115e565b50610d73565b9015159052565b15806112ca575b6112a1575087016111d9565b600490517facfdb444000000000000000000000000000000000000000000000000000000008152fd5b508515611295565b60046040517fff633a38000000000000000000000000000000000000000000000000000000008152fd5b50818814156111a1565b600254680100000000000000008110156101e85760018101806002558110156101305773ffffffffffffffffffffffffffffffffffffffff9060025f527f405787fa12a823e0f2b7631cc41b3ba8828b3321ca811111fa75cd3aa3bb5ace0191167fffffffffffffffffffffffff0000000000000000000000000000000000000000825416179055565b601f82602094937fffffffffffffffffffffffffffffffffffffffffffffffffffffffffffffffe093818652868601375f8582860101520116010190565b6040906110ee949281528160208201520191611390565b6110ee916113f291611854565b909291926118c5565b908281815260208091019360208360051b82010194845f925b858410611425575050505050505090565b909192939495967fffffffffffffffffffffffffffffffffffffffffffffffffffffffffffffffe082820301845287357fffffffffffffffffffffffffffffffffffffffffffffffffffffffffffffffe18436030181121561019b57830186810191903567ffffffffffffffff811161019b57803603831361019b576114b088928392600195611390565b990194019401929594939190611414565b9591939490969296604051602098898201928060808401606086525260a0830199905f5b8c82821061164e57505050507fffffffffffffffffffffffffffffffffffffffffffffffffffffffffffffffe09687838b03016040840152818a527f07ffffffffffffffffffffffffffffffffffffffffffffffffffffffffffffff821161019b57611576611648996115ff968d869461163c9e6115829760051b80928483013701858103606087015201916113fb565b038781018352826101ed565b5190206115f36040519384928a84019687917fffffffffffffffffffffffffffffffffffffffff000000000000000000000000606794927f534d4152545f4143434f554e545f424154434800000000000000000000000000855260601b166013840152602783015260478201520190565b038481018352826101ed565b5190209360405193849182019586603c917f19457468657265756d205369676e6564204d6573736167653a0a3332000000008252601c8201520190565b039081018352826101ed565b51902090565b80849d73ffffffffffffffffffffffffffffffffffffffff60019495963561167581610317565b168152019c019291016114e5565b909291604181066116ba5760419004929061169d84610cdd565b935f945f935b8285106116e457505050505060015482106116ba57565b60046040517f8baa579f000000000000000000000000000000000000000000000000000000008152fd5b90919293956116f287610d2c565b8201611722602060408093611705610d47565b928135818501528101358284015201355f1a6060820153876113e5565b9073ffffffffffffffffffffffffffffffffffffffff821690811561182b5761176f61039261038b8573ffffffffffffffffffffffffffffffffffffffff165f52600360205260405f2090565b611802575f5b84811061179e575050508161179260019392610ee3859488610d73565b019601939291906116a3565b826117af610f35610f1b848b610d73565b146117bc57600101611775565b81517fe021c4f200000000000000000000000000000000000000000000000000000000815273ffffffffffffffffffffffffffffffffffffffff85166004820152602490fd5b600490517f82b42900000000000000000000000000000000000000000000000000000000008152fd5b600490517f8baa579f000000000000000000000000000000000000000000000000000000008152fd5b81519190604183036118845761187d9250602082015190606060408401519301515f1a9061199c565b9192909190565b50505f9160029190565b6004111561189857565b7f4e487b71000000000000000000000000000000000000000000000000000000005f52602160045260245ffd5b6118ce8161188e565b806118d7575050565b6118e08161188e565b600181036119125760046040517ff645eedf000000000000000000000000000000000000000000000000000000008152fd5b61191b8161188e565b60028103611955576040517ffce698f700000000000000000000000000000000000000000000000000000000815260048101839052602490fd5b8061196160039261188e565b146119695750565b6040517fd78bce0c0000000000000000000000000000000000000000000000000000000081526004810191909152602490fd5b91907f7fffffffffffffffffffffffffffffff5d576e7357a4501ddfe92f46681b20a08411611a2b579160209360809260ff5f9560405194855216868401526040830152606082015282805260015afa15611a20575f5173ffffffffffffffffffffffffffffffffffffffff811615611a1657905f905f90565b505f906001905f90565b6040513d5f823e3d90fd5b5050505f916003919056fea164736f6c6343000818000a","linkReferences":{}},"methodIdentifiers":{"addOwner(address)":"7065cb48","execute(address,uint256,bytes,bytes)":"da0980c7","executeBatch(address[],uint256[],bytes[],bytes,bool)":"2bf21b57","isOwner(address)":"2f54bf6e","isValidSignature(bytes32,bytes)":"1626ba7e","nonce()":"affed0e0","owners(uint256)":"025e7c27","removeOwner(address)":"173825d9","setThreshold(uint256)":"960bfe04","threshold()":"42cde4e8","validateUserOpStub(bytes,bytes)":"96b94704"},"id":84}