{"abi":[{"type":"function","name":"arithmeticError","inputs":[],"outputs":[{"name":"","type":"bytes","internalType":"bytes"}],"stateMutability":"view"},{"type":"function","name":"assertionError","inputs":[],"outputs":[{"name":"","type":"bytes","internalType":"bytes"}],"stateMutability":"view"},{"type":"function","name":"divisionError","inputs":[],"outputs":[{"name":"","type":"bytes","internalType":"bytes"}],"stateMutability":"view"},{"type":"function","name":"encodeStorageError","inputs":[],"outputs":[{"name":"","type":"bytes","internalType":"bytes"}],"stateMutability":"view"},{"type":"function","name":"enumConversionError","inputs":[],"outputs":[{"name":"","type":"bytes","internalType":"bytes"}],"stateMutability":"view"},{"type":"function","name":"indexOOBError","inputs":[],"outputs":[{"name":"","type":"bytes","internalType":"bytes"}],"stateMutability":"view"},{"type":"function","name":"lowLevelError","inputs":[],"outputs":[{"name":"","type":"bytes","internalType":"bytes"}],"stateMutability":"view"},{"type":"function","name":"memOverflowError","inputs":[],"outputs":[{"name":"","type":"bytes","internalType":"bytes"}],"stateMutability":"view"},{"type":"function","name":"popError","inputs":[],"outputs":[{"name":"","type":"bytes","internalType":"bytes"}],"stateMutability":"view"},{"type":"function","name":"zeroVarError","inputs":[],"outputs":[{"name":"","type":"bytes","internalType":"bytes"}],"stateMutability":"view"}],"bytecode":{"object":"0x6080806040523461001a5761056b908161001f823930815050f35b5f80fdfe60806040908082526004361015610014575f80fd5b5f3560e01c90816305ee86121461047957508063103329771461040e5780631de45560146103a35780638995290f14610338578063986c5f68146102cd578063ac3d92c614610249578063b22dc54d146101de578063b67689da14610173578063d160e4de146101085763fa784a441461008c575f80fd5b5f7ffffffffffffffffffffffffffffffffffffffffffffffffffffffffffffffffc36011261010457806101009151907f4e487b7100000000000000000000000000000000000000000000000000000000602083015260126024830152602482526100f6826104de565b51918291826104fa565b0390f35b5f80fd5b505f7ffffffffffffffffffffffffffffffffffffffffffffffffffffffffffffffffc36011261010457806101009151907f4e487b7100000000000000000000000000000000000000000000000000000000602083015260226024830152602482526100f6826104de565b505f7ffffffffffffffffffffffffffffffffffffffffffffffffffffffffffffffffc36011261010457806101009151907f4e487b7100000000000000000000000000000000000000000000000000000000602083015260516024830152602482526100f6826104de565b505f7ffffffffffffffffffffffffffffffffffffffffffffffffffffffffffffffffc36011261010457806101009151907f4e487b7100000000000000000000000000000000000000000000000000000000602083015260316024830152602482526100f6826104de565b505f7ffffffffffffffffffffffffffffffffffffffffffffffffffffffffffffffffc360112610104578051602081019181831067ffffffffffffffff8411176102a0576101009281525f825251918291826104fa565b7f4e487b71000000000000000000000000000000000000000000000000000000005f52604160045260245ffd5b505f7ffffffffffffffffffffffffffffffffffffffffffffffffffffffffffffffffc36011261010457806101009151907f4e487b7100000000000000000000000000000000000000000000000000000000602083015260416024830152602482526100f6826104de565b505f7ffffffffffffffffffffffffffffffffffffffffffffffffffffffffffffffffc36011261010457806101009151907f4e487b7100000000000000000000000000000000000000000000000000000000602083015260116024830152602482526100f6826104de565b505f7ffffffffffffffffffffffffffffffffffffffffffffffffffffffffffffffffc36011261010457806101009151907f4e487b7100000000000000000000000000000000000000000000000000000000602083015260216024830152602482526100f6826104de565b505f7ffffffffffffffffffffffffffffffffffffffffffffffffffffffffffffffffc36011261010457806101009151907f4e487b7100000000000000000000000000000000000000000000000000000000602083015260016024830152602482526100f6826104de565b90505f7ffffffffffffffffffffffffffffffffffffffffffffffffffffffffffffffffc36011261010457610100917f4e487b7100000000000000000000000000000000000000000000000000000000602083015260326024830152602482526100f6825b6060810190811067ffffffffffffffff8211176102a057604052565b6020808252825181830181905293925f5b85811061054a575050507fffffffffffffffffffffffffffffffffffffffffffffffffffffffffffffffe0601f845f6040809697860101520116010190565b81810183015184820160400152820161050b56fea164736f6c6343000818000a","linkReferences":{}},"methodIdentifiers":{"arithmeticError()":"8995290f","assertionError()":"10332977","divisionError()":"fa784a44","encodeStorageError()":"d160e4de","enumConversionError()":"1de45560","indexOOBError()":"05ee8612","lowLevelError()":"ac3d92c6","memOverflowError()":"986c5f68","popError()":"b22dc54d","zeroVarError()":"b67689da"},"id":1}