{"abi":[{"type":"function","name":"bytesToBytes32","inputs":[{"name":"b","type":"bytes","internalType":"bytes"},{"name":"offset","type":"uint256","internalType":"uint256"}],"outputs":[{"name":"","type":"bytes32","internalType":"bytes32"}],"stateMutability":"pure"},{"type":"event","name":"SlotFound","inputs":[{"name":"who","type":"address","indexed":false,"internalType":"address"},{"name":"fsig","type":"bytes4","indexed":false,"internalType":"bytes4"},{"name":"keysHash","type":"bytes32","indexed":false,"internalType":"bytes32"},{"name":"slot","type":"uint256","indexed":false,"internalType":"uint256"}],"anonymous":false},{"type":"event","name":"WARNING_UninitedSlot","inputs":[{"name":"who","type":"address","indexed":false,"internalType":"address"},{"name":"slot","type":"uint256","indexed":false,"internalType":"uint256"}],"anonymous":false}],"bytecode":{"object":"0x6080806040523461001a5761022b908161001f823930815050f35b5f80fdfe608060048036101561000f575f80fd5b5f3560e01c635358493914610022575f80fd5b60407ffffffffffffffffffffffffffffffffffffffffffffffffffffffffffffffffc3601126101ef5780359167ffffffffffffffff908184116101ef57366023850112156101ef57838301356024928082116101f3577fffffffffffffffffffffffffffffffffffffffffffffffffffffffffffffffe0603f81601f8501160116830190838210908211176101f357604052808252602094368483830101116101ef57815f928588930183860137830101528135925f9382518681115f146101e557508591909392935b5f945b838610610101578787604051908152f35b9091929394958683018084116101ba57825181101561018f57887fff000000000000000000000000000000000000000000000000000000000000009184010151168760031b88810460081489151715610164571c179560010194939291906100f0565b876011877f4e487b71000000000000000000000000000000000000000000000000000000005f52525ffd5b866032867f4e487b71000000000000000000000000000000000000000000000000000000005f52525ffd5b866011867f4e487b71000000000000000000000000000000000000000000000000000000005f52525ffd5b91909392936100ed565b5f80fd5b836041867f4e487b71000000000000000000000000000000000000000000000000000000005f52525ffdfea164736f6c6343000818000a","linkReferences":{}},"methodIdentifiers":{"bytesToBytes32(bytes,uint256)":"53584939"},"id":1}