{"abi":[{"type":"constructor","inputs":[{"name":"initialOwner","type":"address","internalType":"address"}],"stateMutability":"nonpayable"},{"type":"function","name":"MAX_LENGTH","inputs":[],"outputs":[{"name":"","type":"uint256","internalType":"uint256"}],"stateMutability":"view"},{"type":"function","name":"MIN_LENGTH","inputs":[],"outputs":[{"name":"","type":"uint256","internalType":"uint256"}],"stateMutability":"view"},{"type":"function","name":"adminForceRevoke","inputs":[{"name":"user","type":"address","internalType":"address"}],"outputs":[],"stateMutability":"nonpayable"},{"type":"function","name":"adminReserve","inputs":[{"name":"id","type":"string","internalType":"string"},{"name":"to","type":"address","internalType":"address"}],"outputs":[],"stateMutability":"nonpayable"},{"type":"function","name":"getId","inputs":[{"name":"user","type":"address","internalType":"address"}],"outputs":[{"name":"","type":"string","internalType":"string"}],"stateMutability":"view"},{"type":"function","name":"idHashOf","inputs":[{"name":"user","type":"address","internalType":"address"}],"outputs":[{"name":"","type":"bytes32","internalType":"bytes32"}],"stateMutability":"view"},{"type":"function","name":"isRegistered","inputs":[{"name":"user","type":"address","internalType":"address"}],"outputs":[{"name":"","type":"bool","internalType":"bool"}],"stateMutability":"view"},{"type":"function","name":"isTaken","inputs":[{"name":"id","type":"string","internalType":"string"}],"outputs":[{"name":"","type":"bool","internalType":"bool"}],"stateMutability":"view"},{"type":"function","name":"owner","inputs":[],"outputs":[{"name":"","type":"address","internalType":"address"}],"stateMutability":"view"},{"type":"function","name":"ownerOfHash","inputs":[{"name":"idHash","type":"bytes32","internalType":"bytes32"}],"outputs":[{"name":"","type":"address","internalType":"address"}],"stateMutability":"view"},{"type":"function","name":"registerId","inputs":[{"name":"id","type":"string","internalType":"string"}],"outputs":[],"stateMutability":"nonpayable"},{"type":"function","name":"renounceOwnership","inputs":[],"outputs":[],"stateMutability":"nonpayable"},{"type":"function","name":"resolveAddress","inputs":[{"name":"id","type":"string","internalType":"string"}],"outputs":[{"name":"","type":"address","internalType":"address"}],"stateMutability":"view"},{"type":"function","name":"revokeId","inputs":[],"outputs":[],"stateMutability":"nonpayable"},{"type":"function","name":"totalRegistered","inputs":[],"outputs":[{"name":"","type":"uint256","internalType":"uint256"}],"stateMutability":"view"},{"type":"function","name":"transferOwnership","inputs":[{"name":"newOwner","type":"address","internalType":"address"}],"outputs":[],"stateMutability":"nonpayable"},{"type":"function","name":"updateId","inputs":[{"name":"newId","type":"string","internalType":"string"}],"outputs":[],"stateMutability":"nonpayable"},{"type":"event","name":"IDForceRevoked","inputs":[{"name":"admin","type":"address","indexed":true,"internalType":"address"},{"name":"user","type":"address","indexed":true,"internalType":"address"},{"name":"id","type":"string","indexed":false,"internalType":"string"},{"name":"idHash","type":"bytes32","indexed":true,"internalType":"bytes32"}],"anonymous":false},{"type":"event","name":"IDRegistered","inputs":[{"name":"user","type":"address","indexed":true,"internalType":"address"},{"name":"id","type":"string","indexed":false,"internalType":"string"},{"name":"idHash","type":"bytes32","indexed":true,"internalType":"bytes32"}],"anonymous":false},{"type":"event","name":"IDReserved","inputs":[{"name":"admin","type":"address","indexed":true,"internalType":"address"},{"name":"id","type":"string","indexed":false,"internalType":"string"},{"name":"to","type":"address","indexed":true,"internalType":"address"},{"name":"idHash","type":"bytes32","indexed":true,"internalType":"bytes32"}],"anonymous":false},{"type":"event","name":"IDRevoked","inputs":[{"name":"user","type":"address","indexed":true,"internalType":"address"},{"name":"id","type":"string","indexed":false,"internalType":"string"},{"name":"idHash","type":"bytes32","indexed":true,"internalType":"bytes32"}],"anonymous":false},{"type":"event","name":"IDUpdated","inputs":[{"name":"user","type":"address","indexed":true,"internalType":"address"},{"name":"oldId","type":"string","indexed":false,"internalType":"string"},{"name":"newId","type":"string","indexed":false,"internalType":"string"},{"name":"oldHash","type":"bytes32","indexed":true,"internalType":"bytes32"},{"name":"newHash","type":"bytes32","indexed":true,"internalType":"bytes32"}],"anonymous":false},{"type":"event","name":"OwnershipTransferred","inputs":[{"name":"previousOwner","type":"address","indexed":true,"internalType":"address"},{"name":"newOwner","type":"address","indexed":true,"internalType":"address"}],"anonymous":false},{"type":"error","name":"AlreadyRegistered","inputs":[{"name":"user","type":"address","internalType":"address"}]},{"type":"error","name":"IDTaken","inputs":[{"name":"id","type":"string","internalType":"string"}]},{"type":"error","name":"InvalidID","inputs":[]},{"type":"error","name":"InvalidLength","inputs":[{"name":"length","type":"uint256","internalType":"uint256"}]},{"type":"error","name":"NotRegistered","inputs":[{"name":"user","type":"address","internalType":"address"}]},{"type":"error","name":"OwnableInvalidOwner","inputs":[{"name":"owner","type":"address","internalType":"address"}]},{"type":"error","name":"OwnableUnauthorizedAccount","inputs":[{"name":"account","type":"address","internalType":"address"}]}],"bytecode":{"object":"0x6080346100b957601f6116fb38819003918201601f19168301916001600160401b038311848410176100bd578084926020946040528339810103126100b957516001600160a01b0390818116908190036100b95780156100a1575f80546001600160a01b03198116831782556040519316907f8be0079c531659141344cd1fd0a4f28419497f9722a3daafe3b4186f6b6457e09080a361162990816100d28239f35b604051631e4fbdf760e01b81525f6004820152602490fd5b5f80fd5b634e487b7160e01b5f52604160045260245ffdfe60806040526004361015610011575f80fd5b5f3560e01c806314d3a17d14610124578063258adde21461011f5780635ede13731461011a57806365f68c8914610115578063715018a6146101105780637691f0ca1461010b57806379d39e0a146101065780637d79ff8414610101578063864a0940146100fc5780638da5cb5b146100f7578063927416c0146100f25780639bc7786c146100ed578063a6f9885c146100e8578063b6c6e692146100e3578063b90d5122146100de578063c3c5a547146100d95763f2fde38b146100d4575f80fd5b610b79565b610b32565b610966565b61091f565b610905565b6108c5565b6108a8565b610876565b610831565b610816565b6106d0565b61053d565b6104c1565b610485565b6103ae565b610365565b61018a565b9181601f840112156101575782359167ffffffffffffffff8311610157576020838186019501011161015757565b5f80fd5b6020600319820112610157576004359067ffffffffffffffff82116101575761018691600401610129565b9091565b34610157576101aa6101a561019e3661015b565b3691610d02565b6113b0565b6101b38161153a565b335f9081526001602052604090205461033457805160208201209073ffffffffffffffffffffffffffffffffffffffff6102126101f8845f52600260205260405f2090565b5473ffffffffffffffffffffffffffffffffffffffff1690565b166102fa57816102403373ffffffffffffffffffffffffffffffffffffffff165f52600160205260405f2090565b5561029733610257845f52600260205260405f2090565b9073ffffffffffffffffffffffffffffffffffffffff167fffffffffffffffffffffffff0000000000000000000000000000000000000000825416179055565b6102b2816102ad845f52600360205260405f2090565b610de4565b6102c56102c0600454610f3c565b600455565b7f65e968649edc781afea7bfe3d5d8c15fcfa67915b5e6eed64bc93a61724b33fa604051806102f5339482610471565b0390a3005b610330906040519182917fb9448be400000000000000000000000000000000000000000000000000000000835260048301610471565b0390fd5b6040517f45ed80e9000000000000000000000000000000000000000000000000000000008152336004820152602490fd5b34610157576103796101a561019e3661015b565b602081519101205f526002602052602073ffffffffffffffffffffffffffffffffffffffff60405f2054161515604051908152f35b34610157576103cd6103bf3661015b565b906103c8611588565b61107b565b005b6004359073ffffffffffffffffffffffffffffffffffffffff8216820361015757565b6024359073ffffffffffffffffffffffffffffffffffffffff8216820361015757565b91908251928382525f5b84811061045d5750507fffffffffffffffffffffffffffffffffffffffffffffffffffffffffffffffe0601f845f6020809697860101520116010190565b60208183018101518483018201520161041f565b906020610482928181520190610415565b90565b34610157576020600319360112610157576104bd6104a96104a46103cf565b6111e0565b604051918291602083526020830190610415565b0390f35b34610157575f600319360112610157576104d96115cc565b5f73ffffffffffffffffffffffffffffffffffffffff81547fffffffffffffffffffffffff000000000000000000000000000000000000000081168355167f8be0079c531659141344cd1fd0a4f28419497f9722a3daafe3b4186f6b6457e08280a3005b34610157575f60031936011261015757610555611588565b335f5260016020906001825260405f205491825f526003815260405f206040519283915f9181549161058683610d38565b808652926001811690811561068f5750600114610651575b5050506105ad92500382610c87565b335f908152600160205260408120556105f96105d1835f52600260205260405f2090565b7fffffffffffffffffffffffff00000000000000000000000000000000000000008154169055565b61061361060e835f52600360205260405f2090565b611033565b6106216102c06004546112e4565b7f4f7e2386133a9e78ff8b8b3788075b932f3f456d9ff1ea74c6458c54b9635aeb604051806102f5339482610471565b5f90815285812095935091905b8183106106775750506105ad93508201015f808061059e565b8554878401850152948501948694509183019161065e565b9150506105ad9593507fffffffffffffffffffffffffffffffffffffffffffffffffffffffffffffff0091501682840152151560051b8201015f808061059e565b34610157576020600319360112610157576106e96103cf565b6106f16115cc565b73ffffffffffffffffffffffffffffffffffffffff8116805f52600160205260405f20549182156107cd575f61075f61073a610735865f52600360205260405f2090565b610f4f565b9273ffffffffffffffffffffffffffffffffffffffff165f52600160205260405f2090565b556107756105d1845f52600260205260405f2090565b61078a61060e845f52600360205260405f2090565b6107986102c06004546112e4565b7ff3cdd1b35ec068ecfe9f69bd6ba2bee4e154a45bbff0142680d0d9a01f5b1a17604051806107c8339482610471565b0390a4005b6040517fbfc6c33700000000000000000000000000000000000000000000000000000000815273ffffffffffffffffffffffffffffffffffffffff919091166004820152602490fd5b34610157575f60031936011261015757602060405160038152f35b346101575760206003193601126101575773ffffffffffffffffffffffffffffffffffffffff61085f6103cf565b165f526001602052602060405f2054604051908152f35b34610157575f60031936011261015757602073ffffffffffffffffffffffffffffffffffffffff5f5416604051908152f35b34610157575f600319360112610157576020600454604051908152f35b34610157576020600319360112610157576004355f526002602052602073ffffffffffffffffffffffffffffffffffffffff60405f205416604051908152f35b34610157575f600319360112610157576020604051818152f35b34610157576109336101a561019e3661015b565b602081519101205f526002602052602073ffffffffffffffffffffffffffffffffffffffff60405f205416604051908152f35b346101575760406003193601126101575760043567ffffffffffffffff8111610157576109b061099d6101a5923690600401610129565b92906109a76103f2565b9361019e6115cc565b906109ba8261153a565b815160208301209173ffffffffffffffffffffffffffffffffffffffff806109ed6101f8865f52600260205260405f2090565b16610afe57610a1a8373ffffffffffffffffffffffffffffffffffffffff165f52600160205260405f2090565b54610ab7577f3620f8b7d44d2ef69147386916350d75730a59fe302128591e3169e24e42f4f89084610a6a8573ffffffffffffffffffffffffffffffffffffffff165f52600160205260405f2090565b55610a8184610257875f52600260205260405f2090565b610a97836102ad875f52600360205260405f2090565b610aa56102c0600454610f3c565b604051931692806107c8339482610471565b6040517f45ed80e900000000000000000000000000000000000000000000000000000000815273ffffffffffffffffffffffffffffffffffffffff84166004820152602490fd5b6040517fb9448be4000000000000000000000000000000000000000000000000000000008152806103308460048301610471565b346101575760206003193601126101575773ffffffffffffffffffffffffffffffffffffffff610b606103cf565b165f526001602052602060405f20541515604051908152f35b3461015757602060031936011261015757610b926103cf565b610b9a6115cc565b73ffffffffffffffffffffffffffffffffffffffff809116908115610c09575f54827fffffffffffffffffffffffff00000000000000000000000000000000000000008216175f55167f8be0079c531659141344cd1fd0a4f28419497f9722a3daafe3b4186f6b6457e05f80a3005b60246040517f1e4fbdf70000000000000000000000000000000000000000000000000000000081525f6004820152fd5b7f4e487b71000000000000000000000000000000000000000000000000000000005f52604160045260245ffd5b6020810190811067ffffffffffffffff821117610c8257604052565b610c39565b90601f7fffffffffffffffffffffffffffffffffffffffffffffffffffffffffffffffe0910116810190811067ffffffffffffffff821117610c8257604052565b67ffffffffffffffff8111610c8257601f017fffffffffffffffffffffffffffffffffffffffffffffffffffffffffffffffe01660200190565b929192610d0e82610cc8565b91610d1c6040519384610c87565b829481845281830111610157578281602093845f960137010152565b90600182811c92168015610d7f575b6020831014610d5257565b7f4e487b71000000000000000000000000000000000000000000000000000000005f52602260045260245ffd5b91607f1691610d47565b818110610d94575050565b5f8155600101610d89565b9190601f8111610dae57505050565b610dd8925f5260205f20906020601f840160051c83019310610dda575b601f0160051c0190610d89565b565b9091508190610dcb565b919091825167ffffffffffffffff8111610c8257610e0c81610e068454610d38565b84610d9f565b602080601f8311600114610e6b57508190610e5c9394955f92610e60575b50507fffffffffffffffffffffffffffffffffffffffffffffffffffffffffffffffff8260011b9260031b1c19161790565b9055565b015190505f80610e2a565b907fffffffffffffffffffffffffffffffffffffffffffffffffffffffffffffffe0831695610e9d855f5260205f2090565b925f905b888210610ef757505083600195969710610ec0575b505050811b019055565b01517fffffffffffffffffffffffffffffffffffffffffffffffffffffffffffffffff60f88460031b161c191690555f8080610eb6565b80600185968294968601518155019501930190610ea1565b7f4e487b71000000000000000000000000000000000000000000000000000000005f52601160045260245ffd5b9060018201809211610f4a57565b610f0f565b9060405191825f8254610f6181610d38565b908184526020946001916001811690815f14610fcd5750600114610f8f575b505050610dd892500383610c87565b5f90815285812095935091905b818310610fb5575050610dd893508201015f8080610f80565b85548884018501529485019487945091830191610f9c565b915050610dd89593507fffffffffffffffffffffffffffffffffffffffffffffffffffffffffffffff0091501682840152151560051b8201015f8080610f80565b909161102561048293604084526040840190610415565b916020818403910152610415565b61103d8154610d38565b9081611047575050565b81601f5f9311600114611058575055565b908083918252611077601f60208420940160051c840160018501610d89565b5555565b6101a59061108a923691610d02565b6110938161153a565b335f908152600160205260409020546110b7610735825f52600360205260405f2090565b82516020840120928284146111ad5773ffffffffffffffffffffffffffffffffffffffff6110f06101f8865f52600260205260405f2090565b166102fa576111a87f558af5b3e832ea7920d122a091e61a0d09625f26fede579ee84cda6f639614e69161112f6105d1865f52600260205260405f2090565b61114461060e865f52600360205260405f2090565b8561116d3373ffffffffffffffffffffffffffffffffffffffff165f52600160205260405f2090565b5561118433610257885f52600260205260405f2090565b61119a816102ad885f52600360205260405f2090565b60405191829133958361100e565b0390a4565b6111a87f558af5b3e832ea7920d122a091e61a0d09625f26fede579ee84cda6f639614e69160405191829133958361100e565b73ffffffffffffffffffffffffffffffffffffffff165f52600160206001815260405f205480156112cf575f526003815260405f206040519283915f9181549161122983610d38565b808652926001811690811561128e5750600114611250575b50505061048292500382610c87565b5f90815285812095935091905b81831061127657505061048293508201015f8080611241565b8554878401850152948501948694509183019161125d565b9150506104829593507fffffffffffffffffffffffffffffffffffffffffffffffffffffffffffffff0091501682840152151560051b8201015f8080611241565b5050506040516112de81610c66565b5f815290565b907fffffffffffffffffffffffffffffffffffffffffffffffffffffffffffffffff8201918211610f4a57565b9061131b82610cc8565b6113286040519182610c87565b8281527fffffffffffffffffffffffffffffffffffffffffffffffffffffffffffffffe06113568294610cc8565b0190602036910137565b908151811015611371570160200190565b7f4e487b71000000000000000000000000000000000000000000000000000000005f52603260045260245ffd5b60ff60209116019060ff8211610f4a57565b906113bb8251611311565b5f5b8351811015611535577f200000000000000000000000000000000000000000000000000000000000000061144261141d6113f78488611360565b517fff000000000000000000000000000000000000000000000000000000000000001690565b7fff000000000000000000000000000000000000000000000000000000000000001690565b1461150b5780604161146b61146561145f6113f76001968a611360565b60f81c90565b60ff1690565b1015806114ee575b156114cf576114bb61149361148e61145f6113f7858a611360565b61139e565b60f81b7fff000000000000000000000000000000000000000000000000000000000000001690565b5f1a6114c78285611360565b535b016113bd565b6114dc6113f78287611360565b5f1a6114e88285611360565b536114c9565b50605a60ff61150361145f6113f7858a611360565b161115611473565b60046040517ff5d2101e000000000000000000000000000000000000000000000000000000008152fd5b509150565b5160038110801561157e575b61154d5750565b602490604051907fc67eee4b0000000000000000000000000000000000000000000000000000000082526004820152fd5b5060208111611546565b335f52600160205260405f20541561159c57565b60246040517fbfc6c337000000000000000000000000000000000000000000000000000000008152336004820152fd5b73ffffffffffffffffffffffffffffffffffffffff5f541633036115ec57565b60246040517f118cdaa7000000000000000000000000000000000000000000000000000000008152336004820152fdfea164736f6c6343000818000a","linkReferences":{}},"methodIdentifiers":{"MAX_LENGTH()":"a6f9885c","MIN_LENGTH()":"7d79ff84","adminForceRevoke(address)":"79d39e0a","adminReserve(string,address)":"b90d5122","getId(address)":"65f68c89","idHashOf(address)":"864a0940","isRegistered(address)":"c3c5a547","isTaken(string)":"258adde2","owner()":"8da5cb5b","ownerOfHash(bytes32)":"9bc7786c","registerId(string)":"14d3a17d","renounceOwnership()":"715018a6","resolveAddress(string)":"b6c6e692","revokeId()":"7691f0ca","totalRegistered()":"927416c0","transferOwnership(address)":"f2fde38b","updateId(string)":"5ede1373"},"id":92}