{"abi":[{"type":"constructor","inputs":[{"name":"baseURI","type":"string","internalType":"string"},{"name":"_manager","type":"address","internalType":"address"}],"stateMutability":"nonpayable"},{"type":"function","name":"balanceOf","inputs":[{"name":"account","type":"address","internalType":"address"},{"name":"id","type":"uint256","internalType":"uint256"}],"outputs":[{"name":"","type":"uint256","internalType":"uint256"}],"stateMutability":"view"},{"type":"function","name":"balanceOfBatch","inputs":[{"name":"accounts","type":"address[]","internalType":"address[]"},{"name":"ids","type":"uint256[]","internalType":"uint256[]"}],"outputs":[{"name":"","type":"uint256[]","internalType":"uint256[]"}],"stateMutability":"view"},{"type":"function","name":"burn","inputs":[{"name":"from","type":"address","internalType":"address"},{"name":"id","type":"uint256","internalType":"uint256"},{"name":"amount","type":"uint256","internalType":"uint256"}],"outputs":[],"stateMutability":"nonpayable"},{"type":"function","name":"exists","inputs":[{"name":"id","type":"uint256","internalType":"uint256"}],"outputs":[{"name":"","type":"bool","internalType":"bool"}],"stateMutability":"view"},{"type":"function","name":"isApprovedForAll","inputs":[{"name":"account","type":"address","internalType":"address"},{"name":"operator","type":"address","internalType":"address"}],"outputs":[{"name":"","type":"bool","internalType":"bool"}],"stateMutability":"view"},{"type":"function","name":"manager","inputs":[],"outputs":[{"name":"","type":"address","internalType":"address"}],"stateMutability":"view"},{"type":"function","name":"mint","inputs":[{"name":"to","type":"address","internalType":"address"},{"name":"id","type":"uint256","internalType":"uint256"},{"name":"amount","type":"uint256","internalType":"uint256"},{"name":"data","type":"bytes","internalType":"bytes"}],"outputs":[],"stateMutability":"nonpayable"},{"type":"function","name":"safeBatchTransferFrom","inputs":[{"name":"from","type":"address","internalType":"address"},{"name":"to","type":"address","internalType":"address"},{"name":"ids","type":"uint256[]","internalType":"uint256[]"},{"name":"values","type":"uint256[]","internalType":"uint256[]"},{"name":"data","type":"bytes","internalType":"bytes"}],"outputs":[],"stateMutability":"nonpayable"},{"type":"function","name":"safeTransferFrom","inputs":[{"name":"from","type":"address","internalType":"address"},{"name":"to","type":"address","internalType":"address"},{"name":"id","type":"uint256","internalType":"uint256"},{"name":"value","type":"uint256","internalType":"uint256"},{"name":"data","type":"bytes","internalType":"bytes"}],"outputs":[],"stateMutability":"nonpayable"},{"type":"function","name":"setApprovalForAll","inputs":[{"name":"operator","type":"address","internalType":"address"},{"name":"approved","type":"bool","internalType":"bool"}],"outputs":[],"stateMutability":"nonpayable"},{"type":"function","name":"setURI","inputs":[{"name":"tokenId","type":"uint256","internalType":"uint256"},{"name":"tokenURI","type":"string","internalType":"string"}],"outputs":[],"stateMutability":"nonpayable"},{"type":"function","name":"supportsInterface","inputs":[{"name":"interfaceId","type":"bytes4","internalType":"bytes4"}],"outputs":[{"name":"","type":"bool","internalType":"bool"}],"stateMutability":"view"},{"type":"function","name":"totalSupply","inputs":[],"outputs":[{"name":"","type":"uint256","internalType":"uint256"}],"stateMutability":"view"},{"type":"function","name":"totalSupply","inputs":[{"name":"id","type":"uint256","internalType":"uint256"}],"outputs":[{"name":"","type":"uint256","internalType":"uint256"}],"stateMutability":"view"},{"type":"function","name":"uri","inputs":[{"name":"tokenId","type":"uint256","internalType":"uint256"}],"outputs":[{"name":"","type":"string","internalType":"string"}],"stateMutability":"view"},{"type":"event","name":"ApprovalForAll","inputs":[{"name":"account","type":"address","indexed":true,"internalType":"address"},{"name":"operator","type":"address","indexed":true,"internalType":"address"},{"name":"approved","type":"bool","indexed":false,"internalType":"bool"}],"anonymous":false},{"type":"event","name":"TransferBatch","inputs":[{"name":"operator","type":"address","indexed":true,"internalType":"address"},{"name":"from","type":"address","indexed":true,"internalType":"address"},{"name":"to","type":"address","indexed":true,"internalType":"address"},{"name":"ids","type":"uint256[]","indexed":false,"internalType":"uint256[]"},{"name":"values","type":"uint256[]","indexed":false,"internalType":"uint256[]"}],"anonymous":false},{"type":"event","name":"TransferSingle","inputs":[{"name":"operator","type":"address","indexed":true,"internalType":"address"},{"name":"from","type":"address","indexed":true,"internalType":"address"},{"name":"to","type":"address","indexed":true,"internalType":"address"},{"name":"id","type":"uint256","indexed":false,"internalType":"uint256"},{"name":"value","type":"uint256","indexed":false,"internalType":"uint256"}],"anonymous":false},{"type":"event","name":"URI","inputs":[{"name":"value","type":"string","indexed":false,"internalType":"string"},{"name":"id","type":"uint256","indexed":true,"internalType":"uint256"}],"anonymous":false},{"type":"error","name":"ERC1155InsufficientBalance","inputs":[{"name":"sender","type":"address","internalType":"address"},{"name":"balance","type":"uint256","internalType":"uint256"},{"name":"needed","type":"uint256","internalType":"uint256"},{"name":"tokenId","type":"uint256","internalType":"uint256"}]},{"type":"error","name":"ERC1155InvalidApprover","inputs":[{"name":"approver","type":"address","internalType":"address"}]},{"type":"error","name":"ERC1155InvalidArrayLength","inputs":[{"name":"idsLength","type":"uint256","internalType":"uint256"},{"name":"valuesLength","type":"uint256","internalType":"uint256"}]},{"type":"error","name":"ERC1155InvalidOperator","inputs":[{"name":"operator","type":"address","internalType":"address"}]},{"type":"error","name":"ERC1155InvalidReceiver","inputs":[{"name":"receiver","type":"address","internalType":"address"}]},{"type":"error","name":"ERC1155InvalidSender","inputs":[{"name":"sender","type":"address","internalType":"address"}]},{"type":"error","name":"ERC1155MissingApprovalForAll","inputs":[{"name":"operator","type":"address","internalType":"address"},{"name":"owner","type":"address","internalType":"address"}]}],"bytecode":{"object":"0x6080604052346200022257620022cf803803806200001d816200023b565b9283398101604082820312620002225781516001600160401b0392908381116200022257810192601f9083828601121562000222578451928184116200020e57602093601f199662000075868987850116016200023b565b968288528683830101116200022257908592915f5b828110620002265750505f90870183015201516001600160a01b0381169490859003620002225780519182116200020e57620000c860025462000261565b838111620001d2575b5083958383116001146200016e57509481929394955f9262000162575b50508160011b915f199060031b1c1916176002555b6200011060055462000261565b9080821162000140575b5f600555600780546001600160a01b0319168517905560405161201a9081620002b58239f35b620001599260055f525f20910160051c8101906200029c565b5f80806200011a565b015190505f80620000ee565b82169560025f52845f20915f5b888110620001ba57508360019596979810620001a1575b505050811b0160025562000103565b01515f1960f88460031b161c191690555f808062000192565b9192866001819286850151815501940192016200017b565b620001fd9060025f52855f208580860160051c82019288871062000204575b0160051c01906200029c565b5f620000d1565b92508192620001f1565b634e487b7160e01b5f52604160045260245ffd5b5f80fd5b8181018501518982018601528794016200008a565b6040519190601f01601f191682016001600160401b038111838210176200020e57604052565b90600182811c9216801562000291575b60208310146200027d57565b634e487b7160e01b5f52602260045260245ffd5b91607f169162000271565b818110620002a8575050565b5f81556001016200029c56fe60806040526004361015610011575f80fd5b5f3560e01c8062fdd58e1461010357806301ffc9a7146100fe5780630e89341c146100f957806318160ddd146100f45780632eb2c2d6146100ef578063481c6a75146100ea5780634e1273f4146100e55780634f558e79146100e0578063731133e9146100db578063862440e2146100d6578063a22cb465146100d1578063bd85b039146100cc578063e985e9c5146100c7578063f242432a146100c25763f5298aca146100bd575f80fd5b610deb565b610c81565b610c09565b610bdf565b610ace565b6108f4565b610828565b6107fc565b610741565b6106ca565b610523565b610374565b61033d565b6101f3565b610173565b6004359073ffffffffffffffffffffffffffffffffffffffff8216820361012b57565b5f80fd5b6024359073ffffffffffffffffffffffffffffffffffffffff8216820361012b57565b359073ffffffffffffffffffffffffffffffffffffffff8216820361012b57565b3461012b57604060031936011261012b5760206101c0610191610108565b6024355f525f835260405f209073ffffffffffffffffffffffffffffffffffffffff165f5260205260405f2090565b54604051908152f35b7fffffffff0000000000000000000000000000000000000000000000000000000081160361012b57565b3461012b57602060031936011261012b5760207fffffffff00000000000000000000000000000000000000000000000000000000600435610233816101c9565b167fd9b67a2600000000000000000000000000000000000000000000000000000000811490811561029b575b8115610271575b506040519015158152f35b7f01ffc9a7000000000000000000000000000000000000000000000000000000009150145f610266565b7f0e89341c000000000000000000000000000000000000000000000000000000008114915061025f565b5f5b8381106102d65750505f910152565b81810151838201526020016102c7565b907fffffffffffffffffffffffffffffffffffffffffffffffffffffffffffffffe0601f602093610322815180928187528780880191016102c5565b0116010190565b90602061033a9281815201906102e6565b90565b3461012b57602060031936011261012b5761037061035c600435611287565b6040519182916020835260208301906102e6565b0390f35b3461012b575f60031936011261012b576020600454604051908152f35b7f4e487b71000000000000000000000000000000000000000000000000000000005f52604160045260245ffd5b6020810190811067ffffffffffffffff8211176103da57604052565b610391565b90601f7fffffffffffffffffffffffffffffffffffffffffffffffffffffffffffffffe0910116810190811067ffffffffffffffff8211176103da57604052565b67ffffffffffffffff81116103da5760051b60200190565b9080601f8301121561012b57602090823561045281610420565b9361046060405195866103df565b81855260208086019260051b82010192831161012b57602001905b828210610489575050505090565b8135815290830190830161047b565b67ffffffffffffffff81116103da57601f017fffffffffffffffffffffffffffffffffffffffffffffffffffffffffffffffe01660200190565b9291926104de82610498565b916104ec60405193846103df565b82948184528183011161012b578281602093845f960137010152565b9080601f8301121561012b5781602061033a933591016104d2565b3461012b5760a060031936011261012b5761053c610108565b61054461012f565b906044359167ffffffffffffffff9081841161012b5761056960049436908601610438565b9060643583811161012b576105819036908701610438565b9260843590811161012b576105999036908701610508565b9373ffffffffffffffffffffffffffffffffffffffff80821690338214158061068c575b6106395783161561060957156105d9576105d79550611532565b005b6024865f604051917f01a83514000000000000000000000000000000000000000000000000000000008352820152fd5b6024875f604051917f57f447ce000000000000000000000000000000000000000000000000000000008352820152fd5b604080517fe237d92200000000000000000000000000000000000000000000000000000000815233818b0190815273ffffffffffffffffffffffffffffffffffffffff8616602082015290918291010390fd5b50815f52600160205260ff6106c23360405f209073ffffffffffffffffffffffffffffffffffffffff165f5260205260405f2090565b5416156105bd565b3461012b575f60031936011261012b57602073ffffffffffffffffffffffffffffffffffffffff60075416604051908152f35b9081518082526020808093019301915f5b82811061071c575050505090565b83518552938101939281019260010161070e565b90602061033a9281815201906106fd565b3461012b57604060031936011261012b5760043567ffffffffffffffff80821161012b573660238301121561012b57816004013561077e81610420565b9261078c60405194856103df565b8184526020916024602086019160051b8301019136831161012b57602401905b8282106107e5578560243586811161012b57610370916107d36107d9923690600401610438565b90610f3d565b60405191829182610730565b8380916107f184610152565b8152019101906107ac565b3461012b57602060031936011261012b576004355f526003602052602060405f20541515604051908152f35b3461012b57608060031936011261012b57610841610108565b60643567ffffffffffffffff811161012b57610861903690600401610508565b73ffffffffffffffffffffffffffffffffffffffff61088581600754163314611019565b8216156108c4576105d7916108be6044356024359160405192600184526020840152604083019160018352606084015260808301604052565b916113fa565b60246040517f57f447ce0000000000000000000000000000000000000000000000000000000081525f6004820152fd5b3461012b57604060031936011261012b5767ffffffffffffffff60043560243582811161012b573660238201121561012b5761093a9036906024816004013591016104d2565b9161095e73ffffffffffffffffffffffffffffffffffffffff600754163314611019565b815f52602090600660205260405f209184519182116103da5761098b82610985855461107e565b856113ab565b602090601f8311600114610a27575081906109db9394955f92610a1c575b50507fffffffffffffffffffffffffffffffffffffffffffffffffffffffffffffffff8260011b9260031b1c19161790565b90555b7f6bb7ff708619ba0610cba295a58592e0451dee2622938c8755667688daf3529b610a17610a0b83611287565b60405191829182610329565b0390a2005b015190505f806109a9565b907fffffffffffffffffffffffffffffffffffffffffffffffffffffffffffffffe0831695610a59855f5260205f2090565b925f905b888210610ab657505083600195969710610a7f575b505050811b0190556109de565b01517fffffffffffffffffffffffffffffffffffffffffffffffffffffffffffffffff60f88460031b161c191690555f8080610a72565b80600185968294968601518155019501930190610a5d565b3461012b57604060031936011261012b57610ae7610108565b60243580151580820361012b5773ffffffffffffffffffffffffffffffffffffffff8316928315610baf57610b4590335f52600160205260405f209073ffffffffffffffffffffffffffffffffffffffff165f5260205260405f2090565b9060ff7fffffffffffffffffffffffffffffffffffffffffffffffffffffffffffffff0083541691161790557f17307eab39ab6107e8899845ad3d59bd9653f200f220920489ca2b5937696c3160405180610baa339482919091602081019215159052565b0390a3005b60246040517fced3e1000000000000000000000000000000000000000000000000000000000081525f6004820152fd5b3461012b57602060031936011261012b576004355f526003602052602060405f2054604051908152f35b3461012b57604060031936011261012b57602060ff610c75610c29610108565b73ffffffffffffffffffffffffffffffffffffffff610c4661012f565b91165f526001845260405f209073ffffffffffffffffffffffffffffffffffffffff165f5260205260405f2090565b54166040519015158152f35b3461012b5760a060031936011261012b57610c9a610108565b610ca261012f565b60843567ffffffffffffffff811161012b57610cc2903690600401610508565b9073ffffffffffffffffffffffffffffffffffffffff808416903382141580610dad575b610d60578216156108c45715610d30576105d792610d286064356044359160405192600184526020840152604083019160018352606084015260808301604052565b929091611532565b60246040517f01a835140000000000000000000000000000000000000000000000000000000081525f6004820152fd5b6040517fe237d92200000000000000000000000000000000000000000000000000000000815233600482015273ffffffffffffffffffffffffffffffffffffffff86166024820152604490fd5b50815f52600160205260ff610de33360405f209073ffffffffffffffffffffffffffffffffffffffff165f5260205260405f2090565b541615610ce6565b3461012b57606060031936011261012b57610e04610108565b73ffffffffffffffffffffffffffffffffffffffff610e2881600754163314611019565b811615610d3057610e78610e606044356024359160405192600184526020840152604083019160018352606084015260808301604052565b81819392945f604051610e72816103be565b52611b1f565b5f91825b8151841015610eba576001908460051b90610eab602080848801015193860101515f52600360205260405f2090565b82815403905501930192610e7c565b6105d79060045403600455565b610ef8915f525f60205260405f209073ffffffffffffffffffffffffffffffffffffffff165f5260205260405f2090565b5490565b8051821015610f105760209160051b010190565b7f4e487b71000000000000000000000000000000000000000000000000000000005f52603260045260245ffd5b91909180518351808203610fde575050805190610f72610f5c83610420565b92610f6a60405194856103df565b808452610420565b907fffffffffffffffffffffffffffffffffffffffffffffffffffffffffffffffe0602092013660208501375f5b8151811015610fd65780610fc560019260051b85808287010151918a01015190610ec7565b610fcf8287610efc565b5201610fa0565b509193505050565b6040517f5b05999100000000000000000000000000000000000000000000000000000000815260048101919091526024810191909152604490fd5b1561102057565b60646040517f08c379a000000000000000000000000000000000000000000000000000000000815260206004820152600c60248201527f4f6e6c79206d616e6167657200000000000000000000000000000000000000006044820152fd5b90600182811c921680156110c5575b602083101461109857565b7f4e487b71000000000000000000000000000000000000000000000000000000005f52602260045260245ffd5b91607f169161108d565b604051905f82600254916110e28361107e565b8083529260209060019081811690811561116e575060011461110f575b505061110d925003836103df565b565b91509260025f527f405787fa12a823e0f2b7631cc41b3ba8828b3321ca811111fa75cd3aa3bb5ace935f925b828410611156575061110d9450505081016020015f806110ff565b8554888501830152948501948794509281019261113b565b90506020935061110d9592507fffffffffffffffffffffffffffffffffffffffffffffffffffffffffffffff0091501682840152151560051b8201015f806110ff565b9060405191825f82546111c38161107e565b908184526020946001916001811690815f1461122f57506001146111f1575b50505061110d925003836103df565b5f90815285812095935091905b81831061121757505061110d93508201015f80806111e2565b855488840185015294850194879450918301916111fe565b91505061110d9593507fffffffffffffffffffffffffffffffffffffffffffffffffffffffffffffff0091501682840152151560051b8201015f80806111e2565b90611283602092828151948592016102c5565b0190565b5f5260206006815261129b60405f206111b1565b8051156113a15760405180925f906005546112b58161107e565b906001908181169081156113645750600114611308575b5050506112dc9061033a93611270565b037fffffffffffffffffffffffffffffffffffffffffffffffffffffffffffffffe081018352826103df565b9091925060055f527f036b6384b5eca791c62761152d0c79bb0604c104a5fb6f4eb0703f3154bb3db0905f915b83831061134e57505050820101826112dc61033a6112cc565b8054888401860152879550918401918101611335565b7fffffffffffffffffffffffffffffffffffffffffffffffffffffffffffffff0016868501525050801515028301019050826112dc61033a6112cc565b505061033a6110cf565b601f82116113b857505050565b5f5260205f20906020601f840160051c830193106113f0575b601f0160051c01905b8181106113e5575050565b5f81556001016113da565b90915081906113d1565b93919091611409828487611ced565b5f94855b8451871015611459576114516001918860051b9061143f602080848a010151938a0101515f52600360205260405f2090565b61144a838254611ac0565b9055611ac0565b96019561140d565b61147391959492965061146e90600454611ac0565b600455565b73ffffffffffffffffffffffffffffffffffffffff841615806114d3575b1561149d575b50505050565b80516001036114c457906020806114bb959301519101519133611a22565b5f808080611497565b6114ce9333611747565b6114bb565b935f9591935f965b8551881015611519576001908860051b9061150a602080848a010151938a0101515f52600360205260405f2090565b828154039055019701966114db565b61152d919593975095919560045403600455565b611491565b9193929061154282868386611e26565b73ffffffffffffffffffffffffffffffffffffffff8084161561160b575b811615806115ad575b15611576575b5050505050565b845160010361159c576020806115929601519201519233611a70565b5f8080808061156f565b6115a8949192336118ca565b611592565b94935f939091845b86518610156115f3576001908660051b906115e4602080848a010151938b0101515f52600360205260405f2090565b828154039055019501946115b5565b6116069193969792955060045403600455565b611569565b9591925f94915f955b875187101561164e576116466001918860051b9061143f602080848c010151938d0101515f52600360205260405f2090565b960195611614565b6116669193965061146e909892959498600454611ac0565b611560565b9081602091031261012b575161033a816101c9565b926116bc61033a959373ffffffffffffffffffffffffffffffffffffffff6116ca941686525f602087015260a0604087015260a08601906106fd565b9084820360608601526106fd565b9160808184039101526102e6565b939061033a95936116bc916116ca9473ffffffffffffffffffffffffffffffffffffffff809216885216602087015260a0604087015260a08601906106fd565b3d15611742573d9061172982610498565b9161173760405193846103df565b82523d5f602084013e565b606090565b9293919093843b611759575050505050565b60209161179560405194859384937fbc197c81000000000000000000000000000000000000000000000000000000009889865260048601611680565b03815f73ffffffffffffffffffffffffffffffffffffffff88165af15f9181611899575b5061181e57826117c7611718565b8051919082611817576040517f57f447ce00000000000000000000000000000000000000000000000000000000815273ffffffffffffffffffffffffffffffffffffffff83166004820152602490fd5b6020915001fd5b7fffffffff00000000000000000000000000000000000000000000000000000000160361185057505f8080808061156f565b6040517f57f447ce00000000000000000000000000000000000000000000000000000000815273ffffffffffffffffffffffffffffffffffffffff919091166004820152602490fd5b6118bc91925060203d6020116118c3575b6118b481836103df565b81019061166b565b905f6117b9565b503d6118aa565b939290949194853b6118df575b505050505050565b61191b60209360405195869485947fbc197c8100000000000000000000000000000000000000000000000000000000998a8752600487016116d8565b03815f73ffffffffffffffffffffffffffffffffffffffff88165af15f9181611980575b5061194d57826117c7611718565b7fffffffff00000000000000000000000000000000000000000000000000000000160361185057505f80808080806118d7565b61199a91925060203d6020116118c3576118b481836103df565b905f61193f565b909260a09273ffffffffffffffffffffffffffffffffffffffff61033a96951683525f60208401526040830152606082015281608082015201906102e6565b919261033a95949160a09473ffffffffffffffffffffffffffffffffffffffff80921685521660208401526040830152606082015281608082015201906102e6565b9293919093843b611a34575050505050565b60209161179560405194859384937ff23a6e610000000000000000000000000000000000000000000000000000000098898652600486016119a1565b939290949194853b611a8457505050505050565b61191b60209360405195869485947ff23a6e6100000000000000000000000000000000000000000000000000000000998a8752600487016119e0565b91908201809211611acd57565b7f4e487b71000000000000000000000000000000000000000000000000000000005f52601160045260245ffd5b9091611b1161033a936040845260408401906106fd565b9160208184039101526106fd565b9291908051825190818103610fde5750505f5b8151811015611c33578060051b6020808285010151918501015173ffffffffffffffffffffffffffffffffffffffff8716611b72575b5050600101611b32565b611baa87611b87845f525f60205260405f2090565b9073ffffffffffffffffffffffffffffffffffffffff165f5260205260405f2090565b54818110611bd65787611b876001959493611bce9303935f525f60205260405f2090565b55905f611b68565b6040517f03dee4c500000000000000000000000000000000000000000000000000000000815273ffffffffffffffffffffffffffffffffffffffff8916600482015260248101919091526044810182905260648101839052608490fd5b50905f92939160018151148414611ca15760209081015191810151604080519384529183015273ffffffffffffffffffffffffffffffffffffffff929092169133917fc3d58168c5ae7397731d063d5bbf3d657854427343f4c083240f7aacaa2d0f6291819081015b0390a4565b909173ffffffffffffffffffffffffffffffffffffffff7f4a39dc06d4c0dbc64b70af90fd698a233a518aa5d07e595d983b8c0526c8f7fb91611c9c6040519283921695339583611afa565b9190918251825190818103610fde5750505f5b8351811015611d6e578060019160051b83602080838901015192870101519173ffffffffffffffffffffffffffffffffffffffff8216611d44575b50505001611d00565b611d6491611b87611d5c925f525f60205260405f2090565b918254611ac0565b90555f8381611d3b565b509160018151145f14611dda5760209081015191810151604080519384529183015273ffffffffffffffffffffffffffffffffffffffff92909216915f9133917fc3d58168c5ae7397731d063d5bbf3d657854427343f4c083240f7aacaa2d0f62919081908101611c9c565b7f4a39dc06d4c0dbc64b70af90fd698a233a518aa5d07e595d983b8c0526c8f7fb73ffffffffffffffffffffffffffffffffffffffff5f9394611c9c6040519283921696339583611afa565b9392918051835190818103610fde5750505f5b8151811015611f4e578060051b90602080838501015192860101518473ffffffffffffffffffffffffffffffffffffffff93848a16611ea8575b6001948216611e86575b50505001611e39565b611e9e91611b87611d5c925f525f60205260405f2090565b90555f8481611e7d565b9192939050611ec289611b87845f525f60205260405f2090565b54838110611ef15791869184600196959403611ee98c611b87855f525f60205260405f2090565b559450611e73565b6040517f03dee4c500000000000000000000000000000000000000000000000000000000815273ffffffffffffffffffffffffffffffffffffffff8b16600482015260248101919091526044810184905260648101839052608490fd5b508051939493919291600103611fbd5760209081015191810151604080519384529183015273ffffffffffffffffffffffffffffffffffffffff928316939092169133917fc3d58168c5ae7397731d063d5bbf3d657854427343f4c083240f7aacaa2d0f629181908101611c9c565b90917f4a39dc06d4c0dbc64b70af90fd698a233a518aa5d07e595d983b8c0526c8f7fb9073ffffffffffffffffffffffffffffffffffffffff90611c9c8260405193849316971695339583611afa56fea164736f6c6343000818000a","linkReferences":{}},"methodIdentifiers":{"balanceOf(address,uint256)":"00fdd58e","balanceOfBatch(address[],uint256[])":"4e1273f4","burn(address,uint256,uint256)":"f5298aca","exists(uint256)":"4f558e79","isApprovedForAll(address,address)":"e985e9c5","manager()":"481c6a75","mint(address,uint256,uint256,bytes)":"731133e9","safeBatchTransferFrom(address,address,uint256[],uint256[],bytes)":"2eb2c2d6","safeTransferFrom(address,address,uint256,uint256,bytes)":"f242432a","setApprovalForAll(address,bool)":"a22cb465","setURI(uint256,string)":"862440e2","supportsInterface(bytes4)":"01ffc9a7","totalSupply()":"18160ddd","totalSupply(uint256)":"bd85b039","uri(uint256)":"0e89341c"},"id":82}