{"abi":[{"type":"constructor","inputs":[{"name":"name_","type":"string","internalType":"string"},{"name":"symbol_","type":"string","internalType":"string"},{"name":"_manager","type":"address","internalType":"address"}],"stateMutability":"nonpayable"},{"type":"function","name":"approve","inputs":[{"name":"to","type":"address","internalType":"address"},{"name":"tokenId","type":"uint256","internalType":"uint256"}],"outputs":[],"stateMutability":"nonpayable"},{"type":"function","name":"balanceOf","inputs":[{"name":"owner","type":"address","internalType":"address"}],"outputs":[{"name":"","type":"uint256","internalType":"uint256"}],"stateMutability":"view"},{"type":"function","name":"burn","inputs":[{"name":"tokenId","type":"uint256","internalType":"uint256"}],"outputs":[],"stateMutability":"nonpayable"},{"type":"function","name":"getApproved","inputs":[{"name":"tokenId","type":"uint256","internalType":"uint256"}],"outputs":[{"name":"","type":"address","internalType":"address"}],"stateMutability":"view"},{"type":"function","name":"isApprovedForAll","inputs":[{"name":"owner","type":"address","internalType":"address"},{"name":"operator","type":"address","internalType":"address"}],"outputs":[{"name":"","type":"bool","internalType":"bool"}],"stateMutability":"view"},{"type":"function","name":"manager","inputs":[],"outputs":[{"name":"","type":"address","internalType":"address"}],"stateMutability":"view"},{"type":"function","name":"name","inputs":[],"outputs":[{"name":"","type":"string","internalType":"string"}],"stateMutability":"view"},{"type":"function","name":"ownerOf","inputs":[{"name":"tokenId","type":"uint256","internalType":"uint256"}],"outputs":[{"name":"","type":"address","internalType":"address"}],"stateMutability":"view"},{"type":"function","name":"royaltyInfo","inputs":[{"name":"tokenId","type":"uint256","internalType":"uint256"},{"name":"salePrice","type":"uint256","internalType":"uint256"}],"outputs":[{"name":"receiver","type":"address","internalType":"address"},{"name":"amount","type":"uint256","internalType":"uint256"}],"stateMutability":"view"},{"type":"function","name":"safeMint","inputs":[{"name":"to","type":"address","internalType":"address"},{"name":"tokenId","type":"uint256","internalType":"uint256"},{"name":"uri","type":"string","internalType":"string"}],"outputs":[],"stateMutability":"nonpayable"},{"type":"function","name":"safeTransferFrom","inputs":[{"name":"from","type":"address","internalType":"address"},{"name":"to","type":"address","internalType":"address"},{"name":"tokenId","type":"uint256","internalType":"uint256"}],"outputs":[],"stateMutability":"nonpayable"},{"type":"function","name":"safeTransferFrom","inputs":[{"name":"from","type":"address","internalType":"address"},{"name":"to","type":"address","internalType":"address"},{"name":"tokenId","type":"uint256","internalType":"uint256"},{"name":"data","type":"bytes","internalType":"bytes"}],"outputs":[],"stateMutability":"nonpayable"},{"type":"function","name":"setApprovalForAll","inputs":[{"name":"operator","type":"address","internalType":"address"},{"name":"approved","type":"bool","internalType":"bool"}],"outputs":[],"stateMutability":"nonpayable"},{"type":"function","name":"setRoyalty","inputs":[{"name":"receiver","type":"address","internalType":"address"},{"name":"feeNumerator","type":"uint96","internalType":"uint96"}],"outputs":[],"stateMutability":"nonpayable"},{"type":"function","name":"supportsInterface","inputs":[{"name":"interfaceId","type":"bytes4","internalType":"bytes4"}],"outputs":[{"name":"","type":"bool","internalType":"bool"}],"stateMutability":"view"},{"type":"function","name":"symbol","inputs":[],"outputs":[{"name":"","type":"string","internalType":"string"}],"stateMutability":"view"},{"type":"function","name":"tokenURI","inputs":[{"name":"tokenId","type":"uint256","internalType":"uint256"}],"outputs":[{"name":"","type":"string","internalType":"string"}],"stateMutability":"view"},{"type":"function","name":"transferFrom","inputs":[{"name":"from","type":"address","internalType":"address"},{"name":"to","type":"address","internalType":"address"},{"name":"tokenId","type":"uint256","internalType":"uint256"}],"outputs":[],"stateMutability":"nonpayable"},{"type":"function","name":"updateTokenURI","inputs":[{"name":"tokenId","type":"uint256","internalType":"uint256"},{"name":"uri","type":"string","internalType":"string"}],"outputs":[],"stateMutability":"nonpayable"},{"type":"event","name":"Approval","inputs":[{"name":"owner","type":"address","indexed":true,"internalType":"address"},{"name":"approved","type":"address","indexed":true,"internalType":"address"},{"name":"tokenId","type":"uint256","indexed":true,"internalType":"uint256"}],"anonymous":false},{"type":"event","name":"ApprovalForAll","inputs":[{"name":"owner","type":"address","indexed":true,"internalType":"address"},{"name":"operator","type":"address","indexed":true,"internalType":"address"},{"name":"approved","type":"bool","indexed":false,"internalType":"bool"}],"anonymous":false},{"type":"event","name":"BatchMetadataUpdate","inputs":[{"name":"_fromTokenId","type":"uint256","indexed":false,"internalType":"uint256"},{"name":"_toTokenId","type":"uint256","indexed":false,"internalType":"uint256"}],"anonymous":false},{"type":"event","name":"MetadataUpdate","inputs":[{"name":"_tokenId","type":"uint256","indexed":false,"internalType":"uint256"}],"anonymous":false},{"type":"event","name":"Transfer","inputs":[{"name":"from","type":"address","indexed":true,"internalType":"address"},{"name":"to","type":"address","indexed":true,"internalType":"address"},{"name":"tokenId","type":"uint256","indexed":true,"internalType":"uint256"}],"anonymous":false},{"type":"error","name":"ERC2981InvalidDefaultRoyalty","inputs":[{"name":"numerator","type":"uint256","internalType":"uint256"},{"name":"denominator","type":"uint256","internalType":"uint256"}]},{"type":"error","name":"ERC2981InvalidDefaultRoyaltyReceiver","inputs":[{"name":"receiver","type":"address","internalType":"address"}]},{"type":"error","name":"ERC2981InvalidTokenRoyalty","inputs":[{"name":"tokenId","type":"uint256","internalType":"uint256"},{"name":"numerator","type":"uint256","internalType":"uint256"},{"name":"denominator","type":"uint256","internalType":"uint256"}]},{"type":"error","name":"ERC2981InvalidTokenRoyaltyReceiver","inputs":[{"name":"tokenId","type":"uint256","internalType":"uint256"},{"name":"receiver","type":"address","internalType":"address"}]},{"type":"error","name":"ERC721IncorrectOwner","inputs":[{"name":"sender","type":"address","internalType":"address"},{"name":"tokenId","type":"uint256","internalType":"uint256"},{"name":"owner","type":"address","internalType":"address"}]},{"type":"error","name":"ERC721InsufficientApproval","inputs":[{"name":"operator","type":"address","internalType":"address"},{"name":"tokenId","type":"uint256","internalType":"uint256"}]},{"type":"error","name":"ERC721InvalidApprover","inputs":[{"name":"approver","type":"address","internalType":"address"}]},{"type":"error","name":"ERC721InvalidOperator","inputs":[{"name":"operator","type":"address","internalType":"address"}]},{"type":"error","name":"ERC721InvalidOwner","inputs":[{"name":"owner","type":"address","internalType":"address"}]},{"type":"error","name":"ERC721InvalidReceiver","inputs":[{"name":"receiver","type":"address","internalType":"address"}]},{"type":"error","name":"ERC721InvalidSender","inputs":[{"name":"sender","type":"address","internalType":"address"}]},{"type":"error","name":"ERC721NonexistentToken","inputs":[{"name":"tokenId","type":"uint256","internalType":"uint256"}]}],"bytecode":{"object":"0x608060405234620003235762001d35803803806200001d8162000327565b9283398101606082820312620003235781516001600160401b03908181116200032357826200004e9185016200034d565b906020928385015182811162000323576040916200006e9187016200034d565b9401516001600160a01b038116949085900362000323578251908282116200023e57600254916001948584811c9416801562000318575b878510146200021f578190601f94858111620002c4575b5087908583116001146200025e575f9262000252575b50505f19600383901b1c191690851b176002555b80519283116200023e5760039485548581811c9116801562000233575b828210146200021f57838111620001d7575b50809284116001146200017157509282939183925f9462000165575b50501b915f1990841b1c19161790555b600980546001600160a01b0319169190911790556040516119779081620003be8239f35b015192505f8062000131565b919083601f198116875f52845f20945f905b88838310620001bc5750505010620001a4575b505050811b01905562000141565b01515f1983861b60f8161c191690555f808062000196565b85870151885590960195948501948793509081019062000183565b865f52815f208480870160051c82019284881062000215575b0160051c019086905b8281106200020957505062000115565b5f8155018690620001f9565b92508192620001f0565b634e487b7160e01b5f52602260045260245ffd5b90607f169062000103565b634e487b7160e01b5f52604160045260245ffd5b015190505f80620000d2565b90879350601f1983169160025f52895f20925f5b8b828210620002ad575050841162000294575b505050811b01600255620000e6565b01515f1960f88460031b161c191690555f808062000285565b8385015186558b9790950194938401930162000272565b90915060025f52875f208580850160051c8201928a86106200030e575b918991869594930160051c01915b828110620002ff575050620000bc565b5f8155859450899101620002ef565b92508192620002e1565b93607f1693620000a5565b5f80fd5b6040519190601f01601f191682016001600160401b038111838210176200023e57604052565b919080601f84011215620003235782516001600160401b0381116200023e5760209062000383601f8201601f1916830162000327565b9281845282828701011162000323575f5b818110620003a95750825f9394955001015290565b85810183015184820184015282016200039456fe6080604090808252600480361015610015575f80fd5b5f3560e01c91826301ffc9a714610f455750816306fdde0314610e96578163081812fc14610e4f578163095ea7b314610d1757816318e97fd114610cba57816323b872dd14610ca35781632a55205a14610bc657816342842e0e14610b9857816342966c6814610a53578163481c6a7514610a1f5781636352211e146109e457816370a082311461096a5781638f2fc60b1461082757816395d89b4114610728578163a22cb46514610649578163b88d4fde146105df578163c87b56dd146104ce578163cd279c7c14610150575063e985e9c5146100f1575f80fd5b3461014c578060031936011261014c5760209061010c6110d5565b6101146110f8565b9073ffffffffffffffffffffffffffffffffffffffff8091165f5260078452825f2091165f52825260ff815f20541690519015158152f35b5f80fd5b90503461014c57606060031936011261014c5761016b6110d5565b90602480359160443567ffffffffffffffff811161014c576101909036908301611215565b9373ffffffffffffffffffffffffffffffffffffffff956101b6876009541633146112c6565b8051966101c28861111b565b5f885280831692831561049f57865f52602091858352835f20541687858215159283610433575b815f5260058652865f2060018154019055825f52888652865f20827fffffffffffffffffffffffff00000000000000000000000000000000000000008254161790557fddf252ad1be2c89b69c2b068fc378daa952ba7f163c4a11628f55a4df523b3ef5f80a4610404573b610265575b61026387876115e4565b005b928497845f84976102be859b979a965194859384937f150b7a0200000000000000000000000000000000000000000000000000000000988986523390860152840152876044840152608060648401526084830190611079565b03815f8b5af15f91816103ac575b5061033d57505050503d5f14610335573d906102e7826111a5565b916102f484519384611164565b82523d5f8284013e5b815191826103325750505051917f64a0ae92000000000000000000000000000000000000000000000000000000008352820152fd5b01fd5b6060906102fd565b7fffffffff00000000000000000000000000000000000000000000000000000000919296945096949296160361037f5750505061026392505f80808080610259565b85935051917f64a0ae92000000000000000000000000000000000000000000000000000000008352820152fd5b9091508581813d83116103fd575b6103c48183611164565b8101031261014c57517fffffffff000000000000000000000000000000000000000000000000000000008116810361014c57905f6102cc565b503d6103ba565b50505f915051917f73c6ac6e000000000000000000000000000000000000000000000000000000008352820152fd5b61046a835f52600660205260405f207fffffffffffffffffffffffff00000000000000000000000000000000000000008154169055565b805f5260058652865f207fffffffffffffffffffffffffffffffffffffffffffffffffffffffffffffffff81540190556101e9565b50505f915051917f64a0ae92000000000000000000000000000000000000000000000000000000008352820152fd5b90503461014c576020908160031936011261014c57356104ed81611585565b505f5260088152815f2091805180935f90805461050981611275565b91828552600191876001821691825f1461059a57505060011461055a575b505050610556929161053a910385611164565b5f81516105468161111b565b5251928284938452830190611079565b0390f35b8693505f92919252825f20915f925b828410610582575050508201018161053a610556610527565b8054848a018601528895508794909301928101610569565b7fffffffffffffffffffffffffffffffffffffffffffffffffffffffffffffff00168782015293151560051b8601909301935084925061053a91506105569050610527565b3461014c57608060031936011261014c576105f86110d5565b6106006110f8565b6044359060643567ffffffffffffffff811161014c573660238201121561014c5761026394816024610637933693013591016111df565b9261064383838361132b565b3361179f565b823461014c578060031936011261014c576106626110d5565b906024359182151580930361014c5773ffffffffffffffffffffffffffffffffffffffff169283156106fa5750335f526007602052805f20835f52602052805f207fffffffffffffffffffffffffffffffffffffffffffffffffffffffffffffff0081541660ff8416179055519081527f17307eab39ab6107e8899845ad3d59bd9653f200f220920489ca2b5937696c3160203392a3005b8360249251917f5b08ba18000000000000000000000000000000000000000000000000000000008352820152fd5b823461014c575f60031936011261014c5780516003549091825f61074b84611275565b808352602094600190866001821691825f146107e757505060011461078c575b5050610556929161077d910385611164565b51928284938452830190611079565b9085925060035f527fc2575a0e9e593c00f959f8c92f12db2869c3395a3b0502d05e2516446f71f85b915f925b8284106107cf575050508201018161077d61076b565b8054848a0186015288955087949093019281016107b9565b7fffffffffffffffffffffffffffffffffffffffffffffffffffffffffffffff00168682015292151560051b8501909201925083915061077d905061076b565b90503461014c578160031936011261014c576108416110d5565b90602435916bffffffffffffffffffffffff83169081840361014c5773ffffffffffffffffffffffffffffffffffffffff91610882836009541633146112c6565b61271090818111610935575050169283156109065767ffffffffffffffff81519182019182109111176108da575060a01b7fffffffffffffffffffffffff000000000000000000000000000000000000000016175f55005b6041907f4e487b71000000000000000000000000000000000000000000000000000000005f525260245ffd5b905f60249251917fb6d9900a000000000000000000000000000000000000000000000000000000008352820152fd5b60449185918851927f6f483d090000000000000000000000000000000000000000000000000000000084528301526024820152fd5b823461014c57602060031936011261014c5773ffffffffffffffffffffffffffffffffffffffff6109996110d5565b1680156109b557602092505f5260058252805f20549051908152f35b6024835f8451917f89c62b64000000000000000000000000000000000000000000000000000000008352820152fd5b823461014c57602060031936011261014c5773ffffffffffffffffffffffffffffffffffffffff610a1760209335611585565b915191168152f35b823461014c575f60031936011261014c5760209073ffffffffffffffffffffffffffffffffffffffff600954169051908152f35b90503461014c57602060031936011261014c57803573ffffffffffffffffffffffffffffffffffffffff610a8c816009541633146112c6565b815f5282602052835f205416815f8215928315610b2b575b828252856020528682207fffffffffffffffffffffffff000000000000000000000000000000000000000081541690557fddf252ad1be2c89b69c2b068fc378daa952ba7f163c4a11628f55a4df523b3ef8280a4610afe57005b60249251917f7e273289000000000000000000000000000000000000000000000000000000008352820152fd5b610b62835f52600660205260405f207fffffffffffffffffffffffff00000000000000000000000000000000000000008154169055565b80825260056020528682207fffffffffffffffffffffffffffffffffffffffffffffffffffffffffffffffff8154019055610aa4565b823461014c5761026390610bab36611233565b91925192610bb88461111b565b5f845261064383838361132b565b823461014c578060031936011261014c576024359082355f526001602052805f20549273ffffffffffffffffffffffffffffffffffffffff8085169460a01c908515610c85575b506bffffffffffffffffffffffff1692838102938185041490151715610c5957505173ffffffffffffffffffffffffffffffffffffffff92909216825261271090046020820152604090f35b6011907f4e487b71000000000000000000000000000000000000000000000000000000005f525260245ffd5b5f54908116955060a01c90506bffffffffffffffffffffffff610c0d565b3461014c57610263610cb436611233565b9161132b565b823461014c5760031936011261014c576024359067ffffffffffffffff821161014c57610ced6102639236908301611215565b90610d1173ffffffffffffffffffffffffffffffffffffffff6009541633146112c6565b356115e4565b823461014c578060031936011261014c57610d306110d5565b9160243590610d3e82611585565b9033151580610e2f575b80610dfa575b610dca5750819073ffffffffffffffffffffffffffffffffffffffff809516948591167f8c5be1e5ebec7d5bd14f71427d1e84f3dd0314c0f7b2291e5b200ac8c7c3b9255f80a45f5260066020525f20907fffffffffffffffffffffffff00000000000000000000000000000000000000008254161790555f80f35b6024908451907fa9fbf51f0000000000000000000000000000000000000000000000000000000082523390820152fd5b5073ffffffffffffffffffffffffffffffffffffffff82165f526007602052835f20335f5260205260ff845f20541615610d4e565b503373ffffffffffffffffffffffffffffffffffffffff83161415610d48565b823461014c57602060031936011261014c5760209135610e6e81611585565b505f526006825273ffffffffffffffffffffffffffffffffffffffff815f2054169051908152f35b823461014c575f60031936011261014c5780516002549091825f610eb984611275565b808352602094600190866001821691825f146107e7575050600114610eea575050610556929161077d910385611164565b9085925060025f527f405787fa12a823e0f2b7631cc41b3ba8828b3321ca811111fa75cd3aa3bb5ace915f925b828410610f2d575050508201018161077d61076b565b8054848a018601528895508794909301928101610f17565b903461014c57602060031936011261014c5735907fffffffff00000000000000000000000000000000000000000000000000000000821680920361014c57817f490649060000000000000000000000000000000000000000000000000000000060209314908115610fb8575b5015158152f35b7f80ac58cd0000000000000000000000000000000000000000000000000000000081149150811561104f575b8115610ff2575b5083610fb1565b7f2a55205a00000000000000000000000000000000000000000000000000000000811491508115611025575b5083610feb565b7f01ffc9a7000000000000000000000000000000000000000000000000000000009150148361101e565b7f5b5e139f0000000000000000000000000000000000000000000000000000000081149150610fe4565b91908251928382525f5b8481106110c15750507fffffffffffffffffffffffffffffffffffffffffffffffffffffffffffffffe0601f845f6020809697860101520116010190565b602081830181015184830182015201611083565b6004359073ffffffffffffffffffffffffffffffffffffffff8216820361014c57565b6024359073ffffffffffffffffffffffffffffffffffffffff8216820361014c57565b6020810190811067ffffffffffffffff82111761113757604052565b7f4e487b71000000000000000000000000000000000000000000000000000000005f52604160045260245ffd5b90601f7fffffffffffffffffffffffffffffffffffffffffffffffffffffffffffffffe0910116810190811067ffffffffffffffff82111761113757604052565b67ffffffffffffffff811161113757601f017fffffffffffffffffffffffffffffffffffffffffffffffffffffffffffffffe01660200190565b9291926111eb826111a5565b916111f96040519384611164565b82948184528183011161014c578281602093845f960137010152565b9080601f8301121561014c57816020611230933591016111df565b90565b600319606091011261014c5773ffffffffffffffffffffffffffffffffffffffff90600435828116810361014c5791602435908116810361014c579060443590565b90600182811c921680156112bc575b602083101461128f57565b7f4e487b71000000000000000000000000000000000000000000000000000000005f52602260045260245ffd5b91607f1691611284565b156112cd57565b60646040517f08c379a000000000000000000000000000000000000000000000000000000000815260206004820152600c60248201527f4f6e6c79206d616e6167657200000000000000000000000000000000000000006044820152fd5b909173ffffffffffffffffffffffffffffffffffffffff80931692831561155557815f52602092600484528260409583875f205416953315158061148e575b5060049087611422575b825f5260058152885f2060018154019055835f5252865f20817fffffffffffffffffffffffff0000000000000000000000000000000000000000825416179055857fddf252ad1be2c89b69c2b068fc378daa952ba7f163c4a11628f55a4df523b3ef5f80a416928383036113e85750505050565b6064945051927f64283d7b000000000000000000000000000000000000000000000000000000008452600484015260248301526044820152fd5b611459845f52600660205260405f207fffffffffffffffffffffffff00000000000000000000000000000000000000008154169055565b875f5260058152885f207fffffffffffffffffffffffffffffffffffffffffffffffffffffffffffffffff8154019055611374565b9192509080611514575b156114a6579084915f61136a565b8685876114dc5760249151907f7e2732890000000000000000000000000000000000000000000000000000000082526004820152fd5b90517f177e802f0000000000000000000000000000000000000000000000000000000081523360048201526024810191909152604490fd5b503386148015611539575b806114985750845f52600681523384885f20541614611498565b50855f5260078152865f20335f52815260ff875f20541661151f565b60246040517f64a0ae920000000000000000000000000000000000000000000000000000000081525f6004820152fd5b805f52600460205273ffffffffffffffffffffffffffffffffffffffff60405f2054169081156115b3575090565b602490604051907f7e2732890000000000000000000000000000000000000000000000000000000082526004820152fd5b919091805f526020906008825260405f2084519467ffffffffffffffff8611611137576116118254611275565b601f811161175c575b508390601f871160011461169b579580917ff8e1a15aba9398e019f0b49df1a4fde98ee17ae345cb5f6b5e2c27f5033e8ce796975f92611690575b50507fffffffffffffffffffffffffffffffffffffffffffffffffffffffffffffffff8260011b9260031b1c19161790555b604051908152a1565b015190505f80611655565b907fffffffffffffffffffffffffffffffffffffffffffffffffffffffffffffffe0871691835f52855f20925f5b81811061174557509160019391897ff8e1a15aba9398e019f0b49df1a4fde98ee17ae345cb5f6b5e2c27f5033e8ce7999a941061170e575b505050811b019055611687565b01517fffffffffffffffffffffffffffffffffffffffffffffffffffffffffffffffff60f88460031b161c191690555f8080611701565b9293876001819287860151815501950193016116c9565b825f52845f20601f880160051c810191868910611795575b601f0160051c01905b81811061178a575061161a565b5f815560010161177d565b9091508190611774565b9293909193843b6117b2575b5050505050565b906118269593929173ffffffffffffffffffffffffffffffffffffffff8096169560405193817f150b7a020000000000000000000000000000000000000000000000000000000096878752166004860152166024840152604483015260806064830152818060209788936084830190611079565b03815f885af15f9181611912575b506118ab575050503d5f146118a3573d9161184e836111a5565b9261185c6040519485611164565b83523d5f8285013e5b8251928361189e57602483604051907f64a0ae920000000000000000000000000000000000000000000000000000000082526004820152fd5b019050fd5b606091611865565b7fffffffff000000000000000000000000000000000000000000000000000000009192945016036118e157505f808080806117ab565b602490604051907f64a0ae920000000000000000000000000000000000000000000000000000000082526004820152fd5b9091508581813d8311611963575b61192a8183611164565b8101031261014c57517fffffffff000000000000000000000000000000000000000000000000000000008116810361014c57905f611834565b503d61192056fea164736f6c6343000818000a","linkReferences":{}},"methodIdentifiers":{"approve(address,uint256)":"095ea7b3","balanceOf(address)":"70a08231","burn(uint256)":"42966c68","getApproved(uint256)":"081812fc","isApprovedForAll(address,address)":"e985e9c5","manager()":"481c6a75","name()":"06fdde03","ownerOf(uint256)":"6352211e","royaltyInfo(uint256,uint256)":"2a55205a","safeMint(address,uint256,string)":"cd279c7c","safeTransferFrom(address,address,uint256)":"42842e0e","safeTransferFrom(address,address,uint256,bytes)":"b88d4fde","setApprovalForAll(address,bool)":"a22cb465","setRoyalty(address,uint96)":"8f2fc60b","supportsInterface(bytes4)":"01ffc9a7","symbol()":"95d89b41","tokenURI(uint256)":"c87b56dd","transferFrom(address,address,uint256)":"23b872dd","updateTokenURI(uint256,string)":"18e97fd1"},"id":82}