{"abi":[{"type":"constructor","inputs":[],"stateMutability":"nonpayable"},{"type":"receive","stateMutability":"payable"},{"type":"function","name":"ADMIN_ROLE","inputs":[],"outputs":[{"name":"","type":"bytes32","internalType":"bytes32"}],"stateMutability":"view"},{"type":"function","name":"DEFAULT_ADMIN_ROLE","inputs":[],"outputs":[{"name":"","type":"bytes32","internalType":"bytes32"}],"stateMutability":"view"},{"type":"function","name":"MINTER_ROLE","inputs":[],"outputs":[{"name":"","type":"bytes32","internalType":"bytes32"}],"stateMutability":"view"},{"type":"function","name":"batchMintERC1155","inputs":[{"name":"collection","type":"address","internalType":"address"},{"name":"to","type":"address[]","internalType":"address[]"},{"name":"ids","type":"uint256[]","internalType":"uint256[]"},{"name":"amounts","type":"uint256[]","internalType":"uint256[]"},{"name":"data","type":"bytes","internalType":"bytes"}],"outputs":[],"stateMutability":"nonpayable"},{"type":"function","name":"batchMintERC721","inputs":[{"name":"collection","type":"address","internalType":"address"},{"name":"to","type":"address[]","internalType":"address[]"},{"name":"tokenIds","type":"uint256[]","internalType":"uint256[]"},{"name":"uris","type":"string[]","internalType":"string[]"}],"outputs":[],"stateMutability":"nonpayable"},{"type":"function","name":"burnERC1155","inputs":[{"name":"collection","type":"address","internalType":"address"},{"name":"from","type":"address","internalType":"address"},{"name":"id","type":"uint256","internalType":"uint256"},{"name":"amount","type":"uint256","internalType":"uint256"}],"outputs":[],"stateMutability":"nonpayable"},{"type":"function","name":"burnERC721","inputs":[{"name":"collection","type":"address","internalType":"address"},{"name":"tokenId","type":"uint256","internalType":"uint256"}],"outputs":[],"stateMutability":"nonpayable"},{"type":"function","name":"collectionCount","inputs":[],"outputs":[{"name":"","type":"uint256","internalType":"uint256"}],"stateMutability":"view"},{"type":"function","name":"collectionIdByAddr","inputs":[{"name":"","type":"address","internalType":"address"}],"outputs":[{"name":"","type":"uint256","internalType":"uint256"}],"stateMutability":"view"},{"type":"function","name":"collections","inputs":[{"name":"","type":"uint256","internalType":"uint256"}],"outputs":[{"name":"addr","type":"address","internalType":"address"},{"name":"is1155","type":"bool","internalType":"bool"},{"name":"name","type":"string","internalType":"string"},{"name":"symbol","type":"string","internalType":"string"},{"name":"creator","type":"address","internalType":"address"},{"name":"createdAt","type":"uint256","internalType":"uint256"},{"name":"royaltyFee","type":"uint96","internalType":"uint96"},{"name":"royaltyReceiver","type":"address","internalType":"address"}],"stateMutability":"view"},{"type":"function","name":"createCollection","inputs":[{"name":"name","type":"string","internalType":"string"},{"name":"symbol","type":"string","internalType":"string"},{"name":"baseURI","type":"string","internalType":"string"},{"name":"is1155","type":"bool","internalType":"bool"},{"name":"royaltyReceiver","type":"address","internalType":"address"},{"name":"royaltyFee","type":"uint96","internalType":"uint96"}],"outputs":[{"name":"collectionAddr","type":"address","internalType":"address"}],"stateMutability":"nonpayable"},{"type":"function","name":"getAllCollections","inputs":[],"outputs":[{"name":"","type":"address[]","internalType":"address[]"}],"stateMutability":"view"},{"type":"function","name":"getCollection","inputs":[{"name":"id","type":"uint256","internalType":"uint256"}],"outputs":[{"name":"","type":"tuple","internalType":"struct NFTManager.CollectionInfo","components":[{"name":"addr","type":"address","internalType":"address"},{"name":"is1155","type":"bool","internalType":"bool"},{"name":"name","type":"string","internalType":"string"},{"name":"symbol","type":"string","internalType":"string"},{"name":"creator","type":"address","internalType":"address"},{"name":"createdAt","type":"uint256","internalType":"uint256"},{"name":"royaltyFee","type":"uint96","internalType":"uint96"},{"name":"royaltyReceiver","type":"address","internalType":"address"}]}],"stateMutability":"view"},{"type":"function","name":"getCollectionSupply","inputs":[{"name":"collection","type":"address","internalType":"address"},{"name":"tokenId","type":"uint256","internalType":"uint256"}],"outputs":[{"name":"","type":"uint256","internalType":"uint256"}],"stateMutability":"view"},{"type":"function","name":"getRoleAdmin","inputs":[{"name":"role","type":"bytes32","internalType":"bytes32"}],"outputs":[{"name":"","type":"bytes32","internalType":"bytes32"}],"stateMutability":"view"},{"type":"function","name":"grantRole","inputs":[{"name":"role","type":"bytes32","internalType":"bytes32"},{"name":"account","type":"address","internalType":"address"}],"outputs":[],"stateMutability":"nonpayable"},{"type":"function","name":"hasRole","inputs":[{"name":"role","type":"bytes32","internalType":"bytes32"},{"name":"account","type":"address","internalType":"address"}],"outputs":[{"name":"","type":"bool","internalType":"bool"}],"stateMutability":"view"},{"type":"function","name":"mintERC1155","inputs":[{"name":"collection","type":"address","internalType":"address"},{"name":"to","type":"address","internalType":"address"},{"name":"id","type":"uint256","internalType":"uint256"},{"name":"amount","type":"uint256","internalType":"uint256"},{"name":"data","type":"bytes","internalType":"bytes"}],"outputs":[],"stateMutability":"nonpayable"},{"type":"function","name":"mintERC721","inputs":[{"name":"collection","type":"address","internalType":"address"},{"name":"to","type":"address","internalType":"address"},{"name":"tokenId","type":"uint256","internalType":"uint256"},{"name":"uri","type":"string","internalType":"string"}],"outputs":[],"stateMutability":"nonpayable"},{"type":"function","name":"renounceRole","inputs":[{"name":"role","type":"bytes32","internalType":"bytes32"},{"name":"callerConfirmation","type":"address","internalType":"address"}],"outputs":[],"stateMutability":"nonpayable"},{"type":"function","name":"revokeRole","inputs":[{"name":"role","type":"bytes32","internalType":"bytes32"},{"name":"account","type":"address","internalType":"address"}],"outputs":[],"stateMutability":"nonpayable"},{"type":"function","name":"setRoyalty","inputs":[{"name":"collection","type":"address","internalType":"address"},{"name":"receiver","type":"address","internalType":"address"},{"name":"feeNumerator","type":"uint96","internalType":"uint96"}],"outputs":[],"stateMutability":"nonpayable"},{"type":"function","name":"setTokenURI","inputs":[{"name":"collection","type":"address","internalType":"address"},{"name":"tokenId","type":"uint256","internalType":"uint256"},{"name":"uri","type":"string","internalType":"string"}],"outputs":[],"stateMutability":"nonpayable"},{"type":"function","name":"setTokenURI1155","inputs":[{"name":"collection","type":"address","internalType":"address"},{"name":"tokenId","type":"uint256","internalType":"uint256"},{"name":"uri","type":"string","internalType":"string"}],"outputs":[],"stateMutability":"nonpayable"},{"type":"function","name":"supportsInterface","inputs":[{"name":"interfaceId","type":"bytes4","internalType":"bytes4"}],"outputs":[{"name":"","type":"bool","internalType":"bool"}],"stateMutability":"view"},{"type":"function","name":"totalCollections","inputs":[],"outputs":[{"name":"","type":"uint256","internalType":"uint256"}],"stateMutability":"view"},{"type":"event","name":"BatchMinted","inputs":[{"name":"collection","type":"address","indexed":true,"internalType":"address"},{"name":"to","type":"address[]","indexed":false,"internalType":"address[]"},{"name":"ids","type":"uint256[]","indexed":false,"internalType":"uint256[]"},{"name":"amounts","type":"uint256[]","indexed":false,"internalType":"uint256[]"},{"name":"is1155","type":"bool","indexed":false,"internalType":"bool"}],"anonymous":false},{"type":"event","name":"CollectionCreated","inputs":[{"name":"id","type":"uint256","indexed":true,"internalType":"uint256"},{"name":"addr","type":"address","indexed":false,"internalType":"address"},{"name":"is1155","type":"bool","indexed":false,"internalType":"bool"},{"name":"creator","type":"address","indexed":true,"internalType":"address"}],"anonymous":false},{"type":"event","name":"NFTBurned","inputs":[{"name":"collection","type":"address","indexed":true,"internalType":"address"},{"name":"tokenId","type":"uint256","indexed":false,"internalType":"uint256"},{"name":"amount","type":"uint256","indexed":false,"internalType":"uint256"},{"name":"is1155","type":"bool","indexed":false,"internalType":"bool"}],"anonymous":false},{"type":"event","name":"NFTMinted","inputs":[{"name":"collection","type":"address","indexed":true,"internalType":"address"},{"name":"to","type":"address","indexed":true,"internalType":"address"},{"name":"tokenId","type":"uint256","indexed":false,"internalType":"uint256"},{"name":"amount","type":"uint256","indexed":false,"internalType":"uint256"},{"name":"is1155","type":"bool","indexed":false,"internalType":"bool"}],"anonymous":false},{"type":"event","name":"RoleAdminChanged","inputs":[{"name":"role","type":"bytes32","indexed":true,"internalType":"bytes32"},{"name":"previousAdminRole","type":"bytes32","indexed":true,"internalType":"bytes32"},{"name":"newAdminRole","type":"bytes32","indexed":true,"internalType":"bytes32"}],"anonymous":false},{"type":"event","name":"RoleGranted","inputs":[{"name":"role","type":"bytes32","indexed":true,"internalType":"bytes32"},{"name":"account","type":"address","indexed":true,"internalType":"address"},{"name":"sender","type":"address","indexed":true,"internalType":"address"}],"anonymous":false},{"type":"event","name":"RoleRevoked","inputs":[{"name":"role","type":"bytes32","indexed":true,"internalType":"bytes32"},{"name":"account","type":"address","indexed":true,"internalType":"address"},{"name":"sender","type":"address","indexed":true,"internalType":"address"}],"anonymous":false},{"type":"event","name":"RoyaltySet","inputs":[{"name":"collection","type":"address","indexed":true,"internalType":"address"},{"name":"receiver","type":"address","indexed":false,"internalType":"address"},{"name":"fee","type":"uint96","indexed":false,"internalType":"uint96"}],"anonymous":false},{"type":"event","name":"URISet","inputs":[{"name":"collection","type":"address","indexed":true,"internalType":"address"},{"name":"tokenId","type":"uint256","indexed":false,"internalType":"uint256"},{"name":"uri","type":"string","indexed":false,"internalType":"string"}],"anonymous":false},{"type":"error","name":"AccessControlBadConfirmation","inputs":[]},{"type":"error","name":"AccessControlUnauthorizedAccount","inputs":[{"name":"account","type":"address","internalType":"address"},{"name":"neededRole","type":"bytes32","internalType":"bytes32"}]},{"type":"error","name":"InvalidAmount","inputs":[]},{"type":"error","name":"ReentrancyGuardReentrantCall","inputs":[]},{"type":"error","name":"ZeroAddress","inputs":[]}],"bytecode":{"object":"0x608060405234620000425760018055620000193362000046565b506200002533620000b6565b50620000313362000156565b50604051616ce89081620001f18239f35b5f80fd5b6001600160a01b03165f8181525f8051602062006ef9833981519152602052604090205460ff16620000b1575f8181525f8051602062006ef983398151915260205260408120805460ff191660011790553391905f8051602062006ed98339815191528180a4600190565b505f90565b6001600160a01b03165f8181527f7d7ffb7a348e1c6a02869081a26547b49160dd3df72d1d75a570eb9b698292ec60205260409020547fa49807205ce4d355092ef5a8a18f56e8913cf4a201fbe287825b095693c21775919060ff166200015057815f525f60205260405f20815f5260205260405f20600160ff1982541617905533915f8051602062006ed98339815191525f80a4600190565b50505f90565b6001600160a01b03165f8181527f0781d7cac9c378efa22a7481e4d4d29704a680ddf504b3bc50b517700ee11e6c60205260409020547f9f2df0fed2c77648de5860a4cc508cd0818c85b8b8a1ab4ceeef8d981c8956a6919060ff166200015057815f525f60205260405f20815f5260205260405f20600160ff1982541617905533915f8051602062006ed98339815191525f80a460019056fe60808060405260043610156200001e575b5036156200001c575f80fd5b005b5f905f3560e01c90816301ffc9a7146200212f57508063190a21611462001ff55780631f1d404a1462001fac578063248a9ca31462001f7e57806328ba11be1462001e155780632f2ff15d1462001dd057806336568abe1462001d5c5780634abe41b214620019d15780634e5786bf146200190c578063593812a814620017765780635a1f3c28146200159a57806361d9db2d146200157a57806366ffef3d14620015445780636804a95814620014ae578063742f2421146200126d57806375b238fc1462001230578063879d22d914620010b357806391d148541462001058578063a217fddf146200103a578063c2182ff71462000d38578063c4ddd2a61462000427578063d539139314620003ea578063d547741f14620003a1578063d57f966b1462000381578063f55ee5db14620002365763fdbda0ec03620000105734620002335760206003193601126200023357604060ff91600435815260036020522080549073ffffffffffffffffffffffffffffffffffffffff620001a76001830162002564565b9162000208620001ba6002830162002564565b620001f984600385015416956005600486015495015495604051998a996101009281168b5260a01c16151560208a01528060408a015288019062002467565b90868203606088015262002467565b92608085015260a08401526bffffffffffffffffffffffff811660c084015260601c60e08301520390f35b80fd5b5034620002335773ffffffffffffffffffffffffffffffffffffffff6200025d366200240f565b9290916200026a620029e2565b169182845260046020526040842054801515806200035f575b6200028f915062002631565b823b156200035057836040517f862440e200000000000000000000000000000000000000000000000000000000815283600482015260406024820152818180620002dd604482018762002467565b038183895af18015620003545762000338575b50507f3d8203c9091dafcc15e28d09c9128d5f35fa8c2dec986dffc18b02c3a156f44f9162000332604051928392835260406020840152604083019062002467565b0390a280f35b62000343906200221a565b6200035057835f620002f0565b8380fd5b6040513d84823e3d90fd5b50845260036020526200028f600160ff604087205460a01c1615151462000283565b503462000233578060031936011262000233576020600254604051908152f35b5034620002335760406003193601126200023357620003e6600435620003c6620021f6565b9080845283602052620003e0600160408620015462002a3e565b62002bbf565b5080f35b5034620002335780600319360112620002335760206040517f9f2df0fed2c77648de5860a4cc508cd0818c85b8b8a1ab4ceeef8d981c8956a68152f35b5034620002335760c0600319360112620002335760043567ffffffffffffffff811162000d30576200045e90369060040162002396565b9060243567ffffffffffffffff811162000d30576200048290369060040162002396565b60443567ffffffffffffffff811162000d3457620004a590369060040162002396565b9160643591821515830362000d30576084359373ffffffffffffffffffffffffffffffffffffffff8516850362000d2c5760a435916bffffffffffffffffffffffff8316830362000d2c57620004fa620029e2565b80620005068762002a9c565b6127106bffffffffffffffffffffffff85161162000cce57851562000c12575050604051906122cf908183019183831067ffffffffffffffff84111762000be557839291620005649162004a0d853960408352604083019062002467565b90602030910152039083f08015620003545773ffffffffffffffffffffffffffffffffffffffff16936040516020810181811067ffffffffffffffff82111762000bb857604052838152915b600254927fffffffffffffffffffffffffffffffffffffffffffffffffffffffffffffffff841462000b8b57916bffffffffffffffffffffffff73ffffffffffffffffffffffffffffffffffffffff92859460018097016002556040519a620006198c6200222f565b858b168c5289151560208d015260408c015260608b01523360808b01524260a08b01521660c08901521660e08701520181526003602052604081209373ffffffffffffffffffffffffffffffffffffffff8151168554907fffffffffffffffffffffff00000000000000000000000000000000000000000074ff00000000000000000000000000000000000000006020850151151560a01b16921617178555604081015180519067ffffffffffffffff821162000a54578190620006e1600189015462002510565b601f811162000b36575b50602090601f831160011462000a8d57859262000a81575b50507fffffffffffffffffffffffffffffffffffffffffffffffffffffffffffffffff8260011b9260031b1c19161760018601555b606081015194855167ffffffffffffffff811162000a54576200075f600283015462002510565b96601f881162000a0b575b602097508790601f831160011462000922576200086594938373ffffffffffffffffffffffffffffffffffffffff9460e0946005948a9262000916575b50507fffffffffffffffffffffffffffffffffffffffffffffffffffffffffffffffff8260011b9260031b1c19161760028201555b60808501516003820180547fffffffffffffffffffffffff00000000000000000000000000000000000000001691861691909117905560a0850151600482015560c0850151929094015190921660601b7fffffffffffffffffffffffffffffffffffffffff000000000000000000000000166bffffffffffffffffffffffff9190911617910155565b60406002549173ffffffffffffffffffffffffffffffffffffffff85168152600486522055620008ab73ffffffffffffffffffffffffffffffffffffffff831662002c5e565b506002546040519173ffffffffffffffffffffffffffffffffffffffff841683521515848301527fe38cc611bb2c657755dfdbe5341966da711c5682f85d4d65470c3d582b00ac7160403393a373ffffffffffffffffffffffffffffffffffffffff60405191168152f35b015190505f80620007a7565b9060028401865288862091865b7fffffffffffffffffffffffffffffffffffffffffffffffffffffffffffffffe085168110620009f357509360018460e094600594620008659998837fffffffffffffffffffffffffffffffffffffffffffffffffffffffffffffffe073ffffffffffffffffffffffffffffffffffffffff9a1610620009bb575b505050811b016002820155620007dc565b01517fffffffffffffffffffffffffffffffffffffffffffffffffffffffffffffffff60f88460031b161c191690555f8080620009aa565b91928a6001819286850151815501940192016200092f565b60028301855260208520601f830160051c81016020841062000a4c575b601f8a0160051c8201811062000a405750506200076a565b5f815560010162000a28565b508062000a28565b6024847f4e487b710000000000000000000000000000000000000000000000000000000081526041600452fd5b015190505f8062000703565b60018901865260208620927fffffffffffffffffffffffffffffffffffffffffffffffffffffffffffffffe016865b81811062000b1d575090846001959493921062000ae5575b505050811b01600186015562000738565b01517fffffffffffffffffffffffffffffffffffffffffffffffffffffffffffffffff60f88460031b161c191690555f808062000ad4565b9293602060018192878601518155019501930162000abc565b90915060018801855260208520601f840160051c81016020851062000b83575b90849392915b601f830160051c8201811062000b74575050620006eb565b5f815585945060010162000b5c565b508062000b56565b6024857f4e487b710000000000000000000000000000000000000000000000000000000081526011600452fd5b7f4e487b71000000000000000000000000000000000000000000000000000000005f52604160045260245ffd5b6024867f4e487b710000000000000000000000000000000000000000000000000000000081526041600452fd5b909295915060405190611d35908183019183831067ffffffffffffffff84111762000ca15783929162000c679162002cd885396060835262000c58606084018c62002467565b90838203602085015262002467565b90604030910152039084f0801562000c965773ffffffffffffffffffffffffffffffffffffffff1694620005b0565b6040513d85823e3d90fd5b6024877f4e487b710000000000000000000000000000000000000000000000000000000081526041600452fd5b60646040517f08c379a000000000000000000000000000000000000000000000000000000000815260206004820152601460248201527f526f79616c74792066656520746f6f20686967680000000000000000000000006044820152fd5b5f80fd5b5080fd5b8280fd5b5034620002335760a0600319360112620002335762000d56620021d2565b67ffffffffffffffff9160243583811162000d305762000d7b903690600401620022a8565b60443584811162000d345762000d969036906004016200232e565b9160643585811162000d305762000db29036906004016200232e565b9460843590811162000d305762000dce90369060040162002396565b9362000dd96200294f565b62000de362002a60565b73ffffffffffffffffffffffffffffffffffffffff80911692838352602092600460205260408120548015158062001018575b62000e22915062002631565b62000e3c8251875180911490816200100c575b5062002697565b805b825181101562000f965762000e618462000e598386620026fd565b511662002a9c565b62000e7862000e71828b620026fd565b5162002ae4565b8362000e858285620026fd565b511662000e938289620026fd565b5162000ea0838c620026fd565b5191883b1562000f925790849162000ee78c60405195869485947f731133e900000000000000000000000000000000000000000000000000000000865260048601620027a8565b0381838b5af1801562000c9657878686868e96958d9562000f6c575b505060019562000f538662000f4b817fee19400c2df2446f633a1ad1f3978769abf36e810353b903dd79d73ec996d09e9662000f4282606098620026fd565b511698620026fd565b5192620026fd565b516040519182528b820152866040820152a30162000e3e565b9350949550505062000f7f91506200221a565b62000d3057889087878686865f62000f03565b8480fd5b50847f9b30ce566676b9e647780ca4ae5373371b266241bc2e9a98fa6b987ef792cf4b62000fdd8462000ffb8c62000fec8c604051958695608087526080870190620024c5565b90858203602087015262002773565b90838203604085015262002773565b600160608301520390a26001805580f35b90508951145f62000e35565b508152600360205262000e22600160ff604084205460a01c1615151462000e16565b50346200023357806003193601126200023357602090604051908152f35b503462000233576040600319360112620002335773ffffffffffffffffffffffffffffffffffffffff60406200108d620021f6565b926004358152806020522091165f52602052602060ff60405f2054166040519015158152f35b5034620002335760806003193601126200023357620010d1620021d2565b620010db620021f6565b6044359160643567ffffffffffffffff811162000f92576200110290369060040162002396565b916200110d6200294f565b6200111762002a60565b8473ffffffffffffffffffffffffffffffffffffffff80931693848252600460205260408220548015158062001212575b62001154915062002631565b6200115f8362002a9c565b843b1562000d305781620011a391604051809381927fcd279c7c0000000000000000000000000000000000000000000000000000000083528a88600485016200273f565b038183895af180156200035457620011fa575b50507fee19400c2df2446f633a1ad1f3978769abf36e810353b903dd79d73ec996d09e91606091604051958652600160208701528660408701521693a36001805580f35b62001205906200221a565b62000f9257845f620011b6565b50825260036020526200115460ff604084205460a01c161562001148565b5034620002335780600319360112620002335760206040517fa49807205ce4d355092ef5a8a18f56e8913cf4a201fbe287825b095693c217758152f35b50346200023357606060031936011262000233576200128b620021d2565b62001295620021f6565b906044356bffffffffffffffffffffffff81169182820362000d2c5773ffffffffffffffffffffffffffffffffffffffff90620012d1620029e2565b16928385526020926004845260408620548015158062001491575b620012f8915062002631565b620013038262002a9c565b843b156200148d576040517f8f2fc60b00000000000000000000000000000000000000000000000000000000815273ffffffffffffffffffffffffffffffffffffffff831660048201526bffffffffffffffffffffffff8416602482015286908181604481838b5af18015620003545762001475575b5093600391867f767355bbf10bc6ddc5913bc1be9edc8f785cb220d07f1a51e9024cf70bce4e309652600482526040882054885282825260056040892001907fffffffffffffffffffffffffffffffffffffffff000000000000000000000000825416179055858752600481526040872054875252620014378160056040882001906bffffffffffffffffffffffff7fffffffffffffffffffffffffffffffffffffffff00000000000000000000000083549260601b169116179055565b6040805173ffffffffffffffffffffffffffffffffffffffff90921682526bffffffffffffffffffffffff9092166020820152908190810162000332565b62001480906200221a565b6200148d57855f62001379565b8580fd5b50865260038452620012f860ff604088205460a01c1615620012ec565b50346200023357806003193601126200023357604051600580548083529083526020808301937f036b6384b5eca791c62761152d0c79bb0604c104a5fb6f4eb0703f3154bb3db092915b8282106200152c57620015288562001513818903826200224d565b604051918291602083526020830190620024c5565b0390f35b835486529485019460019384019390910190620014f8565b503462000233576040600319360112620002335760206200157262001568620021d2565b60243590620027e3565b604051908152f35b503462000233578060031936011262000233576020600554604051908152f35b50346200023357602060031936011262000233578060409160e08351620015c1816200222f565b8281528260208201526060858201526060808201528260808201528260a08201528260c08201520152600435815260036020522060056040519162001606836200222f565b60ff815473ffffffffffffffffffffffffffffffffffffffff8116855260a01c16151560208401526200163c6001820162002564565b60408401526200164f6002820162002564565b606084015273ffffffffffffffffffffffffffffffffffffffff6003820154166080840152600481015460a084015201546bffffffffffffffffffffffff811660c083015260601c60e082015260405180916020825273ffffffffffffffffffffffffffffffffffffffff8151166020830152602081015115156040830152604081015173ffffffffffffffffffffffffffffffffffffffff60e06200173d620017086101009485606089015261012088019062002467565b60608601517fffffffffffffffffffffffffffffffffffffffffffffffffffffffffffffffe088830301608089015262002467565b938260808201511660a087015260a081015160c08701526bffffffffffffffffffffffff60c08201511682870152015116908301520390f35b5034620002335760a0600319360112620002335762001794620021d2565b6200179e620021f6565b90604435916064359160843567ffffffffffffffff81116200148d57620017ca90369060040162002396565b92620017d56200294f565b620017df62002a60565b8573ffffffffffffffffffffffffffffffffffffffff809316948582526004602052604082205480151580620018ea575b6200181c915062002631565b620018278562002a9c565b620018328362002ae4565b853b1562000d3057816200187791604051809381927f731133e9000000000000000000000000000000000000000000000000000000008352878c8b60048601620027a8565b0381838a5af180156200035457620018ce575b5050907fee19400c2df2446f633a1ad1f3978769abf36e810353b903dd79d73ec996d09e926060926040519687526020870152600160408701521693a36001805580f35b620018dc909392936200221a565b6200148d5790855f6200188a565b50825260036020526200181c600160ff604085205460a01c1615151462001810565b5034620002335773ffffffffffffffffffffffffffffffffffffffff62001933366200240f565b92909162001940620029e2565b16918284526004602052604084205480151580620019b3575b62001965915062002631565b823b156200035057836040517f18e97fd100000000000000000000000000000000000000000000000000000000815283600482015260406024820152818180620002dd604482018762002467565b50845260036020526200196560ff604086205460a01c161562001959565b5034620002335760806003193601126200023357620019ef620021d2565b67ffffffffffffffff906024803583811162000f925762001a15903690600401620022a8565b906044358481116200148d5762001a319036906004016200232e565b926064359480861162001d58573660238701121562001d5857856004013562001a5a816200228f565b9662001a6a60405198896200224d565b8188526020946024868a019360051b8301019336851162001d545760248301935b85851062001d265750505050505062001aa36200294f565b62001aad62002a60565b73ffffffffffffffffffffffffffffffffffffffff809116928387526004835260408720548015158062001d09575b62001ae8915062002631565b62001b0181518651809114908162001cfd575062002697565b8051957fffffffffffffffffffffffffffffffffffffffffffffffffffffffffffffffe062001b4d62001b34896200228f565b9862001b446040519a8b6200224d565b808a526200228f565b01368589013787805b835181101562001c975760018062001b6f838c620026fd565b5262001b818662000e598488620026fd565b8562001b8e8387620026fd565b51169062001b9d838b620026fd565b519162001bab8487620026fd565b51928a3b156200148d57859162001bf060405195869384937fcd279c7c000000000000000000000000000000000000000000000000000000008552600485016200273f565b0381838d5af190811562001c8c5787878c948c9462001c68575b509160019662001c4d8760609462001c44827fee19400c2df2446f633a1ad1f3978769abf36e810353b903dd79d73ec996d09e98620026fd565b511697620026fd565b51916040519283528c8301526040820152a301889062001b56565b91505062001c7b9193508592506200221a565b62000d345787899187875f62001c0a565b6040513d86823e3d90fd5b50857f9b30ce566676b9e647780ca4ae5373371b266241bc2e9a98fa6b987ef792cf4b62001cdf8562001ced8c62000fec8b8e604051968796608088526080880190620024c5565b918683039087015262002773565b5f60608301520390a26001805580f35b90508751145f62000e35565b5087526003835262001ae860ff604089205460a01c161562001adc565b843582811162001d5057889162001d44839286369189010162002396565b81520194019362001a8b565b8c80fd5b8a80fd5b8680fd5b503462000233576040600319360112620002335762001d7a620021f6565b3373ffffffffffffffffffffffffffffffffffffffff82160362001da657620003e69060043562002bbf565b60046040517f6697b232000000000000000000000000000000000000000000000000000000008152fd5b5034620002335760406003193601126200023357620003e660043562001df5620021f6565b908084528360205262001e0f600160408620015462002a3e565b62002b16565b503462000233576080600319360112620002335762001e33620021d2565b62001e3d620021f6565b60443590836064359162001e506200294f565b62001e5a62002a60565b73ffffffffffffffffffffffffffffffffffffffff80951694858352600460205260408320548015158062001f5c575b62001e96915062002631565b62001ea18262002a9c565b62001eac8462002ae4565b853b1562000d3457604051917ff5298aca000000000000000000000000000000000000000000000000000000008352166004820152836024820152826044820152818160648183895af18015620003545762001f44575b50507f40474e15e2cfe3544f59bceced051c0360f390d5e429f218374315e61ff56ae191606091604051918252602082015260016040820152a26001805580f35b62001f4f906200221a565b6200035057835f62001f03565b508352600360205262001e96600160ff604086205460a01c1615151462001e8a565b5034620002335760206003193601126200023357600160406020926004358152808452200154604051908152f35b5034620002335760206003193601126200023357604060209173ffffffffffffffffffffffffffffffffffffffff62001fe4620021d2565b168152600483522054604051908152f35b503462000d2c57604060031936011262000d2c5762002013620021d2565b73ffffffffffffffffffffffffffffffffffffffff60243591620020366200294f565b6200204062002a60565b1690815f52600460205260405f20548015158062002111575b62002065915062002631565b813b1562000d2c576040517f42966c680000000000000000000000000000000000000000000000000000000081528160048201525f8160248183875af180156200210657620020ef575b5060607f40474e15e2cfe3544f59bceced051c0360f390d5e429f218374315e61ff56ae19160405190815260016020820152846040820152a26001805580f35b620020fc9193506200221a565b5f916060620020af565b6040513d5f823e3d90fd5b505f5260036020526200206560ff60405f205460a01c161562002059565b3462000d2c57602060031936011262000d2c57600435907fffffffff00000000000000000000000000000000000000000000000000000000821680920362000d2c57817f7965db0b0000000000000000000000000000000000000000000000000000000060209314908115620021a7575b5015158152f35b7f01ffc9a70000000000000000000000000000000000000000000000000000000091501483620021a0565b6004359073ffffffffffffffffffffffffffffffffffffffff8216820362000d2c57565b6024359073ffffffffffffffffffffffffffffffffffffffff8216820362000d2c57565b67ffffffffffffffff811162000bb857604052565b610100810190811067ffffffffffffffff82111762000bb857604052565b90601f7fffffffffffffffffffffffffffffffffffffffffffffffffffffffffffffffe0910116810190811067ffffffffffffffff82111762000bb857604052565b67ffffffffffffffff811162000bb85760051b60200190565b9080601f8301121562000d2c576020908235620022c5816200228f565b93620022d560405195866200224d565b81855260208086019260051b82010192831162000d2c57602001905b82821062002300575050505090565b813573ffffffffffffffffffffffffffffffffffffffff8116810362000d2c578152908301908301620022f1565b9080601f8301121562000d2c5760209082356200234b816200228f565b936200235b60405195866200224d565b81855260208086019260051b82010192831162000d2c57602001905b82821062002386575050505090565b8135815290830190830162002377565b81601f8201121562000d2c5780359067ffffffffffffffff821162000bb85760405192620023ed60207fffffffffffffffffffffffffffffffffffffffffffffffffffffffffffffffe0601f86011601856200224d565b8284526020838301011162000d2c57815f926020809301838601378301015290565b606060031982011262000d2c5760043573ffffffffffffffffffffffffffffffffffffffff8116810362000d2c5791602435916044359067ffffffffffffffff821162000d2c57620024649160040162002396565b90565b91908251928382525f5b848110620024b05750507fffffffffffffffffffffffffffffffffffffffffffffffffffffffffffffffe0601f845f6020809697860101520116010190565b60208183018101518483018201520162002471565b9081518082526020808093019301915f5b828110620024e5575050505090565b835173ffffffffffffffffffffffffffffffffffffffff1685529381019392810192600101620024d6565b90600182811c9216801562002559575b60208310146200252c57565b7f4e487b71000000000000000000000000000000000000000000000000000000005f52602260045260245ffd5b91607f169162002520565b9060405191825f8254620025788162002510565b908184526020946001916001811690815f14620025ee5750600114620025ac575b505050620025aa925003836200224d565b565b5f90815285812095935091905b818310620025d5575050620025aa93508201015f808062002599565b85548884018501529485019487945091830191620025b9565b915050620025aa9593507fffffffffffffffffffffffffffffffffffffffffffffffffffffffffffffff0091501682840152151560051b8201015f808062002599565b156200263957565b60646040517f08c379a000000000000000000000000000000000000000000000000000000000815260206004820152601260248201527f496e76616c696420636f6c6c656374696f6e00000000000000000000000000006044820152fd5b156200269f57565b60646040517f08c379a000000000000000000000000000000000000000000000000000000000815260206004820152601560248201527f4172726179206c656e677468206d69736d6174636800000000000000000000006044820152fd5b8051821015620027125760209160051b010190565b7f4e487b71000000000000000000000000000000000000000000000000000000005f52603260045260245ffd5b62002464939273ffffffffffffffffffffffffffffffffffffffff6060931682526020820152816040820152019062002467565b9081518082526020808093019301915f5b82811062002793575050505090565b83518552938101939281019260010162002784565b909260809273ffffffffffffffffffffffffffffffffffffffff62002464969516835260208301526040820152816060820152019062002467565b9073ffffffffffffffffffffffffffffffffffffffff80921690815f526020926004845260405f2054801515908162002935575b501562002897575082906024604051809481937fbd85b03900000000000000000000000000000000000000000000000000000000835260048301525afa91821562002106575f926200286857505090565b90809250813d83116200288f575b6200288281836200224d565b8101031262000d2c575190565b503d62002876565b9280916024604051809581937f6352211e00000000000000000000000000000000000000000000000000000000835260048301525afa9182915f93620028f5575b5050620028e55750505f90565b1615620028f157600190565b5f90565b9080929350813d83116200292d575b6200291081836200224d565b8101031262000d2c5751828116810362000d2c57905f80620028d8565b503d62002904565b90505f526003845260ff60405f205460a01c165f62002817565b335f9081527f0781d7cac9c378efa22a7481e4d4d29704a680ddf504b3bc50b517700ee11e6c60205260409020547f9f2df0fed2c77648de5860a4cc508cd0818c85b8b8a1ab4ceeef8d981c8956a69060ff1615620029ab5750565b604490604051907fe2517d3f0000000000000000000000000000000000000000000000000000000082523360048301526024820152fd5b335f9081527f7d7ffb7a348e1c6a02869081a26547b49160dd3df72d1d75a570eb9b698292ec60205260409020547fa49807205ce4d355092ef5a8a18f56e8913cf4a201fbe287825b095693c217759060ff1615620029ab5750565b805f525f60205260405f20335f5260205260ff60405f20541615620029ab5750565b60026001541462002a72576002600155565b60046040517f3ee5aeb5000000000000000000000000000000000000000000000000000000008152fd5b73ffffffffffffffffffffffffffffffffffffffff161562002aba57565b60046040517fd92e233d000000000000000000000000000000000000000000000000000000008152fd5b1562002aec57565b60046040517f2c5211c6000000000000000000000000000000000000000000000000000000008152fd5b90815f525f60205273ffffffffffffffffffffffffffffffffffffffff60405f20911690815f5260205260ff60405f205416155f1462002bb957815f525f60205260405f20815f5260205260405f2060017fffffffffffffffffffffffffffffffffffffffffffffffffffffffffffffff0082541617905533917f2f8788117e7eff1d82e926ec794901d17c78024a50270940304540a733656f0d5f80a4600190565b50505f90565b90815f525f60205273ffffffffffffffffffffffffffffffffffffffff60405f20911690815f5260205260ff60405f2054165f1462002bb957815f525f60205260405f20815f5260205260405f207fffffffffffffffffffffffffffffffffffffffffffffffffffffffffffffff00815416905533917ff6391f5c32d9c69d2a47ea670b442974b53935d1edc7fd64eb21e047a839171b5f80a4600190565b805f52600660205260405f2054155f1462002cd2576005546801000000000000000081101562000bb8576001810180600555811015620027125781907f036b6384b5eca791c62761152d0c79bb0604c104a5fb6f4eb0703f3154bb3db00155600554905f52600660205260405f2055600190565b505f9056fe608060405234620003235762001d35803803806200001d8162000327565b9283398101606082820312620003235781516001600160401b03908181116200032357826200004e9185016200034d565b906020928385015182811162000323576040916200006e9187016200034d565b9401516001600160a01b038116949085900362000323578251908282116200023e57600254916001948584811c9416801562000318575b878510146200021f578190601f94858111620002c4575b5087908583116001146200025e575f9262000252575b50505f19600383901b1c191690851b176002555b80519283116200023e5760039485548581811c9116801562000233575b828210146200021f57838111620001d7575b50809284116001146200017157509282939183925f9462000165575b50501b915f1990841b1c19161790555b600980546001600160a01b0319169190911790556040516119779081620003be8239f35b015192505f8062000131565b919083601f198116875f52845f20945f905b88838310620001bc5750505010620001a4575b505050811b01905562000141565b01515f1983861b60f8161c191690555f808062000196565b85870151885590960195948501948793509081019062000183565b865f52815f208480870160051c82019284881062000215575b0160051c019086905b8281106200020957505062000115565b5f8155018690620001f9565b92508192620001f0565b634e487b7160e01b5f52602260045260245ffd5b90607f169062000103565b634e487b7160e01b5f52604160045260245ffd5b015190505f80620000d2565b90879350601f1983169160025f52895f20925f5b8b828210620002ad575050841162000294575b505050811b01600255620000e6565b01515f1960f88460031b161c191690555f808062000285565b8385015186558b9790950194938401930162000272565b90915060025f52875f208580850160051c8201928a86106200030e575b918991869594930160051c01915b828110620002ff575050620000bc565b5f8155859450899101620002ef565b92508192620002e1565b93607f1693620000a5565b5f80fd5b6040519190601f01601f191682016001600160401b038111838210176200023e57604052565b919080601f84011215620003235782516001600160401b0381116200023e5760209062000383601f8201601f1916830162000327565b9281845282828701011162000323575f5b818110620003a95750825f9394955001015290565b85810183015184820184015282016200039456fe6080604090808252600480361015610015575f80fd5b5f3560e01c91826301ffc9a714610f455750816306fdde0314610e96578163081812fc14610e4f578163095ea7b314610d1757816318e97fd114610cba57816323b872dd14610ca35781632a55205a14610bc657816342842e0e14610b9857816342966c6814610a53578163481c6a7514610a1f5781636352211e146109e457816370a082311461096a5781638f2fc60b1461082757816395d89b4114610728578163a22cb46514610649578163b88d4fde146105df578163c87b56dd146104ce578163cd279c7c14610150575063e985e9c5146100f1575f80fd5b3461014c578060031936011261014c5760209061010c6110d5565b6101146110f8565b9073ffffffffffffffffffffffffffffffffffffffff8091165f5260078452825f2091165f52825260ff815f20541690519015158152f35b5f80fd5b90503461014c57606060031936011261014c5761016b6110d5565b90602480359160443567ffffffffffffffff811161014c576101909036908301611215565b9373ffffffffffffffffffffffffffffffffffffffff956101b6876009541633146112c6565b8051966101c28861111b565b5f885280831692831561049f57865f52602091858352835f20541687858215159283610433575b815f5260058652865f2060018154019055825f52888652865f20827fffffffffffffffffffffffff00000000000000000000000000000000000000008254161790557fddf252ad1be2c89b69c2b068fc378daa952ba7f163c4a11628f55a4df523b3ef5f80a4610404573b610265575b61026387876115e4565b005b928497845f84976102be859b979a965194859384937f150b7a0200000000000000000000000000000000000000000000000000000000988986523390860152840152876044840152608060648401526084830190611079565b03815f8b5af15f91816103ac575b5061033d57505050503d5f14610335573d906102e7826111a5565b916102f484519384611164565b82523d5f8284013e5b815191826103325750505051917f64a0ae92000000000000000000000000000000000000000000000000000000008352820152fd5b01fd5b6060906102fd565b7fffffffff00000000000000000000000000000000000000000000000000000000919296945096949296160361037f5750505061026392505f80808080610259565b85935051917f64a0ae92000000000000000000000000000000000000000000000000000000008352820152fd5b9091508581813d83116103fd575b6103c48183611164565b8101031261014c57517fffffffff000000000000000000000000000000000000000000000000000000008116810361014c57905f6102cc565b503d6103ba565b50505f915051917f73c6ac6e000000000000000000000000000000000000000000000000000000008352820152fd5b61046a835f52600660205260405f207fffffffffffffffffffffffff00000000000000000000000000000000000000008154169055565b805f5260058652865f207fffffffffffffffffffffffffffffffffffffffffffffffffffffffffffffffff81540190556101e9565b50505f915051917f64a0ae92000000000000000000000000000000000000000000000000000000008352820152fd5b90503461014c576020908160031936011261014c57356104ed81611585565b505f5260088152815f2091805180935f90805461050981611275565b91828552600191876001821691825f1461059a57505060011461055a575b505050610556929161053a910385611164565b5f81516105468161111b565b5251928284938452830190611079565b0390f35b8693505f92919252825f20915f925b828410610582575050508201018161053a610556610527565b8054848a018601528895508794909301928101610569565b7fffffffffffffffffffffffffffffffffffffffffffffffffffffffffffffff00168782015293151560051b8601909301935084925061053a91506105569050610527565b3461014c57608060031936011261014c576105f86110d5565b6106006110f8565b6044359060643567ffffffffffffffff811161014c573660238201121561014c5761026394816024610637933693013591016111df565b9261064383838361132b565b3361179f565b823461014c578060031936011261014c576106626110d5565b906024359182151580930361014c5773ffffffffffffffffffffffffffffffffffffffff169283156106fa5750335f526007602052805f20835f52602052805f207fffffffffffffffffffffffffffffffffffffffffffffffffffffffffffffff0081541660ff8416179055519081527f17307eab39ab6107e8899845ad3d59bd9653f200f220920489ca2b5937696c3160203392a3005b8360249251917f5b08ba18000000000000000000000000000000000000000000000000000000008352820152fd5b823461014c575f60031936011261014c5780516003549091825f61074b84611275565b808352602094600190866001821691825f146107e757505060011461078c575b5050610556929161077d910385611164565b51928284938452830190611079565b9085925060035f527fc2575a0e9e593c00f959f8c92f12db2869c3395a3b0502d05e2516446f71f85b915f925b8284106107cf575050508201018161077d61076b565b8054848a0186015288955087949093019281016107b9565b7fffffffffffffffffffffffffffffffffffffffffffffffffffffffffffffff00168682015292151560051b8501909201925083915061077d905061076b565b90503461014c578160031936011261014c576108416110d5565b90602435916bffffffffffffffffffffffff83169081840361014c5773ffffffffffffffffffffffffffffffffffffffff91610882836009541633146112c6565b61271090818111610935575050169283156109065767ffffffffffffffff81519182019182109111176108da575060a01b7fffffffffffffffffffffffff000000000000000000000000000000000000000016175f55005b6041907f4e487b71000000000000000000000000000000000000000000000000000000005f525260245ffd5b905f60249251917fb6d9900a000000000000000000000000000000000000000000000000000000008352820152fd5b60449185918851927f6f483d090000000000000000000000000000000000000000000000000000000084528301526024820152fd5b823461014c57602060031936011261014c5773ffffffffffffffffffffffffffffffffffffffff6109996110d5565b1680156109b557602092505f5260058252805f20549051908152f35b6024835f8451917f89c62b64000000000000000000000000000000000000000000000000000000008352820152fd5b823461014c57602060031936011261014c5773ffffffffffffffffffffffffffffffffffffffff610a1760209335611585565b915191168152f35b823461014c575f60031936011261014c5760209073ffffffffffffffffffffffffffffffffffffffff600954169051908152f35b90503461014c57602060031936011261014c57803573ffffffffffffffffffffffffffffffffffffffff610a8c816009541633146112c6565b815f5282602052835f205416815f8215928315610b2b575b828252856020528682207fffffffffffffffffffffffff000000000000000000000000000000000000000081541690557fddf252ad1be2c89b69c2b068fc378daa952ba7f163c4a11628f55a4df523b3ef8280a4610afe57005b60249251917f7e273289000000000000000000000000000000000000000000000000000000008352820152fd5b610b62835f52600660205260405f207fffffffffffffffffffffffff00000000000000000000000000000000000000008154169055565b80825260056020528682207fffffffffffffffffffffffffffffffffffffffffffffffffffffffffffffffff8154019055610aa4565b823461014c5761026390610bab36611233565b91925192610bb88461111b565b5f845261064383838361132b565b823461014c578060031936011261014c576024359082355f526001602052805f20549273ffffffffffffffffffffffffffffffffffffffff8085169460a01c908515610c85575b506bffffffffffffffffffffffff1692838102938185041490151715610c5957505173ffffffffffffffffffffffffffffffffffffffff92909216825261271090046020820152604090f35b6011907f4e487b71000000000000000000000000000000000000000000000000000000005f525260245ffd5b5f54908116955060a01c90506bffffffffffffffffffffffff610c0d565b3461014c57610263610cb436611233565b9161132b565b823461014c5760031936011261014c576024359067ffffffffffffffff821161014c57610ced6102639236908301611215565b90610d1173ffffffffffffffffffffffffffffffffffffffff6009541633146112c6565b356115e4565b823461014c578060031936011261014c57610d306110d5565b9160243590610d3e82611585565b9033151580610e2f575b80610dfa575b610dca5750819073ffffffffffffffffffffffffffffffffffffffff809516948591167f8c5be1e5ebec7d5bd14f71427d1e84f3dd0314c0f7b2291e5b200ac8c7c3b9255f80a45f5260066020525f20907fffffffffffffffffffffffff00000000000000000000000000000000000000008254161790555f80f35b6024908451907fa9fbf51f0000000000000000000000000000000000000000000000000000000082523390820152fd5b5073ffffffffffffffffffffffffffffffffffffffff82165f526007602052835f20335f5260205260ff845f20541615610d4e565b503373ffffffffffffffffffffffffffffffffffffffff83161415610d48565b823461014c57602060031936011261014c5760209135610e6e81611585565b505f526006825273ffffffffffffffffffffffffffffffffffffffff815f2054169051908152f35b823461014c575f60031936011261014c5780516002549091825f610eb984611275565b808352602094600190866001821691825f146107e7575050600114610eea575050610556929161077d910385611164565b9085925060025f527f405787fa12a823e0f2b7631cc41b3ba8828b3321ca811111fa75cd3aa3bb5ace915f925b828410610f2d575050508201018161077d61076b565b8054848a018601528895508794909301928101610f17565b903461014c57602060031936011261014c5735907fffffffff00000000000000000000000000000000000000000000000000000000821680920361014c57817f490649060000000000000000000000000000000000000000000000000000000060209314908115610fb8575b5015158152f35b7f80ac58cd0000000000000000000000000000000000000000000000000000000081149150811561104f575b8115610ff2575b5083610fb1565b7f2a55205a00000000000000000000000000000000000000000000000000000000811491508115611025575b5083610feb565b7f01ffc9a7000000000000000000000000000000000000000000000000000000009150148361101e565b7f5b5e139f0000000000000000000000000000000000000000000000000000000081149150610fe4565b91908251928382525f5b8481106110c15750507fffffffffffffffffffffffffffffffffffffffffffffffffffffffffffffffe0601f845f6020809697860101520116010190565b602081830181015184830182015201611083565b6004359073ffffffffffffffffffffffffffffffffffffffff8216820361014c57565b6024359073ffffffffffffffffffffffffffffffffffffffff8216820361014c57565b6020810190811067ffffffffffffffff82111761113757604052565b7f4e487b71000000000000000000000000000000000000000000000000000000005f52604160045260245ffd5b90601f7fffffffffffffffffffffffffffffffffffffffffffffffffffffffffffffffe0910116810190811067ffffffffffffffff82111761113757604052565b67ffffffffffffffff811161113757601f017fffffffffffffffffffffffffffffffffffffffffffffffffffffffffffffffe01660200190565b9291926111eb826111a5565b916111f96040519384611164565b82948184528183011161014c578281602093845f960137010152565b9080601f8301121561014c57816020611230933591016111df565b90565b600319606091011261014c5773ffffffffffffffffffffffffffffffffffffffff90600435828116810361014c5791602435908116810361014c579060443590565b90600182811c921680156112bc575b602083101461128f57565b7f4e487b71000000000000000000000000000000000000000000000000000000005f52602260045260245ffd5b91607f1691611284565b156112cd57565b60646040517f08c379a000000000000000000000000000000000000000000000000000000000815260206004820152600c60248201527f4f6e6c79206d616e6167657200000000000000000000000000000000000000006044820152fd5b909173ffffffffffffffffffffffffffffffffffffffff80931692831561155557815f52602092600484528260409583875f205416953315158061148e575b5060049087611422575b825f5260058152885f2060018154019055835f5252865f20817fffffffffffffffffffffffff0000000000000000000000000000000000000000825416179055857fddf252ad1be2c89b69c2b068fc378daa952ba7f163c4a11628f55a4df523b3ef5f80a416928383036113e85750505050565b6064945051927f64283d7b000000000000000000000000000000000000000000000000000000008452600484015260248301526044820152fd5b611459845f52600660205260405f207fffffffffffffffffffffffff00000000000000000000000000000000000000008154169055565b875f5260058152885f207fffffffffffffffffffffffffffffffffffffffffffffffffffffffffffffffff8154019055611374565b9192509080611514575b156114a6579084915f61136a565b8685876114dc5760249151907f7e2732890000000000000000000000000000000000000000000000000000000082526004820152fd5b90517f177e802f0000000000000000000000000000000000000000000000000000000081523360048201526024810191909152604490fd5b503386148015611539575b806114985750845f52600681523384885f20541614611498565b50855f5260078152865f20335f52815260ff875f20541661151f565b60246040517f64a0ae920000000000000000000000000000000000000000000000000000000081525f6004820152fd5b805f52600460205273ffffffffffffffffffffffffffffffffffffffff60405f2054169081156115b3575090565b602490604051907f7e2732890000000000000000000000000000000000000000000000000000000082526004820152fd5b919091805f526020906008825260405f2084519467ffffffffffffffff8611611137576116118254611275565b601f811161175c575b508390601f871160011461169b579580917ff8e1a15aba9398e019f0b49df1a4fde98ee17ae345cb5f6b5e2c27f5033e8ce796975f92611690575b50507fffffffffffffffffffffffffffffffffffffffffffffffffffffffffffffffff8260011b9260031b1c19161790555b604051908152a1565b015190505f80611655565b907fffffffffffffffffffffffffffffffffffffffffffffffffffffffffffffffe0871691835f52855f20925f5b81811061174557509160019391897ff8e1a15aba9398e019f0b49df1a4fde98ee17ae345cb5f6b5e2c27f5033e8ce7999a941061170e575b505050811b019055611687565b01517fffffffffffffffffffffffffffffffffffffffffffffffffffffffffffffffff60f88460031b161c191690555f8080611701565b9293876001819287860151815501950193016116c9565b825f52845f20601f880160051c810191868910611795575b601f0160051c01905b81811061178a575061161a565b5f815560010161177d565b9091508190611774565b9293909193843b6117b2575b5050505050565b906118269593929173ffffffffffffffffffffffffffffffffffffffff8096169560405193817f150b7a020000000000000000000000000000000000000000000000000000000096878752166004860152166024840152604483015260806064830152818060209788936084830190611079565b03815f885af15f9181611912575b506118ab575050503d5f146118a3573d9161184e836111a5565b9261185c6040519485611164565b83523d5f8285013e5b8251928361189e57602483604051907f64a0ae920000000000000000000000000000000000000000000000000000000082526004820152fd5b019050fd5b606091611865565b7fffffffff000000000000000000000000000000000000000000000000000000009192945016036118e157505f808080806117ab565b602490604051907f64a0ae920000000000000000000000000000000000000000000000000000000082526004820152fd5b9091508581813d8311611963575b61192a8183611164565b8101031261014c57517fffffffff000000000000000000000000000000000000000000000000000000008116810361014c57905f611834565b503d61192056fea164736f6c6343000818000a6080604052346200022257620022cf803803806200001d816200023b565b9283398101604082820312620002225781516001600160401b0392908381116200022257810192601f9083828601121562000222578451928184116200020e57602093601f199662000075868987850116016200023b565b968288528683830101116200022257908592915f5b828110620002265750505f90870183015201516001600160a01b0381169490859003620002225780519182116200020e57620000c860025462000261565b838111620001d2575b5083958383116001146200016e57509481929394955f9262000162575b50508160011b915f199060031b1c1916176002555b6200011060055462000261565b9080821162000140575b5f600555600780546001600160a01b0319168517905560405161201a9081620002b58239f35b620001599260055f525f20910160051c8101906200029c565b5f80806200011a565b015190505f80620000ee565b82169560025f52845f20915f5b888110620001ba57508360019596979810620001a1575b505050811b0160025562000103565b01515f1960f88460031b161c191690555f808062000192565b9192866001819286850151815501940192016200017b565b620001fd9060025f52855f208580860160051c82019288871062000204575b0160051c01906200029c565b5f620000d1565b92508192620001f1565b634e487b7160e01b5f52604160045260245ffd5b5f80fd5b8181018501518982018601528794016200008a565b6040519190601f01601f191682016001600160401b038111838210176200020e57604052565b90600182811c9216801562000291575b60208310146200027d57565b634e487b7160e01b5f52602260045260245ffd5b91607f169162000271565b818110620002a8575050565b5f81556001016200029c56fe60806040526004361015610011575f80fd5b5f3560e01c8062fdd58e1461010357806301ffc9a7146100fe5780630e89341c146100f957806318160ddd146100f45780632eb2c2d6146100ef578063481c6a75146100ea5780634e1273f4146100e55780634f558e79146100e0578063731133e9146100db578063862440e2146100d6578063a22cb465146100d1578063bd85b039146100cc578063e985e9c5146100c7578063f242432a146100c25763f5298aca146100bd575f80fd5b610deb565b610c81565b610c09565b610bdf565b610ace565b6108f4565b610828565b6107fc565b610741565b6106ca565b610523565b610374565b61033d565b6101f3565b610173565b6004359073ffffffffffffffffffffffffffffffffffffffff8216820361012b57565b5f80fd5b6024359073ffffffffffffffffffffffffffffffffffffffff8216820361012b57565b359073ffffffffffffffffffffffffffffffffffffffff8216820361012b57565b3461012b57604060031936011261012b5760206101c0610191610108565b6024355f525f835260405f209073ffffffffffffffffffffffffffffffffffffffff165f5260205260405f2090565b54604051908152f35b7fffffffff0000000000000000000000000000000000000000000000000000000081160361012b57565b3461012b57602060031936011261012b5760207fffffffff00000000000000000000000000000000000000000000000000000000600435610233816101c9565b167fd9b67a2600000000000000000000000000000000000000000000000000000000811490811561029b575b8115610271575b506040519015158152f35b7f01ffc9a7000000000000000000000000000000000000000000000000000000009150145f610266565b7f0e89341c000000000000000000000000000000000000000000000000000000008114915061025f565b5f5b8381106102d65750505f910152565b81810151838201526020016102c7565b907fffffffffffffffffffffffffffffffffffffffffffffffffffffffffffffffe0601f602093610322815180928187528780880191016102c5565b0116010190565b90602061033a9281815201906102e6565b90565b3461012b57602060031936011261012b5761037061035c600435611287565b6040519182916020835260208301906102e6565b0390f35b3461012b575f60031936011261012b576020600454604051908152f35b7f4e487b71000000000000000000000000000000000000000000000000000000005f52604160045260245ffd5b6020810190811067ffffffffffffffff8211176103da57604052565b610391565b90601f7fffffffffffffffffffffffffffffffffffffffffffffffffffffffffffffffe0910116810190811067ffffffffffffffff8211176103da57604052565b67ffffffffffffffff81116103da5760051b60200190565b9080601f8301121561012b57602090823561045281610420565b9361046060405195866103df565b81855260208086019260051b82010192831161012b57602001905b828210610489575050505090565b8135815290830190830161047b565b67ffffffffffffffff81116103da57601f017fffffffffffffffffffffffffffffffffffffffffffffffffffffffffffffffe01660200190565b9291926104de82610498565b916104ec60405193846103df565b82948184528183011161012b578281602093845f960137010152565b9080601f8301121561012b5781602061033a933591016104d2565b3461012b5760a060031936011261012b5761053c610108565b61054461012f565b906044359167ffffffffffffffff9081841161012b5761056960049436908601610438565b9060643583811161012b576105819036908701610438565b9260843590811161012b576105999036908701610508565b9373ffffffffffffffffffffffffffffffffffffffff80821690338214158061068c575b6106395783161561060957156105d9576105d79550611532565b005b6024865f604051917f01a83514000000000000000000000000000000000000000000000000000000008352820152fd5b6024875f604051917f57f447ce000000000000000000000000000000000000000000000000000000008352820152fd5b604080517fe237d92200000000000000000000000000000000000000000000000000000000815233818b0190815273ffffffffffffffffffffffffffffffffffffffff8616602082015290918291010390fd5b50815f52600160205260ff6106c23360405f209073ffffffffffffffffffffffffffffffffffffffff165f5260205260405f2090565b5416156105bd565b3461012b575f60031936011261012b57602073ffffffffffffffffffffffffffffffffffffffff60075416604051908152f35b9081518082526020808093019301915f5b82811061071c575050505090565b83518552938101939281019260010161070e565b90602061033a9281815201906106fd565b3461012b57604060031936011261012b5760043567ffffffffffffffff80821161012b573660238301121561012b57816004013561077e81610420565b9261078c60405194856103df565b8184526020916024602086019160051b8301019136831161012b57602401905b8282106107e5578560243586811161012b57610370916107d36107d9923690600401610438565b90610f3d565b60405191829182610730565b8380916107f184610152565b8152019101906107ac565b3461012b57602060031936011261012b576004355f526003602052602060405f20541515604051908152f35b3461012b57608060031936011261012b57610841610108565b60643567ffffffffffffffff811161012b57610861903690600401610508565b73ffffffffffffffffffffffffffffffffffffffff61088581600754163314611019565b8216156108c4576105d7916108be6044356024359160405192600184526020840152604083019160018352606084015260808301604052565b916113fa565b60246040517f57f447ce0000000000000000000000000000000000000000000000000000000081525f6004820152fd5b3461012b57604060031936011261012b5767ffffffffffffffff60043560243582811161012b573660238201121561012b5761093a9036906024816004013591016104d2565b9161095e73ffffffffffffffffffffffffffffffffffffffff600754163314611019565b815f52602090600660205260405f209184519182116103da5761098b82610985855461107e565b856113ab565b602090601f8311600114610a27575081906109db9394955f92610a1c575b50507fffffffffffffffffffffffffffffffffffffffffffffffffffffffffffffffff8260011b9260031b1c19161790565b90555b7f6bb7ff708619ba0610cba295a58592e0451dee2622938c8755667688daf3529b610a17610a0b83611287565b60405191829182610329565b0390a2005b015190505f806109a9565b907fffffffffffffffffffffffffffffffffffffffffffffffffffffffffffffffe0831695610a59855f5260205f2090565b925f905b888210610ab657505083600195969710610a7f575b505050811b0190556109de565b01517fffffffffffffffffffffffffffffffffffffffffffffffffffffffffffffffff60f88460031b161c191690555f8080610a72565b80600185968294968601518155019501930190610a5d565b3461012b57604060031936011261012b57610ae7610108565b60243580151580820361012b5773ffffffffffffffffffffffffffffffffffffffff8316928315610baf57610b4590335f52600160205260405f209073ffffffffffffffffffffffffffffffffffffffff165f5260205260405f2090565b9060ff7fffffffffffffffffffffffffffffffffffffffffffffffffffffffffffffff0083541691161790557f17307eab39ab6107e8899845ad3d59bd9653f200f220920489ca2b5937696c3160405180610baa339482919091602081019215159052565b0390a3005b60246040517fced3e1000000000000000000000000000000000000000000000000000000000081525f6004820152fd5b3461012b57602060031936011261012b576004355f526003602052602060405f2054604051908152f35b3461012b57604060031936011261012b57602060ff610c75610c29610108565b73ffffffffffffffffffffffffffffffffffffffff610c4661012f565b91165f526001845260405f209073ffffffffffffffffffffffffffffffffffffffff165f5260205260405f2090565b54166040519015158152f35b3461012b5760a060031936011261012b57610c9a610108565b610ca261012f565b60843567ffffffffffffffff811161012b57610cc2903690600401610508565b9073ffffffffffffffffffffffffffffffffffffffff808416903382141580610dad575b610d60578216156108c45715610d30576105d792610d286064356044359160405192600184526020840152604083019160018352606084015260808301604052565b929091611532565b60246040517f01a835140000000000000000000000000000000000000000000000000000000081525f6004820152fd5b6040517fe237d92200000000000000000000000000000000000000000000000000000000815233600482015273ffffffffffffffffffffffffffffffffffffffff86166024820152604490fd5b50815f52600160205260ff610de33360405f209073ffffffffffffffffffffffffffffffffffffffff165f5260205260405f2090565b541615610ce6565b3461012b57606060031936011261012b57610e04610108565b73ffffffffffffffffffffffffffffffffffffffff610e2881600754163314611019565b811615610d3057610e78610e606044356024359160405192600184526020840152604083019160018352606084015260808301604052565b81819392945f604051610e72816103be565b52611b1f565b5f91825b8151841015610eba576001908460051b90610eab602080848801015193860101515f52600360205260405f2090565b82815403905501930192610e7c565b6105d79060045403600455565b610ef8915f525f60205260405f209073ffffffffffffffffffffffffffffffffffffffff165f5260205260405f2090565b5490565b8051821015610f105760209160051b010190565b7f4e487b71000000000000000000000000000000000000000000000000000000005f52603260045260245ffd5b91909180518351808203610fde575050805190610f72610f5c83610420565b92610f6a60405194856103df565b808452610420565b907fffffffffffffffffffffffffffffffffffffffffffffffffffffffffffffffe0602092013660208501375f5b8151811015610fd65780610fc560019260051b85808287010151918a01015190610ec7565b610fcf8287610efc565b5201610fa0565b509193505050565b6040517f5b05999100000000000000000000000000000000000000000000000000000000815260048101919091526024810191909152604490fd5b1561102057565b60646040517f08c379a000000000000000000000000000000000000000000000000000000000815260206004820152600c60248201527f4f6e6c79206d616e6167657200000000000000000000000000000000000000006044820152fd5b90600182811c921680156110c5575b602083101461109857565b7f4e487b71000000000000000000000000000000000000000000000000000000005f52602260045260245ffd5b91607f169161108d565b604051905f82600254916110e28361107e565b8083529260209060019081811690811561116e575060011461110f575b505061110d925003836103df565b565b91509260025f527f405787fa12a823e0f2b7631cc41b3ba8828b3321ca811111fa75cd3aa3bb5ace935f925b828410611156575061110d9450505081016020015f806110ff565b8554888501830152948501948794509281019261113b565b90506020935061110d9592507fffffffffffffffffffffffffffffffffffffffffffffffffffffffffffffff0091501682840152151560051b8201015f806110ff565b9060405191825f82546111c38161107e565b908184526020946001916001811690815f1461122f57506001146111f1575b50505061110d925003836103df565b5f90815285812095935091905b81831061121757505061110d93508201015f80806111e2565b855488840185015294850194879450918301916111fe565b91505061110d9593507fffffffffffffffffffffffffffffffffffffffffffffffffffffffffffffff0091501682840152151560051b8201015f80806111e2565b90611283602092828151948592016102c5565b0190565b5f5260206006815261129b60405f206111b1565b8051156113a15760405180925f906005546112b58161107e565b906001908181169081156113645750600114611308575b5050506112dc9061033a93611270565b037fffffffffffffffffffffffffffffffffffffffffffffffffffffffffffffffe081018352826103df565b9091925060055f527f036b6384b5eca791c62761152d0c79bb0604c104a5fb6f4eb0703f3154bb3db0905f915b83831061134e57505050820101826112dc61033a6112cc565b8054888401860152879550918401918101611335565b7fffffffffffffffffffffffffffffffffffffffffffffffffffffffffffffff0016868501525050801515028301019050826112dc61033a6112cc565b505061033a6110cf565b601f82116113b857505050565b5f5260205f20906020601f840160051c830193106113f0575b601f0160051c01905b8181106113e5575050565b5f81556001016113da565b90915081906113d1565b93919091611409828487611ced565b5f94855b8451871015611459576114516001918860051b9061143f602080848a010151938a0101515f52600360205260405f2090565b61144a838254611ac0565b9055611ac0565b96019561140d565b61147391959492965061146e90600454611ac0565b600455565b73ffffffffffffffffffffffffffffffffffffffff841615806114d3575b1561149d575b50505050565b80516001036114c457906020806114bb959301519101519133611a22565b5f808080611497565b6114ce9333611747565b6114bb565b935f9591935f965b8551881015611519576001908860051b9061150a602080848a010151938a0101515f52600360205260405f2090565b828154039055019701966114db565b61152d919593975095919560045403600455565b611491565b9193929061154282868386611e26565b73ffffffffffffffffffffffffffffffffffffffff8084161561160b575b811615806115ad575b15611576575b5050505050565b845160010361159c576020806115929601519201519233611a70565b5f8080808061156f565b6115a8949192336118ca565b611592565b94935f939091845b86518610156115f3576001908660051b906115e4602080848a010151938b0101515f52600360205260405f2090565b828154039055019501946115b5565b6116069193969792955060045403600455565b611569565b9591925f94915f955b875187101561164e576116466001918860051b9061143f602080848c010151938d0101515f52600360205260405f2090565b960195611614565b6116669193965061146e909892959498600454611ac0565b611560565b9081602091031261012b575161033a816101c9565b926116bc61033a959373ffffffffffffffffffffffffffffffffffffffff6116ca941686525f602087015260a0604087015260a08601906106fd565b9084820360608601526106fd565b9160808184039101526102e6565b939061033a95936116bc916116ca9473ffffffffffffffffffffffffffffffffffffffff809216885216602087015260a0604087015260a08601906106fd565b3d15611742573d9061172982610498565b9161173760405193846103df565b82523d5f602084013e565b606090565b9293919093843b611759575050505050565b60209161179560405194859384937fbc197c81000000000000000000000000000000000000000000000000000000009889865260048601611680565b03815f73ffffffffffffffffffffffffffffffffffffffff88165af15f9181611899575b5061181e57826117c7611718565b8051919082611817576040517f57f447ce00000000000000000000000000000000000000000000000000000000815273ffffffffffffffffffffffffffffffffffffffff83166004820152602490fd5b6020915001fd5b7fffffffff00000000000000000000000000000000000000000000000000000000160361185057505f8080808061156f565b6040517f57f447ce00000000000000000000000000000000000000000000000000000000815273ffffffffffffffffffffffffffffffffffffffff919091166004820152602490fd5b6118bc91925060203d6020116118c3575b6118b481836103df565b81019061166b565b905f6117b9565b503d6118aa565b939290949194853b6118df575b505050505050565b61191b60209360405195869485947fbc197c8100000000000000000000000000000000000000000000000000000000998a8752600487016116d8565b03815f73ffffffffffffffffffffffffffffffffffffffff88165af15f9181611980575b5061194d57826117c7611718565b7fffffffff00000000000000000000000000000000000000000000000000000000160361185057505f80808080806118d7565b61199a91925060203d6020116118c3576118b481836103df565b905f61193f565b909260a09273ffffffffffffffffffffffffffffffffffffffff61033a96951683525f60208401526040830152606082015281608082015201906102e6565b919261033a95949160a09473ffffffffffffffffffffffffffffffffffffffff80921685521660208401526040830152606082015281608082015201906102e6565b9293919093843b611a34575050505050565b60209161179560405194859384937ff23a6e610000000000000000000000000000000000000000000000000000000098898652600486016119a1565b939290949194853b611a8457505050505050565b61191b60209360405195869485947ff23a6e6100000000000000000000000000000000000000000000000000000000998a8752600487016119e0565b91908201809211611acd57565b7f4e487b71000000000000000000000000000000000000000000000000000000005f52601160045260245ffd5b9091611b1161033a936040845260408401906106fd565b9160208184039101526106fd565b9291908051825190818103610fde5750505f5b8151811015611c33578060051b6020808285010151918501015173ffffffffffffffffffffffffffffffffffffffff8716611b72575b5050600101611b32565b611baa87611b87845f525f60205260405f2090565b9073ffffffffffffffffffffffffffffffffffffffff165f5260205260405f2090565b54818110611bd65787611b876001959493611bce9303935f525f60205260405f2090565b55905f611b68565b6040517f03dee4c500000000000000000000000000000000000000000000000000000000815273ffffffffffffffffffffffffffffffffffffffff8916600482015260248101919091526044810182905260648101839052608490fd5b50905f92939160018151148414611ca15760209081015191810151604080519384529183015273ffffffffffffffffffffffffffffffffffffffff929092169133917fc3d58168c5ae7397731d063d5bbf3d657854427343f4c083240f7aacaa2d0f6291819081015b0390a4565b909173ffffffffffffffffffffffffffffffffffffffff7f4a39dc06d4c0dbc64b70af90fd698a233a518aa5d07e595d983b8c0526c8f7fb91611c9c6040519283921695339583611afa565b9190918251825190818103610fde5750505f5b8351811015611d6e578060019160051b83602080838901015192870101519173ffffffffffffffffffffffffffffffffffffffff8216611d44575b50505001611d00565b611d6491611b87611d5c925f525f60205260405f2090565b918254611ac0565b90555f8381611d3b565b509160018151145f14611dda5760209081015191810151604080519384529183015273ffffffffffffffffffffffffffffffffffffffff92909216915f9133917fc3d58168c5ae7397731d063d5bbf3d657854427343f4c083240f7aacaa2d0f62919081908101611c9c565b7f4a39dc06d4c0dbc64b70af90fd698a233a518aa5d07e595d983b8c0526c8f7fb73ffffffffffffffffffffffffffffffffffffffff5f9394611c9c6040519283921696339583611afa565b9392918051835190818103610fde5750505f5b8151811015611f4e578060051b90602080838501015192860101518473ffffffffffffffffffffffffffffffffffffffff93848a16611ea8575b6001948216611e86575b50505001611e39565b611e9e91611b87611d5c925f525f60205260405f2090565b90555f8481611e7d565b9192939050611ec289611b87845f525f60205260405f2090565b54838110611ef15791869184600196959403611ee98c611b87855f525f60205260405f2090565b559450611e73565b6040517f03dee4c500000000000000000000000000000000000000000000000000000000815273ffffffffffffffffffffffffffffffffffffffff8b16600482015260248101919091526044810184905260648101839052608490fd5b508051939493919291600103611fbd5760209081015191810151604080519384529183015273ffffffffffffffffffffffffffffffffffffffff928316939092169133917fc3d58168c5ae7397731d063d5bbf3d657854427343f4c083240f7aacaa2d0f629181908101611c9c565b90917f4a39dc06d4c0dbc64b70af90fd698a233a518aa5d07e595d983b8c0526c8f7fb9073ffffffffffffffffffffffffffffffffffffffff90611c9c8260405193849316971695339583611afa56fea164736f6c6343000818000aa164736f6c6343000818000a2f8788117e7eff1d82e926ec794901d17c78024a50270940304540a733656f0dad3228b676f7d3cd4284a5443f17f1962b36e491b30a40b2405849e597ba5fb5","linkReferences":{}},"methodIdentifiers":{"ADMIN_ROLE()":"75b238fc","DEFAULT_ADMIN_ROLE()":"a217fddf","MINTER_ROLE()":"d5391393","batchMintERC1155(address,address[],uint256[],uint256[],bytes)":"c2182ff7","batchMintERC721(address,address[],uint256[],string[])":"4abe41b2","burnERC1155(address,address,uint256,uint256)":"28ba11be","burnERC721(address,uint256)":"190a2161","collectionCount()":"d57f966b","collectionIdByAddr(address)":"1f1d404a","collections(uint256)":"fdbda0ec","createCollection(string,string,string,bool,address,uint96)":"c4ddd2a6","getAllCollections()":"6804a958","getCollection(uint256)":"5a1f3c28","getCollectionSupply(address,uint256)":"66ffef3d","getRoleAdmin(bytes32)":"248a9ca3","grantRole(bytes32,address)":"2f2ff15d","hasRole(bytes32,address)":"91d14854","mintERC1155(address,address,uint256,uint256,bytes)":"593812a8","mintERC721(address,address,uint256,string)":"879d22d9","renounceRole(bytes32,address)":"36568abe","revokeRole(bytes32,address)":"d547741f","setRoyalty(address,address,uint96)":"742f2421","setTokenURI(address,uint256,string)":"4e5786bf","setTokenURI1155(address,uint256,string)":"f55ee5db","supportsInterface(bytes4)":"01ffc9a7","totalCollections()":"61d9db2d"},"id":97}