{"abi":[{"type":"constructor","inputs":[{"name":"_stakingToken","type":"address","internalType":"address"},{"name":"_rewardToken","type":"address","internalType":"address"},{"name":"_rewardRate","type":"uint256","internalType":"uint256"}],"stateMutability":"nonpayable"},{"type":"receive","stateMutability":"payable"},{"type":"function","name":"ADMIN_ROLE","inputs":[],"outputs":[{"name":"","type":"bytes32","internalType":"bytes32"}],"stateMutability":"view"},{"type":"function","name":"DEFAULT_ADMIN_ROLE","inputs":[],"outputs":[{"name":"","type":"bytes32","internalType":"bytes32"}],"stateMutability":"view"},{"type":"function","name":"OPERATOR_ROLE","inputs":[],"outputs":[{"name":"","type":"bytes32","internalType":"bytes32"}],"stateMutability":"view"},{"type":"function","name":"borrowFromLending","inputs":[{"name":"token","type":"address","internalType":"address"},{"name":"amount","type":"uint256","internalType":"uint256"}],"outputs":[],"stateMutability":"nonpayable"},{"type":"function","name":"calculateRewards","inputs":[{"name":"user","type":"address","internalType":"address"}],"outputs":[{"name":"","type":"uint256","internalType":"uint256"}],"stateMutability":"view"},{"type":"function","name":"claimRewards","inputs":[],"outputs":[],"stateMutability":"nonpayable"},{"type":"function","name":"depositToLending","inputs":[{"name":"token","type":"address","internalType":"address"},{"name":"amount","type":"uint256","internalType":"uint256"}],"outputs":[],"stateMutability":"nonpayable"},{"type":"function","name":"dexAdapter","inputs":[],"outputs":[{"name":"","type":"address","internalType":"address"}],"stateMutability":"view"},{"type":"function","name":"getRoleAdmin","inputs":[{"name":"role","type":"bytes32","internalType":"bytes32"}],"outputs":[{"name":"","type":"bytes32","internalType":"bytes32"}],"stateMutability":"view"},{"type":"function","name":"getStake","inputs":[{"name":"user","type":"address","internalType":"address"}],"outputs":[{"name":"","type":"tuple","internalType":"struct DeFiHub.StakeInfo","components":[{"name":"amount","type":"uint256","internalType":"uint256"},{"name":"since","type":"uint256","internalType":"uint256"},{"name":"rewardsClaimed","type":"uint256","internalType":"uint256"}]}],"stateMutability":"view"},{"type":"function","name":"grantRole","inputs":[{"name":"role","type":"bytes32","internalType":"bytes32"},{"name":"account","type":"address","internalType":"address"}],"outputs":[],"stateMutability":"nonpayable"},{"type":"function","name":"hasRole","inputs":[{"name":"role","type":"bytes32","internalType":"bytes32"},{"name":"account","type":"address","internalType":"address"}],"outputs":[{"name":"","type":"bool","internalType":"bool"}],"stateMutability":"view"},{"type":"function","name":"lendingAdapter","inputs":[],"outputs":[{"name":"","type":"address","internalType":"address"}],"stateMutability":"view"},{"type":"function","name":"pause","inputs":[],"outputs":[],"stateMutability":"nonpayable"},{"type":"function","name":"paused","inputs":[],"outputs":[{"name":"","type":"bool","internalType":"bool"}],"stateMutability":"view"},{"type":"function","name":"renounceRole","inputs":[{"name":"role","type":"bytes32","internalType":"bytes32"},{"name":"callerConfirmation","type":"address","internalType":"address"}],"outputs":[],"stateMutability":"nonpayable"},{"type":"function","name":"repayToLending","inputs":[{"name":"token","type":"address","internalType":"address"},{"name":"amount","type":"uint256","internalType":"uint256"}],"outputs":[],"stateMutability":"nonpayable"},{"type":"function","name":"revokeRole","inputs":[{"name":"role","type":"bytes32","internalType":"bytes32"},{"name":"account","type":"address","internalType":"address"}],"outputs":[],"stateMutability":"nonpayable"},{"type":"function","name":"rewardRate","inputs":[],"outputs":[{"name":"","type":"uint256","internalType":"uint256"}],"stateMutability":"view"},{"type":"function","name":"rewardToken","inputs":[],"outputs":[{"name":"","type":"address","internalType":"address"}],"stateMutability":"view"},{"type":"function","name":"setAdapters","inputs":[{"name":"_dex","type":"address","internalType":"address"},{"name":"_lending","type":"address","internalType":"address"}],"outputs":[],"stateMutability":"nonpayable"},{"type":"function","name":"setRewardRate","inputs":[{"name":"newRate","type":"uint256","internalType":"uint256"}],"outputs":[],"stateMutability":"nonpayable"},{"type":"function","name":"setRewardToken","inputs":[{"name":"token","type":"address","internalType":"address"}],"outputs":[],"stateMutability":"nonpayable"},{"type":"function","name":"setStakingToken","inputs":[{"name":"token","type":"address","internalType":"address"}],"outputs":[],"stateMutability":"nonpayable"},{"type":"function","name":"stake","inputs":[{"name":"amount","type":"uint256","internalType":"uint256"}],"outputs":[],"stateMutability":"nonpayable"},{"type":"function","name":"stakes","inputs":[{"name":"","type":"address","internalType":"address"}],"outputs":[{"name":"amount","type":"uint256","internalType":"uint256"},{"name":"since","type":"uint256","internalType":"uint256"},{"name":"rewardsClaimed","type":"uint256","internalType":"uint256"}],"stateMutability":"view"},{"type":"function","name":"stakingToken","inputs":[],"outputs":[{"name":"","type":"address","internalType":"address"}],"stateMutability":"view"},{"type":"function","name":"supportsInterface","inputs":[{"name":"interfaceId","type":"bytes4","internalType":"bytes4"}],"outputs":[{"name":"","type":"bool","internalType":"bool"}],"stateMutability":"view"},{"type":"function","name":"swapTokens","inputs":[{"name":"tokenIn","type":"address","internalType":"address"},{"name":"tokenOut","type":"address","internalType":"address"},{"name":"amountIn","type":"uint256","internalType":"uint256"},{"name":"minOut","type":"uint256","internalType":"uint256"}],"outputs":[{"name":"amountOut","type":"uint256","internalType":"uint256"}],"stateMutability":"nonpayable"},{"type":"function","name":"unpause","inputs":[],"outputs":[],"stateMutability":"nonpayable"},{"type":"function","name":"unstake","inputs":[],"outputs":[],"stateMutability":"nonpayable"},{"type":"function","name":"withdrawFromLending","inputs":[{"name":"token","type":"address","internalType":"address"},{"name":"amount","type":"uint256","internalType":"uint256"}],"outputs":[],"stateMutability":"nonpayable"},{"type":"event","name":"AdapterUpdated","inputs":[{"name":"adapterType","type":"string","indexed":false,"internalType":"string"},{"name":"adapter","type":"address","indexed":false,"internalType":"address"}],"anonymous":false},{"type":"event","name":"Borrowed","inputs":[{"name":"user","type":"address","indexed":true,"internalType":"address"},{"name":"token","type":"address","indexed":false,"internalType":"address"},{"name":"amount","type":"uint256","indexed":false,"internalType":"uint256"}],"anonymous":false},{"type":"event","name":"Deposited","inputs":[{"name":"user","type":"address","indexed":true,"internalType":"address"},{"name":"token","type":"address","indexed":false,"internalType":"address"},{"name":"amount","type":"uint256","indexed":false,"internalType":"uint256"}],"anonymous":false},{"type":"event","name":"Paused","inputs":[{"name":"account","type":"address","indexed":false,"internalType":"address"}],"anonymous":false},{"type":"event","name":"Repaid","inputs":[{"name":"user","type":"address","indexed":true,"internalType":"address"},{"name":"token","type":"address","indexed":false,"internalType":"address"},{"name":"amount","type":"uint256","indexed":false,"internalType":"uint256"}],"anonymous":false},{"type":"event","name":"RewardRateUpdated","inputs":[{"name":"newRate","type":"uint256","indexed":false,"internalType":"uint256"}],"anonymous":false},{"type":"event","name":"RewardTokenUpdated","inputs":[{"name":"token","type":"address","indexed":false,"internalType":"address"}],"anonymous":false},{"type":"event","name":"RewardsClaimed","inputs":[{"name":"user","type":"address","indexed":true,"internalType":"address"},{"name":"rewards","type":"uint256","indexed":false,"internalType":"uint256"}],"anonymous":false},{"type":"event","name":"RoleAdminChanged","inputs":[{"name":"role","type":"bytes32","indexed":true,"internalType":"bytes32"},{"name":"previousAdminRole","type":"bytes32","indexed":true,"internalType":"bytes32"},{"name":"newAdminRole","type":"bytes32","indexed":true,"internalType":"bytes32"}],"anonymous":false},{"type":"event","name":"RoleGranted","inputs":[{"name":"role","type":"bytes32","indexed":true,"internalType":"bytes32"},{"name":"account","type":"address","indexed":true,"internalType":"address"},{"name":"sender","type":"address","indexed":true,"internalType":"address"}],"anonymous":false},{"type":"event","name":"RoleRevoked","inputs":[{"name":"role","type":"bytes32","indexed":true,"internalType":"bytes32"},{"name":"account","type":"address","indexed":true,"internalType":"address"},{"name":"sender","type":"address","indexed":true,"internalType":"address"}],"anonymous":false},{"type":"event","name":"Staked","inputs":[{"name":"user","type":"address","indexed":true,"internalType":"address"},{"name":"amount","type":"uint256","indexed":false,"internalType":"uint256"}],"anonymous":false},{"type":"event","name":"StakingTokenUpdated","inputs":[{"name":"token","type":"address","indexed":false,"internalType":"address"}],"anonymous":false},{"type":"event","name":"Swapped","inputs":[{"name":"user","type":"address","indexed":true,"internalType":"address"},{"name":"tokenIn","type":"address","indexed":false,"internalType":"address"},{"name":"tokenOut","type":"address","indexed":false,"internalType":"address"},{"name":"amountIn","type":"uint256","indexed":false,"internalType":"uint256"},{"name":"amountOut","type":"uint256","indexed":false,"internalType":"uint256"}],"anonymous":false},{"type":"event","name":"Unpaused","inputs":[{"name":"account","type":"address","indexed":false,"internalType":"address"}],"anonymous":false},{"type":"event","name":"Unstaked","inputs":[{"name":"user","type":"address","indexed":true,"internalType":"address"},{"name":"amount","type":"uint256","indexed":false,"internalType":"uint256"},{"name":"rewards","type":"uint256","indexed":false,"internalType":"uint256"}],"anonymous":false},{"type":"event","name":"Withdrawn","inputs":[{"name":"user","type":"address","indexed":true,"internalType":"address"},{"name":"token","type":"address","indexed":false,"internalType":"address"},{"name":"amount","type":"uint256","indexed":false,"internalType":"uint256"}],"anonymous":false},{"type":"error","name":"AccessControlBadConfirmation","inputs":[]},{"type":"error","name":"AccessControlUnauthorizedAccount","inputs":[{"name":"account","type":"address","internalType":"address"},{"name":"neededRole","type":"bytes32","internalType":"bytes32"}]},{"type":"error","name":"EnforcedPause","inputs":[]},{"type":"error","name":"ExpectedPause","inputs":[]},{"type":"error","name":"InvalidAmount","inputs":[]},{"type":"error","name":"NoStakeFound","inputs":[]},{"type":"error","name":"OperationFailed","inputs":[]},{"type":"error","name":"ReentrancyGuardReentrantCall","inputs":[]},{"type":"error","name":"ZeroAddress","inputs":[]}],"bytecode":{"object":"0x608034620000e657601f62001cfa38819003918201601f19168301916001600160401b03831184841017620000ea57808492606094604052833981010312620000e6576200004d81620000fe565b9060406200005e60208301620000fe565b9101516001600255916001600160a01b039081169182158015620000db575b620000c9576200008d3362000113565b50620000993362000183565b5060018060a01b03199283600554161760055516906004541617600455600355604051611a969081620002248239f35b60405163d92e233d60e01b8152600490fd5b50818116156200007d565b5f80fd5b634e487b7160e01b5f52604160045260245ffd5b51906001600160a01b0382168203620000e657565b6001600160a01b03165f8181525f8051602062001cda833981519152602052604090205460ff166200017e575f8181525f8051602062001cda83398151915260205260408120805460ff191660011790553391905f8051602062001cba8339815191528180a4600190565b505f90565b6001600160a01b03165f8181527f7d7ffb7a348e1c6a02869081a26547b49160dd3df72d1d75a570eb9b698292ec60205260409020547fa49807205ce4d355092ef5a8a18f56e8913cf4a201fbe287825b095693c21775919060ff166200021d57815f525f60205260405f20815f5260205260405f20600160ff1982541617905533915f8051602062001cba8339815191525f80a4600190565b50505f9056fe6080604081815260049182361015610021575b505050361561001f575f80fd5b005b5f905f3560e01c90816301ffc9a7146112a45750806302f059961461114f57806316934fc4146110f55780631e9b12ef1461105f578063225582ae14610eff5780632363083114610ddf578063248a9ca314610db55780632def662014610cd85780632f2ff15d14610cae57806336568abe14610c42578063372500ab14610be25780633f4ba83a14610b415780634917483414610b0c578063554cbef6146109ec5780635c975abb146109c857806364ab86751461099b57806372f702f31461096657806375b238fc1461092b5780637a766460146108835780637b0a47ee146108645780638456cb59146107ec5780638a4e79f61461069f5780638aee8127146105e25780638e18cdfc1461041b57806391d14854146103ca57806391f03efd146103955780639e447fc614610347578063a217fddf1461032c578063a694fc3a14610240578063d547741f146101fd578063f5b541a6146101be5763f7c618c10361001257346101bb57806003193601126101bb575073ffffffffffffffffffffffffffffffffffffffff60209254169051908152f35b80fd5b5090346101f957816003193601126101f957602090517f97667070c54ef182b0f5858b034beac1b6f3089aa2d3188bb1e8929f4fa9b9298152f35b5080fd5b5091903461023c578060031936011261023c5761023891356102336001610222611364565b938387528660205286200154611592565b6119eb565b5080f35b8280fd5b5091903461023c57602060031936011261023c5781359161025f6115b3565b6102676115ec565b82156103055750338352600660205280832080546102f6575b61029183825480156102eb576114f3565b90556102b98273ffffffffffffffffffffffffffffffffffffffff6005541630903390611697565b519081527f9e71bc8eea02a63969f509818f2dafb9254532904319f9dbda79b67bd34a5f3d60203392a2600160025580f35b4260018501556114f3565b6102ff33611819565b50610280565b90517f2c5211c6000000000000000000000000000000000000000000000000000000008152fd5b5090346101f957816003193601126101f95751908152602090f35b50913461023c57602060031936011261023c577f41d466ebd06fb97e7786086ac8b69b7eb7da798592036251291d34e9791cde01916020913590610389611500565b8160035551908152a180f35b5090346101f957816003193601126101f95760209073ffffffffffffffffffffffffffffffffffffffff600754169051908152f35b50913461023c578160031936011261023c5773ffffffffffffffffffffffffffffffffffffffff826020946103fd611364565b933581528086522091165f52825260ff815f20541690519015158152f35b5090346101f95760806003193601126101f957610436611341565b9261043f611364565b9360443590606435926104506115b3565b6104586115ec565b73ffffffffffffffffffffffffffffffffffffffff80921693841580156105d8575b6105b057869761048c85303389611697565b61049b8585600754168861177e565b8360075416938751917fd5bcb9b5000000000000000000000000000000000000000000000000000000008352878584015216938460248301528560448301528260648301523360848301528160a48160209c8d945af19788156105a5578098610573575b5050861061054c5750835192835285830152828201528260608201527f6782190c91d4a7e8ad2a867deed6ec0a970cab8ff137ae2bd4abd92b3810f4d360803392a2600160025551908152f35b84517f0364eed2000000000000000000000000000000000000000000000000000000008152fd5b909197508882813d831161059e575b61058c81836113e4565b810103126101bb575051955f806104ff565b503d610582565b8751903d90823e3d90fd5b5084517fd92e233d000000000000000000000000000000000000000000000000000000008152fd5b508288161561047a565b5091903461023c57602060031936011261023c5773ffffffffffffffffffffffffffffffffffffffff610613611341565b61061b611500565b169182156106785780547fffffffffffffffffffffffff00000000000000000000000000000000000000001683179055519081527fa5289ba11778999f4dfb9415023783188d42bbb5db0612cbfbe55999069612a090602090a180f35b90517fd92e233d000000000000000000000000000000000000000000000000000000008152fd5b50913461023c578160031936011261023c576106b9611341565b9183602435926106c76115b3565b6106cf6115ec565b73ffffffffffffffffffffffffffffffffffffffff610702858288166106f782303384611697565b83600854169061177e565b60085416803b1561023c5783517f22867d7800000000000000000000000000000000000000000000000000000000815273ffffffffffffffffffffffffffffffffffffffff871692810192835260208301869052918391839182908490829060400103925af180156107e2576107ca575b50505173ffffffffffffffffffffffffffffffffffffffff9092168252602082015233907f0a3fbbea70e93f2daafa3102f5c9a1b8315e6d7a1e43e4bc020bc1162327470a9080604081015b0390a2600160025580f35b6107d390611387565b6107de57835f610773565b8380fd5b83513d84823e3d90fd5b5090346101f957816003193601126101f95760207f62e78cea01bee320cd4e420270b5ea74000d11b0c9f74754ebdbfc544b05a2589161082a611500565b6108326115ec565b60017fffffffffffffffffffffffffffffffffffffffffffffffffffffffffffffff008154161760015551338152a180f35b5090346101f957816003193601126101f9576020906003549051908152f35b5090346101f95760206003193601126101f95790816060926108a3611341565b92808280516108b1816113c8565b828152826020820152015273ffffffffffffffffffffffffffffffffffffffff84168152600660205220918151926108e8846113c8565b8054845261091661090f600260018401549360208801948552015493858701948552611472565b83516114f3565b82528251935184525160208401525190820152f35b5090346101f957816003193601126101f957602090517fa49807205ce4d355092ef5a8a18f56e8913cf4a201fbe287825b095693c217758152f35b5090346101f957816003193601126101f95760209073ffffffffffffffffffffffffffffffffffffffff600554169051908152f35b5090346101f95760206003193601126101f9576020906109c16109bc611341565b611472565b9051908152f35b5090346101f957816003193601126101f95760209060ff6001541690519015158152f35b50913461023c578160031936011261023c57610a06611341565b918360243592610a146115b3565b610a1c6115ec565b73ffffffffffffffffffffffffffffffffffffffff60085416803b1561023c5783517f69328dec00000000000000000000000000000000000000000000000000000000815273ffffffffffffffffffffffffffffffffffffffff871692810192835260208301869052336040840152918391839182908490829060600103925af180156107e257610af8575b50505173ffffffffffffffffffffffffffffffffffffffff9092168252602082015233907fd1c19fbcd4551a5edfb66d43d2e337c04837afda3482b42bdf569a8fccdae5fb9080604081016107bf565b610b0190611387565b6107de57835f610aa8565b5090346101f957816003193601126101f95760209073ffffffffffffffffffffffffffffffffffffffff600854169051908152f35b50913461023c578260031936011261023c57610b5b611500565b6001549060ff821615610bbb57507f5db9ee0a495bf2e6ff9c91a7834c1ba4fdd244a5e8aa4e537bd38aeae4b073aa917fffffffffffffffffffffffffffffffffffffffffffffffffffffffffffffff006020921660015551338152a180f35b82517f8dfc202b000000000000000000000000000000000000000000000000000000008152fd5b5091903461023c578260031936011261023c57610bfd6115b3565b610c056115ec565b610c0e33611819565b15610c1c5782600160025580f35b517f59be8f02000000000000000000000000000000000000000000000000000000008152fd5b5090346101f957806003193601126101f957610c5c611364565b903373ffffffffffffffffffffffffffffffffffffffff831603610c8657506102389192356119eb565b8390517f6697b232000000000000000000000000000000000000000000000000000000008152fd5b5091903461023c578060031936011261023c576102389135610cd36001610222611364565b611949565b50913461023c578260031936011261023c57610cf26115b3565b610cfa6115ec565b338352600660205281832090815415610d8e57508291600291610d1c33611819565b905490610d42823373ffffffffffffffffffffffffffffffffffffffff600554166118e3565b825191825260208201527f7fc4727e062e336010f2c282598ef5f14facb3de68cf8195c2f23e1454b2b74e823392a2338352600660205282208281558260018201550155600160025580f35b82517f59be8f02000000000000000000000000000000000000000000000000000000008152fd5b50913461023c57602060031936011261023c57816020936001923581528085522001549051908152f35b50913461023c578160031936011261023c57610df9611341565b918360243592610e076115b3565b610e0f6115ec565b73ffffffffffffffffffffffffffffffffffffffff60085416803b1561023c5783517f6c665a5500000000000000000000000000000000000000000000000000000000815273ffffffffffffffffffffffffffffffffffffffff871692810192835260208301869052336040840152918391839182908490829060600103925af180156107e257610eeb575b50505173ffffffffffffffffffffffffffffffffffffffff9092168252602082015233907f3fc499aeb0bb1cb58b6de8b02b3f86f4e7394e9690bef0110e32ced8a56310459080604081016107bf565b610ef490611387565b6107de57835f610e9b565b50913461105b578160031936011261105b57610f19611341565b9160243591610f266115b3565b610f2e6115ec565b73ffffffffffffffffffffffffffffffffffffffff610f56848287166106f782303384611697565b60085416803b1561105b5782517f47e7ef2400000000000000000000000000000000000000000000000000000000815273ffffffffffffffffffffffffffffffffffffffff861692810192835260208301859052915f91839182908490829060400103925af1801561105157611016575b505173ffffffffffffffffffffffffffffffffffffffff9092168252602082015233907f8752a472e571a816aea92eec8dae9baf628e840f4929fbcc2d155e6233ff68a79080604081016107bf565b6107bf919450916110477f8752a472e571a816aea92eec8dae9baf628e840f4929fbcc2d155e6233ff68a793611387565b5f94915091610fc7565b82513d5f823e3d90fd5b5f80fd5b50503461105b57602060031936011261105b5773ffffffffffffffffffffffffffffffffffffffff61108f611341565b611097611500565b16918215610678577f08d9e26510a3cb1d512e4122208b8399da71fdde379ed7801f26cc073be0cad260208484817fffffffffffffffffffffffff0000000000000000000000000000000000000000600554161760055551908152a1005b823461105b57602060031936011261105b5760609073ffffffffffffffffffffffffffffffffffffffff611127611341565b165f526006602052805f20805491600260018301549201549181519384526020840152820152f35b50503461105b578060031936011261105b57611169611341565b611171611364565b9061117a611500565b73ffffffffffffffffffffffffffffffffffffffff809116938415801561129a575b61127357608080858588867fffffffffffffffffffffffff0000000000000000000000000000000000000000928284600754161760075516809260085416176008558251908382526003848301527f4445580000000000000000000000000000000000000000000000000000000000606083015260208201527f9d932cd7d324c001aa4ed4f9c2b581f521c535173bb2391d0975f041d8003a7d948591a160078251928084528301527f4c454e44494e470000000000000000000000000000000000000000000000000060608301526020820152a1005b83517fd92e233d000000000000000000000000000000000000000000000000000000008152fd5b508183161561119c565b843461105b57602060031936011261105b5735907fffffffff00000000000000000000000000000000000000000000000000000000821680920361105b57817f7965db0b0000000000000000000000000000000000000000000000000000000060209314908115611317575b5015158152f35b7f01ffc9a70000000000000000000000000000000000000000000000000000000091501483611310565b6004359073ffffffffffffffffffffffffffffffffffffffff8216820361105b57565b6024359073ffffffffffffffffffffffffffffffffffffffff8216820361105b57565b67ffffffffffffffff811161139b57604052565b7f4e487b71000000000000000000000000000000000000000000000000000000005f52604160045260245ffd5b6060810190811067ffffffffffffffff82111761139b57604052565b90601f7fffffffffffffffffffffffffffffffffffffffffffffffffffffffffffffffe0910116810190811067ffffffffffffffff82111761139b57604052565b9190820391821161143257565b7f4e487b71000000000000000000000000000000000000000000000000000000005f52601160045260245ffd5b8181029291811591840414171561143257565b73ffffffffffffffffffffffffffffffffffffffff165f52600660205260405f20604051906114a0826113c8565b8054808352600260018301549283602086015201546040840152156114ed57670de0b6b3a7640000916114e46114d96114e99342611425565b91516003549061145f565b61145f565b0490565b50505f90565b9190820180921161143257565b335f9081527f7d7ffb7a348e1c6a02869081a26547b49160dd3df72d1d75a570eb9b698292ec60205260409020547fa49807205ce4d355092ef5a8a18f56e8913cf4a201fbe287825b095693c217759060ff161561155b5750565b604490604051907fe2517d3f0000000000000000000000000000000000000000000000000000000082523360048301526024820152fd5b805f525f60205260405f20335f5260205260ff60405f2054161561155b5750565b60028054146115c25760028055565b60046040517f3ee5aeb5000000000000000000000000000000000000000000000000000000008152fd5b60ff600154166115f857565b60046040517fd93c0665000000000000000000000000000000000000000000000000000000008152fd5b3d1561167a573d9067ffffffffffffffff821161139b576040519161166f60207fffffffffffffffffffffffffffffffffffffffffffffffffffffffffffffffe0601f84011601846113e4565b82523d5f602084013e565b606090565b9081602091031261105b5751801515810361105b5790565b9073ffffffffffffffffffffffffffffffffffffffff9384604051948160208701947f23b872dd00000000000000000000000000000000000000000000000000000000865216602487015216604485015260648401526064835260a0830183811067ffffffffffffffff82111761139b575f94859485926040525193165af161171e611622565b9015611739578051908115159182611763575b505061173957565b60046040517f0364eed2000000000000000000000000000000000000000000000000000000008152fd5b611776925060208091830101910161167f565b155f80611731565b6040517f095ea7b3000000000000000000000000000000000000000000000000000000006020820190815273ffffffffffffffffffffffffffffffffffffffff938416602483015260448201949094525f938493909184919061180c81606481015b037fffffffffffffffffffffffffffffffffffffffffffffffffffffffffffffffe081018352826113e4565b5193165af161171e611622565b73ffffffffffffffffffffffffffffffffffffffff9081811690815f52600660205260405f209081549081156118da57670de0b6b3a764000061187260018501936114e4611868865442611425565b916003549061145f565b0494859283611885575b50505050505090565b60026118a595016118978582546114f3565b9055429055600454166118e3565b7ffc30cddea38e2bf4d6ea7d3f9ed3b6ad7f176419f4963bd81318067a4aee73fe6020604051848152a25f808281808061187c565b50505050505f90565b6040517fa9059cbb000000000000000000000000000000000000000000000000000000006020820190815273ffffffffffffffffffffffffffffffffffffffff938416602483015260448201949094525f938493909184919061180c81606481016117e0565b90815f525f60205273ffffffffffffffffffffffffffffffffffffffff60405f20911690815f5260205260ff60405f205416155f146114ed57815f525f60205260405f20815f5260205260405f2060017fffffffffffffffffffffffffffffffffffffffffffffffffffffffffffffff0082541617905533917f2f8788117e7eff1d82e926ec794901d17c78024a50270940304540a733656f0d5f80a4600190565b90815f525f60205273ffffffffffffffffffffffffffffffffffffffff60405f20911690815f5260205260ff60405f2054165f146114ed57815f525f60205260405f20815f5260205260405f207fffffffffffffffffffffffffffffffffffffffffffffffffffffffffffffff00815416905533917ff6391f5c32d9c69d2a47ea670b442974b53935d1edc7fd64eb21e047a839171b5f80a460019056fea164736f6c6343000818000a2f8788117e7eff1d82e926ec794901d17c78024a50270940304540a733656f0dad3228b676f7d3cd4284a5443f17f1962b36e491b30a40b2405849e597ba5fb5","linkReferences":{}},"methodIdentifiers":{"ADMIN_ROLE()":"75b238fc","DEFAULT_ADMIN_ROLE()":"a217fddf","OPERATOR_ROLE()":"f5b541a6","borrowFromLending(address,uint256)":"23630831","calculateRewards(address)":"64ab8675","claimRewards()":"372500ab","depositToLending(address,uint256)":"225582ae","dexAdapter()":"91f03efd","getRoleAdmin(bytes32)":"248a9ca3","getStake(address)":"7a766460","grantRole(bytes32,address)":"2f2ff15d","hasRole(bytes32,address)":"91d14854","lendingAdapter()":"49174834","pause()":"8456cb59","paused()":"5c975abb","renounceRole(bytes32,address)":"36568abe","repayToLending(address,uint256)":"8a4e79f6","revokeRole(bytes32,address)":"d547741f","rewardRate()":"7b0a47ee","rewardToken()":"f7c618c1","setAdapters(address,address)":"02f05996","setRewardRate(uint256)":"9e447fc6","setRewardToken(address)":"8aee8127","setStakingToken(address)":"1e9b12ef","stake(uint256)":"a694fc3a","stakes(address)":"16934fc4","stakingToken()":"72f702f3","supportsInterface(bytes4)":"01ffc9a7","swapTokens(address,address,uint256,uint256)":"8e18cdfc","unpause()":"3f4ba83a","unstake()":"2def6620","withdrawFromLending(address,uint256)":"554cbef6"},"id":79}