{"abi":[{"type":"constructor","inputs":[{"name":"stakingToken_","type":"address","internalType":"address"},{"name":"rewardToken_","type":"address","internalType":"address"},{"name":"rewardRate_","type":"uint256","internalType":"uint256"},{"name":"treasury_","type":"address","internalType":"address"}],"stateMutability":"nonpayable"},{"type":"receive","stateMutability":"payable"},{"type":"function","name":"ABS_MIN_HEALTH_FACTOR","inputs":[],"outputs":[{"name":"","type":"uint256","internalType":"uint256"}],"stateMutability":"view"},{"type":"function","name":"ADMIN_ROLE","inputs":[],"outputs":[{"name":"","type":"bytes32","internalType":"bytes32"}],"stateMutability":"view"},{"type":"function","name":"DEFAULT_ADMIN_ROLE","inputs":[],"outputs":[{"name":"","type":"bytes32","internalType":"bytes32"}],"stateMutability":"view"},{"type":"function","name":"EMERGENCY_ROLE","inputs":[],"outputs":[{"name":"","type":"bytes32","internalType":"bytes32"}],"stateMutability":"view"},{"type":"function","name":"GUARDIAN_ROLE","inputs":[],"outputs":[{"name":"","type":"bytes32","internalType":"bytes32"}],"stateMutability":"view"},{"type":"function","name":"LIQUIDATION_BONUS","inputs":[],"outputs":[{"name":"","type":"uint256","internalType":"uint256"}],"stateMutability":"view"},{"type":"function","name":"LIQUIDATION_THRESHOLD","inputs":[],"outputs":[{"name":"","type":"uint256","internalType":"uint256"}],"stateMutability":"view"},{"type":"function","name":"LIQUIDATOR_ROLE","inputs":[],"outputs":[{"name":"","type":"bytes32","internalType":"bytes32"}],"stateMutability":"view"},{"type":"function","name":"MAX_FEE_BPS","inputs":[],"outputs":[{"name":"","type":"uint256","internalType":"uint256"}],"stateMutability":"view"},{"type":"function","name":"MAX_POSITIONS_PER_USER","inputs":[],"outputs":[{"name":"","type":"uint256","internalType":"uint256"}],"stateMutability":"view"},{"type":"function","name":"MAX_REWARD_RATE","inputs":[],"outputs":[{"name":"","type":"uint256","internalType":"uint256"}],"stateMutability":"view"},{"type":"function","name":"PRECISION","inputs":[],"outputs":[{"name":"","type":"uint256","internalType":"uint256"}],"stateMutability":"view"},{"type":"function","name":"REWARD_TOKEN","inputs":[],"outputs":[{"name":"","type":"address","internalType":"contract IERC20"}],"stateMutability":"view"},{"type":"function","name":"SECONDS_PER_DAY","inputs":[],"outputs":[{"name":"","type":"uint256","internalType":"uint256"}],"stateMutability":"view"},{"type":"function","name":"STAKING_TOKEN","inputs":[],"outputs":[{"name":"","type":"address","internalType":"contract IERC20"}],"stateMutability":"view"},{"type":"function","name":"TIMELOCK_DELAY","inputs":[],"outputs":[{"name":"","type":"uint256","internalType":"uint256"}],"stateMutability":"view"},{"type":"function","name":"TOTAL_REWARD_CAP","inputs":[],"outputs":[{"name":"","type":"uint256","internalType":"uint256"}],"stateMutability":"view"},{"type":"function","name":"accRewardPerShare","inputs":[],"outputs":[{"name":"","type":"uint256","internalType":"uint256"}],"stateMutability":"view"},{"type":"function","name":"borrowFromLending","inputs":[{"name":"token","type":"address","internalType":"address"},{"name":"amount","type":"uint256","internalType":"uint256"}],"outputs":[],"stateMutability":"nonpayable"},{"type":"function","name":"cancelTimelock","inputs":[{"name":"selector","type":"bytes4","internalType":"bytes4"}],"outputs":[],"stateMutability":"nonpayable"},{"type":"function","name":"claimRewards","inputs":[],"outputs":[],"stateMutability":"nonpayable"},{"type":"function","name":"depositFeeBps","inputs":[],"outputs":[{"name":"","type":"uint256","internalType":"uint256"}],"stateMutability":"view"},{"type":"function","name":"depositToLending","inputs":[{"name":"token","type":"address","internalType":"address"},{"name":"amount","type":"uint256","internalType":"uint256"}],"outputs":[],"stateMutability":"nonpayable"},{"type":"function","name":"dexAdapter","inputs":[],"outputs":[{"name":"","type":"address","internalType":"address"}],"stateMutability":"view"},{"type":"function","name":"emergencyMode","inputs":[],"outputs":[{"name":"","type":"bool","internalType":"bool"}],"stateMutability":"view"},{"type":"function","name":"emergencyUnstake","inputs":[],"outputs":[],"stateMutability":"nonpayable"},{"type":"function","name":"enablePhase2","inputs":[],"outputs":[],"stateMutability":"nonpayable"},{"type":"function","name":"executeAdaptersUpdate","inputs":[{"name":"dex","type":"address","internalType":"address"},{"name":"lending","type":"address","internalType":"address"}],"outputs":[],"stateMutability":"nonpayable"},{"type":"function","name":"executeRewardRateUpdate","inputs":[{"name":"newRate","type":"uint256","internalType":"uint256"}],"outputs":[],"stateMutability":"nonpayable"},{"type":"function","name":"executeTreasuryUpdate","inputs":[{"name":"newTreasury","type":"address","internalType":"address"}],"outputs":[],"stateMutability":"nonpayable"},{"type":"function","name":"getHealthFactor","inputs":[{"name":"user","type":"address","internalType":"address"},{"name":"token","type":"address","internalType":"address"}],"outputs":[{"name":"","type":"uint256","internalType":"uint256"}],"stateMutability":"view"},{"type":"function","name":"getLendingPosition","inputs":[{"name":"user","type":"address","internalType":"address"},{"name":"token","type":"address","internalType":"address"}],"outputs":[{"name":"deposited","type":"uint256","internalType":"uint256"},{"name":"borrowed","type":"uint256","internalType":"uint256"},{"name":"active","type":"bool","internalType":"bool"}],"stateMutability":"view"},{"type":"function","name":"getRoleAdmin","inputs":[{"name":"role","type":"bytes32","internalType":"bytes32"}],"outputs":[{"name":"","type":"bytes32","internalType":"bytes32"}],"stateMutability":"view"},{"type":"function","name":"getTimelockEntry","inputs":[{"name":"selector","type":"bytes4","internalType":"bytes4"}],"outputs":[{"name":"unlocksAt","type":"uint256","internalType":"uint256"},{"name":"exists","type":"bool","internalType":"bool"}],"stateMutability":"view"},{"type":"function","name":"getUserActiveTokens","inputs":[{"name":"user","type":"address","internalType":"address"}],"outputs":[{"name":"","type":"address[]","internalType":"address[]"}],"stateMutability":"view"},{"type":"function","name":"getUserStakeInfo","inputs":[{"name":"user","type":"address","internalType":"address"}],"outputs":[{"name":"staked","type":"uint256","internalType":"uint256"},{"name":"rewardDebt","type":"uint256","internalType":"uint256"},{"name":"totalClaimed","type":"uint256","internalType":"uint256"},{"name":"stakedAt","type":"uint256","internalType":"uint256"}],"stateMutability":"view"},{"type":"function","name":"grantRole","inputs":[{"name":"role","type":"bytes32","internalType":"bytes32"},{"name":"account","type":"address","internalType":"address"}],"outputs":[],"stateMutability":"nonpayable"},{"type":"function","name":"guardianPause","inputs":[],"outputs":[],"stateMutability":"nonpayable"},{"type":"function","name":"guardianUnpause","inputs":[],"outputs":[],"stateMutability":"nonpayable"},{"type":"function","name":"hasRole","inputs":[{"name":"role","type":"bytes32","internalType":"bytes32"},{"name":"account","type":"address","internalType":"address"}],"outputs":[{"name":"","type":"bool","internalType":"bool"}],"stateMutability":"view"},{"type":"function","name":"isAdapterWhitelisted","inputs":[{"name":"","type":"address","internalType":"address"}],"outputs":[{"name":"","type":"bool","internalType":"bool"}],"stateMutability":"view"},{"type":"function","name":"isLendingToken","inputs":[{"name":"","type":"address","internalType":"address"}],"outputs":[{"name":"","type":"bool","internalType":"bool"}],"stateMutability":"view"},{"type":"function","name":"lastRewardTime","inputs":[],"outputs":[{"name":"","type":"uint256","internalType":"uint256"}],"stateMutability":"view"},{"type":"function","name":"lendingAdapter","inputs":[],"outputs":[{"name":"","type":"address","internalType":"address"}],"stateMutability":"view"},{"type":"function","name":"liquidate","inputs":[{"name":"user","type":"address","internalType":"address"},{"name":"token","type":"address","internalType":"address"},{"name":"repayAmount","type":"uint256","internalType":"uint256"}],"outputs":[],"stateMutability":"nonpayable"},{"type":"function","name":"minHealthFactor","inputs":[],"outputs":[{"name":"","type":"uint256","internalType":"uint256"}],"stateMutability":"view"},{"type":"function","name":"minStakeAmount","inputs":[],"outputs":[{"name":"","type":"uint256","internalType":"uint256"}],"stateMutability":"view"},{"type":"function","name":"paused","inputs":[],"outputs":[{"name":"","type":"bool","internalType":"bool"}],"stateMutability":"view"},{"type":"function","name":"pendingRewards","inputs":[{"name":"user","type":"address","internalType":"address"}],"outputs":[{"name":"","type":"uint256","internalType":"uint256"}],"stateMutability":"view"},{"type":"function","name":"phase2Enabled","inputs":[],"outputs":[{"name":"","type":"bool","internalType":"bool"}],"stateMutability":"view"},{"type":"function","name":"queueAdaptersUpdate","inputs":[{"name":"dex","type":"address","internalType":"address"},{"name":"lending","type":"address","internalType":"address"}],"outputs":[],"stateMutability":"nonpayable"},{"type":"function","name":"queueRewardRateUpdate","inputs":[{"name":"newRate","type":"uint256","internalType":"uint256"}],"outputs":[],"stateMutability":"nonpayable"},{"type":"function","name":"queueTreasuryUpdate","inputs":[{"name":"newTreasury","type":"address","internalType":"address"}],"outputs":[],"stateMutability":"nonpayable"},{"type":"function","name":"renounceRole","inputs":[{"name":"role","type":"bytes32","internalType":"bytes32"},{"name":"callerConfirmation","type":"address","internalType":"address"}],"outputs":[],"stateMutability":"nonpayable"},{"type":"function","name":"repayToLending","inputs":[{"name":"token","type":"address","internalType":"address"},{"name":"amount","type":"uint256","internalType":"uint256"}],"outputs":[],"stateMutability":"nonpayable"},{"type":"function","name":"rescueTokens","inputs":[{"name":"token","type":"address","internalType":"address"},{"name":"amount","type":"uint256","internalType":"uint256"}],"outputs":[],"stateMutability":"nonpayable"},{"type":"function","name":"revokeRole","inputs":[{"name":"role","type":"bytes32","internalType":"bytes32"},{"name":"account","type":"address","internalType":"address"}],"outputs":[],"stateMutability":"nonpayable"},{"type":"function","name":"rewardRate","inputs":[],"outputs":[{"name":"","type":"uint256","internalType":"uint256"}],"stateMutability":"view"},{"type":"function","name":"setTokenOracle","inputs":[{"name":"token","type":"address","internalType":"address"},{"name":"oracle","type":"address","internalType":"address"},{"name":"maxAge","type":"uint256","internalType":"uint256"}],"outputs":[],"stateMutability":"nonpayable"},{"type":"function","name":"stake","inputs":[{"name":"amount","type":"uint256","internalType":"uint256"}],"outputs":[],"stateMutability":"nonpayable"},{"type":"function","name":"supportsInterface","inputs":[{"name":"interfaceId","type":"bytes4","internalType":"bytes4"}],"outputs":[{"name":"","type":"bool","internalType":"bool"}],"stateMutability":"view"},{"type":"function","name":"swapFeeBps","inputs":[],"outputs":[{"name":"","type":"uint256","internalType":"uint256"}],"stateMutability":"view"},{"type":"function","name":"swapTokens","inputs":[{"name":"tokenIn","type":"address","internalType":"address"},{"name":"tokenOut","type":"address","internalType":"address"},{"name":"amountIn","type":"uint256","internalType":"uint256"},{"name":"minOut","type":"uint256","internalType":"uint256"}],"outputs":[{"name":"amountOut","type":"uint256","internalType":"uint256"}],"stateMutability":"nonpayable"},{"type":"function","name":"toggleEmergencyMode","inputs":[],"outputs":[],"stateMutability":"nonpayable"},{"type":"function","name":"tokenOracles","inputs":[{"name":"","type":"address","internalType":"address"}],"outputs":[{"name":"oracle","type":"address","internalType":"address"},{"name":"maxAge","type":"uint256","internalType":"uint256"}],"stateMutability":"view"},{"type":"function","name":"totalRewardsDistributed","inputs":[],"outputs":[{"name":"","type":"uint256","internalType":"uint256"}],"stateMutability":"view"},{"type":"function","name":"totalStaked","inputs":[],"outputs":[{"name":"","type":"uint256","internalType":"uint256"}],"stateMutability":"view"},{"type":"function","name":"totalStakersCount","inputs":[],"outputs":[{"name":"","type":"uint256","internalType":"uint256"}],"stateMutability":"view"},{"type":"function","name":"treasury","inputs":[],"outputs":[{"name":"","type":"address","internalType":"address"}],"stateMutability":"view"},{"type":"function","name":"treasuryBalances","inputs":[{"name":"","type":"address","internalType":"address"}],"outputs":[{"name":"","type":"uint256","internalType":"uint256"}],"stateMutability":"view"},{"type":"function","name":"unstake","inputs":[{"name":"amount","type":"uint256","internalType":"uint256"}],"outputs":[],"stateMutability":"nonpayable"},{"type":"function","name":"updateFees","inputs":[{"name":"swapBps","type":"uint256","internalType":"uint256"},{"name":"depositBps","type":"uint256","internalType":"uint256"}],"outputs":[],"stateMutability":"nonpayable"},{"type":"function","name":"updateMinHealthFactor","inputs":[{"name":"newFactor","type":"uint256","internalType":"uint256"}],"outputs":[],"stateMutability":"nonpayable"},{"type":"function","name":"updateMinStakeAmount","inputs":[{"name":"newMin","type":"uint256","internalType":"uint256"}],"outputs":[],"stateMutability":"nonpayable"},{"type":"function","name":"userPositionCount","inputs":[{"name":"","type":"address","internalType":"address"}],"outputs":[{"name":"","type":"uint256","internalType":"uint256"}],"stateMutability":"view"},{"type":"function","name":"withdrawFromLending","inputs":[{"name":"token","type":"address","internalType":"address"},{"name":"amount","type":"uint256","internalType":"uint256"}],"outputs":[],"stateMutability":"nonpayable"},{"type":"event","name":"AdaptersSet","inputs":[{"name":"dex","type":"address","indexed":true,"internalType":"address"},{"name":"lending","type":"address","indexed":true,"internalType":"address"}],"anonymous":false},{"type":"event","name":"EmergencyModeToggled","inputs":[{"name":"active","type":"bool","indexed":false,"internalType":"bool"}],"anonymous":false},{"type":"event","name":"EmergencyUnstake","inputs":[{"name":"user","type":"address","indexed":true,"internalType":"address"},{"name":"amount","type":"uint256","indexed":false,"internalType":"uint256"}],"anonymous":false},{"type":"event","name":"FeesUpdated","inputs":[{"name":"swapBps","type":"uint256","indexed":false,"internalType":"uint256"},{"name":"depositBps","type":"uint256","indexed":false,"internalType":"uint256"}],"anonymous":false},{"type":"event","name":"LendingBorrow","inputs":[{"name":"user","type":"address","indexed":true,"internalType":"address"},{"name":"token","type":"address","indexed":true,"internalType":"address"},{"name":"amount","type":"uint256","indexed":false,"internalType":"uint256"}],"anonymous":false},{"type":"event","name":"LendingDeposit","inputs":[{"name":"user","type":"address","indexed":true,"internalType":"address"},{"name":"token","type":"address","indexed":true,"internalType":"address"},{"name":"netAmount","type":"uint256","indexed":false,"internalType":"uint256"}],"anonymous":false},{"type":"event","name":"LendingRepay","inputs":[{"name":"user","type":"address","indexed":true,"internalType":"address"},{"name":"token","type":"address","indexed":true,"internalType":"address"},{"name":"amount","type":"uint256","indexed":false,"internalType":"uint256"}],"anonymous":false},{"type":"event","name":"LendingWithdraw","inputs":[{"name":"user","type":"address","indexed":true,"internalType":"address"},{"name":"token","type":"address","indexed":true,"internalType":"address"},{"name":"amount","type":"uint256","indexed":false,"internalType":"uint256"}],"anonymous":false},{"type":"event","name":"Liquidated","inputs":[{"name":"user","type":"address","indexed":true,"internalType":"address"},{"name":"liquidator","type":"address","indexed":true,"internalType":"address"},{"name":"token","type":"address","indexed":true,"internalType":"address"},{"name":"repaid","type":"uint256","indexed":false,"internalType":"uint256"},{"name":"seized","type":"uint256","indexed":false,"internalType":"uint256"}],"anonymous":false},{"type":"event","name":"MinHealthFactorUpdated","inputs":[{"name":"newFactor","type":"uint256","indexed":false,"internalType":"uint256"}],"anonymous":false},{"type":"event","name":"MinStakeAmountUpdated","inputs":[{"name":"newMin","type":"uint256","indexed":false,"internalType":"uint256"}],"anonymous":false},{"type":"event","name":"OracleSet","inputs":[{"name":"token","type":"address","indexed":true,"internalType":"address"},{"name":"oracle","type":"address","indexed":true,"internalType":"address"},{"name":"maxAge","type":"uint256","indexed":false,"internalType":"uint256"}],"anonymous":false},{"type":"event","name":"Paused","inputs":[{"name":"account","type":"address","indexed":false,"internalType":"address"}],"anonymous":false},{"type":"event","name":"Phase2Enabled","inputs":[{"name":"by","type":"address","indexed":true,"internalType":"address"}],"anonymous":false},{"type":"event","name":"ProtocolPaused","inputs":[{"name":"by","type":"address","indexed":true,"internalType":"address"}],"anonymous":false},{"type":"event","name":"ProtocolUnpaused","inputs":[{"name":"by","type":"address","indexed":true,"internalType":"address"}],"anonymous":false},{"type":"event","name":"RewardRateUpdated","inputs":[{"name":"oldRate","type":"uint256","indexed":false,"internalType":"uint256"},{"name":"newRate","type":"uint256","indexed":false,"internalType":"uint256"}],"anonymous":false},{"type":"event","name":"RewardsClaimed","inputs":[{"name":"user","type":"address","indexed":true,"internalType":"address"},{"name":"amount","type":"uint256","indexed":false,"internalType":"uint256"}],"anonymous":false},{"type":"event","name":"RoleAdminChanged","inputs":[{"name":"role","type":"bytes32","indexed":true,"internalType":"bytes32"},{"name":"previousAdminRole","type":"bytes32","indexed":true,"internalType":"bytes32"},{"name":"newAdminRole","type":"bytes32","indexed":true,"internalType":"bytes32"}],"anonymous":false},{"type":"event","name":"RoleGranted","inputs":[{"name":"role","type":"bytes32","indexed":true,"internalType":"bytes32"},{"name":"account","type":"address","indexed":true,"internalType":"address"},{"name":"sender","type":"address","indexed":true,"internalType":"address"}],"anonymous":false},{"type":"event","name":"RoleRevoked","inputs":[{"name":"role","type":"bytes32","indexed":true,"internalType":"bytes32"},{"name":"account","type":"address","indexed":true,"internalType":"address"},{"name":"sender","type":"address","indexed":true,"internalType":"address"}],"anonymous":false},{"type":"event","name":"Staked","inputs":[{"name":"user","type":"address","indexed":true,"internalType":"address"},{"name":"amount","type":"uint256","indexed":false,"internalType":"uint256"}],"anonymous":false},{"type":"event","name":"SwapExecuted","inputs":[{"name":"user","type":"address","indexed":true,"internalType":"address"},{"name":"tokenIn","type":"address","indexed":true,"internalType":"address"},{"name":"tokenOut","type":"address","indexed":true,"internalType":"address"},{"name":"amountIn","type":"uint256","indexed":false,"internalType":"uint256"},{"name":"amountOut","type":"uint256","indexed":false,"internalType":"uint256"}],"anonymous":false},{"type":"event","name":"TimelockCancelled","inputs":[{"name":"selector","type":"bytes4","indexed":true,"internalType":"bytes4"}],"anonymous":false},{"type":"event","name":"TimelockExecuted","inputs":[{"name":"selector","type":"bytes4","indexed":true,"internalType":"bytes4"}],"anonymous":false},{"type":"event","name":"TimelockQueued","inputs":[{"name":"selector","type":"bytes4","indexed":true,"internalType":"bytes4"},{"name":"unlocksAt","type":"uint256","indexed":false,"internalType":"uint256"}],"anonymous":false},{"type":"event","name":"TokensRescued","inputs":[{"name":"token","type":"address","indexed":true,"internalType":"address"},{"name":"amount","type":"uint256","indexed":false,"internalType":"uint256"}],"anonymous":false},{"type":"event","name":"TreasuryUpdated","inputs":[{"name":"oldTreasury","type":"address","indexed":true,"internalType":"address"},{"name":"newTreasury","type":"address","indexed":true,"internalType":"address"}],"anonymous":false},{"type":"event","name":"Unpaused","inputs":[{"name":"account","type":"address","indexed":false,"internalType":"address"}],"anonymous":false},{"type":"event","name":"Unstaked","inputs":[{"name":"user","type":"address","indexed":true,"internalType":"address"},{"name":"amount","type":"uint256","indexed":false,"internalType":"uint256"},{"name":"rewardsPaid","type":"uint256","indexed":false,"internalType":"uint256"}],"anonymous":false},{"type":"error","name":"AccessControlBadConfirmation","inputs":[]},{"type":"error","name":"AccessControlUnauthorizedAccount","inputs":[{"name":"account","type":"address","internalType":"address"},{"name":"neededRole","type":"bytes32","internalType":"bytes32"}]},{"type":"error","name":"AdapterNotWhitelisted","inputs":[{"name":"adapter","type":"address","internalType":"address"}]},{"type":"error","name":"ETHNotAccepted","inputs":[]},{"type":"error","name":"EmergencyModeOff","inputs":[]},{"type":"error","name":"EnforcedPause","inputs":[]},{"type":"error","name":"ExpectedPause","inputs":[]},{"type":"error","name":"HealthFactorTooLow","inputs":[{"name":"current","type":"uint256","internalType":"uint256"},{"name":"minimum","type":"uint256","internalType":"uint256"}]},{"type":"error","name":"InsufficientBalance","inputs":[{"name":"available","type":"uint256","internalType":"uint256"},{"name":"requested","type":"uint256","internalType":"uint256"}]},{"type":"error","name":"InvalidAmount","inputs":[{"name":"min","type":"uint256","internalType":"uint256"},{"name":"max","type":"uint256","internalType":"uint256"}]},{"type":"error","name":"InvalidFee","inputs":[{"name":"provided","type":"uint256","internalType":"uint256"},{"name":"max","type":"uint256","internalType":"uint256"}]},{"type":"error","name":"LiquidationNotAllowed","inputs":[{"name":"healthFactor","type":"uint256","internalType":"uint256"}]},{"type":"error","name":"MaxPositionsReached","inputs":[{"name":"max","type":"uint256","internalType":"uint256"}]},{"type":"error","name":"NoActivePosition","inputs":[]},{"type":"error","name":"NoPendingChange","inputs":[]},{"type":"error","name":"NoStakeFound","inputs":[]},{"type":"error","name":"OracleNotSet","inputs":[]},{"type":"error","name":"Phase2NotEnabled","inputs":[]},{"type":"error","name":"ProtectedToken","inputs":[{"name":"token","type":"address","internalType":"address"}]},{"type":"error","name":"ReentrancyGuardReentrantCall","inputs":[]},{"type":"error","name":"SafeERC20FailedOperation","inputs":[{"name":"token","type":"address","internalType":"address"}]},{"type":"error","name":"SameAddress","inputs":[]},{"type":"error","name":"SlippageExceeded","inputs":[{"name":"amountOut","type":"uint256","internalType":"uint256"},{"name":"minOut","type":"uint256","internalType":"uint256"}]},{"type":"error","name":"TimelockAlreadyQueued","inputs":[{"name":"selector","type":"bytes4","internalType":"bytes4"}]},{"type":"error","name":"ZeroAddress","inputs":[]},{"type":"error","name":"ZeroAmount","inputs":[]}],"bytecode":{"object":"0x60c034620001dc57601f62004f5b38819003918201601f191683019291906001600160401b03841183851017620001e0578160809284926040968752833981010312620001dc576200005181620001f4565b906200006060208201620001f4565b90620000736060858301519201620001f4565b60016002556001600160a01b039390929084169081158015620001d1575b8015620001c6575b620001b557841690818114620001a457678ac7230489e8000080841162000187575060805260a0526009551660018060a01b0319600d541617600d55601e600b55600a600c556710a741a462780000601255620f4240600a554260075561ff0019601854166018556200010c3362000209565b50620001183362000279565b50620001243362000319565b506200013033620003b3565b506200013c336200044d565b5051614a339081620004e88239608051818181610c6001528181611aa601528181612080015281816128820152613987015260a051818181610d520152818161212e01526147560152f35b6044908751906307c83fcf60e41b82525f60048301526024820152fd5b855163367558c360e01b8152600490fd5b855163d92e233d60e01b8152600490fd5b508484161562000099565b508481161562000091565b5f80fd5b634e487b7160e01b5f52604160045260245ffd5b51906001600160a01b0382168203620001dc57565b6001600160a01b03165f8181525f8051602062004f3b833981519152602052604090205460ff1662000274575f8181525f8051602062004f3b83398151915260205260408120805460ff191660011790553391905f8051602062004f1b8339815191528180a4600190565b505f90565b6001600160a01b03165f8181527f7d7ffb7a348e1c6a02869081a26547b49160dd3df72d1d75a570eb9b698292ec60205260409020547fa49807205ce4d355092ef5a8a18f56e8913cf4a201fbe287825b095693c21775919060ff166200031357815f525f60205260405f20815f5260205260405f20600160ff1982541617905533915f8051602062004f1b8339815191525f80a4600190565b50505f90565b6001600160a01b03165f8181527f3c1b1854ab1360abbb06c8d4c6b2672d4b8cedc5eff522ab19e51d5cb8fdbd4660205260409020547fbf233dd2aafeb4d50879c4aa5c81e96d92f6e6945c906a58f9f2d1c1631b4b26919060ff166200031357815f525f60205260405f20815f5260205260405f20600160ff1982541617905533915f8051602062004f1b8339815191525f80a4600190565b6001600160a01b03165f8181527f8a40f0b47fdc2a0ce293b772acfc7508c8315a4d462786c1adc3a56f92ca2d0560205260409020547f55435dd261a4b9b3364963f7738a7a662ad9c84396d64be3365284bb7f0a5041919060ff166200031357815f525f60205260405f20815f5260205260405f20600160ff1982541617905533915f8051602062004f1b8339815191525f80a4600190565b6001600160a01b03165f8181527fbcea842b576603bd7a3cd6bbb61cb6c1908ae113af80c7a38f32f896fbaa454460205260409020547f5e17fc5225d4a099df75359ce1f405503ca79498a8dc46a7d583235a0ee45c16919060ff166200031357815f525f60205260405f20815f5260205260405f20600160ff1982541617905533915f8051602062004f1b8339815191525f80a460019056fe6080604081815260049182361015610043575b50361561001d575f80fd5b517f1231ae40000000000000000000000000000000000000000000000000000000008152fd5b5f905f3560e01c90816301ffc9a7146139ab575080630479d6441461395b578063049df22d146138fb5780630905f560146138d85780630918eb14146138945780630fba9ef31461381f57806312a7f86a146136ce57806313cc959b14613566578063145574941461351d57806316d8887a146134e35780631cb01a781461342c57806320df4359146133f2578063225582ae146130485780632363083114612e0a578063248a9ca314612de057806324ea54f414612da557806326c013031461292b5780632e17de78146127bb5780632f2ff15d146127915780632fcb3058146127755780632ffdaf891461275657806331d7a262146127305780633574d4c41461270d57806336568abe146126a1578063372500ab14612670578063435720a314612562578063491748341461252d5780634c17b5301461238b578063554cbef614612156578063573761981461203d57806357c89a7d146120085780635a9b6d1214611f2f5780635ba1c1a914611f115780635c975abb14611eed57806361d027b314611eb85780636db7943714611de3578063718dc3c314611dc05780637284823c14611b6857806374f0314f14611b4a5780637589cf2f14611a4057806375b238fc14611a055780637b0a47ee146119e65780637efa7481146119a2578063817b1cd214611984578063829e46bb146116ee5780638a4e79f61461145f5780638e18cdfc146111aa57806390a8ae9b1461118757806391d148541461113657806391f03efd146111015780639231cf74146110e2578063939d6237146110c357806395a2b07c14610d7657806399248ea714610d25578063a217fddf14610d0a578063a694fc3a14610bfe578063aaf5eb68146107dd578063ab87982714610bdf578063acd6182f1461098a578063bd4924321461090e578063c32d3ae2146108a8578063c72bb963146107e2578063c936db1d146107dd578063d301042814610729578063d4593872146106aa578063d4f56a4614610684578063d547741f14610645578063d55be8c614610629578063d8060cd5146105ab578063dc79b2aa1461047e578063dfab41f114610457578063e1b4264c14610438578063ed21d26914610419578063ee172546146103fa578063f1887684146103db5763f6f38e7c036100125790346103d75760206003193601126103d75760ff8160209373ffffffffffffffffffffffffffffffffffffffff6103c4613a48565b1681526017855220541690519015158152f35b5080fd5b5090346103d757816003193601126103d757602090600a549051908152f35b5090346103d757816003193601126103d7576020906008549051908152f35b5090346103d757816003193601126103d7576020906005549051908152f35b5090346103d757816003193601126103d7576020906012549051908152f35b5090346103d757816003193601126103d75760209060ff60185460081c1690519015158152f35b5091346105a75761048e36613a8e565b9193909261049a613f4c565b73ffffffffffffffffffffffffffffffffffffffff80951693841561057f57851694851561057f578251918383019083821067ffffffffffffffff831117610553575091600184927fea681d3efb830ef032a9c29a7215b5ceeeb546250d2c463dbf87817aecda1bf196946020965288835285830190858252888b5260148752848b209351167fffffffffffffffffffffffff00000000000000000000000000000000000000008454161783555191015551908152a380f35b6041907f4e487b71000000000000000000000000000000000000000000000000000000005f525260245ffd5b5090517fd92e233d000000000000000000000000000000000000000000000000000000008152fd5b8280fd5b509190346105a75760206003193601126105a7578135916105ca613f4c565b82156106025750816020917f8448c02797b448f4946bc25b3bf925e5556d1df822c944da701c54bab8a3162f93600a5551908152a180f35b90517f1f2a2005000000000000000000000000000000000000000000000000000000008152fd5b5090346103d757816003193601126103d7576020905160648152f35b509190346105a757806003193601126105a757610680913561067b600161066a613a6b565b938387528660205286200154614039565b61490f565b5080f35b5090346103d757816003193601126103d757602090516a52b7d2dcc80cd2e40000008152f35b5090346103d757816003193601126103d75760207f62e78cea01bee320cd4e420270b5ea74000d11b0c9f74754ebdbfc544b05a258916106e8613fde565b6106f061415e565b600160ff198154161760015551338152a1337f3fb8cabbd30f03312e3221b5b1c7ce132ca5d72cf36143a1d6d33b11ad4eba248280a280f35b509190346105a75760206003193601126105a757813591610748613f4c565b670de0b6b3a764000080841061078a57847f62f58b1bfbde80d3de3327a5b042347ecf0b9ff78557a82c6b6a0c3e21fb86c0602086868160125551908152a180f35b60449251917f7c83fcf00000000000000000000000000000000000000000000000000000000083528201527fffffffffffffffffffffffffffffffffffffffffffffffffffffffffffffffff6024820152fd5b613ad0565b509190346105a75760206003193601126105a7578135917fffffffff0000000000000000000000000000000000000000000000000000000083168093036108a45761082b613f4c565b828452601960205260ff60028386200154161561087d57506108569082845260196020528320613cf6565b7fc164ccc5e222126b6014a3afc9b68e3d7f5781c3b4b2c0d93515ff6f711e98228280a280f35b90517fa3fef2f8000000000000000000000000000000000000000000000000000000008152fd5b8380fd5b5090346103d75760206003193601126103d7578060809273ffffffffffffffffffffffffffffffffffffffff6108dc613a48565b168152600360205220908154916001810154916003600283015492015492815194855260208501528301526060820152f35b50346109875760206003193601126109875761098360018373ffffffffffffffffffffffffffffffffffffffff9384610945613a48565b168152601460205220928354169201549251928392836020909392919373ffffffffffffffffffffffffffffffffffffffff60408201951681520152565b0390f35b80fd5b509190346105a757806003193601126105a7576109a5613a48565b916109ae613a6b565b916109b7613f4c565b7facd6182f00000000000000000000000000000000000000000000000000000000938486526020906019825282872060ff600282015416158015610bd5575b610bac576001610a069101613bfd565b938385805181010312610ba857610a2984610a22858801613d55565b9601613d55565b73ffffffffffffffffffffffffffffffffffffffff928316958316861480159190610b99575b50610b72575085875260198252610a67838820613cf6565b806015541680610b5b575b50806016541680610b44575b507fffffffffffffffffffffffff00000000000000000000000000000000000000009484866015541617601555168094601654161760165582610b2a575b83610b0f575b50507f1480292b57c926add498b39efa3c345474cf76026bdf1aee212af0a09cc686898480a37f756709f78b5e265dd9b23132e66f51535311131e8da3faf7c11677a7c451d04e8280a280f35b601790848752528420600160ff198254161790555f80610ac2565b82865260178152818620600160ff19825416179055610abc565b87526017825282872060ff1981541690555f610a7e565b87526017825282872060ff1981541690555f610a72565b83517fa3fef2f8000000000000000000000000000000000000000000000000000000008152fd5b8316878416141590505f610a4f565b8780fd5b505050517fa3fef2f8000000000000000000000000000000000000000000000000000000008152fd5b50805442106109f6565b5090346103d757816003193601126103d757602090600c549051908152f35b509190346105a75760206003193601126105a757813591610c1d614125565b610c2561415e565b821561060257600a5480841061078a5750610c3e61405a565b610c4733614689565b5033845260036020528184209081541591610c848530337f0000000000000000000000000000000000000000000000000000000000000000614194565b6001670de0b6b3a7640000610caf610c9d888554613dba565b80855542600386015560065490613cb6565b04910155610cbe848254613dba565b9055610cf7575b519081527f9e71bc8eea02a63969f509818f2dafb9254532904319f9dbda79b67bd34a5f3d60203392a2600160025580f35b610d02600554613dc7565b600555610cc5565b5090346103d757816003193601126103d75751908152602090f35b5090346103d757816003193601126103d7576020905173ffffffffffffffffffffffffffffffffffffffff7f0000000000000000000000000000000000000000000000000000000000000000168152f35b5091346105a757602090816003193601126108a457803592610d96613f4c565b678ac7230489e8000080851161108f57507f12a7f86a00000000000000000000000000000000000000000000000000000000938486526019845260ff6002838820015416611060576202a3004201928342116110345782519185830152848252610dff82613ba0565b825191610e0b83613b84565b848352858301908152838301916001808452888a5260198852858a209451855560018501925180519267ffffffffffffffff84116110085750610e4e8454613af2565b601f8111610fcf575b508a8992601f8511600114610f00575083600294610eed97947f1ea0688c962491c18875b62afeb95d4eeca15c120c1aed8dba0a30e72133d2eb9c9b9a999794610ed39492610ef5575b50507fffffffffffffffffffffffffffffffffffffffffffffffffffffffffffffffff8260011b9260031b1c19161790565b90555b51151591019060ff60ff1983541691151516179055565b51908152a280f35b015190505f80610ea1565b929190507fffffffffffffffffffffffffffffffffffffffffffffffffffffffffffffffe08416858d528a8d20938d905b828210610fb857505093610eed96937f1ea0688c962491c18875b62afeb95d4eeca15c120c1aed8dba0a30e72133d2eb9b9a999896936001938360029810610f81575b505050811b019055610ed6565b01517fffffffffffffffffffffffffffffffffffffffffffffffffffffffffffffffff60f88460031b161c191690555f8080610f74565b83850151865594850194938c0193908c0190610f31565b610ff890858d528a8d20601f860160051c8101918c8710610ffe575b601f0160051c0190613ca0565b5f610e57565b9091508190610feb565b8b60416024927f4e487b7100000000000000000000000000000000000000000000000000000000835252fd5b8660116024927f4e487b7100000000000000000000000000000000000000000000000000000000835252fd5b602483868451917fbaa37fc3000000000000000000000000000000000000000000000000000000008352820152fd5b856044939251927f7c83fcf00000000000000000000000000000000000000000000000000000000084528301526024820152fd5b5090346103d757816003193601126103d7576020906006549051908152f35b5090346103d757816003193601126103d7576020906007549051908152f35b5090346103d757816003193601126103d75760209073ffffffffffffffffffffffffffffffffffffffff601554169051908152f35b5091346105a757816003193601126105a75773ffffffffffffffffffffffffffffffffffffffff82602094611169613a6b565b933581528086522091165f52825260ff815f20541690519015158152f35b5090346103d757816003193601126103d75760209051670bcbce7f1b1500008152f35b5090346103d75760806003193601126103d7576111c5613a48565b926111ce613a6b565b604435606435926111dd614125565b6111e561415e565b73ffffffffffffffffffffffffffffffffffffffff8097169283156113ca57821561143757876015541680158015611421575b6113f2575087169384156113ca578484146113a2578661271061123d600b5486613cb6565b046112488186613dad565b611258828c600d5416338a614194565b86835260a460209b8c93600e85526112748c8720918254613dba565b90556112828330338c614194565b6112918382601554168b614210565b60155416918a5194859384927fd5bcb9b50000000000000000000000000000000000000000000000000000000084528b8a8501528c602485015260448401528760648401523360848401525af19788156113975797611364575b5080871061132f575050835190815284868201527f764f0dc063c06f32d89a3f3af80c0db4be8a090901f589a478b447e0a51f09f1843392a4600160025551908152f35b60449250868651927f71c4efed0000000000000000000000000000000000000000000000000000000084528301526024820152fd5b9096508781813d8311611390575b61137c8183613bbc565b8101031261138c5751955f6112eb565b5f80fd5b503d611372565b8751903d90823e3d90fd5b5084517f367558c3000000000000000000000000000000000000000000000000000000008152fd5b5084517fd92e233d000000000000000000000000000000000000000000000000000000008152fd5b826024918851917f616d1329000000000000000000000000000000000000000000000000000000008352820152fd5b50808852601760205260ff878920541615611218565b5084517f1f2a2005000000000000000000000000000000000000000000000000000000008152fd5b509190346105a757806003193601126105a75761147a613a48565b9060243591611487614125565b61148f61415e565b60ff60185460081c16156116c657821561169e5773ffffffffffffffffffffffffffffffffffffffff90816016541680158015611688575b6116595750338652600f6020528286209482821695865f52602052835f2060ff60028201541615611631576001019283548681106115fc575090879161150f8730338b614194565b61151e8782601654168a614210565b60165416803b156105a75785517f22867d7800000000000000000000000000000000000000000000000000000000815273ffffffffffffffffffffffffffffffffffffffff851692810192835260208301889052918391839182908490829060400103925af180156115f2576115da575b5050816115a0856115a89454613dad565b9055336144f6565b519081527f2109571a9b626bbdd7aef10a47beafeffda4596282d9da1c2db9cf14aa25740d60203392a3600160025580f35b6115e390613b43565b6115ee57855f61158f565b8580fd5b85513d84823e3d90fd5b82876044928851927fcf4791810000000000000000000000000000000000000000000000000000000084528301526024820152fd5b5083517f33cbf2bc000000000000000000000000000000000000000000000000000000008152fd5b856024918551917f616d1329000000000000000000000000000000000000000000000000000000008352820152fd5b50808752601760205260ff8488205416156114c7565b8382517f1f2a2005000000000000000000000000000000000000000000000000000000008152fd5b8382517fd6b23e0a000000000000000000000000000000000000000000000000000000008152fd5b5091346105a757816003193601126105a757611708613a48565b611710613a6b565b92611719613f4c565b7facd6182f00000000000000000000000000000000000000000000000000000000938486526020936019855260ff6002848920015416611955576202a3004201938442116119295783519273ffffffffffffffffffffffffffffffffffffffff80921687850152168383015282825261179182613b84565b82519161179d83613b84565b848352858301908152838301916001808452888a5260198852858a209451855560018501925180519267ffffffffffffffff841161100857506117e08454613af2565b601f81116118fb575b508a8992601f8511600114611864575083600294610eed97947f1ea0688c962491c18875b62afeb95d4eeca15c120c1aed8dba0a30e72133d2eb9c9b9a999794610ed39492610ef55750507fffffffffffffffffffffffffffffffffffffffffffffffffffffffffffffffff8260011b9260031b1c19161790565b929190507fffffffffffffffffffffffffffffffffffffffffffffffffffffffffffffffe08416858d528a8d20938d905b8282106118e457505093610eed96937f1ea0688c962491c18875b62afeb95d4eeca15c120c1aed8dba0a30e72133d2eb9b9a999896936001938360029810610f8157505050811b019055610ed6565b83850151865594850194938c0193908c0190611895565b61192390858d528a8d20601f860160051c8101918c8710610ffe57601f0160051c0190613ca0565b5f6117e9565b6024886011847f4e487b7100000000000000000000000000000000000000000000000000000000835252fd5b602490868451917fbaa37fc3000000000000000000000000000000000000000000000000000000008352820152fd5b5091346105a757826003193601126105a75760209250549051908152f35b5090346103d75760206003193601126103d7578060209273ffffffffffffffffffffffffffffffffffffffff6119d6613a48565b168152600e845220549051908152f35b5090346103d757816003193601126103d7576020906009549051908152f35b5090346103d757816003193601126103d757602090517fa49807205ce4d355092ef5a8a18f56e8913cf4a201fbe287825b095693c217758152f35b509190346105a757826003193601126105a757611a5b614125565b60ff6018541615611b24573383526003602052808320918254928315611afc57600181868093550155611a8f838254613dad565b9055611a9c600554613e36565b600555611aca82337f0000000000000000000000000000000000000000000000000000000000000000614776565b519081527f571394674ec9d9e81517060110f8f894ce912af2b2febc091bee0cdea68adf0060203392a2600160025580f35b5090517f59be8f02000000000000000000000000000000000000000000000000000000008152fd5b517fcb0f0392000000000000000000000000000000000000000000000000000000008152fd5b5090346103d757816003193601126103d75760209051620151808152f35b5091346105a757602090816003193601126108a45773ffffffffffffffffffffffffffffffffffffffff611b9a613a48565b611ba2613f4c565b16928315611d9a577f13cc959b00000000000000000000000000000000000000000000000000000000938486526019845260ff6002838820015416611060576202a3004201928342116110345782519185830152848252611c0282613ba0565b825191611c0e83613b84565b848352858301908152838301916001808452888a5260198852858a209451855560018501925180519267ffffffffffffffff84116110085750611c518454613af2565b601f8111611d6c575b508a8992601f8511600114611cd5575083600294610eed97947f1ea0688c962491c18875b62afeb95d4eeca15c120c1aed8dba0a30e72133d2eb9c9b9a999794610ed39492610ef55750507fffffffffffffffffffffffffffffffffffffffffffffffffffffffffffffffff8260011b9260031b1c19161790565b929190507fffffffffffffffffffffffffffffffffffffffffffffffffffffffffffffffe08416858d528a8d20938d905b828210611d5557505093610eed96937f1ea0688c962491c18875b62afeb95d4eeca15c120c1aed8dba0a30e72133d2eb9b9a999896936001938360029810610f8157505050811b019055610ed6565b83850151865594850194938c0193908c0190611d06565b611d9490858d528a8d20601f860160051c8101918c8710610ffe57601f0160051c0190613ca0565b5f611c5a565b517fd92e233d000000000000000000000000000000000000000000000000000000008152fd5b5090346103d757816003193601126103d75760209051678ac7230489e800008152f35b5090346103d757806003193601126103d757823560243593611e03613f4c565b60648211611e835760648511611e4d57507f5c6323bf1c2d7aaea2c091a4751c1c87af7f2864650c336507a77d0557af37a1929381600b5580600c5582519182526020820152a180f35b604490858451917ff05eb60800000000000000000000000000000000000000000000000000000000835282015260646024820152fd5b9060449251917ff05eb60800000000000000000000000000000000000000000000000000000000835282015260646024820152fd5b5090346103d757816003193601126103d75760209073ffffffffffffffffffffffffffffffffffffffff600d54169051908152f35b5090346103d757816003193601126103d75760209060ff6001541690519015158152f35b5090346103d757816003193601126103d757602090516202a3008152f35b5091346105a757826003193601126105a757611f49613f4c565b6018549160ff8360081c16611fab57836101007fffffffffffffffffffffffffffffffffffffffffffffffffffffffffffff00ff851617601855337ff1c3c44a49dcc92d128ae3c914458c31c3eef33413f4767d42227752c77af7908280a280f35b90602060649251917f08c379a0000000000000000000000000000000000000000000000000000000008352820152601860248201527f446546694875623a20616c726561647920656e61626c656400000000000000006044820152fd5b5090346103d757806003193601126103d757602090612036612028613a48565b612030613a6b565b90614354565b9051908152f35b5091346105a757816003193601126105a757612057613a48565b9160243591612064613f4c565b73ffffffffffffffffffffffffffffffffffffffff80941693807f000000000000000000000000000000000000000000000000000000000000000016851490811561212a575b508015612115575b6120e7575081602091610eed7f68f67de89e96b13a3ea058af5fd44cc125efceb528482d539c7b43db2faa066e943387614776565b8360249251917f8657cb48000000000000000000000000000000000000000000000000000000008352820152fd5b50838552601360205260ff82862054166120b2565b90507f00000000000000000000000000000000000000000000000000000000000000001684145f6120aa565b5091346105a757816003193601126105a757612170613a48565b916024359161217d614125565b61218561415e565b60ff60185460081c16156123645782156106025773ffffffffffffffffffffffffffffffffffffffff938460165416918215801561234e575b61231f57338752600f60205283872095821695865f52602052835f209260ff600285015416156116315783548681106115fc575090879160018501546122c9575b803b156105a75785517f69328dec00000000000000000000000000000000000000000000000000000000815273ffffffffffffffffffffffffffffffffffffffff851692810192835260208301889052336040840152918391839182908490829060600103925af180156115f2576122b5575b5050816115a0856122839454613dad565b519081527f7bc86cc18390740e1e8b686f7cf7e82a4e1c00daa99f94d66180b8c4cca09e5260203392a3600160025580f35b6122be90613b43565b6115ee57855f612272565b9091506122d68333614354565b601254908181106122eb5750509087916121ff565b86517f7e7222b700000000000000000000000000000000000000000000000000000000815293840152602483015250604490fd5b602490838551917f616d1329000000000000000000000000000000000000000000000000000000008352820152fd5b50828752601760205260ff8488205416156121be565b90517fd6b23e0a000000000000000000000000000000000000000000000000000000008152fd5b5091346105a757826003193601126105a7577fbf233dd2aafeb4d50879c4aa5c81e96d92f6e6945c906a58f9f2d1c1631b4b26805f525f602052825f20335f5260205260ff835f205416156124f957506018549060ff19918460ff808316151691828582161760185516175f1461246d57507fb8a34678623c94d0d3977ce6d4db867e7e96ffd365f2c0f677563f8dddd4c84091600160209261242c61415e565b815416176001557f62e78cea01bee320cd4e420270b5ea74000d11b0c9f74754ebdbfc544b05a258828251338152a15b60ff6018541690519015158152a180f35b6001549060ff8216156124d25750916020917fb8a34678623c94d0d3977ce6d4db867e7e96ffd365f2c0f677563f8dddd4c84093166001557f5db9ee0a495bf2e6ff9c91a7834c1ba4fdd244a5e8aa4e537bd38aeae4b073aa828251338152a161245c565b83517f8dfc202b000000000000000000000000000000000000000000000000000000008152fd5b60449251917fe2517d3f00000000000000000000000000000000000000000000000000000000835233908301526024820152fd5b5090346103d757816003193601126103d75760209073ffffffffffffffffffffffffffffffffffffffff601654169051908152f35b5091346105a757826003193601126105a75761257c613fde565b60ff60185416612614576001549060ff8216156125ed57507f5db9ee0a495bf2e6ff9c91a7834c1ba4fdd244a5e8aa4e537bd38aeae4b073aa9160ff196020921660015551338152a1337f2d553fb579456929d17c4cf0dc43b2f2e8e5a8f917cadcc8a5f18e9c4010b75a8280a280f35b82517f8dfc202b000000000000000000000000000000000000000000000000000000008152fd5b602060649251917f08c379a0000000000000000000000000000000000000000000000000000000008352820152601e60248201527f446546694875623a20656d657267656e6379206d6f64652061637469766500006044820152fd5b5034610987578060031936011261098757612689614125565b61269161415e565b612699613ebe565b600160025580f35b5090346103d757806003193601126103d7576126bb613a6b565b903373ffffffffffffffffffffffffffffffffffffffff8316036126e5575061068091923561490f565b8390517f6697b232000000000000000000000000000000000000000000000000000000008152fd5b5090346103d757816003193601126103d75760209051670e92596fd62900008152f35b5090346103d75760206003193601126103d757602090612036612751613a48565b613e61565b5090346103d757816003193601126103d757602090600b549051908152f35b5090346103d757816003193601126103d75760209051600a8152f35b509190346105a757806003193601126105a75761068091356127b6600161066a613a6b565b6147d8565b5090346103d75760206003193601126103d7578235906127d9614125565b6127e161415e565b8115612903573383526003602052808320938454948386106128ce57907f7fc4727e062e336010f2c282598ef5f14facb3de68cf8195c2f23e1454b2b74e929161282961405a565b61283233614689565b9161283d8333614708565b612848868354613dad565b8255612855868254613dad565b90558054906001670de0b6b3a764000061287160065485613cb6565b04910155156128bb575b6128a684337f0000000000000000000000000000000000000000000000000000000000000000614776565b815193845260208401523392a2600160025580f35b6128c6600554613e36565b60055561287b565b50828560449351927fcf4791810000000000000000000000000000000000000000000000000000000084528301526024820152fd5b8390517f1f2a2005000000000000000000000000000000000000000000000000000000008152fd5b509190346105a75761293c36613a8e565b92612948929192614125565b61295061415e565b60ff60185460081c1615612d7d577f5e17fc5225d4a099df75359ce1f405503ca79498a8dc46a7d583235a0ee45c1691825f526020925f8452825f20335f52845260ff835f20541615612d4757508415612d1f5773ffffffffffffffffffffffffffffffffffffffff95866016541680158015612d0a575b612cdb575086821694858952600f85528389209780821698895f528652845f209360ff60028601541615612cb357612a008382614354565b601254811015612c84575060018501948554808b11612c4f5750612a268a30338e614194565b612a358a84601654168d614210565b8b8360165416803b156103d75788517f22867d7800000000000000000000000000000000000000000000000000000000815273ffffffffffffffffffffffffffffffffffffffff8716818901908152602081018e90529091839183919082908490829060400103925af18015612c4557612c2d575b5050670e92596fd62900008a027ffffffffffffffffffffffffffffffffffffffffffffffffff16da69029d700008b820401612c015790670de0b6b3a76400008d969594939204968154908c828a11612bf7575b89612b23959383612b15612b1c948b989654613dad565b9055613dad565b90556144f6565b6016541691823b156108a45785517f69328dec00000000000000000000000000000000000000000000000000000000815273ffffffffffffffffffffffffffffffffffffffff909216908201908152602081018590523360408201529091839183919082908490829060600103925af18015612bed57612bd5575b50507fd1ef587d13fefe63f9bc582e973aad46877ef08cfe790838721bd521c53caf569282519586528501523393a4600160025580f35b612bde90613b43565b612be957865f612b9e565b8680fd5b84513d84823e3d90fd5b9198508891612afe565b60248d6011887f4e487b7100000000000000000000000000000000000000000000000000000000835252fd5b612c3690613b43565b612c41578b5f612aaa565b8b80fd5b89513d84823e3d90fd5b858b6044928a51927fcf4791810000000000000000000000000000000000000000000000000000000084528301526024820152fd5b846024918851917fa0b78060000000000000000000000000000000000000000000000000000000008352820152fd5b8386517f33cbf2bc000000000000000000000000000000000000000000000000000000008152fd5b602492508351917f616d1329000000000000000000000000000000000000000000000000000000008352820152fd5b508089526017855260ff848a205416156129c8565b8582517f1f2a2005000000000000000000000000000000000000000000000000000000008152fd5b866044918451917fe2517d3f00000000000000000000000000000000000000000000000000000000835233908301526024820152fd5b8490517fd6b23e0a000000000000000000000000000000000000000000000000000000008152fd5b5090346103d757816003193601126103d757602090517f55435dd261a4b9b3364963f7738a7a662ad9c84396d64be3365284bb7f0a50418152f35b5091346105a75760206003193601126105a757816020936001923581528085522001549051908152f35b5091346105a757816003193601126105a757612e24613a48565b9160243591612e31614125565b612e3961415e565b60ff60185460081c16156123645782156106025773ffffffffffffffffffffffffffffffffffffffff93846016541680158015613032575b6130035750338652600f6020528286209480821695865f52602052835f2060ff60028201541615612fdb57600101612eaa868254613dba565b90818155612eb88433614354565b916012548310612f9657505050908692916016541691823b156108a45784517f6c665a5500000000000000000000000000000000000000000000000000000000815273ffffffffffffffffffffffffffffffffffffffff909216908201908152602081018690523360408201529091839183919082908490829060600103925af18015612f8c57612f78575b5050519081527ff8197fed87b889fec022d38b2c79f89c3a375290ebe9a84eb3b4610572973a9e60203392a3600160025580f35b612f8190613b43565b6108a457835f612f44565b83513d84823e3d90fd5b6044928692612fa68a8a94613dad565b90556012549151927f7e7222b70000000000000000000000000000000000000000000000000000000084528301526024820152fd5b8385517f33cbf2bc000000000000000000000000000000000000000000000000000000008152fd5b905060249251917f616d1329000000000000000000000000000000000000000000000000000000008352820152fd5b50808752601760205260ff848820541615612e71565b50903461138c578060031936011261138c57613062613a48565b906024359061306f614125565b61307761415e565b60ff60185460081c1615612d7d5773ffffffffffffffffffffffffffffffffffffffff908184169384156133ca5783156133a25782601654168015801561338c575b61335d5750335f5260209260118452600a835f2054101561332d576130ee6127106130e6600c5488613cb6565b048096613dad565b946130ff8183600d5416338a614194565b865f52600e8552613114845f20918254613dba565b905561312285303389614194565b61313185826016541688614210565b60165416803b1561138c5782517f47e7ef2400000000000000000000000000000000000000000000000000000000815273ffffffffffffffffffffffffffffffffffffffff8316818a019081526020810187905290915f9183919082908490829060400103925af1801561332357613310575b50338652600f8352818620855f528352815f209060028201805460ff811615613235575b50505083949596506131fc7f0cf7423b12789bbd9b8ad4f507e2c164ac637ec8fc0e97c7647377afcc393e31948254613dba565b905584865260138252808620805460ff811615613225575b5050519283523392a3600160025580f35b60ff191660011790555f80613214565b60ff1960019116179055338752601184528287206132538154613dc7565b905533875260108452828720805490680100000000000000008210156132e4577f0cf7423b12789bbd9b8ad4f507e2c164ac637ec8fc0e97c7647377afcc393e319697989950816132ad9160016132d99594018155613df4565b90919073ffffffffffffffffffffffffffffffffffffffff8084549260031b9316831b921b1916179055565b869594935f806131c8565b60248960418c7f4e487b7100000000000000000000000000000000000000000000000000000000835252fd5b61331b919650613b43565b5f945f6131a4565b83513d5f823e3d90fd5b602488600a8551917f92db4b19000000000000000000000000000000000000000000000000000000008352820152fd5b876024918451917f616d1329000000000000000000000000000000000000000000000000000000008352820152fd5b50805f52601760205260ff835f205416156130b9565b8682517f1f2a2005000000000000000000000000000000000000000000000000000000008152fd5b8682517fd92e233d000000000000000000000000000000000000000000000000000000008152fd5b823461138c575f60031936011261138c57602090517fbf233dd2aafeb4d50879c4aa5c81e96d92f6e6945c906a58f9f2d1c1631b4b268152f35b823461138c576020908160031936011261138c5773ffffffffffffffffffffffffffffffffffffffff918261345f613a48565b165f5260108152815f209082518082845491828152019081945f52835f20905f5b8181106134cd5750505081613496910382613bbc565b8351938285019183865251809252840192915f5b8281106134b75785850386f35b83518716855293810193928101926001016134aa565b8254891684529285019260019283019201613480565b823461138c575f60031936011261138c57602090517f5e17fc5225d4a099df75359ce1f405503ca79498a8dc46a7d583235a0ee45c168152f35b823461138c57602060031936011261138c5760209073ffffffffffffffffffffffffffffffffffffffff61354f613a48565b165f526013825260ff815f20541690519015158152f35b82843461138c57602060031936011261138c57613581613a48565b613589613f4c565b7f13cc959b0000000000000000000000000000000000000000000000000000000092835f526019602052805f2060ff6002820154161580156136c4575b61369c5760016135d69101613bfd565b60208180518101031261138c5760206135ef9101613d55565b73ffffffffffffffffffffffffffffffffffffffff9283169390831684900361087d575061362690845f5260196020525f20613cf6565b600d54827fffffffffffffffffffffffff0000000000000000000000000000000000000000821617600d55167f4ab5be82436d353e61ca18726e984e561f5c1cc7c6d38b29d2553c790434705a5f80a37f756709f78b5e265dd9b23132e66f51535311131e8da3faf7c11677a7c451d04e5f80a2005b8382517fa3fef2f8000000000000000000000000000000000000000000000000000000008152fd5b50805442106135c6565b50503461138c576020908160031936011261138c578235916136ee613f4c565b7f12a7f86a0000000000000000000000000000000000000000000000000000000092835f5260198252825f2060ff600282015416158015613815575b6137ed57600161373a9101613bfd565b828180518101031261138c578282910151036137c557837fc390a98ace15a7bb6bab611eedfdbb2685043b241a869420043cdfb23ccfee509495505f5260198252613786835f20613cf6565b61378e61405a565b60095491816009558351928352820152a17f756709f78b5e265dd9b23132e66f51535311131e8da3faf7c11677a7c451d04e5f80a2005b8483517fa3fef2f8000000000000000000000000000000000000000000000000000000008152fd5b8584517fa3fef2f8000000000000000000000000000000000000000000000000000000008152fd5b508054421061372a565b823461138c578060031936011261138c5760609061383b613a48565b613843613a6b565b9073ffffffffffffffffffffffffffffffffffffffff8091165f52600f602052825f2091165f52602052805f209081549160ff60026001830154920154169082519384526020840152151590820152f35b823461138c57602060031936011261138c5760209073ffffffffffffffffffffffffffffffffffffffff6138c6613a48565b165f5260118252805f20549051908152f35b823461138c575f60031936011261138c5760209060ff6018541690519015158152f35b82843461138c57602060031936011261138c57357fffffffff00000000000000000000000000000000000000000000000000000000811680910361138c575f526019602052805f2060ff6002825492015416825191825215156020820152f35b823461138c575f60031936011261138c576020905173ffffffffffffffffffffffffffffffffffffffff7f0000000000000000000000000000000000000000000000000000000000000000168152f35b843461138c57602060031936011261138c5735907fffffffff00000000000000000000000000000000000000000000000000000000821680920361138c57817f7965db0b0000000000000000000000000000000000000000000000000000000060209314908115613a1e575b5015158152f35b7f01ffc9a70000000000000000000000000000000000000000000000000000000091501483613a17565b6004359073ffffffffffffffffffffffffffffffffffffffff8216820361138c57565b6024359073ffffffffffffffffffffffffffffffffffffffff8216820361138c57565b600319606091011261138c5773ffffffffffffffffffffffffffffffffffffffff90600435828116810361138c5791602435908116810361138c579060443590565b3461138c575f60031936011261138c576020604051670de0b6b3a76400008152f35b90600182811c92168015613b39575b6020831014613b0c57565b7f4e487b71000000000000000000000000000000000000000000000000000000005f52602260045260245ffd5b91607f1691613b01565b67ffffffffffffffff8111613b5757604052565b7f4e487b71000000000000000000000000000000000000000000000000000000005f52604160045260245ffd5b6060810190811067ffffffffffffffff821117613b5757604052565b6040810190811067ffffffffffffffff821117613b5757604052565b90601f7fffffffffffffffffffffffffffffffffffffffffffffffffffffffffffffffe0910116810190811067ffffffffffffffff821117613b5757604052565b9060405191825f8254613c0f81613af2565b908184526020946001916001811690815f14613c7d5750600114613c3f575b505050613c3d92500383613bbc565b565b5f90815285812095935091905b818310613c65575050613c3d93508201015f8080613c2e565b85548884018501529485019487945091830191613c4c565b915050613c3d95935060ff1991501682840152151560051b8201015f8080613c2e565b818110613cab575050565b5f8155600101613ca0565b81810292918115918404141715613cc957565b7f4e487b71000000000000000000000000000000000000000000000000000000005f52601160045260245ffd5b60025f9182815560018101613d0b8154613af2565b9081613d18575b50500155565b81601f869311600114613d2f5750555b5f80613d12565b908083918252613d4e601f60208420940160051c840160018501613ca0565b5555613d28565b519073ffffffffffffffffffffffffffffffffffffffff8216820361138c57565b8115613d80570490565b7f4e487b71000000000000000000000000000000000000000000000000000000005f52601260045260245ffd5b91908203918211613cc957565b91908201809211613cc957565b7fffffffffffffffffffffffffffffffffffffffffffffffffffffffffffffffff8114613cc95760010190565b8054821015613e09575f5260205f2001905f90565b7f4e487b71000000000000000000000000000000000000000000000000000000005f52603260045260245ffd5b8015613cc9577fffffffffffffffffffffffffffffffffffffffffffffffffffffffffffffffff0190565b73ffffffffffffffffffffffffffffffffffffffff165f52600360205260405f208054908115613eb8576001670de0b6b3a7640000613eab613eb594613ea561485c565b90613cb6565b0491015490613dad565b90565b50505f90565b335f52600360205260405f205415613f2257613ed861405a565b613ee133614689565b8015613f1f57613ef18133614708565b6040519081527ffc30cddea38e2bf4d6ea7d3f9ed3b6ad7f176419f4963bd81318067a4aee73fe60203392a2565b50565b60046040517f59be8f02000000000000000000000000000000000000000000000000000000008152fd5b335f9081527f7d7ffb7a348e1c6a02869081a26547b49160dd3df72d1d75a570eb9b698292ec60205260409020547fa49807205ce4d355092ef5a8a18f56e8913cf4a201fbe287825b095693c217759060ff1615613fa75750565b604490604051907fe2517d3f0000000000000000000000000000000000000000000000000000000082523360048301526024820152fd5b335f9081527f8a40f0b47fdc2a0ce293b772acfc7508c8315a4d462786c1adc3a56f92ca2d0560205260409020547f55435dd261a4b9b3364963f7738a7a662ad9c84396d64be3365284bb7f0a50419060ff1615613fa75750565b805f525f60205260405f20335f5260205260ff60405f20541615613fa75750565b600454801561411e5761406f60075442613dad565b801561411a5761409569124bc0ddd92e560000009161409060095485613cb6565b613cb6565b046008546a52b7d2dcc80cd2e4000000908082115f14614112578103908111613cc9575b80821161410a575b50801580156140d4575b50505042600755565b670de0b6b3a7640000808302928304141715613cc9576140ff916140f791613d76565b600654613dba565b6006555f80806140cb565b90505f6140c1565b50505f6140b9565b5050565b5042600755565b60028054146141345760028055565b60046040517f3ee5aeb5000000000000000000000000000000000000000000000000000000008152fd5b60ff6001541661416a57565b60046040517fd93c0665000000000000000000000000000000000000000000000000000000008152fd5b9290604051927f23b872dd00000000000000000000000000000000000000000000000000000000602085015273ffffffffffffffffffffffffffffffffffffffff809216602485015216604483015260648201526064815260a081019181831067ffffffffffffffff841117613b5757613c3d9260405261498f565b6040519160205f81850161429f866142737f095ea7b300000000000000000000000000000000000000000000000000000000998a855287602484016020909392919373ffffffffffffffffffffffffffffffffffffffff60408201951681520152565b037fffffffffffffffffffffffffffffffffffffffffffffffffffffffffffffffe08101885287613bbc565b85519082865af15f513d82614322575b5050156142bd575b50505050565b73ffffffffffffffffffffffffffffffffffffffff906040519460208601521660248401525f6044840152604483526080830183811067ffffffffffffffff821117613b575761431993614314916040528261498f565b61498f565b5f8080806142b7565b90915061434c575073ffffffffffffffffffffffffffffffffffffffff82163b15155b5f806142af565b600114614345565b9073ffffffffffffffffffffffffffffffffffffffff8092165f52600f602052604082815f20921691825f52602052805f2060018101549384156144cd576014602052825f2054169283156144a457829060248251809681937f41976e0900000000000000000000000000000000000000000000000000000000835260048301525afa92831561449a575f925f94614457575b5050670de0b6b3a76400009283830292808404851490151715613cc95760ff16604d8111613cc95761442c614424614433948693600a0a90613d76565b809354613cb6565b0493613cb6565b04670bcbce7f1b15000091828102928184041490151715613cc957613eb591613d76565b809294508193503d8311614493575b6144708183613bbc565b8101031261138c57602081519101519060ff8216820361138c5790915f806143e7565b503d614466565b82513d5f823e3d90fd5b600483517ff8794e04000000000000000000000000000000000000000000000000000000008152fd5b50505050507fffffffffffffffffffffffffffffffffffffffffffffffffffffffffffffffff90565b73ffffffffffffffffffffffffffffffffffffffff80911691825f52600f6020528160405f20911690815f5260205260405f208054158061467d575b61453c5750505050565b60020160ff198154169055825f52601192601160205260405f206145608154613e36565b90555f52601060205260405f20908154935f5b858110614582575b50506142b7565b848361458e8387613df4565b929054600393841b1c16146145a65750600101614573565b959394937fffffffffffffffffffffffffffffffffffffffffffffffffffffffffffffffff935090918382019182116146525750906132ad846145ec6145fa9488613df4565b905490891b1c169186613df4565b8254801561462557019261460e8484613df4565b81939154921b1b19169055555f808080808061457b565b7f4e487b71000000000000000000000000000000000000000000000000000000005f52603160045260245ffd5b7f4e487b71000000000000000000000000000000000000000000000000000000005f5260045260245ffd5b50600181015415614532565b9073ffffffffffffffffffffffffffffffffffffffff5f92165f52600360205260405f208054806146d3575b670de0b6b3a76400006146cd60019260065490613cb6565b04910155565b92506001670de0b6b3a76400006146cd6146fe826146f360065489613cb6565b048486015490613dad565b95925050506146b5565b90801561411a57613c3d9161471f82600854613dba565b60085573ffffffffffffffffffffffffffffffffffffffff81165f526003602052600260405f2001614752838254613dba565b90557f00000000000000000000000000000000000000000000000000000000000000005b6040517fa9059cbb00000000000000000000000000000000000000000000000000000000602082015273ffffffffffffffffffffffffffffffffffffffff929092166024830152604480830193909352918152613c3d91614314606483613bbc565b90815f525f60205273ffffffffffffffffffffffffffffffffffffffff60405f20911690815f5260205260ff60405f205416155f14613eb857815f525f60205260405f20815f5260205260405f20600160ff1982541617905533917f2f8788117e7eff1d82e926ec794901d17c78024a50270940304540a733656f0d5f80a4600190565b60045480156149085761487160075442613dad565b80156149005761489269124bc0ddd92e560000009161409060095485613cb6565b046008546a52b7d2dcc80cd2e4000000908082115f146148f8578103908111613cc9575b8082116148f0575b5060065490670de0b6b3a764000090818102918183041490151715613cc957613eb5926148ea91613d76565b90613dba565b90505f6148be565b50505f6148b6565b505060065490565b5060065490565b90815f525f60205273ffffffffffffffffffffffffffffffffffffffff60405f20911690815f5260205260ff60405f2054165f14613eb857815f525f60205260405f20815f5260205260405f2060ff19815416905533917ff6391f5c32d9c69d2a47ea670b442974b53935d1edc7fd64eb21e047a839171b5f80a4600190565b905f602091828151910182855af115614a1b575f513d614a12575073ffffffffffffffffffffffffffffffffffffffff81163b155b6149cb5750565b60249073ffffffffffffffffffffffffffffffffffffffff604051917f5274afe7000000000000000000000000000000000000000000000000000000008352166004820152fd5b600114156149c4565b6040513d5f823e3d90fdfea164736f6c6343000818000a2f8788117e7eff1d82e926ec794901d17c78024a50270940304540a733656f0dad3228b676f7d3cd4284a5443f17f1962b36e491b30a40b2405849e597ba5fb5","linkReferences":{}},"methodIdentifiers":{"ABS_MIN_HEALTH_FACTOR()":"c936db1d","ADMIN_ROLE()":"75b238fc","DEFAULT_ADMIN_ROLE()":"a217fddf","EMERGENCY_ROLE()":"20df4359","GUARDIAN_ROLE()":"24ea54f4","LIQUIDATION_BONUS()":"3574d4c4","LIQUIDATION_THRESHOLD()":"90a8ae9b","LIQUIDATOR_ROLE()":"16d8887a","MAX_FEE_BPS()":"d55be8c6","MAX_POSITIONS_PER_USER()":"2fcb3058","MAX_REWARD_RATE()":"718dc3c3","PRECISION()":"aaf5eb68","REWARD_TOKEN()":"99248ea7","SECONDS_PER_DAY()":"74f0314f","STAKING_TOKEN()":"0479d644","TIMELOCK_DELAY()":"5ba1c1a9","TOTAL_REWARD_CAP()":"d4f56a46","accRewardPerShare()":"939d6237","borrowFromLending(address,uint256)":"23630831","cancelTimelock(bytes4)":"c72bb963","claimRewards()":"372500ab","depositFeeBps()":"ab879827","depositToLending(address,uint256)":"225582ae","dexAdapter()":"91f03efd","emergencyMode()":"0905f560","emergencyUnstake()":"7589cf2f","enablePhase2()":"5a9b6d12","executeAdaptersUpdate(address,address)":"acd6182f","executeRewardRateUpdate(uint256)":"12a7f86a","executeTreasuryUpdate(address)":"13cc959b","getHealthFactor(address,address)":"57c89a7d","getLendingPosition(address,address)":"0fba9ef3","getRoleAdmin(bytes32)":"248a9ca3","getTimelockEntry(bytes4)":"049df22d","getUserActiveTokens(address)":"1cb01a78","getUserStakeInfo(address)":"c32d3ae2","grantRole(bytes32,address)":"2f2ff15d","guardianPause()":"d4593872","guardianUnpause()":"435720a3","hasRole(bytes32,address)":"91d14854","isAdapterWhitelisted(address)":"f6f38e7c","isLendingToken(address)":"14557494","lastRewardTime()":"9231cf74","lendingAdapter()":"49174834","liquidate(address,address,uint256)":"26c01303","minHealthFactor()":"e1b4264c","minStakeAmount()":"f1887684","paused()":"5c975abb","pendingRewards(address)":"31d7a262","phase2Enabled()":"dfab41f1","queueAdaptersUpdate(address,address)":"829e46bb","queueRewardRateUpdate(uint256)":"95a2b07c","queueTreasuryUpdate(address)":"7284823c","renounceRole(bytes32,address)":"36568abe","repayToLending(address,uint256)":"8a4e79f6","rescueTokens(address,uint256)":"57376198","revokeRole(bytes32,address)":"d547741f","rewardRate()":"7b0a47ee","setTokenOracle(address,address,uint256)":"dc79b2aa","stake(uint256)":"a694fc3a","supportsInterface(bytes4)":"01ffc9a7","swapFeeBps()":"2ffdaf89","swapTokens(address,address,uint256,uint256)":"8e18cdfc","toggleEmergencyMode()":"4c17b530","tokenOracles(address)":"bd492432","totalRewardsDistributed()":"ee172546","totalStaked()":"817b1cd2","totalStakersCount()":"ed21d269","treasury()":"61d027b3","treasuryBalances(address)":"7efa7481","unstake(uint256)":"2e17de78","updateFees(uint256,uint256)":"6db79437","updateMinHealthFactor(uint256)":"d3010428","updateMinStakeAmount(uint256)":"d8060cd5","userPositionCount(address)":"0918eb14","withdrawFromLending(address,uint256)":"554cbef6"},"id":91}